:020000040800F2
:1000000048050020ED010008732E0008D1240008E7
:10001000712E000845090008A736000800000000FE
:100020000000000000000000000000008B3100080C
:100030004709000800000000752E00088D310008F7
:10004000070200080702000807020008070200086C
:10005000070200080702000807020008070200085C
:10006000070200080702000807020008070200084C
:10007000070200080702000807020008070200083C
:10008000070200080000000007020008070200083D
:10009000070200080702000807020008070200081C
:1000A000070200080702000807020008070200080C
:1000B00007020008070200080702000807020008FC
:1000C00007020008070200080702000807020008EC
:1000D00007020008070200080702000807020008DC
:1000E00007020008070200080702000807020008CC
:1000F00007020008070200080702000800000000CD
:1001000000000000070200080000000007020008CD
:1001100007020008000000000702000807020008AC
:10012000070200080702000807020008070200088B
:10013000070200080000000000000000070200089D
:10014000070200080702000800000000000000008D
:10015000000000000000000000000000000000009F
:10016000000000000000000000000000070200087E
:10017000070200080000000000000000000000006E
:10018000000000000702000800000000000000005E
:10019000000000000000000000000000000000005F
:1001A000000000000000000007020008070200082D
:1001B000070200080702000807020008000000000C
:1001C000000000000702000800000000000000001E
:1001D0000702000807020008DFF80CD000F03CFA24
:1001E00000480047114000084805002006488047A5
:1001F00006480047FEE7FEE7FEE7FEE7FEE7FEE70C
:10020000FEE7FEE7FEE7FEE725320008D901000819
:10021000D2B201E000F8012B491EFBD27047002248
:10022000F6E710B513460A4604461946FFF7F0FFF5
:10023000204610BD00F0004230F000400AD0C10D51
:1002400001F56071C0F3160042EA0151C20840078F
:100250001143704700200146704730B50B460146F8
:1002600000202022012409E021FA02F59D4205D355
:1002700003FA02F5491B04FA02F52844151EA2F1FF
:100280000102F1DC30BD2DE9F05F05460020924609
:100290009B4688460646814640241BE02846414648
:1002A0004746224600F0F9F953465A46C01A914192
:1002B00010D311461846224600F0E0F92D1A67EBDC
:1002C00001084F4622460120002100F0D7F917EB24
:1002D00000094E41201EA4F10104DFDC48463146EE
:1002E0002A464346BDE8F09F2DE9FE4F804681EA4D
:1002F0000300C00F0C46009021F0004123F00045A0
:10030000B8EB0200A94105D24046214690461C4662
:100310000B46024623F00040104347D0270DC7F399
:100320000A00C3F30A510290401A019040286BDA88
:10033000C3F3130040F4801B0098924620B10023C1
:10034000D2EB030A63EB0B0B01985946C0F1400254
:10035000504600F093F906460D4650465946019A1C
:1003600000F0ABF910EB08006141002487EA11525C
:1003700084EAE7731A4340D0009A62B3019A012AD3
:100380004FEA075215DC001B61EB02014FF00042FF
:1003900002EA0752CDE90042001C41F580113246C5
:1003A0002B4600F0ABF903B0BDE8F08F4046214684
:1003B000F9E7001B61EB0201001C41F580130018F6
:1003C0005B412018A2F5001747EB030140EAD57006
:1003D000B6196D4111E06D084FEA360645EAC07561
:1003E0004FEA0752001B61EB0201001C41F580112E
:1003F00049084FEA30000019514132462B4603B0FC
:10040000BDE8F04F00F06BB90098012240000023D6
:10041000D0EB020263EBE073009821464FEAE074F0
:10042000B8EB000061EB0401E9E783F000435BE710
:1004300081F0004158E72DE9FE4F81EA030404F002
:10044000004421F0004100944FF0000B23F00043E2
:1004500050EA01045ED052EA03045BD0C3F30A54AD
:10046000C1F30A552C44A4F2F3340194A0FB0254C6
:10047000C1F3130141F48011C3F3130343F4801358
:1004800001FB024400FB034E840A970A44EA8154AC
:1004900047EA8357A4FB076802958D0A05FB078589
:1004A0004FEA932C04FB0C542705029D4FEA065893
:1004B00047EA1637B5EB08056EEB070C870E920E70
:1004C00047EA811742EA8312A7FB0201B6EB0B0150
:1004D00064EB00042B0D43EA0C335E1844EB1C5014
:1004E000DA465146E7FB0201C5F313044FEA0B332A
:1004F00043EA14534FEA0432019C43EA0603A4F191
:100500000C040294009CCDE900B400F0F7F803B0AD
:10051000BDE8F08F00200146F9E72DE9F04D81EAB2
:10052000030404F0004B21F0004514464FF0000A8C
:1005300023F0004150EA050220D054EA01021DD008
:10054000C5F30A570246C5F31303C1F31300C1F301
:100550000A5640F4801543F48013A7EB0608101BDD
:10056000D64608F2FD3873EB050002D308F1010806
:1005700001E092185B41B8F1000F03DA0020014658
:10058000BDE8F08D00204FF48011064684460EE051
:10059000171B73EB050705D3121B63EB050306431B
:1005A0004CEA010C49084FEA300092185B4150EACE
:1005B0000107EDD152EA030012D082EA040083EA77
:1005C0000501084305D0101BAB4106D201220023D0
:1005D00006E000224FF0004302E06FF001025310EA
:1005E0001AEB06004CEB085110EB0A0041EB0B0133
:1005F000BDE8F04D00F073B8C1F30A52C1F3130126
:1006000040F2FF3341F480119A4202DA00200146A1
:10061000704740F233439A42A2F2334202DC524224
:1006200000F03BB800F02AB830B5041E71F10004A8
:1006300004DB4FF00044404264EB0101141E73F1EF
:10064000000405DB1C464FF00043524263EB0403F9
:10065000994208BF904230BD064C074D06E0E06865
:1006600040F0010394E8070098471034AC42F6D3F9
:10067000FFF7B6FD6053000880530008202A04DB12
:10068000203A00FA02F1002070479140C2F12003A5
:1006900020FA03F3194390407047202A04DB203AE4
:1006A00021FA02F00021704721FA02F3D040C2F192
:1006B00020029140084319467047202A06DBCB17D9
:1006C000203A41FA02F043EAE07306E041FA02F30D
:1006D000D040C2F12002914008431946704710B53E
:1006E000141E73F1000408DA401C41F10001921855
:1006F0005B411A4301D120F0010010BD2DE9F04DFE
:1007000092469B4611B1B1FA81F202E0B0FA80F252
:1007100020329046FFF7B2FF04460F4640EA0A0037
:1007200041EA0B0153465A46084313D0114653EA97
:10073000010019D0C8F140025046FFF7AEFF054650
:100740000E46504659464246FFF798FF084305D0EB
:10075000012004E020463946BDE8F08D0020054325
:1007600046EAE0762C4337430A986305E40AA0EB97
:1007700008000022FD0A44EA47540A3002D500204E
:100780000146E9E7010510196941DDE9084500194D
:100790006941BDE8F04DA2E72DE9F041044600278C
:1007A0000D46006802F0EAF90646206802F0E2F918
:1007B000304359D02068C1682C4E890105D5617F2E
:1007C000012902D1217F01290BD0022D1DD02068E3
:1007D00002F0D4F9B8B120688168C1F3400169B171
:1007E00011E00125224902E08F422ED27F1C0268CF
:1007F000D2435206F8D440210160E8E781683140D5
:1008000041F010018160012D11D0206802F0B2F991
:1008100048B120688168C1F3400121B98168314045
:1008200041F020018160022D08D0032D04D0042561
:1008300000F0EEFD064613E00C25F9E70825F7E782
:1008400000F0E6FD801B05280AD9E06D40F010009D
:10085000E065206E40F0010020660120BDE8F081D7
:10086000206880682842EBD10020F7E7C0FFFF7FB7
:10087000000040A370B50446006881688268C1F337
:10088000400112F0010F24D019BB816801F00D0165
:10089000012910D18168104A1140891C81602168AA
:1008A0000320086000F0B4FD05460EE000F0B0FD46
:1008B000401B022809D9E06D40F01000E065206E71
:1008C00040F001002066012070BD20688068C007EC
:1008D000ECD1002070BD0000C0FFFF7F70B5044662
:1008E0000068816811F0010F28D18168144A114213
:1008F00015D18168D5432940491C816000F088FDED
:10090000064616E0816811F0010F03D18168294085
:10091000491C816000F07CFD801B022809D9E06D34
:1009200040F01000E065206E40F0010020660120DC
:1009300070BD20680168C943C907E3D1002070BDBC
:100940003F000080FEE77047002240F6B83306E023
:100950000021491C89B29942FBD3521C92B28242B7
:10096000F6D37047704700002DE9F84F0027044682
:10097000009790F85800DFF8DC930D46B846012840
:1009800011D0012684F85860206802F0F7F860B1B1
:10099000E06D40F02000E0655FF0010784F85880CA
:1009A0003846BDE8F88F0220FBE7D5E900210C238B
:1009B000206803EA91131844036B01F01F014FF004
:1009C0001F0C0CFA01FCC2F3846223EA0C038A4078
:1009D00013430363206802F0D1F88246206802F0D6
:1009E000C9F85AEA00003CD1AA6829682068B2F127
:1009F000004F37D002F0CEF82068416921F0004165
:100A0000416120686969C268C2F3C1025200914025
:100A10002A69042A31D000EB82002B68026EDFF8CD
:100A200038C303F0F84302EA0C020B431A4342F0C6
:100A30000041016622682869A96902EB8000026E04
:100A400022F080720A430266297F20682A69012900
:100A500010D0002100EB8200026E22F000720A43E7
:100A600002667DE0002202F095F82068416941F0BD
:100A70000041C5E74FF00071ECE7002102F074F887
:100A8000400320684FF0000172D002F06DF890FA38
:100A9000A0F0B0FA80F1286842036ED090FAA0F07E
:100AA000B0FA80F0814204D100221146206802F0A1
:100AB00080F80121206802F057F8400320684FF0C9
:100AC00001015DD002F050F890FAA0F0B0FA80F188
:100AD0002868420359D090FAA0F0B0FA80F0814221
:100AE00004D100220121206802F063F8022120686D
:100AF00002F03AF8400320684FF0020148D002F0BB
:100B000033F890FAA0F0B0FA80F12868420344D09C
:100B100090FAA0F0B0FA80F0814204D100220221C4
:100B2000206802F046F80321206802F01DF8400317
:100B300020684FF0030133D002F016F890FAA0F0CD
:100B4000B0FA80F1286842032FD090FAA0F0B0FAF2
:100B500080F0814204D100220321206802F029F8AC
:100B60002068816811F0010F22D0ACE000E004E0C1
:100B700001F0FAFFC0F384618DE7C0F3846091E770
:100B800001F0F2FFC0F38461A2E7C0F38460A6E73E
:100B900001F0EAFFC0F38461B7E7C0F38460BBE70C
:100BA00001F0E2FFC0F38461CCE7C0F38460D0E7DA
:100BB0002A7B296850F8B03FC1F3120C23EA0C03DA
:100BC00002F0180C654A22FA0CF20A401343036043
:100BD000E968494577D1286841031CD090FAA0F113
:100BE000B1FA81F1491C01F01F0109294FEA403196
:100BF00032D8002912D000BF90FAA0F1B1FA81F1E9
:100C000001F1010101F01F0106FA01F609D100BF4F
:100C1000C0F3846109E0C0F38461E3E7C0F3846159
:100C2000EEE790FAA0F1B1FA81F101F1010101F0D2
:100C30001F0146EA816102D1C0F3846003E090FAAB
:100C4000A0F0B0FA80F000F1010000F01F0000EB0E
:100C5000400041EA005132E000290ED090FAA0F1A4
:100C6000B1FA81F101F1010101F01F0106FA01F66B
:100C700006D100BFC0F3846106E0C0F38461F1E7F0
:100C800090FAA0F1B1FA81F101F1010101F01F0127
:100C900046EA816102D1C0F3846003E090FAA0F0DB
:100CA000B0FA80F000F1010000F01F002C4A00EBC8
:100CB000400002EB005041EA000141F00071AA68D7
:100CC000206801F067FF27482A6802423FF466AEB9
:100CD00025488168254B01F0E0719A4202D0244BEF
:100CE0009A421BD10B0219D42268B2F1A04F7FF4B3
:100CF00055AE826841F4000122F0E0720A4382603E
:100D00001C481D490068B0FBF1F000EB400080007A
:100D100000E0401E00900028FBD13FE6174D184B25
:100D2000AA4207D1CD0105D422689A42F5D041F0FC
:100D3000807109E0134DAA42EFD14A02EDD4226836
:100D40009A42EAD041F48001826822F0E0720A43BC
:100D5000826023E600007F4000F0FF03FFFF0700F2
:100D6000000020FE0000088000030050000021C3A6
:100D70001000C09028000020400D0300000052C762
:100D800000010050000084CB0068006C7047000038
:100D9000F8B54FF0000504002E46009502D0E06D36
:100DA00010B107E00120F8BD204600F0EDF82666FE
:100DB00084F8586020688168C1F3407119B1816876
:100DC000694A1140816020688168C1F3007179B976
:100DD0008168664A114041F08051816064486549EC
:100DE0000068B0FBF1F000E0401E00900028FBD14D
:100DF00020688168C1F3007141B9E16D41F01001D3
:100E0000E165216E41F001012166012501F0B6FE88
:100E1000E16DC90600D430B1E06D40F01000E0652E
:100E200001252846F8BDE06D20F4807040F00200F6
:100E3000E0652068806810F0010F11D14FF0A040EC
:100E400080684D4900F00100896801F00101084304
:100E500006D14A486168826822F47C120A438260A3
:100E6000E168E06B627F0843A16841EA42310843D0
:100E700094F8241040EA0140012904D1218D404A10
:100E800002EB41410843E16A29B101F47871226B18
:100E9000014342EA01002168CA683A4B1A40024302
:100EA000CA6020680169626B21F0406111430161F1
:100EB000206801F063FE0646206801F05BFE3043C7
:100EC0002ED1207F94F83810800340EA4102206838
:100ED000C16844F2020399431143C16020690028AC
:100EE000206801690AD041F480310161206850F81E
:100EF000C01F22696FF30D01114307E021F4803117
:100F00000161206850F8C01F6FF30D01016094F873
:100F1000400001280CD02068016921F00101016125
:100F2000606901282068016B21F00F0111D013E0E6
:100F3000D4E911010843D4E913121143084321688D
:100F40000A6940F2FC739A43104340F001000861C3
:100F5000E6E7226A521E11430163E06D20F00200B1
:100F600040F00100E0655CE7C0FFFF5FC0FFFF7F6E
:100F700028000020400D0300000100500003005035
:100F80000000FEFF0740F0FF10B586B004461421B4
:100F90006846FFF744F91149206888421BD1104880
:100FA000C16C41F40051C164C16C01F40051059160
:100FB000C16C41F00201C164C06C694600F00200DE
:100FC00005904FF400400090032001900020029013
:100FD000044800F02FF906B010BD000000010050D9
:100FE00000100240000400482DE9F0410446394851
:100FF0000F46816801F01F05A16908290FD085B14E
:10100000052D0ED0092D0CD0806800F4604060B131
:10101000E06D40F02000E0650120BDE8F081082689
:1010200004E02068C068C007F1E7042600F0F0F98A
:10103000804608E0781C06D000F0EAF9A0EB080032
:10104000B8420FD877B1206800683042F2D0E06D26
:1010500040F40070E065206801F094FDD0B1607F3D
:1010600048B117E0E06D40F00400E065002084F82E
:1010700058000320D1E72068006800070AD5E06D1A
:1010800020F48070E065E06DC00403D4E06D40F0B2
:101090000100E065104A20684FF0A041904201D164
:1010A0000B4600E00346834210D07DB1052D0DD0E4
:1010B000092D0BD0904200D00146C968082E07D0F8
:1010C000490401D40C2101600020A6E7C168F5E7BE
:1010D0000821F8E700030050000100502DE9F0411D
:1010E00004463848806800F01F05206801F046FD7E
:1010F00018B102210846BDE8F08194F85800012893
:101100000CD0012084F858002046FFF7E7FB0100CF
:101110004FF0000304D084F85830EBE70220EAE7F0
:10112000E06D40F60162904340F48070E065264A2D
:1011300020684FF0A046904201D1374600E00746B4
:10114000874200D01DB9E76D27F48017E765E76D8A
:10115000FF0404D5276E27F00607276600E0236604
:101160001C27076084F858302068904201D133462C
:1011700000E00346834215D0A5B1052D12D0092DFC
:1011800010D0E36D43F48013E365904200D1304604
:10119000C0688001AED5E06D20F4005040F480506E
:1011A000E065A7E7C268920105D5E26D22F400521E
:1011B00042F48052E2658268044B1A40121D82603C
:1011C00098E700000003005000010050C0FFFF7FBF
:1011D00010B5044690F85800012808D0012084F882
:1011E000580003212046FFF7D7FA10B10BE0022088
:1011F00010BD2046FFF73EFB28B9E16D21F4885170
:1012000041F00101E165002184F8581010BD000093
:1012100070B5044600F0FCF80546601C02D0044896
:101220004068044400F0F4F8401BA042FAD370BDBB
:101230001C0000202DE9FC4FDFF8A0A100230125B0
:101240000AF1040B03244FF00F0C0BF1040EBDE068
:1012500005FA03F632406FD04F68012F05D0022FF8
:1012600003D0112F01D0122F17D1D0F808905F00B2
:1012700004FA07F829EA08090097D1F80C8008FA5F
:1012800007F848EA0908C0F808804768B7430E79AC
:10129000C6F300169E403E434660C6684FEA4308C8
:1012A00004FA08F7BE4301978F6807FA08F7374337
:1012B000C7604E68022E01D0122E13D1DE0800EB5B
:1012C00086060096366A5F07FF0E0CFA07F926EAD3
:1012D0000906D1F8109009FA07F949EA0609009EB3
:1012E000C6F820900668019FBE430F7907F00307F8
:1012F00007FA08F7374307604E68F60065D5384EA1
:10130000376E47F001073766366E23F0030706F0A5
:1013100001060096334E3E44B146B6689F074FEA39
:1013200017780CFA08F7BE43B0F1904F05D02E4F56
:10133000B84204D1012717E047E0002714E02B4F03
:10134000B84201D102270FE0294FB84201D103274B
:101350000AE0284FB84201D1042705E0264FB842E1
:1013600001D1052700E0062707FA08F73743C9F837
:101370000870DAF800605746D1F8048096435FEAB7
:10138000C83800D516433E60DBF800605F46D1F8F0
:10139000048096435FEA883800D516433E60DEF845
:1013A00000607746D1F8048096435FEAC82800D5EC
:1013B00016433E60094F0C373E68D1F804809643CF
:1013C0005FEA882800D516433E605B1C0A6832FA43
:1013D00003F67FF43DAFBDE8FC8F00000004014040
:1013E00000100240000001400004004800080048CE
:1013F000000C004800100048001400480069084034
:1014000000D0012070470AB1816170478162704746
:1014100001488068704700001C0000200248816875
:1014200042681144816070471C00002010B5002400
:10143000032000F069F8002000F008F808B101244A
:1014400001E000F025F8204610BD000070B50E4EFA
:1014500005460024706898B14FF47A71B1FBF0F042
:101460000A490968B1FBF0F000F02EFD40B9102DDB
:1014700006D200222946501E00F026F8356000E012
:101480000124204670BD00001C0000202800002020
:101490000B4808B5016E41F001010166016E01F0D3
:1014A00001010091816D41F080518165806D00F0F6
:1014B000805000900348816841F48041816008BDFC
:1014C0000010024000700040F0B40E4B1B680C4648
:1014D000C3F30223C3F10705042D00D90425191D08
:1014E000072901D2002300E0DB1E012606FA05F1E0
:1014F000491E214099409E40761E16403143F0BC63
:1015000002F0E6B80CED00E0064900F007020868BA
:101510004FF6FF03184040EA0220034A10430860D8
:10152000704700000CED00E00000FA052B492C4B41
:101530000A6832214A432B4940B1B0F5007F086860
:1015400029D020F4C06040F480602CE00868C0F32B
:101550004120022804D051F8800F20F4807022E04E
:10156000D1F8800020F48070C1F88000086820F471
:10157000C06040F400700860B2FBF3F0401C00E073
:10158000401E4A69520501D50028F9D14869400535
:101590000AD503207047C0F34120022806D051F835
:1015A000800F40F48070086000207047D1F8800000
:1015B00040F48070C1F88000086820F4C06040F4F6
:1015C00000700860B2FBF3F0401C00E0401E4A6966
:1015D0005205DBD50028F9D1D8E70000280000200B
:1015E00040420F00007000402DE9F84304460068B7
:1015F00000269D4D00035ED5A86D0027C00008D4CD
:10160000A86D40F08050A865A86D012700F08050BB
:101610000090DFF85892D9F8001041F48071C9F8B1
:101620000010FFF7F5FE804606E000BFFFF7F0FE72
:10163000A0EB080002282BD8D9F80000C005F5D58A
:10164000D5F8900010F4407014D0216C814211D074
:10165000D5F89000D5F8901020F4407041F4803116
:10166000C5F89010D5F8901021F48031C5F890108D
:10167000C5F89000C00711D0FFF7CAFE804641F2BE
:10168000883907E0FFF7C4FEA0EB0801494501D9FE
:1016900003260BE0D5F890008007F3D5D5F890002D
:1016A000216C20F440700843C5F890001FB1A86D6C
:1016B00020F08050A8652078C00707D0D5F88800B2
:1016C000616820F003000843C5F88800207880078F
:1016D00007D5D5F88800A16820F00C000843C5F8AC
:1016E00088002078400707D5D5F88800E16820F009
:1016F00030000843C5F888002078000707D5D5F8E2
:101700008800216920F0C0000843C5F888002078CF
:10171000800607D5D5F88800616920F44060084349
:10172000C5F888002078400607D5D5F88800A1695B
:1017300020F440500843C5F888002078000607D5FB
:10174000D5F88800E16920F440400843C5F88800D6
:101750002088C00507D5D5F88800216A20F44030DC
:101760000843C5F888002088800507D5D5F888008B
:10177000616A20F440200843C5F8880020884005AD
:101780000FD5D5F88800A16A20F440100843C5F8A9
:101790008800A06AB0F5801F03D1E86840F480108B
:1017A000E860208800050FD5D5F88800E16A20F4AC
:1017B00040000843C5F88800E06AB0F5800F03D107
:1017C000E86840F48010E8602088C0040FD5D5F8A0
:1017D0008800216B20F040700843C5F88800206B1A
:1017E000B0F1807F03D1E86840F48010E860208881
:1017F0004FF0006180040ED5D5F88800626B20F0B0
:1018000040601043C5F88800606B884203D1E868E7
:1018100040F48010E860208840040ED5D5F8880098
:10182000A26B20F040601043C5F88800A06B88428E
:1018300003D1E86840F48010E860208800040FD5E8
:10184000D5F88800E16B20F040500843C5F88800C7
:10185000E06BB0F1805F03D1E86840F48030E8606D
:101860003046BDE8F88300000010024000700040E0
:101870002DE9F0470E4605004FF0000725D0DFF8B0
:10188000AC81D8F8000000F00F00B0420CD2D8F8BC
:10189000001021F00F013143C8F80010D8F8000003
:1018A00000F00F00B04210D12968614CC80741F226
:1018B000883A5AD06868DFF87C91032808D002285B
:1018C00020682DD0400500282CDB0120BDE8F087E2
:1018D00020688001F9D5E06800F00302E068C0F3F9
:1018E0000310401C032A19D0534A00BFB2FBF0F08A
:1018F000E268C2F306225043E268C2F34162521C1E
:101900005200B0FBF2F0484517D9A06810F0F00F74
:101910000CD0880711D5A86840B10EE0474AE5E72A
:101920008003D0E700F092F8484506D9A06820F07F
:10193000F00040F08000A0608027A068696820F077
:1019400003000843A060FFF763FD814606E000BF87
:10195000FFF75EFDA0EB090151453AD8A068696820
:1019600000F00C00B0EB810FF2D12868810714D58C
:10197000400703D5A06840F4E060A0602878000725
:1019800005D5A06820F4605040F4E060A060A06835
:10199000A96820F0F000084304E0802F03D1A0687C
:1019A00020F0F000A060D8F80010404601F00F01D0
:1019B000B14216D9016821F00F0131430160FFF7F0
:1019C00027FD074607E000BFFFF722FDC11B514579
:1019D00001D903207AE7D8F8000000F00F00B042E8
:1019E000F2D12878400705D5A068E96820F4E060C6
:1019F0000843A0602878000706D5A068296920F46C
:101A0000605040EAC100A06000F020F8A1680C4AD4
:101A1000C1F30311515C01F01F01C840094908607E
:101A200009480068BDE8F047FFF710BD00200240FC
:101A30000010024000B4C4040024F40000366E011B
:101A400050530008280000201C000020184910B541
:101A50008868C0F381021748012A0BD08A68164BA8
:101A6000C2F38102022A06D08A68C2F38102032AE5
:101A700003D0002010BD184610BDCA6802F0030450
:101A8000CA68C2F30312521C032C02D0B0FBF2F05E
:101A900001E0B3FBF2F0CA68C968C2F30622504302
:101AA000C1F34161491C4900B0FBF1F010BD0000D9
:101AB000001002400024F40000366E012DE9F843C6
:101AC00004007AD02078FA4DC00747D0A868E968AA
:101AD00000F00C0001F003010C2802D0082817D0F8
:101AE00001E0032914D06068B0F5803F17D0B0F54D
:101AF000A02F286817D020F480302860286820F4B0
:101B0000802028606068E0B1FFF782FC064614E0A0
:101B10002868800322D560680028D2D01EE028689B
:101B200040F48030EDE740F480202860F7E700BF04
:101B3000FFF76EFC801B642870D828688003F7D5F7
:101B40000CE0FFF765FC064605E000BFFFF760FC10
:101B5000801B6428F0D828688003F7D42078800799
:101B60004CD5A868E96800F00C0001F003010C28CE
:101B700002D004280DD001E002290AD0E068002834
:101B800028682BD040F480702860FFF741FC06469F
:101B900019E02868400502D5E068002891D06868FF
:101BA000217C20F0FE4040EA01606860C148006886
:101BB000FFF74CFC002800D120E076E1FFF728FC7D
:101BC000801B0228B8D828684005F7D56868217CB2
:101BD00020F0FE4040EA016068600FE020F4807071
:101BE0002860FFF715FC064605E000BFFFF710FC74
:101BF000801B0228A0D828684005F7D42078000769
:101C000029D560690028D5F8940013D040F0010070
:101C1000C5F89400FFF7FCFB064606E090E000BF25
:101C2000FFF7F6FB801B022886D8D5F894008007C2
:101C3000F6D510E020F00100C5F89400FFF7E8FBAE
:101C4000064604E0FFF7E4FB801B022878D8D5F8AD
:101C500094008007F6D42078400761D5A86D00264F
:101C6000C00008D4A86D40F08050A865A86D01267A
:101C700000F08050009090480168C90511D40168B7
:101C8000804641F480710160FFF7C2FB074604E023
:101C9000FFF7BEFBC01B022852D8D8F80000C005D1
:101CA000F6D5A068012815D00528D5F8900016D0E3
:101CB00020F00100C5F89000D5F8900020F0040055
:101CC000C5F89000A06841F28838B8B1FFF7A0FBD2
:101CD00007460EE0D5F8900040F00100F0E740F034
:101CE0000400C5F89000F5E7FFF792FBC11B4145E2
:101CF00026D8D5F890008007F6D50CE0FFF788FBD2
:101D0000074604E0FFF784FBC11B414518D8D5F80E
:101D100090008007F6D41EB1A86D20F08050A86511
:101D20002078800629D5A0690028D5F8980013D01E
:101D300040F00100C5F89800FFF76AFB064606E090
:101D400077E000BFFFF764FB801B022877D8D5F847
:101D500098008007F6D510E020F00100C5F8980043
:101D6000FFF756FB064604E0FFF752FB801B0228F4
:101D700065D8D5F898008007F6D4E069F0B3A96873
:101D8000C1F38101032961D00228286820F0807006
:101D900028600BD0E86820F00300E860E868474955
:101DA0000840E860FFF734FB04464BE0FFF730FBE8
:101DB000064604E0FFF72CFB801B02283FD828686A
:101DC0008001F7D4F4E908016FF00F0202EB011172
:101DD0000843218A5204490802EB4151A26841EAB2
:101DE00002210843217D4FF07E42490802EB416108
:101DF0000843217B40EAC160E96800E062E0304AC4
:101E000011400843E860286840F080702860E86866
:101E100040F08070E860FFF7FBFA044605E000BF81
:101E2000FFF7F6FA001B022809D828688001F7D5C9
:101E300048E004E0FFF7ECFA001B022802D9032077
:101E4000BDE8F88328688001F4D43BE00128F7D08E
:101E5000E868226A00F00301914226D1616A00F02D
:101E6000F0020901103991421FD1A26A00F4FE412B
:101E7000B1EB022F19D194F82C2000F07841B1EB8E
:101E8000C26F12D1218E00F4C00249084905A1F5A4
:101E90000011914209D194F8341000F0C060490853
:101EA0004906A1F1007181420CD00120C8E7000071
:101EB000001002401C00002000700040FFFFEEFEFA
:101EC0000C809F010020BBE710B5401EB0F1807F61
:101ED00001D3012010BD4FF0E02460610F21601795
:101EE00001F0F6FB0020A06107202061002010BD5A
:101EF000F0B590F83C20012A4AD0012280F83C201D
:101F0000CA688B6822F440721A434B6822F48062DC
:101F10001A430B6822F400621A430B6922F48052C0
:101F20001A434B6922F400521A430B6B22F480428D
:101F30001A430B8B22F4702242EA0342154C0368C9
:101F40000026154DA34201D0AB4203D1CF6922F048
:101F500080523A43A34201D0AB4214D10F8D22F4F8
:101F6000700242EA07520F6A22F080723A434F6AC7
:101F700022F000723A43A34201D0AB4203D1C96AB6
:101F800022F000520A435A6480F83C600020F0BD01
:101F90000220F0BD002C014000340140F0B590F863
:101FA0003C20012A3AD0012580F83C50022280F8DA
:101FB0003D2003685A689C68194E1A4FB34201D0FD
:101FC000BB4204D122F4700C4A6842EA0C02DFF8EA
:101FD00058C002EA0C02D1F800C04CEA020CC3F867
:101FE00004C00268B2420DD0B2F1804F0AD00F4B4C
:101FF0009A4207D00E4B9A4204D0BA4202D00D4BFF
:102000009A4204D1896824F080031943916080F8D2
:102010003D50002180F83C100846F0BD0220F0BD84
:10202000002C0140003401408FFFFFFD0004004000
:10203000000800400040014010B5040003D094F8AF
:102040003D0010B107E0012010BD002084F83C00E5
:10205000204600F023F8022084F83D00211D20686E
:1020600001F0EEF8012084F8480084F83E0084F87E
:102070003F0084F8400084F8410084F8420084F86E
:10208000430084F8440084F8450084F8460084F84E
:10209000470084F83D00002010BD000008B50C4A40
:1020A00001680C48914207D1816D41F002018165C0
:1020B000806D00F0020009E0074A914207D1016EED
:1020C00041F480210166006E00F48020009008BD7C
:1020D00000040040001002400048014070B5044672
:1020E00090F83C00012815D0012584F83C500220CE
:1020F00084F83D0022689068354B184020F47F40FA
:1021000090600868B0F5805F50D010DC10F00F0FC1
:1021100003D04BE04FF0020070BD4FEA2012082AB6
:1021200044D2DFE802F05151515149323A1B294B58
:10213000C21A984248D00ADCB0F5005F19D0B0F15D
:10214000101F41D0A0F5801120392FD13CE0102A7A
:102150003AD0302A38D0402A28D135E0CB68D1E9AE
:102160000121206801F0D1F82068816841F07701F1
:1021700009E0CB68D1E90121206801F0C6F82068A8
:10218000816841F48041816010E0CA684968206834
:1021900001F066FA5021206806E0CA6849682068A4
:1021A00001F06FFA6021206801F0BAF884F83D5020
:1021B000002084F83C0070BDCA684968206801F0BE
:1021C0004FFA40212068EFE7226801461046EBE70E
:1021D00088FFCEFF3000100030B587B004461421D0
:1021E0006846FEF71CF82468164D002316490222A3
:1021F0004FF09040AC420ED1CC6C44F00104CC6462
:10220000C96C01F00101059140218DE80E00CDE976
:102210000332694611E00D4DAC4210D1CC6C44F054
:102220000104CC64C96C01F00101059180218DE8A5
:102230000E000121CDE903316946FEF7FBFF07B02F
:1022400030BD000000040040001002400048014082
:1022500070B5044690F83C000D4601280BD00120D3
:1022600084F83C000C2A45D007DC5AB1042A1BD064
:10227000082A78D12CE0022070BD102A4ED0142AF2
:1022800071D15DE0206801F055F82068816941F066
:10229000080181612068816921F004018161206861
:1022A00081692A69114311E0206801F091F82068E2
:1022B000816941F4006181612068816921F4806154
:1022C0008161206881692A6941EA022181614AE0CD
:1022D000206801F0C5F82068C16941F00801C161BA
:1022E0002068C16921F00401C1612068C1692A69BF
:1022F000114311E0206801F0FBF82068C16941F446
:102300000061C1612068C16921F48061C1612068F8
:10231000C1692A6941EA0221C16124E0206801F013
:102320002FF92068016D41F0080101652068016DF9
:1023300021F0040101652068016D2A69114311E053
:10234000206801F055F92068016D41F400610165D4
:102350002068016D21F4806101652068016D2A69A2
:1023600041EA02210165002084F83C0070BD10B5EF
:10237000040003D094F83D0010B107E0012010BD27
:10238000002084F83C00204600F022F8022084F867
:102390003D00211D206800F053FF012084F8480013
:1023A00084F83E0084F83F0084F8400084F841003F
:1023B00084F8420084F8430084F8440084F845001F
:1023C00084F8460084F8470084F83D00002010BDE2
:1023D0007047000010B50446022269B1042916D0E6
:1023E000082920D00C2929D010292ED094F8430098
:1023F000012831D0012010BD94F83E000128F9D108
:1024000084F83E202068C26842F0020209E094F895
:102410003F000128EED184F83F202068C26842F0D6
:102420000402C2601CE094F840000128E2D184F864
:1024300040202068C26842F00802F2E794F84100A8
:102440000128D7D184F8412008E094F842000128FF
:10245000D0D184F8422003E084F843200C2926D010
:102460000122206800F044FF1349206888420BD005
:102470001249884208D01249884205D01149884241
:1024800002D01149884203D1416C41F400414164BA
:10249000206881680D4A1140062906D0B1F5803FB9
:1024A00003D0016841F001010160002010BD2068E7
:1024B000C26842F01002B4E7002C01400034014031
:1024C0000040014000440140004801400700010075
:1024D000FEE700002DE9F047304C314D0126207811
:1024E0004FF09049D8B1032701282FD0022814D1EA
:1024F00001212846FEF782FFE8B302212846FEF7B5
:102500007DFFC0B304212846FEF778FF98B3012170
:102510004846FEF773FF70B32770BDE8F0870121CE
:102520002846FEF76BFF78B102212846FEF766FFCA
:1025300050B104212846FEF761FF28B10121484629
:10254000FEF75CFF0028E8D12670E6E70121A846E7
:102550002846FEF753FF022590B102214646404629
:10256000FEF74CFF70B104213046FEF747FF58B12B
:102570000121484600E00DE0FEF740FF30B107E0E2
:10258000A67005E0A57003E0A77001E00420A0702C
:102590002570C2E7A0880A30A080BEE700000020B6
:1025A0000004004800B585B014216846FDF737FEE9
:1025B0004FF6FF70009000200321CDE90201019049
:1025C00069460248FEF736FE05B000BD0008004827
:1025D00000B585B014216846FDF721FE4FF6FF7067
:1025E0000090012001900320039000200290694692
:1025F0000248FEF71FFE05B000BD000000080048BD
:1026000070B5002406462146204600F003F900F08C
:102610000FFA4FF49635304600F0DEF9641CAC42F8
:10262000F9D370BD30B587B014216846FDF7F7FDCA
:102630001E48C16C41F00401C164C16C01F0040189
:102640000591C16C41F00101C164C16C01F001014F
:102650000591C16C41F00201C164C06C012500F01C
:10266000020005904FF44870CDE900050024039462
:10267000694602940E48FEF7DDFD2802039400909F
:10268000CDE901544FF0904469462046FEF7D2FD53
:10269000FFF79EFFA06940F48070A06104481830E5
:1026A000016841F40871016007B030BD00100240BC
:1026B00000040048203AD2B2034B02EB420203EB83
:1026C000021200F019B8000080410008F0B50E4673
:1026D0000746002540F23F1407E021463846FFF741
:1026E000E9FF103C6D1CA4B2761C3278002A01D0A0
:1026F000142DF2D3F0BD00002DE9F04791468A4633
:102700000026044600F086F8DFF84080012700BF6D
:1027100000F08EF95FF0000539F8160007FA05F1B0
:102720000842404601D1408800E0008800F054F99A
:102730006D1C102DF0D3641CE4B25146204600F00D
:1027400069F8761C182EE3D3BDE8F087120000204C
:1027500010B5FFF767FF002000F014F8084CA080C8
:10276000A088A0F50241303906D000F00DFC002011
:1027700000F008F8A08010BD00F07DFBF7E7000036
:102780001200002070B51D490A6842F400720A6008
:102790000A6842F480720A60184C103C226842F0C9
:1027A00020022260164A1060086840F0200008608D
:1027B00000BF00BF00BF206840F0200020602068FC
:1027C00040F480702060FFF7EDFE4FF09041886A82
:1027D00040F48070886200BF00BF00BF0848001F3F
:1027E000006885B2886940F480708861FFF7F0FE68
:1027F000206840F400702060284670BD280400481E
:102800001408004801B5BDF800000149488008BD22
:102810001200002010B50C460146202000F036F9C9
:102820002146BDE81040212000F030B901B5BDF8C7
:1028300000000149088008BD1200002010B53F4C7F
:102840002DED028BE07800284FF0020035D000F02B
:102850005FF93BA10020FFF739FF3CA11820FFF7EB
:1028600035FF94ED020A9FED3F8A20EE080A10EE34
:10287000100AFDF7DFFC41EC100B3BA153EC102BD1
:102880003E4800F011FF3D493020FFF71FFF2FA108
:102890004820FFF71BFF94ED030A20EE080A10EE14
:1028A000100AFDF7C7FC41EC100B35A153EC102BBF
:1028B000324800F0F9FE314923E000F03FF935A13C
:1028C0000020FFF703FF21A11820FFF7FFFE01F012
:1028D0007DFB10EE100AFDF7ADFC41EC100B30A1B2
:1028E00053EC102B254800F0DFFE24493020FFF781
:1028F000EDFE16A14820FFF7E9FE607800281BD006
:102900002BA16020FFF7E2FE10A17820FFF7DEFE8A
:102910000EA19020FFF7DAFE0CA1A820FFF7D6FE4B
:102920000AA1C020FFF7D2FEBDEC028B07A1BDE8D3
:102930001040D820FFF7CABE22A1E2E70000002025
:1029400020202020202050617261000020202020C3
:102950002020202020202020202020202020202077
:10296000000000000000C842202020205041363ADC
:10297000252E306625252020000000002C00002098
:10298000202020205041373A252E30662525202052
:10299000202020002020202020204461746100009D
:1029A00020202020563A252E326656202020200056
:1029B000202020204D6F64653A4D414E5520202047
:1029C00020000000202020204D6F64653A415554BE
:1029D0004F20202020000000134A116841F40071AC
:1029E0001160114910390B6843F480730B600B6858
:1029F00043F020030B600D4B1860106840F020007E
:102A0000106000BF00BF00BF086840F020000860F1
:102A1000086840F48070086000BF00BF00BF08680D
:102A200040F400700860704728040048140800480B
:102A30001449086840F400700860086840F4807029
:102A4000086010481038026842F0200202600E4B05
:102A500022221A600A6842F020020A6000BF00BF0A
:102A600000BF016841F020010160016841F48071FC
:102A7000016000BF00BF00BF016841F40071016048
:102A8000704700002804004814080048184B10B58F
:102A90001A6842F400721A601A6842F480721A606E
:102AA000134A103A146844F020041460114C20605A
:102AB000186840F02000186000BF00BF00BF106819
:102AC00040F020001060106840F4807010602160B9
:102AD000186840F02000186000BF00BF00BF1068F9
:102AE00040F020001060106840F48070106010BD4D
:102AF000280400481408004803480168034A128863
:102B00001143016000F05EB814080048180000206E
:102B10004FF48071401E814006480288114389B2FB
:102B2000018005480268D2B2026002680A4302606E
:102B300000F048B818000020140800484FF48072D4
:102B4000401E824006480188914301800548026882
:102B5000D2B2026002680A43026000F033B800009B
:102B6000180000201408004800EB8100006E00F0FF
:102B7000F84070478068C0F3C00070478068C0F3B9
:102B800080007047C06810F4406F01D0002070478B
:102B900001207047042303EAD15310B51844436958
:102BA000C1F3045107248C40A3438A40134343617B
:102BB00010BD00EB8100016E21F000411143016660
:102BC0007047000010B5064C012204212046FEF794
:102BD0001AFC20460022BDE810400421FEF713BC79
:102BE000000C004830B589B020216846FDF717FB7E
:102BF000194818490024C0E900148460C460042501
:102C00000461C0E90545047744770121016280F839
:102C10002440C462046380F83840C46380F84040B4
:102C2000FEF7B6F808B1FDF79DFE0C4800900620AF
:102C30000190072002907F200594CDE903056946A5
:102C40000548FDF791FE002801D0FDF78BFE09B085
:102C500030BD000000010050400000200080F03E28
:102C6000F0B587B014216846FDF7D9FA2D48C16C3C
:102C700041F00401C164C16C01F004010591C16C13
:102C800041F02001C164C16C01F020010591C16CCB
:102C900041F00101C164C16C01F001010591C16CF9
:102CA00041F00201C164C16C01F002010591C16CE7
:102CB00041F00801C164C06C1B4E00F008004FF4E5
:102CC0007F440590012221463046FEF79CFB174FBA
:102CD000002204213846FEF796FB0125CDE9004588
:102CE00000240294694630460394FEF7A3FACDE926
:102CF000005469464FF090400294FEF79BFA07207B
:102D0000CDE9000469460A480294FEF793FA0420CC
:102D10000090CDE90154694638460394FEF78AFADB
:102D200007B0F0BD0010024000080048000C004849
:102D30000004004810B594B01C210DA8FDF76FFAEF
:102D400034216846FDF76BFA20481F4900240160D2
:102D50002721C0E9011440F2E731C0E903148021C2
:102D6000C0E90541FFF768F908B1FDF7FBFD174819
:102D7000FFF7FDFA08B1FDF7F5FD60200D90642026
:102D8000CDE90E0410941194129400220DA90F485D
:102D90001394FFF75DFA08B1FDF7E4FD00944FF4DA
:102DA0000050CDE9044001940294039406946946CE
:102DB00006480C94FFF79CF808B1FDF7D3FD0348D3
:102DC000FFF70AFA14B010BD00480140F8000020D7
:102DD00010B58EB000240794089409940A940B94BB
:102DE0000C941C2168460D94FDF719FA1F481E49E2
:102DF00001604F21C0E9011440F2E731C0E903143A
:102E000080218161FFF718F908B1FDF7ABFD4FF4A0
:102E10008050079007A91548FFF760F908B1FDF742
:102E2000A1FD1248FFF7A3FA08B1FDF79BFD0B9433
:102E30000BA90E480D94FFF7B1F808B1FDF792FD0C
:102E4000602000906420CDE9010400226946074813
:102E50000494FFF7FDF908B1FDF784FD0348FFF77F
:102E6000BBF90EB010BD000000040040AC00002013
:102E7000FEE77047704730B501210020FFF706FEDE
:102E80004FF47A70FDF760FD00210120FFF7FEFD91
:102E900041F290711020FFF7F9FD4FF41C516020B2
:102EA000FFF7F4FD01216120FFF7F0FD022146202C
:102EB000FFF7ECFD48F210011320FFF7E7FD48F2A1
:102EC000FE011220FFF7E2FD4FF4A0610220FFF7A0
:102ED000DDFD41F230010320FFF7D8FD40F203345D
:102EE00021463020FFF7D2FD21463120FFF7CEFDED
:102EF00021463220FFF7CAFDE51E29463320FFF7A1
:102F0000C5FD03213420FFF7C1FD21463520FFF721
:102F1000BDFD14213620FFF7B9FD21463720FFF70C
:102F2000B5FD21463820FFF7B1FD21463920FFF7D6
:102F3000ADFD29463A20FFF7A9FD03213B20FFF70D
:102F4000A5FD21463C20FFF7A1FD4FF4A0513D20F7
:102F5000FFF79CFD4FF400719220FFF797FD21468B
:102F60009320FFF793FD40F60D019020FFF78EFDB3
:102F700041F218010320FFF789FDBDE8304040F21F
:102F800073110720FFF782BD10B543F20801E3205B
:102F9000FFF77CFD1221E720FFF778FD41F2312198
:102FA000EF20FFF773FD00210120FFF76FFD4FF4C5
:102FB000E0610220FFF76AFD41F230010320FFF7D4
:102FC00065FD00210420FFF761FD40F20721082084
:102FD000FFF75CFD00210920FFF758FD00210A20C2
:102FE000FFF754FD00210C20FFF750FD00210D20BC
:102FF000FFF74CFD00210F20FFF748FD00211020B6
:10300000FFF744FD07211120FFF740FD00211220AA
:10301000FFF73CFD00211320FFF738FDC820FEF725
:10302000F7F841F290611020FFF730FD40F22721C0
:103030001120FFF72BFD3220FEF7EAF81D211220A8
:10304000FFF724FD3220FEF7E3F84FF40061132070
:10305000FFF71CFD14212920FFF718FD0B212B2061
:10306000FFF714FD3220FEF7D3F800212020FFF7F0
:103070000DFD00212120FFF709FD07213020FFF77A
:1030800005FD40F207713120FFF700FD06213220D7
:10309000FFF7FCFC40F204713520FFF7F7FC41F626
:1030A00004713620FFF7F2FC04213720FFF7EEFC15
:1030B00000213820FFF7EAFC40F206713920FFF7C3
:1030C000E5FC40F201713C20FFF7E0FC0F213D20C0
:1030D000FFF7DCFC00215020FFF7D8FCEF21512046
:1030E000FFF7D4FC00215220FFF7D0FC40F23F1143
:1030F0005320FFF7CBFC4FF41C516020FFF7C6FCB8
:1031000001216120FFF7C2FC00216A20FFF7BEFC0D
:1031100000218020FFF7BAFC00218120FFF7B6FCD8
:1031200000218220FFF7B2FC00218320FFF7AEFCD4
:1031300000218420FFF7AAFC00218520FFF7A6FCD0
:1031400010219020FFF7A2FC00219220FFF79EFCA7
:1031500003219320FFF79AFC4FF488719520FFF725
:1031600095FC00219720FFF791FC00219820FFF7A4
:103170008DFC41F218010320FFF788FCBDE81040E8
:1031800040F273110720FFF781BC704710B5FEF7BE
:1031900045F907480188491C89B201800A2905D1EF
:1031A00000210180BDE81040FFF794B910BD000078
:1031B0001000002010B5A4B038216846FDF72FF8A4
:1031C00014211FA8FDF72BF844210EA8FDF727F8BE
:1031D0004FF40070FEF7AAF901200090000401905E
:1031E00002200324CDE907041421CDE90A100C9034
:1031F0000D9009946846FEF761FC0F20CDE91F048D
:10320000002021902290239003211FA8FEF730FB7D
:103210004FF400400E9080031D900EA8FEF7E4F9D5
:1032200024B010BD0548016841F4700101600349F4
:103230004FF00060803908607047000088ED00E0C2
:103240002DE9F0430268234B234D244E244C4FF0CC
:103250008049984207D0484505D0A84203D0B042E3
:1032600001D0A04203D122F070074A683A431D4FB3
:10327000DFF874C0DFF8748098420DD048450BD059
:10328000A84209D0B04207D0A04205D0B84203D02E
:10329000604501D0404503D122F44075CA682A43F5
:1032A0004D6922F080022A4302608A68C2620A687D
:1032B0008262984207D0A04205D0B84203D0604550
:1032C00001D0404501D10969016301214161BDE897
:1032D000F0830000002C0140000400400008004082
:1032E00000340140004001400044014000480140DA
:1032F00010B501F01F030121046A99408C43046258
:10330000016A9A401143016210BD10B5846842EA17
:10331000032224F47F440A432243826010BD00004C
:103320008268034B1A400A4342F0070181607047EC
:103330008FFFCFFF2DE9F043026A22F00102026203
:10334000056A436882691C4C25F0020522400C681E
:1033500022F0030214438A68194E2A43174D194F6D
:10336000DFF864C0DFF86490A84207D0B04205D00F
:10337000B84203D0604501D0484506D122F0080884
:10338000CA6842EA080222F00402A84207D0B0420A
:1033900005D0B84203D0604501D0484505D14D69FC
:1033A00023F440731D438B692B4343608461496858
:1033B00041630262BDE8F0838FFFFEFF002C0140F5
:1033C00000340140004001400044014000480140F9
:1033D000F0B5026A22F010020262056A426883694F
:1033E000194C1B4E23400C6823F4407343EA042419
:1033F00025F020038D6843EA0513144DA84201D03F
:10340000B04206D1CF6823F0800343EA071323F0CC
:103410004003A8420AD0B04208D00E4DA84205D0C1
:103420000D4DA84202D00D4DA84207D14D6922F49E
:10343000406242EA85028D6942EA85024260846107
:10344000496881630362F0BDFF8FFFFE002C0140DD
:103450000034014000400140004401400048014068
:10346000F0B5026A22F480720262056A4368C2699A
:10347000194C1B4E22400C6822F00302144325F421
:1034800000728D6842EA0522144DA84201D0B04274
:1034900006D1CF6822F4006242EA072222F4806259
:1034A000A8420AD0B04208D00E4DA84205D00E4D19
:1034B000A84202D00D4DA84207D14D6923F44053D4
:1034C00043EA05138D6943EA05134360C461496803
:1034D000C1630262F0BD00008FFFFEFF002C0140BF
:1034E00000340140004001400044014000480140D8
:1034F000F0B5026A22F480520262056A4268C3692A
:10350000194C1B4E23400C6823F4407343EA0424F7
:1035100025F400538D6843EA0533144DA84201D0C9
:10352000B04206D1CF6823F4004343EA073323F4C3
:103530008043A8420AD0B04208D00E4DA84205D020
:103540000D4DA84202D00D4DA84207D14D6922F47D
:10355000404242EA85128D6942EA85124260C461A6
:10356000496801640362F0BDFF8FFFFE002C01403B
:103570000034014000400140004401400048014047
:1035800030B5026A22F480320262046A4268036D36
:10359000114D2B400D681D4324F400330C8943EA80
:1035A00004430E4CA0420BD00D4CA04208D00D4C51
:1035B000A04205D00C4CA04202D00C4CA04204D139
:1035C0004C6922F4803242EA04224260056549686F
:1035D0008164036230BD00008FFFFEFF002C0140BC
:1035E00000340140004001400044014000480140D7
:1035F00030B5026A22F480120262046A4268036DE6
:10360000114D24F400142B400D6843EA05230D8965
:1036100044EA05540D4DA8420BD00D4DA84208D0E8
:103620000C4DA84205D00C4DA84202D00B4DA8422B
:1036300004D14D6922F4802242EA8522426003656A
:103640004968C164046230BDFF8FFFFE002C014059
:103650000034014000400140004401400048014066
:1036600010B5036A046A24F001040462846924F03A
:10367000F00444EA021423F00A020A43846102625D
:1036800010BD10B5036A23F0100303628369046A56
:1036900023F4704343EA023224F0A00343EA011109
:1036A0008261016210BDFEE70FB4084B10B504A99A
:1036B00002AA039800F0EEF8044602A9002000F0E8
:1036C00080FC204610BC5DF814FB0000C33F0008DE
:1036D0000907090E002804DB00F1E02080F800143F
:1036E000704700F00F0000F1E02080F8141D7047D3
:1036F00002E008C8121F08C1002AFAD170477047BB
:10370000002001E001C1121F002AFBD17047000018
:103710002DE9FF5F82B00021DDE90430020DDDF804
:1037200040B0034318D044F61050A2F2FF32424397
:103730001514119801281FD0A5EB0B00401C5FEA5F
:10374000000A4FF000064E4FDFF83891B046504661
:1037500015D5CAF1000413E0119801244AA30128E9
:1037600001D16FEA0B010298119AC0E90031C0E95A
:10377000024206B0BDE8F09FCBF10000DFE704464F
:103780000021404A491842EB0450CDE9001012E0F4
:10379000E00707D032463B4640464946FCF74BFE21
:1037A0008046894632463B4610461946FCF743FEA2
:1037B00006460F466410002CEAD1DDE90401DDE97C
:1037C0000023BAF1000F06DAFCF735FE42464B46FD
:1037D000FCF731FE05E0FCF7A0FE42464B46FCF745
:1037E0009CFE04460E460022284BFCF71DFF03D822
:1037F0004FF0FF30014607E00022254B20463146BE
:10380000FCF772FDFCF7F8FE102409E0002C0ADB3F
:103810000A220023FCF737FD039B30321A55641E41
:1038200050EA0102F2D1641C039AC4F1110314445A
:10383000119A012A03D0012208430DD10AE008435E
:1038400004D000204FF0110B119072E7A3EB0B0591
:103850006D1E0DE05B4504DD4FF0000205F1010532
:1038600004E003DA4FF00002A5F10105002AECD0D4
:1038700002981199C0E90231C0E9004579E70000DA
:10388000000014400000F03F300000000000F04352
:103890000000E03F2DE9FF4F95B09B468946064664
:1038A00000250FE2252877D100242746F84A012178
:1038B000059400E0044316F8013F203B01FA03F0B1
:1038C0001042F7D130782A2811D06FF02F033078CA
:1038D000A0F13002092A16D8059A44F0020402EB3E
:1038E000820203EB42021044761C0590EFE759F880
:1038F000042B0592002A03DA504244F40054059048
:1039000044F00204761C30782E2816D116F8010FE8
:1039100044F004042A280DD06FF02F023078A0F173
:103920003003092B09D807EB870302EB4303C718C1
:10393000761CF3E759F8047B761C30786C280FD09E
:1039400006DC4C2817D068280DD06A2814D104E072
:10395000742810D07A280FD10DE044F400140AE046
:1039600044F4801401E044F440147278824202D19D
:1039700004F58014761C761C307866280BD013DC96
:10398000582877D009DC002875D04528F6D046287D
:10399000F4D047281AD19DE118E0632835D0642877
:1039A00079D0652812D195E1702873D008DC67289A
:1039B000F1D069286FD06E280DD06F2806D1B5E000
:1039C00073282CD0752875D0782874D05A4617994A
:1039D00090476D1C75E1C4F30250022809D00328FA
:1039E0000DD0D9F8001004280DD00D6009F104099C
:1039F00067E1D9F80010EA17C1E90052F6E7D9F8F3
:103A000000100D80F2E70D70F0E719F8041B8DF837
:103A1000001000208DF80100EA46012003E059F86B
:103A200004AB4FF0FF3061074FF0000102D40DE00E
:103A300008F101018846B9420FDA8045F8DB1AF82F
:103A400008100029F4D108E008F1010188468142FC
:103A5000FADB1AF808100029F6D105985B46A0EBAE
:103A6000080721463846179A00F094FA284400EBDC
:103A7000080507E04DE029E10DE01AF8010B5A4670
:103A800017999047B8F10108F7D25B4621463846AE
:103A9000179A13E142E00A220092C4F302524FF057
:103AA000000A022A08D059F804CB032A4FEAEC7125
:103AB0000AD00DE029E02AE009F1070121F0070210
:103AC000F2E802C1914609E00FFA8CFC4FEAEC7172
:103AD000042A03D14FFA8CFC4FEAEC71002907DA73
:103AE0000A460021DCF1000C61EB02012D2202E00C
:103AF000220504D52B228DF80420012203E0E207E1
:103B000001D02022F7E7904659E00A2102E0102276
:103B10000DE010214FF0000A00910BE010224FF051
:103B2000000A44F004040827009203E008224FF042
:103B3000000A0092C4F30252022A05D059F804CBBD
:103B40000021032A08D009E009F1070121F007024A
:103B5000F2E802C1914605E01FFA8CFC042A01D16B
:103B60000CF0FF0C4FF00008220728D5702806D073
:103B7000009B83F0100353EA0A0305D00EE04022B5
:103B80008DF80420012208E05CEA010206D0302210
:103B90008DF804208DF8050002229046009B83F0EA
:103BA000080353EA0A030AD15CEA010201D1620761
:103BB00005D530228DF804204FF001087F1E5828CB
:103BC00004D034A003900EA802900DE036A0F9E7CF
:103BD00053466046009AFCF756FB84460398825C85
:103BE0000298401E029002705CEA0100F0D1029837
:103BF00006A9081A00F1200A600702D524F48034CF
:103C000000E00127574502DDA7EB0A0000E0002095
:103C100000EB0A01009005984144401A0590E0032A
:103C200006D45B462146179A059800F0B3F905447F
:103C3000002706E001A85A46C05D179990476D1C01
:103C40007F1C4745F6DBE0030CD55B462146179AFF
:103C5000059800F09FF9054404E030205A46179972
:103C600090476D1C0099481E00900029F5DC08E083
:103C7000029802995A460078491C02911799904778
:103C80006D1CBAF10001AAF1010AF1DC65E1000046
:103C90000928010030313233343536373839616222
:103CA00063646566000000003031323334353637E6
:103CB00038394142434445460000000000F058F9BD
:103CC0000544761C307800287FF4ECAD19B0284606
:103CD000BDE8F08F620700D4062709F1070222F041
:103CE000070CFCE80223E14603F000485FEA080CF9
:103CF00002D00FF2702C0DE05FEA045C02D50FF2E7
:103D0000682C07E05FEAC47C02D00FF2602C01E06F
:103D1000AFF2700C4FF0FF3823F00043CDF850C0E5
:103D200065280CD006DC452809D046281DD0472838
:103D30003DD13DE0662818D067287ED138E00021CB
:103D4000112F01DB112000E0781CCDE9000106A94C
:103D50000EA8FFF7DDFCDDE90F010E9A03910021AB
:103D6000009207F1010A04914DE04FF000400097E6
:103D7000CDE9011006A90EA8FFF7CAFCDDE90F0284
:103D800003920E9B11990022DDF80CA0009304927F
:103D900011B9791C00EB010AB7EB0A0004D4C0F199
:103DA000FF3007F1010A0490AAEB0700019044E0FC
:103DB000012F00DA01270021112F01DD112000E081
:103DC0003846CDE9000106A90EA8FFF7A1FCDDE900
:103DD0000F010E9A0391002104910092BA46210727
:103DE0000CD40399514500DA8A46BAF1010F05DD7A
:103DF000009AAAF10101515C302908D0B84202DAD8
:103E000010F1040F06DA0121CDE9011015E0AAF145
:103E10000101E9E7002805DC049901440491AAEBBB
:103E2000000102E0411C514500DD8A460499401A18
:103E3000401C01904FF000400290200704D40198EC
:103E4000504501DBCDF8048000208DF84F0002982A
:103E50000DF14F07B0F1004F25D02B200E900298A6
:103E60004FF0020800280CDA404202902D200E90FC
:103E700007E00A210298FCF7F0F93031029007F8C8
:103E8000011DB8F10001A8F10108F2DC0298002838
:103E9000EFD1791E0E980870307800F0200040F0C5
:103EA000450007F8020D12A8C01B00F1070814987E
:103EB000007800B1012000EB0A01019801EBE071EC
:103EC00005984144401A401E0590E00306D45B4625
:103ED0002146179A059800F05DF80544149800787B
:103EE00018B15A46179990476D1CE00324D55B46DC
:103EF0002146179A059800F04DF805441CE00498F7
:103F0000002807DBDDE90301884203DD0098405CFF
:103F1000179901E0179930205A469047049805F107
:103F20000105401C04900198401E019004D12E20F0
:103F30005A46179990476D1CBAF10001AAF1010A7F
:103F4000DDDC05E017F8010B5A46179990476D1C08
:103F5000B8F10001A8F10108F4DC5B462146179A8C
:103F60000598ABE62D0000002B00000020000000AB
:103F70002DE9F041044600251E461746880404D466
:103F800005E039462020B0476D1C641EF9D528464F
:103F9000BDE8F0812DE9F041044600251E4690461B
:103FA000C80301D5302700E02027880404D505E0A8
:103FB00041463846B0476D1C641EF9D52846BDE819
:103FC000F0810A68531C0B601070704710B50D48E3
:103FD000FDF784F80A210B48FDF706F80948FCF7BD
:103FE000D3FE84B20748FDF7F3F800EE104ADFED88
:103FF000060AB8EE400A20EE200ADFED040A20EEA1
:10400000200A10BD400000203333534000008039A7
:104010002DED048BFDF70AFAFFF7CCF8FEF720FE32
:10402000FEF7E0FDFEF7D4FEFEF784FEFEF764FD2A
:10403000FEF78EFB0020FEF7E3FA0020FEF7E2FB1E
:104040004FF6FF70FEF7F2FB00214748FEF7C2F97A
:10405000454D4FF0FF342868046100214348FEF7C6
:10406000B9F9424E306804612968642048633168B8
:104070004863DFED3F8A3F4C9FED3F8A4FF07E580B
:1040800000272078032835D12770A078012806D092
:1040900002280BD0032819D0042827D029E0E07883
:1040A00010B10020E07024E00120FBE7E078012857
:1040B0001FD194ED020A30EE280A10EE100A84EDAA
:1040C000020A404515DBC4ED028A12E0E0780128BF
:1040D0000FD194ED030A30EE280A10EE100A84ED99
:1040E000030A404505DBC4ED038A02E0607800B3B3
:1040F0006770A780607800284FF001001CD0FEF7A1
:1041000007FD94ED020A296820EE080ABCEEC00AF9
:1041100010EE100A486394ED030A20EE080A00BF6F
:10412000BCEEC00A316810EE100A4863FEF786FB49
:10413000A7E701206070DCE7FEF700FDFFF746FF10
:104140009FED0E9A2968C0EE090A20EE880ABCEE9F
:10415000C00A10EE100A4863FFF738FFC0EE090AE4
:1041600020EE880ADCE70000AC000020F800002008
:10417000CDCCCC3D0000002000007A4433335340C6
:10418000000000000000000000000000000000002F
:10419000000000000000000000000000000000001F
:1041A000000000000000000000000000000000000F
:1041B0000000800180018001800180018001800178
:1041C00080018001800180018001800100000000E9
:1041D00080018001000000000000000000000000DD
:1041E00000000000CC00CC00CC00CC00CC00CC0007
:1041F00000000000000000000000000000000000BF
:1042000000000000000000000000000000000000AE
:10421000000000000000000000000000600C600CC6
:10422000600C30063006FE1FFE1F300638071803EC
:10423000FE1FFE1F180318038C018C018C01000067
:1042400000008000E003F80F9C0E8C1C8C188C0082
:104250009800F801E007800E801C8C188C189C18C0
:10426000B80CF00FE00380008000000000000000A8
:104270000000000000000E181B0C110C11061106A6
:10428000110311039B018E01C038C06C604460446F
:10429000304430441844186C0C3800000000000012
:1042A0000000E001F0033807180618063003F0019B
:1042B000F000F8009C310E33061E061C061C063F5B
:1042C000FC73F0210000000000000000000000006E
:1042D000000000000C000C000C000C000C000C0096
:1042E00000000000000000000000000000000000CE
:1042F00000000000000000000000000000000000BE
:104300000000000200038001C000C00060006000E7
:10431000300030003000300030003000300030001D
:1043200060006000C000C0008001000300020000C7
:10433000000020006000C000800180010003000335
:10434000000600060006000600060006000600063D
:104350000003000380018001C00060002000000015
:10436000000000000000000000000000C000C000CD
:10437000D806F807E001300338070000000000000D
:10438000000000000000000000000000000000002D
:10439000000000000000000000000000800180011B
:1043A000800180018001FC3FFC3F80018001800191
:1043B00080018001000000000000000000000000FB
:1043C00000000000000000000000000000000000ED
:1043D00000000000000000000000000000000000DD
:1043E0000000800180010001000180000000000049
:1043F00000000000000000000000000000000000BD
:104400000000000000000000E007E00700000000DE
:10441000000000000000000000000000000000009C
:10442000000000000000000000000000000000008C
:10443000000000000000000000000000000000007C
:104440000000C000C00000000000000000000000EC
:104450000000000C000C000600060006000300032C
:1044600000038003800180018001C000C000C00003
:10447000600060000000000000000000000000007C
:104480000000E003F007380E180C0C180C180C187C
:104490000C180C180C180C180C180C18180C380EDA
:1044A000F007E00300000000000000000000000032
:1044B000000000018001C001F00198018801800125
:1044C00080018001800180018001800180018001E4
:1044D00080018001000000000000000000000000DA
:1044E0000000E003F80F180C0C180C180018001846
:1044F000000C000600038001C000600030001800BE
:10450000FC1FFC1F00000000000000000000000075
:104510000000E001F807180E0C0C0C0C000C000653
:10452000C003C007000C001800180C180C18180C59
:10453000F807E00300000000000000000000000099
:104540000000000C000E000F000F800DC00C600C6E
:10455000600C300C180C0C0CFC3FFC3F000C000CE9
:10456000000C000C00000000000000000000000033
:104570000000F80FF80F180018000C00EC03FC07FF
:104580001C0E001C0018001800180C181C0C180E2B
:10459000F807E00300000000000000000000000039
:1045A0000000C007F00F381C181818000C00CC03CE
:1045B000EC0F3C0E1C1C0C180C180C18181C380E98
:1045C000F007E00300000000000000000000000011
:1045D0000000FC1FFC1F000C000600060003800307
:1045E0008001C001C000E000600060007000300089
:1045F000300030000000000000000000000000005B
:104600000000E003F007380E180C180C180C3806E0
:10461000F007F007180C0C180C180C180C18380CB4
:10462000F80FE003000000000000000000000000A0
:104630000000E003F007380E1C0C0C180C180C18C6
:104640001C1C381EF81BE0190018000C000C1C0E76
:10465000F807F0010000000000000000000000006A
:104660000000000000000000000000008001800148
:10467000000000000000000000000000000000003A
:104680008001800100000000000000000000000028
:104690000000000000000000000000008001800118
:1046A000000000000000000000000000000000000A
:1046B0008001800100010001800000000000000076
:1046C00000000000000000000000000000000000EA
:1046D0000010001C800FE003F8001800F800E00351
:1046E000800F001C0010000000000000000000000F
:1046F00000000000000000000000000000000000BA
:10470000F81F000000000000F81F0000000000007B
:104710000000000000000000000000000000000099
:104720000000000000000000000000000000000089
:1047300008003800F001C007001F0018001FC00764
:10474000F001380008000000000000000000000038
:104750000000E003F80F180C0C180C180018000CDF
:10476000000600038001C000C000C000000000007F
:10477000C000C000000000000000000000000000B9
:1047800000000000E00718180420C229224A114442
:1047900009440944094409221113E20C024004208F
:1047A0001818E007000000000000000000000000F2
:1047B000000080038003C006C006C006600C600CC9
:1047C000301830183018F83FF83F1C700C600C603F
:1047D00006C006C00000000000000000000000004D
:1047E0000000FC03FC0F0C0C0C180C180C180C0C23
:1047F000FC07FC0F0C180C300C300C300C300C1873
:10480000FC1FFC070000000000000000000000008A
:104810000000C007F01F38381C300C70066006001E
:104820000600060006000600060006600C701C303C
:10483000F01FE00700000000000000000000000082
:104840000000FE03FE0F060E06180618063006309E
:104850000630063006300630063006180618060EFA
:10486000FE0FFE030000000000000000000000003A
:104870000000FC3FFC3F0C000C000C000C000C0086
:10488000FC1FFC1F0C000C000C000C000C000C00AA
:10489000FC3FFC3F000000000000000000000000A2
:1048A0000000F83FF83F1800180018001800180022
:1048B000F81FF81F1800180018001800180018003A
:1048C00018001800000000000000000000000000B8
:1048D0000000E00FF83F3C780E6006E007C00300E0
:1048E000030003FE03FE03C007C006C00EC03CF079
:1048F000F83FE00F00000000000000000000000092
:1049000000000C300C300C300C300C300C300C3003
:10491000FC3FFC3F0C300C300C300C300C300C30B9
:104920000C300C300000000000000000000000000F
:1049300000008001800180018001800180018001F0
:10494000800180018001800180018001800180015F
:104950008001800100000000000000000000000055
:10496000000000060006000600060006000600061D
:10497000000600060006000600061806180638079E
:10498000F003E00100000000000000000000000053
:10499000000006300618060C060606038601C6004F
:1049A00066007600DE008E0106030606060C061879
:1049B000063006600000000000000000000000005B
:1049C000000018001800180018001800180018003F
:1049D0001800180018001800180018001800180017
:1049E000F81FF81F00000000000000000000000099
:1049F00000000EE01EF01EF01EF036D836D836D875
:104A000036D866CC66CC66CCC6C6C6C6C6C6C6C6D2
:104A100086C386C300000000000000000000000004
:104A200000000C301C303C303C306C306C30CC30F2
:104A3000CC308C310C330C330C360C360C3C0C3C2B
:104A40000C380C30000000000000000000000000E6
:104A50000000E007F81F1C380E70066003C003C09A
:104A600003C003C003C003C003C006600E701C383F
:104A7000F81FE00700000000000000000000000038
:104A80000000FC0FFC1F0C380C300C300C300C30CC
:104A90000C18FC1FFC070C000C000C000C000C0098
:104AA0000C000C00000000000000000000000000EE
:104AB0000000E007F81F1C380E70066003E003C01A
:104AC00003C003C003C003C007E006630E3F1C3CE5
:104AD000F83FE0F700C00000000000000000000008
:104AE0000000FE0FFE1F063806300630063006387E
:104AF000FE1FFE0706030606060C061806180630FB
:104B00000630066000000000000000000000000009
:104B10000000E003F80F1C0C0C180C180C001C0013
:104B2000F803E00F001E0038063006300E301C1C63
:104B3000F80FE00700000000000000000000000087
:104B40000000FE7FFE7F80018001800180018001E6
:104B5000800180018001800180018001800180014D
:104B60008001800100000000000000000000000043
:104B700000000C300C300C300C300C300C300C3091
:104B80000C300C300C300C300C300C300C30181851
:104B9000F81FE00700000000000000000000000017
:104BA000000003600630063006300C180C180C1894
:104BB000180C180C380E30063006700760036003BE
:104BC000C001C00100000000000000000000000063
:104BD00000000360C361C361C3616633663366333B
:104BE0006633663366336C1B6C1B6C1B2C1A3C1EC5
:104BF000380E380E00000000000000000000000029
:104C000000000FE00C7018303018700C600EC007F8
:104C100080038003C003E006700C301C18180C30B1
:104C20000E6007E00000000000000000000000002F
:104C3000000003C006600C301C383818300C6006C9
:104C4000E007C003800180018001800180018001B4
:104C50008001800100000000000000000000000052
:104C60000000FC7FFC7F006000300018000C000694
:104C700000038001C0006000300018000C00060036
:104C8000FE7FFE7F0000000000000000000000002A
:104C90000000E003E003600060006000600060006E
:104CA0006000600060006000600060006000600004
:104CB00060006000600060006000E003E00300004E
:104CC000000030003000600060006000C000C000E4
:104CD000C000C001800180018001000300030003C7
:104CE00000060006000000000000000000000000B8
:104CF0000000E003E00300030003000300030003DF
:104D0000000300030003000300030003000300038B
:104D100000030003000300030003E003E0030000BE
:104D200000000000C001C0016003600360033006A2
:104D30003006180C180C00000000000000000000F5
:104D40000000000000000000000000000000000063
:104D50000000000000000000000000000000000053
:104D60000000000000000000000000000000000043
:104D70000000FFFFFFFF0000000000000000000037
:104D800000000C000C000C000C000C000C000000DB
:104D90000000000000000000000000000000000013
:104DA0000000000000000000000000000000000003
:104DB000000000000000000000000000F003F80701
:104DC0001C0C0C0C000FF00FF80C0C0C0C0C1C0F36
:104DD000F80FF018000000000000000000000000C4
:104DE000000018001800180018001800D803F80F69
:104DF000380C181818181818181818181818380C0B
:104E0000F80FD803000000000000000000000000C0
:104E1000000000000000000000000000C003F007D8
:104E2000300E180C1800180018001800180C300E5E
:104E3000F007C003000000000000000000000000B8
:104E4000000000180018001800180018C01BF01F00
:104E5000301C181818181818181818181818301C9A
:104E6000F01FC01B00000000000000000000000058
:104E7000000000000000000000000000C003F00F70
:104E8000300C1818F81FF81F180018003818301CBC
:104E9000F00FC0070000000000000000000000004C
:104EA0000000800FC00FC000C000C000F007F00776
:104EB000C000C000C000C000C000C000C000C000F2
:104EC000C000C00000000000000000000000000062
:104ED000000000000000000000000000E00DF80FDE
:104EE000180E0C0C0C0C0C0C0C0C0C0C0C0C180EE6
:104EF000F80FE00D000C0C0C1C06F807F001000088
:104F0000000018001800180018001800D807F80F43
:104F1000381C1818181818181818181818181818ED
:104F20001818181800000000000000000000000021
:104F30000000C000C000000000000000C000C00071
:104F4000C000C000C000C000C000C000C000C00061
:104F5000C000C000000000000000000000000000D1
:104F60000000C000C000000000000000C000C00041
:104F7000C000C000C000C000C000C000C000C00031
:104F8000C000C000C000C000C000F80078000000F1
:104F900000000C000C000C000C000C000C0C0C06AB
:104FA0000C038C01CC006C00FC009C018C030C03F6
:104FB0000C060C0C000000000000000000000000C7
:104FC0000000C000C000C000C000C000C000C000A1
:104FD000C000C000C000C000C000C000C000C000D1
:104FE000C000C00000000000000000000000000041
:104FF0000000000000000000000000007C3CFF7E7C
:10500000C7E383C183C183C183C183C183C183C11A
:1050100083C183C100000000000000000000000008
:105020000000000000000000000000009807F80FDA
:10503000381C1818181818181818181818181818CC
:105040001818181800000000000000000000000000
:10505000000000000000000000000000C003F00F8E
:10506000300C181818181818181818181818300CA8
:10507000F00FC0030000000000000000000000006E
:10508000000000000000000000000000D803F80F3E
:10509000380C181818181818181818181818380C68
:1050A000F80FD803180018001800180018000000A6
:1050B000000000000000000000000000C01BF01F06
:1050C000301C181818181818181818181818301C28
:1050D000F01FC01B0018001800180018001800006E
:1050E000000000000000000000000000B007F00316
:1050F00070003000300030003000300030003000F0
:10510000300030000000000000000000000000003F
:10511000000000000000000000000000E003F003B9
:10512000380E180C3800F003C007000C180C380EAD
:10513000F007E00300000000000000000000000095
:10514000000000008000C000C000C000F007F007B1
:10515000C000C000C000C000C000C000C000C0004F
:10516000C0078007000000000000000000000000F1
:1051700000000000000000000000000018181818CF
:105180001818181818181818181818181818381C7B
:10519000F01FE01900000000000000000000000007
:1051A0000000000000000000000000000C18180CB7
:1051B000180C180C300630063006600360036003DC
:1051C000C001C0010000000000000000000000005D
:1051D000000000000000000000000000C141C141CB
:1051E000C3616363636363633636363636361C1CCD
:1051F0001C1C1C1C0000000000000000000000003F
:105200000000000000000000000000001C38381CF6
:10521000300C600660036003600360036006300CBE
:10522000381C1C38000000000000000000000000D6
:1052300000000000000000000000000018303018DE
:1052400030187018600C600CE00CC006C0068003BB
:105250008003800380018001C001F0007000000025
:10526000000000000000000000000000FC1FFC1F08
:10527000000C000600038001C00060003000180030
:10528000FC1FFC1F000000000000000000000000E8
:10529000000000038001C000C000C000C000C000CA
:1052A000C00060006000300060004000C000C0002E
:1052B000C000C000C000C00080010003000000006A
:1052C0000000800180018001800180018001800157
:1052D00080018001800180018001800180018001C6
:1052E0008001800180018001800180018001000037
:1052F00000006000C000C0018001800180018001C9
:10530000800100030003000600030001800180010A
:105310008001800180018001C00060000000000069
:10532000000000000000000000000000000000007D
:10533000F010F81F080F000000000000000000003F
:10534000000000000000000000000000000000005D
:105350000000000000000000010203040607080925
:1053600080530008000000202C000000F0360008E8
:10537000AC5300082C0000201C050000003700087A
:105380000000000014000000CDCCCC3DCDCCCC3DC5
:1053900000000000FFFF000000FF00001000000000
:0C53A00001000000000000000024F400E8
:04000005080001D915
:00000001FF
