:020000040800F2
:1000000030040020ED010008171700083D13000818
:10001000151700085B080008AD1A00080000000072
:100020000000000000000000000000002F1A00087F
:100030005D0800080000000019170008311A0008C8
:10004000070200080702000807020008070200086C
:10005000070200080702000807020008070200085C
:10006000070200080702000807020008070200084C
:10007000070200080702000807020008070200083C
:10008000070200080000000007020008070200083D
:10009000070200080702000807020008070200081C
:1000A000070200080702000807020008070200080C
:1000B00007020008070200080702000807020008FC
:1000C00007020008070200080702000807020008EC
:1000D00007020008070200080702000807020008DC
:1000E00007020008070200080702000807020008CC
:1000F00007020008070200080702000800000000CD
:1001000000000000070200080000000007020008CD
:1001100007020008000000000702000807020008AC
:10012000070200080702000807020008070200088B
:10013000070200080000000000000000070200089D
:10014000070200080702000800000000000000008D
:10015000000000000000000000000000000000009F
:10016000000000000000000000000000070200087E
:10017000070200080000000000000000000000006E
:10018000000000000702000800000000000000005E
:10019000000000000000000000000000000000005F
:1001A000000000000000000007020008070200082D
:1001B000070200080702000807020008000000000C
:1001C000000000000702000800000000000000001E
:1001D0000702000807020008DFF80CD000F0FAFA66
:1001E00000480047152400083004002006488047D6
:1001F00006480047FEE7FEE7FEE7FEE7FEE7FEE70C
:10020000FEE7FEE7FEE7FEE79D1A0008D9010008B9
:10021000D2B201E000F8012B491EFBD27047002248
:10022000F6E710B513460A4604461946FFF7F0FFF5
:10023000204610BD2DE9FE4F81EA030404F000447E
:1002400021F0004100944FF0000B23F0004350EAEE
:1002500001045ED052EA03045BD0C3F30A54C1F335
:100260000A552C44A4F2F3340194A0FB0254C1F3C8
:10027000130141F48011C3F3130343F4801301FB12
:10028000024400FB034E840A970A44EA815447EA79
:100290008357A4FB076802958D0A05FB07854FEA83
:1002A000932C04FB0C542705029D4FEA065847EA9D
:1002B0001637B5EB08056EEB070C870E920E47EA72
:1002C000811742EA8312A7FB0201B6EB0B0164EB34
:1002D00000042B0D43EA0C335E1844EB1C50DA4645
:1002E0005146E7FB0201C5F313044FEA0B3343EA1F
:1002F00014534FEA0432019C43EA0603A4F10C04B0
:100300000294009CCDE900B400F0CFF803B0BDE842
:10031000F08F00200146F9E70EB540F2334102911B
:100320000021CDE900110A460B4600F0BEF803B0EB
:1003300000BD00F0004230F000400AD0C10D01F5D0
:100340006071C0F3160042EA0151C2084007114330
:10035000704700200146704701F0004330B421F09F
:10036000004150EA010206D00A0DA2F56072C1F305
:100370001301002A02DC30BC00207047440F44EA1D
:10038000C104C100E01830BC00EBC25000F047B817
:1003900030B50B46014600202022012409E021FA55
:1003A00002F59D4205D303FA02F5491B04FA02F552
:1003B0002844151EA2F10102F1DC30BD2DE9F05FE9
:1003C0000546002092469B468846064681464024C4
:1003D0001BE0284641464746224600F01CFA534699
:1003E0005A46C01A914110D311461846224600F0D1
:1003F00003FA2D1A67EB01084F462246012000211F
:1004000000F0FAF917EB00094E41201EA4F1010497
:10041000DFDC484631462A464346BDE8F09F0029C6
:10042000A8BF7047401C490008BF20F0010070477A
:1004300010B4B0FA80FC00FA0CF050EA010404BFDA
:1004400010BC704749B1CCF1200421FA04F411FA30
:100450000CF118BF012121430843A3EB0C01CB1D74
:100460004FEA00614FEA102042BF002010BC7047E5
:1004700000EBC35010440029A4BF10BC7047401CBF
:10048000490008BF20F0010010BC704710B5141ED1
:1004900073F1000408DA401C41F1000192185B413D
:1004A0001A4301D120F0010010BD2DE9F04D924614
:1004B0009B4611B1B1FA81F202E0B0FA80F220322B
:1004C000904600F099F904460F4640EA0A0041EAD6
:1004D0000B0153465A46084313D0114653EA010014
:1004E00019D0C8F14002504600F095F905460E4675
:1004F00050465946424600F07FF9084305D0012096
:1005000004E020463946BDE8F08D0020054346EA68
:10051000E0762C4337430A986305E40AA0EB080011
:100520000022FD0A44EA47540A3002D50020014661
:10053000E9E7010510196941DDE90845001969413C
:10054000BDE8F04DA2E72DE9FE4F804681EA0300A9
:10055000C00F0C46009021F0004123F00045B8EB9D
:100560000200A94105D24046214690461C460B4652
:10057000024623F00040104347D0270DC7F30A007E
:10058000C3F30A510290401A019040286BDAC3F37A
:10059000130040F4801B0098924620B10023D2EB58
:1005A000030A63EB0B0B01985946C0F14002504619
:1005B00000F022F906460D4650465946019A00F0D1
:1005C0003AF910EB08006141002487EA115284EAED
:1005D000E7731A4340D0009A62B3019A012A4FEAA6
:1005E000075215DC001B61EB02014FF0004202EAEA
:1005F0000752CDE90042001C41F5801132462B46DE
:10060000FFF753FF03B0BDE8F08F40462146F9E7FE
:10061000001B61EB0201001C41F5801300185B41D7
:100620002018A2F5001747EB030140EAD570B61970
:100630006D4111E06D084FEA360645EAC0754FEA94
:100640000752001B61EB0201001C41F580114908B3
:100650004FEA30000019514132462B4603B0BDE845
:10066000F04FFFF713BF0098012240000023D0EBAA
:10067000020263EBE073009821464FEAE074B8EBA6
:10068000000061EB0401E9E783F000435BE781F0E0
:10069000004158E72DE9F04D81EA030404F0004BD6
:1006A00021F0004514464FF0000A23F0004150EAC3
:1006B000050220D054EA01021DD0C5F30A570246B4
:1006C000C5F31303C1F31300C1F30A5640F48015B8
:1006D00043F48013A7EB0608101BD64608F2FD383A
:1006E00073EB050002D308F1010801E092185B41A9
:1006F000B8F1000F03DA00200146BDE8F08D0020BC
:100700004FF48011064684460EE0171B73EB050775
:1007100005D3121B63EB050306434CEA010C4908A1
:100720004FEA300092185B4150EA0107EDD152EADE
:10073000030012D082EA040083EA0501084305D0D1
:10074000101BAB4106D20122002306E000224FF02D
:10075000004302E06FF0010253101AEB06004CEB6D
:10076000085110EB0A0041EB0B01BDE8F04DFFF71B
:100770008DBEC1F30A52C1F3130140F2FF3341F4BD
:1007800080119A4202DA00200146704740F233435A
:100790009A42A2F2334202DC524200F03CB800F02E
:1007A0002BB8000030B5041E71F1000404DB4FF0DB
:1007B0000044404264EB0101141E73F1000405DBA8
:1007C0001C464FF00043524263EB0403994208BFBA
:1007D000904230BD064C074D06E0E06840F0010352
:1007E00094E8070098471034AC42F6D3FFF7F8FCC2
:1007F0006437000884370008202A04DB203A00FA16
:1008000002F1002070479140C2F1200320FA03F367
:10081000194390407047202A04DB203A21FA02F065
:100820000021704721FA02F3D040C2F1200291402A
:10083000084319467047202A06DBCB17203A41FAB5
:1008400002F043EAE07306E041FA02F3D040C2F15D
:1008500020029140084319467047FEE77047002286
:1008600040F6B83306E00021491C89B29942FBD317
:10087000521C92B28242F6D37047000010B501F0CC
:100880005BFECC2001F046FE442001F043FE40F226
:10089000EE2000F023F801F04FFECC2001F03AFEEC
:1008A000BE2001F037FE01F032FE044601F02FFEBB
:1008B0004FF6FF7101EA00202043FFF72DFD9FED69
:1008C000051B53EC112BFFF7B5FCFFF745FD00EEC0
:1008D000100A10BD000000000000B03F70B50446D3
:1008E00000F0FCF80546601C02D00448406804444F
:1008F00000F0F4F8401BA042FAD370BD0C000020B9
:100900002DE9FC4FDFF8A0A1002301250AF1040B1B
:1009100003244FF00F0C0BF1040EBDE005FA03F6B3
:1009200032406FD04F68012F05D0022F03D0112F16
:1009300001D0122F17D1D0F808905F0004FA07F801
:1009400029EA08090097D1F80C8008FA07F848EA64
:100950000908C0F808804768B7430E79C6F3001647
:100960009E403E434660C6684FEA430804FA08F7D3
:10097000BE4301978F6807FA08F73743C7604E6890
:10098000022E01D0122E13D1DE0800EB860600964F
:10099000366A5F07FF0E0CFA07F926EA0906D1F856
:1009A000109009FA07F949EA0609009EC6F8209056
:1009B0000668019FBE430F7907F0030707FA08F79F
:1009C000374307604E68F60065D5384E376E47F0FE
:1009D00001073766366E23F0030706F0010600961E
:1009E000334E3E44B146B6689F074FEA17780CFA7B
:1009F00008F7BE43B0F1904F05D02E4FB84204D156
:100A0000012717E047E0002714E02B4FB84201D13F
:100A100002270FE0294FB84201D103270AE0284FEF
:100A2000B84201D1042705E0264FB84201D105277D
:100A300000E0062707FA08F73743C9F80870DAF824
:100A400000605746D1F8048096435FEAC83800D565
:100A500016433E60DBF800605F46D1F804809643A1
:100A60005FEA883800D516433E60DEF800607746BE
:100A7000D1F8048096435FEAC82800D516433E604B
:100A8000094F0C373E68D1F8048096435FEA882806
:100A900000D516433E605B1C0A6832FA03F67FF409
:100AA0003DAFBDE8FC8F0000000401400010024093
:100AB000000001400004004800080048000C004805
:100AC00000100048001400480069084000D00120D0
:100AD00070470AB181617047816270470148806840
:100AE000704700000C0000200248816842681144F1
:100AF000816070470C00002010B50024032000F036
:100B000065F8002000F008F808B1012401E000F0C9
:100B100025F8204610BD000070B50E4E0546002495
:100B2000706898B14FF47A71B1FBF0F00A49096826
:100B3000B1FBF0F000F0EEFB40B9102D06D2002220
:100B40002946501E00F022F8356000E001242046BE
:100B500070BD00000C000020180000200A4882B080
:100B6000016E41F001010166016E01F00101009189
:100B7000816D41F080518165806D00F08050009062
:100B800002B000F093B8000000100240F0B40E4B29
:100B90001B680C46C3F30223C3F10705042D00D9DB
:100BA0000425191D072901D2002300E0DB1E0126C0
:100BB00006FA05F1491E214099409E40761E1640D6
:100BC0003143F0BC00F088BF0CED00E0064900F0B6
:100BD000070208684FF6FF03184040EA0220034A64
:100BE00010430860704700000CED00E00000FA05BB
:100BF0002B492C4B0A6832214A432B4940B1B0F5AE
:100C0000007F086829D020F4C06040F480602CE0A8
:100C10000868C0F34120022804D051F8800F20F466
:100C2000807022E0D1F8800020F48070C1F880004C
:100C3000086820F4C06040F400700860B2FBF3F074
:100C4000401C00E0401E4A69520501D50028F9D138
:100C5000486940050AD503207047C0F341200228A7
:100C600006D051F8800F40F4807008600020704773
:100C7000D1F8800040F48070C1F88000086820F44A
:100C8000C06040F400700860B2FBF3F0401C00E06C
:100C9000401E4A695205DBD50028F9D1D8E700008B
:100CA0001800002040420F00007000400248816898
:100CB00041F4804181607047007000402DE9F047A9
:100CC0000E4605004FF0000725D0DFF8AC81D8F8BC
:100CD000000000F00F00B0420CD2D8F8001021F054
:100CE0000F013143C8F80010D8F8000000F00F00E1
:100CF000B04210D12968614CC80741F2883A5AD0F5
:100D00006868DFF87C91032808D0022820682DD07D
:100D1000400500282CDB0120BDE8F0872068800119
:100D2000F9D5E06800F00302E068C0F30310401C4E
:100D3000032A19D0534A00BFB2FBF0F0E268C2F3B5
:100D400006225043E268C2F34162521C5200B0FBDB
:100D5000F2F0484517D9A06810F0F00F0CD08807C2
:100D600011D5A86840B10EE0474AE5E78003D0E717
:100D700000F092F8484506D9A06820F0F00040F055
:100D80008000A0608027A068696820F00300084305
:100D9000A060FFF7A3FE814606E000BFFFF79EFEBE
:100DA000A0EB090151453AD8A068696800F00C0031
:100DB000B0EB810FF2D12868810714D5400703D525
:100DC000A06840F4E060A0602878000705D5A0681E
:100DD00020F4605040F4E060A060A068A96820F0B2
:100DE000F000084304E0802F03D1A06820F0F00059
:100DF000A060D8F80010404601F00F01B14216D9AA
:100E0000016821F00F0131430160FFF767FE0746DB
:100E100007E000BFFFF762FEC11B514501D9032067
:100E20007AE7D8F8000000F00F00B042F2D128783D
:100E3000400705D5A068E96820F4E0600843A06099
:100E40002878000706D5A068296920F4605040EA98
:100E5000C100A06000F020F8A1680C4AC1F30311A2
:100E6000515C01F01F01C840094908600948006849
:100E7000BDE8F047FFF750BE0020024000100240DE
:100E800000B4C4040024F40000366E015437000896
:100E9000180000200C000020184910B58868C0F325
:100EA00081021748012A0BD08A68164BC2F38102CF
:100EB000022A06D08A68C2F38102032A03D00020E6
:100EC00010BD184610BDCA6802F00304CA68C2F318
:100ED0000312521C032C02D0B0FBF2F001E0B3FB72
:100EE000F2F0CA68C968C2F306225043C1F34161F7
:100EF000491C4900B0FBF1F010BD00000010024099
:100F00000024F40000366E012DE9F84304007AD085
:100F10002078FA4DC00747D0A868E96800F00C00B7
:100F200001F003010C2802D0082817D001E00329A2
:100F300014D06068B0F5803F17D0B0F5A02F2868B6
:100F400017D020F480302860286820F480202860A2
:100F50006068E0B1FFF7C2FD064614E02868800330
:100F600022D560680028D2D01EE0286840F4803086
:100F7000EDE740F480202860F7E700BFFFF7AEFD03
:100F8000801B642870D828688003F7D50CE0FFF731
:100F9000A5FD064605E000BFFFF7A0FD801B642805
:100FA000F0D828688003F7D4207880074CD5A8684B
:100FB000E96800F00C0001F003010C2802D00428BD
:100FC0000DD001E002290AD0E068002828682BD063
:100FD00040F480702860FFF781FD064619E028681C
:100FE000400502D5E068002891D06868217C20F097
:100FF000FE4040EA01606860C1480068FFF78CFD70
:10100000002800D120E076E1FFF768FD801B022870
:10101000B8D828684005F7D56868217C20F0FE40E4
:1010200040EA016068600FE020F480702860FFF7FC
:1010300055FD064605E000BFFFF750FD801B022866
:10104000A0D828684005F7D42078000729D5606922
:101050000028D5F8940013D040F00100C5F89400A2
:10106000FFF73CFD064606E090E000BFFFF736FDC7
:10107000801B022886D8D5F894008007F6D510E0AA
:1010800020F00100C5F89400FFF728FD064604E0B3
:10109000FFF724FD801B022878D8D5F8940080073C
:1010A000F6D42078400761D5A86D0026C00008D48A
:1010B000A86D40F08050A865A86D012600F0805012
:1010C000009090480168C90511D40168804641F438
:1010D00080710160FFF702FD074604E0FFF7FEFCA8
:1010E000C01B022852D8D8F80000C005F6D5A06869
:1010F000012815D00528D5F8900016D020F0010061
:10110000C5F89000D5F8900020F00400C5F89000D4
:10111000A06841F28838B8B1FFF7E0FC07460EE05E
:10112000D5F8900040F00100F0E740F00400C5F869
:101130009000F5E7FFF7D2FCC11B414526D8D5F852
:1011400090008007F6D50CE0FFF7C8FC074604E0E6
:10115000FFF7C4FCC11B414518D8D5F890008007A3
:10116000F6D41EB1A86D20F08050A86520788006C6
:1011700029D5A0690028D5F8980013D040F00100C7
:10118000C5F89800FFF7AAFC064606E077E000BF26
:10119000FFF7A4FC801B022877D8D5F898008007B9
:1011A000F6D510E020F00100C5F89800FFF796FC96
:1011B000064604E0FFF792FC801B022865D8D5F8AC
:1011C00098008007F6D4E069F0B3A968C1F3810103
:1011D000032961D00228286820F0807028600BD095
:1011E000E86820F00300E860E86847490840E860E4
:1011F000FFF774FC04464BE0FFF770FC064604E082
:10120000FFF76CFC801B02283FD828688001F7D4C8
:10121000F4E908016FF00F0202EB01110843218A83
:101220005204490802EB4151A26841EA02210843F5
:10123000217D4FF07E42490802EB41610843217B4A
:1012400040EAC160E96800E062E0304A11400843CA
:10125000E860286840F080702860E86840F080709E
:10126000E860FFF73BFC044605E000BFFFF736FCF3
:10127000001B022809D828688001F7D548E004E05F
:10128000FFF72CFC001B022802D90320BDE8F883DD
:1012900028688001F4D43BE00128F7D0E868226A8E
:1012A00000F00301914226D1616A00F0F0020901C9
:1012B000103991421FD1A26A00F4FE41B1EB022F16
:1012C00019D194F82C2000F07841B1EBC26F12D103
:1012D000218E00F4C00249084905A1F50011914290
:1012E00009D194F8341000F0C06049084906A1F112
:1012F000007181420CD00120C8E7000000100240BC
:101300000C00002000700040FFFFEEFE0C809F01EB
:101310000020BBE710B5401EB0F1807F01D3012053
:1013200010BD4FF0E02460610F21601700F0D4FB86
:101330000020A06107202061002010BDFEE7000012
:1013400000B585B014216846FEF769FF4FF6FF70BF
:10135000009000200321CDE9020101906946024876
:10136000FFF7CEFA05B000BD0008004800B585B013
:1013700014216846FEF753FF4FF6FF7000900120DE
:101380000190032003900020029069460248FFF775
:10139000B7FA05B000BD00000008004870B5002491
:1013A00006462146204600F003F900F041F94FF4CB
:1013B0009635304600F010F9641CAC42F9D370BD8C
:1013C00030B587B014216846FEF729FF1E48C16C6E
:1013D00041F00401C164C16C01F004010591C16CCC
:1013E00041F00101C164C16C01F001010591C16CC2
:1013F00041F00201C164C06C012500F002000590BB
:101400004FF44870CDE90005002403946946029426
:101410000E48FFF775FA280203940090CDE90154B5
:101420004FF0904469462046FFF76AFAFFF79EFFA7
:10143000A06940F48070A06104481830016841F44C
:101440000871016007B030BD001002400004004880
:10145000203AD2B2034B02EB420203EB021200F03D
:1014600019B8000084250008F0B50E46074600258F
:1014700040F23F1407E021463846FFF7E9FF103CF1
:101480006D1CA4B2761C3278002A01D0142DF2D340
:10149000F0BD00002DE9F04791468A46002604463B
:1014A00000F086F8DFF84080012700BF00F0C0F8A8
:1014B0005FF0000539F8160007FA05F108424046CA
:1014C00001D1408800E0008800F086F86D1C102DE6
:1014D000F0D3641CE4B25146204600F069F8761C53
:1014E000182EE3D3BDE8F0870000002010B5FFF709
:1014F00067FF002000F014F8084CA080A088A0F539
:101500000241303906D000F091F9002000F008F8CF
:10151000A08010BD00F001F9F7E7000000000020F6
:1015200070B51D490A6842F400720A600A6842F404
:1015300080720A60184C103C226842F0200222603F
:10154000164A1060086840F02000086000BF00BF25
:1015500000BF206840F020002060206840F48070C8
:101560002060FFF7EDFE4FF09041886A40F48070F4
:10157000886200BF00BF00BF0848001F006885B236
:10158000886940F480708861FFF7F0FE206840F4BD
:1015900000702060284670BD2804004814080048E8
:1015A00001B5BDF800000149488008BD00000020D9
:1015B00010B50C460146202000F068F82146BDE831
:1015C0001040212000F062B801B5BDF800000149CB
:1015D000088008BD00000020134A116841F4007122
:1015E0001160114910390B6843F480730B600B686C
:1015F00043F020030B600D4B1860106840F0200092
:10160000106000BF00BF00BF086840F02000086005
:10161000086840F48070086000BF00BF00BF086821
:1016200040F400700860704728040048140800481F
:101630001449086840F400700860086840F480703D
:10164000086010481038026842F0200202600E4B19
:1016500022221A600A6842F020020A6000BF00BF1E
:1016600000BF016841F020010160016841F4807110
:10167000016000BF00BF00BF016841F4007101605C
:10168000704700002804004814080048184B10B5A3
:101690001A6842F400721A601A6842F480721A6082
:1016A000134A103A146844F020041460114C20606E
:1016B000186840F02000186000BF00BF00BF10682D
:1016C00040F020001060106840F4807010602160CD
:1016D000186840F02000186000BF00BF00BF10680D
:1016E00040F020001060106840F48070106010BD61
:1016F0002804004814080048054808B5C16C41F0AA
:101700002001C164C06C00F02000009008BD000002
:1017100000100240FEE7FEE7704730B501210020CF
:10172000FFF7B4FF4FF47A70FFF799F8002101201A
:10173000FFF7ACFF41F290711020FFF7A7FF4FF4C5
:101740001C516020FFF7A2FF01216120FFF79EFFDF
:1017500002214620FFF79AFF48F210011320FFF7FD
:1017600095FF48F2FE011220FFF790FF4FF4A061B1
:101770000220FFF78BFF41F230010320FFF786FFC5
:1017800040F2033421463020FFF780FF214631200C
:10179000FFF77CFF21463220FFF778FFE51E294640
:1017A0003320FFF773FF03213420FFF76FFF21463B
:1017B0003520FFF76BFF14213620FFF767FF214626
:1017C0003720FFF763FF21463820FFF75FFF2146F0
:1017D0003920FFF75BFF29463A20FFF757FF032127
:1017E0003B20FFF753FF21463C20FFF74FFF4FF40C
:1017F000A0513D20FFF74AFF4FF400719220FFF700
:1018000045FF21469320FFF741FF40F60D01902050
:10181000FFF73CFF41F218010320FFF737FFBDE857
:10182000304040F273110720FFF730BF10B543F28C
:101830000801E320FFF72AFF1221E720FFF726FF28
:1018400041F23121EF20FFF721FF00210120FFF7B6
:101850001DFF4FF4E0610220FFF718FF41F2300155
:101860000320FFF713FF00210420FFF70FFF40F2D2
:1018700007210820FFF70AFF00210920FFF706FFD4
:1018800000210A20FFF702FF00210C20FFF7FEFED7
:1018900000210D20FFF7FAFE00210F20FFF7F6FED2
:1018A00000211020FFF7F2FE07211120FFF7EEFEC6
:1018B00000211220FFF7EAFE00211320FFF7E6FEC9
:1018C000C820FFF70BF841F290611020FFF7DEFE11
:1018D00040F227211120FFF7D9FE3220FEF7FEFF4C
:1018E0001D211220FFF7D2FE3220FEF7F7FF4FF442
:1018F00000611320FFF7CAFE14212920FFF7C6FE5E
:101900000B212B20FFF7C2FE3220FEF7E7FF00215C
:101910002020FFF7BBFE00212120FFF7B7FE0721A3
:101920003020FFF7B3FE40F207713120FFF7AEFE23
:1019300006213220FFF7AAFE40F204713520FFF79E
:10194000A5FE41F604713620FFF7A0FE04213720E2
:10195000FFF79CFE00213820FFF798FE40F2067149
:101960003920FFF793FE40F201713C20FFF78EFE15
:101970000F213D20FFF78AFE00215020FFF786FE51
:10198000EF215120FFF782FE00215220FFF77EFE5B
:1019900040F23F115320FFF779FE4FF41C516020B5
:1019A000FFF774FE01216120FFF770FE00216A201D
:1019B000FFF76CFE00218020FFF768FE00218120E8
:1019C000FFF764FE00218220FFF760FE00218320E4
:1019D000FFF75CFE00218420FFF758FE00218520E0
:1019E000FFF754FE10219020FFF750FE00219220B7
:1019F000FFF74CFE03219320FFF748FE4FF4887158
:101A00009520FFF743FE00219720FFF73FFE0021BE
:101A10009820FFF73BFE41F218010320FFF736FE46
:101A2000BDE8104040F273110720FFF72FBE70474A
:101A3000FFF75AB810B594B038216846FEF7EFFBAF
:101A400014210EA8FEF7EBFB4FF40070FFF7D0F85F
:101A5000012000900004019002200324CDE9070436
:101A60001421CDE90A100C900D9009946846FFF7F7
:101A70004BFA08B172B6FEE70F20CDE90E04002044
:101A800010901190129002210EA8FFF717F900286C
:101A900001D072B6FEE714B010BD00000248016824
:101AA00041F470010160704788ED00E0FEE700003E
:101AB0000FB4084B10B504A902AA039800F0EEF881
:101AC000044602A9002000F080FC204610BC5DF80E
:101AD00014FB0000CB2300080907090E002804DBD3
:101AE00000F1E02080F80014704700F00F0000F1D2
:101AF000E02080F8141D704702E008C8121F08C1DA
:101B0000002AFAD170477047002001E001C1121F7E
:101B1000002AFBD1704700002DE9FF5F82B0002151
:101B2000DDE90430020DDDF840B0034318D044F67F
:101B30001050A2F2FF3242431514119801281FD011
:101B4000A5EB0B00401C5FEA000A4FF000064E4F69
:101B5000DFF83891B046504615D5CAF1000413E0BD
:101B6000119801244AA3012801D16FEA0B010298C0
:101B7000119AC0E90031C0E9024206B0BDE8F09F09
:101B8000CBF10000DFE704460021404A491842EB50
:101B90000450CDE9001012E0E00707D032463B4682
:101BA00040464946FEF746FB8046894632463B465C
:101BB00010461946FEF73EFB06460F466410002C01
:101BC000EAD1DDE90401DDE90023BAF1000F06DA0C
:101BD000FEF730FB42464B46FEF72CFB05E0FEF7D6
:101BE00059FD42464B46FEF755FD04460E4600227F
:101BF000284BFEF7D7FD03D84FF0FF30014607E032
:101C00000022254B20463146FEF79DFCFEF7B1FD34
:101C1000102409E0002C0ADB0A220023FEF7CEFB89
:101C2000039B30321A55641E50EA0102F2D1641C43
:101C3000039AC4F111031444119A012A03D001221A
:101C400008430DD10AE0084304D000204FF0110BE7
:101C5000119072E7A3EB0B056D1E0DE05B4504DDF3
:101C60004FF0000205F1010504E003DA4FF0000235
:101C7000A5F10105002AECD002981199C0E90231C2
:101C8000C0E9004579E70000000014400000F03F83
:101C9000300000000000F0430000E03F2DE9FF4F5E
:101CA00095B09B468946064600250FE2252877D148
:101CB00000242746F84A0121059400E0044316F861
:101CC000013F203B01FA03F01042F7D130782A2877
:101CD00011D06FF02F033078A0F13002092A16D806
:101CE000059A44F0020402EB820203EB4202104424
:101CF000761C0590EFE759F8042B0592002A03DAC9
:101D0000504244F40054059044F00204761C3078AC
:101D10002E2816D116F8010F44F004042A280DD0FD
:101D20006FF02F023078A0F13003092B09D807EBB0
:101D3000870302EB4303C718761CF3E759F8047BCB
:101D4000761C30786C280FD006DC4C2817D0682819
:101D50000DD06A2814D104E0742810D07A280FD14D
:101D60000DE044F400140AE044F4801401E044F46B
:101D700040147278824202D104F58014761C761CDD
:101D8000307866280BD013DC582877D009DC00287F
:101D900075D04528F6D04628F4D047281AD19DE1C1
:101DA00018E0632835D0642879D0652812D195E1F0
:101DB000702873D008DC6728F1D069286FD06E28AE
:101DC0000DD06F2806D1B5E073282CD0752875D0BA
:101DD000782874D05A46179990476D1C75E1C4F362
:101DE0000250022809D003280DD0D9F80010042889
:101DF0000DD00D6009F1040967E1D9F80010EA1768
:101E0000C1E90052F6E7D9F800100D80F2E70D7035
:101E1000F0E719F8041B8DF8001000208DF8010080
:101E2000EA46012003E059F804AB4FF0FF306107A8
:101E30004FF0000102D40DE008F101018846B942DB
:101E40000FDA8045F8DB1AF808100029F4D108E011
:101E500008F1010188468142FADB1AF808100029CE
:101E6000F6D105985B46A0EB080721463846179A3D
:101E700000F094FA284400EB080507E04DE029E162
:101E80000DE01AF8010B5A4617999047B8F101086E
:101E9000F7D25B4621463846179A13E142E00A2200
:101EA0000092C4F302524FF0000A022A08D059F8F7
:101EB00004CB032A4FEAEC710AD00DE029E02AE0B6
:101EC00009F1070121F00702F2E802C1914609E099
:101ED0000FFA8CFC4FEAEC71042A03D14FFA8CFC08
:101EE0004FEAEC71002907DA0A460021DCF1000C08
:101EF00061EB02012D2202E0220504D52B228DF890
:101F00000420012203E0E20701D02022F7E79046F7
:101F100059E00A2102E010220DE010214FF0000AE2
:101F200000910BE010224FF0000A44F0040408274F
:101F3000009203E008224FF0000A0092C4F302521C
:101F4000022A05D059F804CB0021032A08D009E061
:101F500009F1070121F00702F2E802C1914605E00C
:101F60001FFA8CFC042A01D10CF0FF0C4FF0000882
:101F7000220728D5702806D0009B83F0100353EA6F
:101F80000A0305D00EE040228DF80420012208E06B
:101F90005CEA010206D030228DF804208DF805009D
:101FA00002229046009B83F0080353EA0A030AD1F9
:101FB0005CEA010201D1620705D530228DF80420C8
:101FC0004FF001087F1E582804D034A003900EA8BB
:101FD00002900DE036A0F9E753466046009AFEF7FE
:101FE000EDF984460398825C0298401E02900270CC
:101FF0005CEA0100F0D1029806A9081A00F1200A53
:10200000600702D524F4803400E00127574502DD43
:10201000A7EB0A0000E0002000EB0A010090059801
:102020004144401A0590E00306D45B462146179AC6
:10203000059800F0B3F90544002706E001A85A46C8
:10204000C05D179990476D1C7F1C4745F6DBE00388
:102050000CD55B462146179A059800F09FF9054478
:1020600004E030205A46179990476D1C0099481E8D
:1020700000900029F5DC08E0029802995A460078A1
:10208000491C0291179990476D1CBAF10001AAF101
:10209000010AF1DC65E1000009280100303132332A
:1020A0003435363738396162636465660000000094
:1020B000303132333435363738394142434445467E
:1020C0000000000000F058F90544761C3078002824
:1020D0007FF4ECAD19B02846BDE8F08F620700D45C
:1020E000062709F1070222F0070CFCE80223E1466B
:1020F00003F000485FEA080C02D00FF2702C0DE0EC
:102100005FEA045C02D50FF2682C07E05FEAC47C4A
:1021100002D00FF2602C01E0AFF2700C4FF0FF38EC
:1021200023F00043CDF850C065280CD006DC4528CC
:1021300009D046281DD047283DD13DE0662818D05B
:1021400067287ED138E00021112F01DB112000E04B
:10215000781CCDE9000106A90EA8FFF7DDFCDDE93A
:102160000F010E9A03910021009207F1010A0491D8
:102170004DE04FF000400097CDE9011006A90EA8F0
:10218000FFF7CAFCDDE90F0203920E9B11990022B2
:10219000DDF80CA00093049211B9791C00EB010A40
:1021A000B7EB0A0004D4C0F1FF3007F1010A049034
:1021B000AAEB0700019044E0012F00DA012700217B
:1021C000112F01DD112000E03846CDE9000106A9FC
:1021D0000EA8FFF7A1FCDDE90F010E9A0391002183
:1021E00004910092BA4621070CD40399514500DAB4
:1021F0008A46BAF1010F05DD009AAAF10101515C8E
:10220000302908D0B84202DA10F1040F06DA0121B1
:10221000CDE9011015E0AAF10101E9E7002805DC8C
:10222000049901440491AAEB000102E0411C5145CC
:1022300000DD8A460499401A401C01904FF000408E
:102240000290200704D40198504501DBCDF80480AA
:1022500000208DF84F0002980DF14F07B0F1004FAC
:1022600025D02B200E9002984FF0020800280CDA9F
:10227000404202902D200E9007E00A210298FEF7BE
:1022800087F83031029007F8011DB8F10001A8F17C
:102290000108F2DC02980028EFD1791E0E98087030
:1022A000307800F0200040F0450007F8020D12A839
:1022B000C01B00F107081498007800B1012000EB62
:1022C0000A01019801EBE07105984144401A401E53
:1022D0000590E00306D45B462146179A059800F066
:1022E0005DF805441498007818B15A46179990473C
:1022F0006D1CE00324D55B462146179A059800F033
:102300004DF805441CE00498002807DBDDE90301D3
:10231000884203DD0098405C179901E0179930204E
:102320005A469047049805F10105401C0490019815
:10233000401E019004D12E205A46179990476D1CDB
:10234000BAF10001AAF1010ADDDC05E017F8010B82
:102350005A46179990476D1CB8F10001A8F1010881
:10236000F4DC5B462146179A0598ABE62D00000089
:102370002B000000200000002DE9F041044600255C
:102380001E461746880404D405E039462020B0478D
:102390006D1C641EF9D52846BDE8F0812DE9F04199
:1023A000044600251E469046C80301D5302700E0AC
:1023B0002027880404D505E041463846B0476D1C07
:1023C000641EF9D52846BDE8F0810A68531C0B60ED
:1023D0001070704700B587B014216846FDF71FFFE5
:1023E0000B48C16C41F00101C164C06C022100F0D6
:1023F00001000590402000900120CDE902010190EC
:1024000069464FF09040FEF77BFA07B000BD000030
:1024100000100240FEF770FBFFF70CFBFFF76CF9B2
:10242000FFF7D8FFFFF762F80020FEF7B7FF0020A4
:10243000FFF7B6F84FF6FF70FFF7C6F80B4C00BF7A
:10244000FEF71CFA84ED000A10EE100AFDF771FF8A
:1024500041EC100B06A153EC102B0748FFF728FBAB
:1024600005490020FFF700F8EAE700000800002017
:10247000543A252E346600001C00002000B585B0BB
:1024800014216846FDF7CBFE40200090002001900B
:10249000029069464FF09040FEF732FA05B000BD59
:1024A00000B585B014216846FDF7B9FE40200090C4
:1024B00001200190022003900020029069464FF015
:1024C0009040FEF71DFA05B000BD70B50446FFF759
:1024D000E7FF4FF09045002240212846FEF7F9FA29
:1024E0000F20401EFDD20CB1FFF7C8FF8E20401E0A
:1024F000FDD240212846FEF7E7FA00B9002440F259
:10250000CE20401EFDD2FFF7B9FF204670BDFF2050
:10251000AFF3008070B504465FF0080504F00100D9
:10252000FFF7D3FF640808B144F080046D1E15F076
:10253000FF05F3D1204670BD70B5FFF7B1FF4FF036
:102540009044002240212046FEF7C3FA41F6FF01E5
:10255000491EFDD2FFF792FF40F21E41491EFDD2F7
:10256000402125462046FEF7AFFA044641F6DE102C
:10257000401EFDD240212846FEF7A6FA00B90124EC
:10258000204670BD000000000000000000000000B8
:10259000000000000000000000000000000000003B
:1025A000000000000000000000000000000000002B
:1025B0000000000000008001800180018001800196
:1025C0008001800180018001800180018001800103
:1025D00000000000800180010000000000000000F9
:1025E0000000000000000000CC00CC00CC00CC00BB
:1025F000CC00CC0000000000000000000000000043
:1026000000000000000000000000000000000000CA
:1026100000000000000000000000000000000000BA
:10262000600C600C600C30063006FE1FFE1F30068A
:1026300038071803FE1FFE1F180318038C018C01B6
:102640008C01000000008000E003F80F9C0E8C1C41
:102650008C188C009800F801E007800E801C8C1804
:102660008C189C18B80CF00FE0038000800000006C
:10267000000000000000000000000E181B0C110CF0
:1026800011061106110311039B018E01C038C06CA5
:1026900060446044304430441844186C0C380000E6
:1026A000000000000000E001F003380718061806DB
:1026B0003003F001F000F8009C310E33061E061CBA
:1026C000061C063FFC73F021000000000000000023
:1026D00000000000000000000C000C000C000C00CA
:1026E0000C000C00000000000000000000000000D2
:1026F00000000000000000000000000000000000DA
:10270000000000000000000200038001C000C000C3
:1027100060006000300030003000300030003000D9
:102720003000300060006000C000C0008001000385
:1027300000020000000020006000C0008001800155
:10274000000300030006000600060006000600065F
:10275000000600060003000380018001C000600045
:102760002000000000000000000000000000000049
:10277000C000C000D806F807E001300338070000A9
:102780000000000000000000000000000000000049
:102790000000000000000000000000000000000039
:1027A00080018001800180018001FC3FFC3F8001AD
:1027B0008001800180018001000000000000000015
:1027C0000000000000000000000000000000000009
:1027D00000000000000000000000000000000000F9
:1027E0000000000000008001800100010001800065
:1027F00000000000000000000000000000000000D9
:10280000000000000000000000000000E007E007FA
:1028100000000000000000000000000000000000B8
:1028200000000000000000000000000000000000A8
:102830000000000000000000000000000000000098
:10284000000000000000C000C00000000000000008
:10285000000000000000000C000C0006000600064E
:102860000003000300038003800180018001C00099
:10287000C000C00060006000000000000000000018
:10288000000000000000E003F007380E180C0C18E0
:102890000C180C180C180C180C180C180C180C1818
:1028A000180C380EF007E0030000000000000000E4
:1028B00000000000000000018001C001F00198014B
:1028C00088018001800180018001800180018001F8
:1028D00080018001800180010000000000000000F4
:1028E000000000000000E003F80F180C0C180C1892
:1028F00000180018000C000600038001C0006000F2
:1029000030001800FC1FFC1F000000000000000049
:10291000000000000000E001F807180E0C0C0C0C81
:10292000000C0006C003C007000C001800180C18AB
:102930000C18180CF807E00300000000000000006D
:10294000000000000000000C000E000F000F800DC2
:10295000C00C600C600C300C180C0C0CFC3FFC3FE5
:10296000000C000C000C000C000000000000000037
:10297000000000000000F80FF80F180018000C000D
:10298000EC03FC071C0E001C0018001800180C18A3
:102990001C0C180EF807E003000000000000000007
:1029A000000000000000C007F00F381C18181800C5
:1029B0000C00CC03EC0F3C0E1C1C0C180C180C1853
:1029C000181C380EF007E0030000000000000000B3
:1029D000000000000000FC1FFC1F000C00060006A9
:1029E000000380038001C001C000E00060006000BF
:1029F00070003000300030000000000000000000D7
:102A0000000000000000E003F007380E180C180C5E
:102A1000180C3806F007F007180C0C180C180C18D6
:102A20000C18380CF80FE003000000000000000054
:102A3000000000000000E003F007380E1C0C0C182A
:102A40000C180C181C1C381EF81BE0190018000C80
:102A5000000C1C0EF807F001000000000000000050
:102A60000000000000000000000000000000000066
:102A70008001800100000000000000000000000054
:102A80000000000080018001000000000000000044
:102A90000000000000000000000000000000000036
:102AA0008001800100000000000000000000000024
:102AB0000000000080018001000100018000000092
:102AC0000000000000000000000000000000000006
:102AD000000000000010001C800FE003F800180048
:102AE000F800E003800F001C001000000000000050
:102AF00000000000000000000000000000000000D6
:102B000000000000F81F000000000000F81F000097
:102B100000000000000000000000000000000000B5
:102B200000000000000000000000000000000000A5
:102B30000000000008003800F001C007001F001866
:102B4000001FC007F001380008000000000000006E
:102B5000000000000000E003F80F180C0C180C181F
:102B60000018000C000600038001C000C000C00077
:102B700000000000C000C0000000000000000000D5
:102B80000000000000000000E00718180420C2291F
:102B9000224A114409440944094409221113E20C50
:102BA000024004201818E0070000000000000000A8
:102BB00000000000000080038003C006C006C006BD
:102BC000600C600C301830183018F83FF83F1C705B
:102BD0000C600C6006C006C0000000000000000091
:102BE000000000000000FC03FC0F0C0C0C180C187B
:102BF0000C180C0CFC07FC0F0C180C300C300C30B3
:102C00000C300C18FC1FFC07000000000000000046
:102C1000000000000000C007F01F38381C300C70A6
:102C200006600600060006000600060006000660B4
:102C30000C701C30F01FE0070000000000000000D6
:102C4000000000000000FE03FE0F060E0618061826
:102C500006300630063006300630063006300618DC
:102C60000618060EFE0FFE03000000000000000024
:102C7000000000000000FC3FFC3F0C000C000C00BA
:102C80000C000C00FC1FFC1F0C000C000C000C00C6
:102C90000C000C00FC3FFC3F0000000000000000A6
:102CA000000000000000F83FF83F1800180018006E
:102CB00018001800F81FF81F180018001800180056
:102CC00018001800180018000000000000000000A4
:102CD000000000000000E00FF83F3C780E6006E0C6
:102CE00007C00300030003FE03FE03C007C006C0C5
:102CF0000EC03CF0F83FE00F0000000000000000B4
:102D00000000000000000C300C300C300C300C3097
:102D10000C300C30FC3FFC3F0C300C300C300C30D5
:102D20000C300C300C300C300000000000000000B3
:102D3000000000000000800180018001800180010E
:102D4000800180018001800180018001800180017B
:102D5000800180018001800100000000000000006F
:102D60000000000000000006000600060006000645
:102D7000000600060006000600060006000618060B
:102D800018063807F003E001000000000000000012
:102D900000000000000006300618060C06060603B8
:102DA0008601C60066007600DE008E010603060678
:102DB000060C061806300660000000000000000047
:102DC000000000000000180018001800180018008B
:102DD0001800180018001800180018001800180033
:102DE00018001800F81FF81F000000000000000085
:102DF0000000000000000EE01EF01EF01EF036D8AD
:102E000036D836D836D866CC66CC66CCC6C6C6C6EA
:102E1000C6C6C6C686C386C3000000000000000008
:102E20000000000000000C301C303C303C306C30A6
:102E30006C30CC30CC308C310C330C330C360C363F
:102E40000C3C0C3C0C380C30000000000000000072
:102E5000000000000000E007F81F1C380E7006603C
:102E600003C003C003C003C003C003C003C00660A7
:102E70000E701C38F81FE007000000000000000082
:102E8000000000000000FC0FFC1F0C380C300C3060
:102E90000C300C300C18FC1FFC070C000C000C0054
:102EA0000C000C000C000C000000000000000000F2
:102EB000000000000000E007F81F1C380E700660DC
:102EC00003E003C003C003C003C003C007E0066300
:102ED0000E3F1C3CF83FE0F700C00000000000007F
:102EE000000000000000FE0FFE1F0638063006300E
:102EF00006300638FE1FFE0706030606060C0618F7
:102F000006180630063006600000000000000000D1
:102F1000000000000000E003F80F1C0C0C180C1857
:102F20000C001C00F803E00F001E003806300630CD
:102F30000E301C1CF80FE00700000000000000002D
:102F4000000000000000FE7FFE7F80018001800104
:102F50008001800180018001800180018001800169
:102F6000800180018001800100000000000000005D
:102F70000000000000000C300C300C300C300C3025
:102F80000C300C300C300C300C300C300C300C3061
:102F90000C301818F81FE0070000000000000000C7
:102FA00000000000000003600630063006300C18F8
:102FB0000C180C18180C180C380E30063006700758
:102FC00060036003C001C0010000000000000000B9
:102FD0000000000000000360C361C361C361663389
:102FE000663366336633663366336C1B6C1B6C1B4F
:102FF0002C1A3C1E380E380E0000000000000000A5
:103000000000000000000FE00C7018303018700C49
:10301000600EC00780038003C003E006700C301C04
:1030200018180C300E6007E00000000000000000DF
:1030300000000000000003C006600C301C38381887
:10304000300C6006E007C003800180018001800130
:10305000800180018001800100000000000000006C
:10306000000000000000FC7FFC7F006000300018C2
:10307000000C000600038001C00060003000180052
:103080000C000600FE7FFE7F000000000000000034
:10309000000000000000E003E0036000600060004A
:1030A0006000600060006000600060006000600020
:1030B0006000600060006000600060006000E0038D
:1030C000E00300000000300030006000600060009D
:1030D000C000C000C000C001800180018001000369
:1030E00000030003000600060000000000000000CE
:1030F000000000000000E003E00300030003000301
:1031000000030003000300030003000300030003A7
:103110000003000300030003000300030003E003B7
:10312000E003000000000000C001C0016003600374
:10313000600330063006180C180C00000000000078
:10314000000000000000000000000000000000007F
:10315000000000000000000000000000000000006F
:10316000000000000000000000000000000000005F
:10317000000000000000FFFFFFFF00000000000053
:103180000000000000000C000C000C000C000C0003
:103190000C00000000000000000000000000000023
:1031A000000000000000000000000000000000001F
:1031B000000000000000000000000000000000000F
:1031C000F003F8071C0C0C0C000FF00FF80C0C0CA3
:1031D0000C0C1C0FF80FF01800000000000000009D
:1031E0000000000000001800180018001800180067
:1031F000D803F80F380C18181818181818181818B9
:103200001818380CF80FD803000000000000000068
:1032100000000000000000000000000000000000AE
:10322000C003F007300E180C180018001800180022
:10323000180C300EF007C003000000000000000072
:103240000000000000000018001800180018001806
:10325000C01BF01F301C1818181818181818181848
:103260001818301CF01FC01B0000000000000000F8
:10327000000000000000000000000000000000004E
:10328000C003F00F300C1818F81FF81F18001800B2
:103290003818301CF00FC0070000000000000000CC
:1032A000000000000000800FC00FC000C000C00080
:1032B000F007F007C000C000C000C000C000C000A0
:1032C000C000C000C000C0000000000000000000FE
:1032D00000000000000000000000000000000000EE
:1032E000E00DF80F180E0C0C0C0C0C0C0C0C0C0C4C
:1032F0000C0C180EF80FE00D000C0C0C1C06F80757
:10330000F001000000001800180018001800180054
:10331000D807F80F381C1818181818181818181883
:1033200018181818181818180000000000000000DD
:10333000000000000000C000C0000000000000000D
:10334000C000C000C000C000C000C000C000C0007D
:10335000C000C000C000C00000000000000000006D
:10336000000000000000C000C000000000000000DD
:10337000C000C000C000C000C000C000C000C0004D
:10338000C000C000C000C000C000C000C000F80005
:103390007800000000000C000C000C000C000C0079
:1033A0000C0C0C060C038C01CC006C00FC009C0186
:1033B0008C030C030C060C0C000000000000000045
:1033C000000000000000C000C000C000C000C0003D
:1033D000C000C000C000C000C000C000C000C000ED
:1033E000C000C000C000C0000000000000000000DD
:1033F00000000000000000000000000000000000CD
:103400007C3CFF7EC7E383C183C183C183C183C189
:1034100083C183C183C183C100000000000000009C
:10342000000000000000000000000000000000009C
:103430009807F80F381C18181818181818181818A2
:1034400018181818181818180000000000000000BC
:10345000000000000000000000000000000000006C
:10346000C003F00F300C181818181818181818186E
:103470001818300CF00FC00300000000000000001E
:10348000000000000000000000000000000000003C
:10349000D803F80F380C1818181818181818181816
:1034A0001818380CF80FD803180018001800180066
:1034B00018000000000000000000000000000000F4
:1034C000C01BF01F301C18181818181818181818D6
:1034D0001818301CF01FC01B001800180018001826
:1034E00000180000000000000000000000000000C4
:1034F000B007F003700030003000300030003000C2
:1035000030003000300030000000000000000000FB
:1035100000000000000000000000000000000000AB
:10352000E003F003380E180C3800F003C007000C5D
:10353000180C380EF007E003000000000000000047
:1035400000000000000000008000C000C000C000BB
:10355000F007F007C000C000C000C000C000C000FD
:10356000C000C000C007800700000000000000008D
:10357000000000000000000000000000000000004B
:1035800018181818181818181818181818181818BB
:103590001818381CF01FE01900000000000000009F
:1035A000000000000000000000000000000000001B
:1035B0000C18180C180C180C300630063006600376
:1035C00060036003C001C0010000000000000000B3
:1035D00000000000000000000000000000000000EB
:1035E000C141C141C3616363636363633636363689
:1035F00036361C1C1C1C1C1C0000000000000000B7
:1036000000000000000000000000000000000000BA
:103610001C38381C300C60066003600360036003D4
:103620006006300C381C1C38000000000000000050
:10363000000000000000000000000000000000008A
:103640001830301830187018600C600CE00CC00690
:10365000C00680038003800380018001C001F00068
:1036600070000000000000000000000000000000EA
:10367000FC1FFC1F000C000600038001C00060005E
:1036800030001800FC1FFC1F0000000000000000BC
:1036900000000000000000038001C000C000C00066
:1036A000C000C000C000600060003000600040004A
:1036B000C000C000C000C000C000C0008001000306
:1036C0000000000000008001800180018001800175
:1036D00080018001800180018001800180018001E2
:1036E00080018001800180018001800180018001D2
:1036F0008001000000006000C000C0018001800166
:103700008001800180010003000300060003000126
:10371000800180018001800180018001C000600083
:103720000000000000000000000000000000000099
:1037300000000000F010F81F080F0000000000005B
:103740000000000000000000000000000000000079
:10375000000000000000000000000000010203045F
:103760000607080984370008000000201C0000003C
:10377000F81A0008A03700081C00002014040000FC
:10378000081B00080000FFFF000000000000000010
:103790001000000001000000000000000024F40000
:04000005080001D915
:00000001FF
