:020000040800F2
:1000000038040020ED0100088B1600083D1200089E
:1000100089160008990700081D1A00080000000052
:10002000000000000000000000000000A31900080C
:10003000CD070008000000008D160008A519000873
:10004000070200080702000807020008070200086C
:10005000070200080702000807020008070200085C
:10006000070200080702000807020008070200084C
:10007000070200080702000807020008070200083C
:10008000070200080000000007020008070200083D
:10009000070200080702000807020008070200081C
:1000A000070200080702000807020008070200080C
:1000B00007020008070200080702000807020008FC
:1000C00007020008070200080702000807020008EC
:1000D00007020008070200080702000807020008DC
:1000E00007020008070200080702000807020008CC
:1000F00007020008070200080702000800000000CD
:1001000000000000070200080000000007020008CD
:1001100007020008000000000702000807020008AC
:10012000070200080702000807020008070200088B
:10013000070200080000000000000000070200089D
:10014000070200080702000800000000000000008D
:10015000000000000000000000000000000000009F
:10016000000000000000000000000000070200087E
:10017000070200080000000000000000000000006E
:10018000000000000702000800000000000000005E
:10019000000000000000000000000000000000005F
:1001A000000000000000000007020008070200082D
:1001B000070200080702000807020008000000000C
:1001C000000000000702000800000000000000001E
:1001D0000702000807020008DFF80CD000F03CFA24
:1001E000004800474523000838040020064880479F
:1001F00006480047FEE7FEE7FEE7FEE7FEE7FEE70C
:10020000FEE7FEE7FEE7FEE7011A0008D901000855
:10021000D2B201E000F8012B491EFBD27047002248
:10022000F6E710B513460A4604461946FFF7F0FFF5
:10023000204610BD00F0004230F000400AD0C10D51
:1002400001F56071C0F3160042EA0151C20840078F
:100250001143704700200146704730B50B460146F8
:1002600000202022012409E021FA02F59D4205D355
:1002700003FA02F5491B04FA02F52844151EA2F1FF
:100280000102F1DC30BD2DE9F05F05460020924609
:100290009B4688460646814640241BE02846414648
:1002A0004746224600F0F9F953465A46C01A914192
:1002B00010D311461846224600F0E0F92D1A67EBDC
:1002C00001084F4622460120002100F0D7F917EB24
:1002D00000094E41201EA4F10104DFDC48463146EE
:1002E0002A464346BDE8F09F2DE9FE4F804681EA4D
:1002F0000300C00F0C46009021F0004123F00045A0
:10030000B8EB0200A94105D24046214690461C4662
:100310000B46024623F00040104347D0270DC7F399
:100320000A00C3F30A510290401A019040286BDA88
:10033000C3F3130040F4801B0098924620B10023C1
:10034000D2EB030A63EB0B0B01985946C0F1400254
:10035000504600F093F906460D4650465946019A1C
:1003600000F0ABF910EB08006141002487EA11525C
:1003700084EAE7731A4340D0009A62B3019A012AD3
:100380004FEA075215DC001B61EB02014FF00042FF
:1003900002EA0752CDE90042001C41F580113246C5
:1003A0002B4600F0ABF903B0BDE8F08F4046214684
:1003B000F9E7001B61EB0201001C41F580130018F6
:1003C0005B412018A2F5001747EB030140EAD57006
:1003D000B6196D4111E06D084FEA360645EAC07561
:1003E0004FEA0752001B61EB0201001C41F580112E
:1003F00049084FEA30000019514132462B4603B0FC
:10040000BDE8F04F00F06BB90098012240000023D6
:10041000D0EB020263EBE073009821464FEAE074F0
:10042000B8EB000061EB0401E9E783F000435BE710
:1004300081F0004158E72DE9FE4F81EA030404F002
:10044000004421F0004100944FF0000B23F00043E2
:1004500050EA01045ED052EA03045BD0C3F30A54AD
:10046000C1F30A552C44A4F2F3340194A0FB0254C6
:10047000C1F3130141F48011C3F3130343F4801358
:1004800001FB024400FB034E840A970A44EA8154AC
:1004900047EA8357A4FB076802958D0A05FB078589
:1004A0004FEA932C04FB0C542705029D4FEA065893
:1004B00047EA1637B5EB08056EEB070C870E920E70
:1004C00047EA811742EA8312A7FB0201B6EB0B0150
:1004D00064EB00042B0D43EA0C335E1844EB1C5014
:1004E000DA465146E7FB0201C5F313044FEA0B332A
:1004F00043EA14534FEA0432019C43EA0603A4F191
:100500000C040294009CCDE900B400F0F7F803B0AD
:10051000BDE8F08F00200146F9E72DE9F04D81EAB2
:10052000030404F0004B21F0004514464FF0000A8C
:1005300023F0004150EA050220D054EA01021DD008
:10054000C5F30A570246C5F31303C1F31300C1F301
:100550000A5640F4801543F48013A7EB0608101BDD
:10056000D64608F2FD3873EB050002D308F1010806
:1005700001E092185B41B8F1000F03DA0020014658
:10058000BDE8F08D00204FF48011064684460EE051
:10059000171B73EB050705D3121B63EB050306431B
:1005A0004CEA010C49084FEA300092185B4150EACE
:1005B0000107EDD152EA030012D082EA040083EA77
:1005C0000501084305D0101BAB4106D201220023D0
:1005D00006E000224FF0004302E06FF001025310EA
:1005E0001AEB06004CEB085110EB0A0041EB0B0133
:1005F000BDE8F04D00F073B8C1F30A52C1F3130126
:1006000040F2FF3341F480119A4202DA00200146A1
:10061000704740F233439A42A2F2334202DC524224
:1006200000F03BB800F02AB830B5041E71F10004A8
:1006300004DB4FF00044404264EB0101141E73F1EF
:10064000000405DB1C464FF00043524263EB0403F9
:10065000994208BF904230BD064C074D06E0E06865
:1006600040F0010394E8070098471034AC42F6D3F9
:10067000FFF7B6FD8C350008AC350008202A04DBF6
:10068000203A00FA02F1002070479140C2F12003A5
:1006900020FA03F3194390407047202A04DB203AE4
:1006A00021FA02F00021704721FA02F3D040C2F192
:1006B00020029140084319467047202A06DBCB17D9
:1006C000203A41FA02F043EAE07306E041FA02F30D
:1006D000D040C2F12002914008431946704710B53E
:1006E000141E73F1000408DA401C41F10001921855
:1006F0005B411A4301D120F0010010BD2DE9F04DFE
:1007000092469B4611B1B1FA81F202E0B0FA80F252
:1007100020329046FFF7B2FF04460F4640EA0A0037
:1007200041EA0B0153465A46084313D0114653EA97
:10073000010019D0C8F140025046FFF7AEFF054650
:100740000E46504659464246FFF798FF084305D0EB
:10075000012004E020463946BDE8F08D0020054325
:1007600046EAE0762C4337430A986305E40AA0EB97
:1007700008000022FD0A44EA47540A3002D500204E
:100780000146E9E7010510196941DDE9084500194D
:100790006941BDE8F04DA2E7FEE7000010B5012277
:1007A0004FF47F41074800F017F9074C012204215C
:1007B000204600F011F920460022BDE81040042137
:1007C00000F00AB900080048000C004870470022F9
:1007D00040F6B83306E00021491C89B29942FBD3A8
:1007E000521C92B28242F6D37047000070B50446A4
:1007F00000F0F8F80546601C02D004484068044444
:1008000000F0F0F8401BA042FAD370BD10000020A9
:100810002DE9FC4FDFF8A0A1002301250AF1040B0C
:1008200003244FF00F0C0BF1040EBDE005FA03F6A4
:1008300032406FD04F68012F05D0022F03D0112F07
:1008400001D0122F17D1D0F808905F0004FA07F8F2
:1008500029EA08090097D1F80C8008FA07F848EA55
:100860000908C0F808804768B7430E79C6F3001638
:100870009E403E434660C6684FEA430804FA08F7C4
:10088000BE4301978F6807FA08F73743C7604E6881
:10089000022E01D0122E13D1DE0800EB8606009640
:1008A000366A5F07FF0E0CFA07F926EA0906D1F847
:1008B000109009FA07F949EA0609009EC6F8209047
:1008C0000668019FBE430F7907F0030707FA08F790
:1008D000374307604E68F60065D5384E376E47F0EF
:1008E00001073766366E23F0030706F0010600960F
:1008F000334E3E44B146B6689F074FEA17780CFA6C
:1009000008F7BE43B0F1904F05D02E4FB84204D146
:10091000012717E047E0002714E02B4FB84201D130
:1009200002270FE0294FB84201D103270AE0284FE0
:10093000B84201D1042705E0264FB84201D105276E
:1009400000E0062707FA08F73743C9F80870DAF815
:1009500000605746D1F8048096435FEAC83800D556
:1009600016433E60DBF800605F46D1F80480964392
:100970005FEA883800D516433E60DEF800607746AF
:10098000D1F8048096435FEAC82800D516433E603C
:10099000094F0C373E68D1F8048096435FEA8828F7
:1009A00000D516433E605B1C0A6832FA03F67FF4FA
:1009B0003DAFBDE8FC8F0000000401400010024084
:1009C000000001400004004800080048000C0048F6
:1009D00000100048001400480AB18161704781622C
:1009E0007047000001488068704700001000002038
:1009F00002488168426811448160704710000020FD
:100A000010B50024032000F069F8002000F008F879
:100A100008B1012401E000F025F8204610BD0000D7
:100A200070B50E4E05460024706898B14FF47A7187
:100A3000B1FBF0F00A490968B1FBF0F000F0EAFB05
:100A400040B9102D06D200222946501E00F026F88B
:100A5000356000E00124204670BD00001000002039
:100A60001C0000200B4808B5016E41F00101016631
:100A7000016E01F001010091816D41F080518165AD
:100A8000806D00F0805000900348816841F48041FF
:100A9000816008BD0010024000700040F0B40E4BB1
:100AA0001B680C46C3F30223C3F10705042D00D9CC
:100AB0000425191D072901D2002300E0DB1E0126B1
:100AC00006FA05F1491E214099409E40761E1640C7
:100AD0003143F0BC00F0B8BF0CED00E0064900F077
:100AE000070208684FF6FF03184040EA0220034A55
:100AF00010430860704700000CED00E00000FA05AC
:100B00002B492C4B0A6832214A432B4940B1B0F59E
:100B1000007F086829D020F4C06040F480602CE099
:100B20000868C0F34120022804D051F8800F20F457
:100B3000807022E0D1F8800020F48070C1F880003D
:100B4000086820F4C06040F400700860B2FBF3F065
:100B5000401C00E0401E4A69520501D50028F9D129
:100B6000486940050AD503207047C0F34120022898
:100B700006D051F8800F40F4807008600020704764
:100B8000D1F8800040F48070C1F88000086820F43B
:100B9000C06040F400700860B2FBF3F0401C00E05D
:100BA000401E4A695205DBD50028F9D1D8E700007C
:100BB0001C00002040420F00007000402DE9F0476B
:100BC0000E4605004FF0000725D0DFF8AC81D8F8BD
:100BD000000000F00F00B0420CD2D8F8001021F055
:100BE0000F013143C8F80010D8F8000000F00F00E2
:100BF000B04210D12968614CC80741F2883A5AD0F6
:100C00006868DFF87C91032808D0022820682DD07E
:100C1000400500282CDB0120BDE8F087206880011A
:100C2000F9D5E06800F00302E068C0F30310401C4F
:100C3000032A19D0534A00BFB2FBF0F0E268C2F3B6
:100C400006225043E268C2F34162521C5200B0FBDC
:100C5000F2F0484517D9A06810F0F00F0CD08807C3
:100C600011D5A86840B10EE0474AE5E78003D0E718
:100C700000F092F8484506D9A06820F0F00040F056
:100C80008000A0608027A068696820F00300084306
:100C9000A060FFF7A7FE814606E000BFFFF7A2FEB7
:100CA000A0EB090151453AD8A068696800F00C0032
:100CB000B0EB810FF2D12868810714D5400703D526
:100CC000A06840F4E060A0602878000705D5A0681F
:100CD00020F4605040F4E060A060A068A96820F0B3
:100CE000F000084304E0802F03D1A06820F0F0005A
:100CF000A060D8F80010404601F00F01B14216D9AB
:100D0000016821F00F0131430160FFF76BFE0746D8
:100D100007E000BFFFF766FEC11B514501D9032064
:100D20007AE7D8F8000000F00F00B042F2D128783E
:100D3000400705D5A068E96820F4E0600843A0609A
:100D40002878000706D5A068296920F4605040EA99
:100D5000C100A06000F020F8A1680C4AC1F30311A3
:100D6000515C01F01F01C84009490860094800684A
:100D7000BDE8F047FFF754BE0020024000100240DB
:100D800000B4C4040024F40000366E017C35000871
:100D90001C00002010000020184910B58868C0F31E
:100DA00081021748012A0BD08A68164BC2F38102D0
:100DB000022A06D08A68C2F38102032A03D00020E7
:100DC00010BD184610BDCA6802F00304CA68C2F319
:100DD0000312521C032C02D0B0FBF2F001E0B3FB73
:100DE000F2F0CA68C968C2F306225043C1F34161F8
:100DF000491C4900B0FBF1F010BD0000001002409A
:100E00000024F40000366E012DE9F84304007AD086
:100E10002078FA4DC00747D0A868E96800F00C00B8
:100E200001F003010C2802D0082817D001E00329A3
:100E300014D06068B0F5803F17D0B0F5A02F2868B7
:100E400017D020F480302860286820F480202860A3
:100E50006068E0B1FFF7C6FD064614E0286880032D
:100E600022D560680028D2D01EE0286840F4803087
:100E7000EDE740F480202860F7E700BFFFF7B2FD00
:100E8000801B642870D828688003F7D50CE0FFF732
:100E9000A9FD064605E000BFFFF7A4FD801B6428FE
:100EA000F0D828688003F7D4207880074CD5A8684C
:100EB000E96800F00C0001F003010C2802D00428BE
:100EC0000DD001E002290AD0E068002828682BD064
:100ED00040F480702860FFF785FD064619E0286819
:100EE000400502D5E068002891D06868217C20F098
:100EF000FE4040EA01606860C1480068FFF790FD6D
:100F0000002800D120E076E1FFF76CFD801B02286D
:100F1000B8D828684005F7D56868217C20F0FE40E5
:100F200040EA016068600FE020F480702860FFF7FD
:100F300059FD064605E000BFFFF754FD801B02285F
:100F4000A0D828684005F7D42078000729D5606923
:100F50000028D5F8940013D040F00100C5F89400A3
:100F6000FFF740FD064606E090E000BFFFF73AFDC0
:100F7000801B022886D8D5F894008007F6D510E0AB
:100F800020F00100C5F89400FFF72CFD064604E0B0
:100F9000FFF728FD801B022878D8D5F89400800739
:100FA000F6D42078400761D5A86D0026C00008D48B
:100FB000A86D40F08050A865A86D012600F0805013
:100FC000009090480168C90511D40168804641F439
:100FD00080710160FFF706FD074604E0FFF702FDA0
:100FE000C01B022852D8D8F80000C005F6D5A0686A
:100FF000012815D00528D5F8900016D020F0010062
:10100000C5F89000D5F8900020F00400C5F89000D5
:10101000A06841F28838B8B1FFF7E4FC07460EE05B
:10102000D5F8900040F00100F0E740F00400C5F86A
:101030009000F5E7FFF7D6FCC11B414526D8D5F84F
:1010400090008007F6D50CE0FFF7CCFC074604E0E3
:10105000FFF7C8FCC11B414518D8D5F890008007A0
:10106000F6D41EB1A86D20F08050A86520788006C7
:1010700029D5A0690028D5F8980013D040F00100C8
:10108000C5F89800FFF7AEFC064606E077E000BF23
:10109000FFF7A8FC801B022877D8D5F898008007B6
:1010A000F6D510E020F00100C5F89800FFF79AFC93
:1010B000064604E0FFF796FC801B022865D8D5F8A9
:1010C00098008007F6D4E069F0B3A968C1F3810104
:1010D000032961D00228286820F0807028600BD096
:1010E000E86820F00300E860E86847490840E860E5
:1010F000FFF778FC04464BE0FFF774FC064604E07B
:10110000FFF770FC801B02283FD828688001F7D4C5
:10111000F4E908016FF00F0202EB01110843218A84
:101120005204490802EB4151A26841EA02210843F6
:10113000217D4FF07E42490802EB41610843217B4B
:1011400040EAC160E96800E062E0304A11400843CB
:10115000E860286840F080702860E86840F080709F
:10116000E860FFF73FFC044605E000BFFFF73AFCEC
:10117000001B022809D828688001F7D548E004E060
:10118000FFF730FC001B022802D90320BDE8F883DA
:1011900028688001F4D43BE00128F7D0E868226A8F
:1011A00000F00301914226D1616A00F0F0020901CA
:1011B000103991421FD1A26A00F4FE41B1EB022F17
:1011C00019D194F82C2000F07841B1EBC26F12D104
:1011D000218E00F4C00249084905A1F50011914291
:1011E00009D194F8341000F0C06049084906A1F113
:1011F000007181420CD00120C8E7000000100240BD
:101200001000002000700040FFFFEEFE0C809F01E8
:101210000020BBE710B5401EB0F1807F01D3012054
:1012200010BD4FF0E02460610F21601700F00CFC4E
:101230000020A06107202061002010BDFEE7000013
:1012400000B585B014216846FEF7E9FF4FF6FF7040
:10125000009000200321CDE9020101906946024877
:10126000FFF7D6FA05B000BD0008004800B585B00C
:1012700014216846FEF7D3FF4FF6FF70009001205F
:101280000190032003900020029069460248FFF776
:10129000BFFA05B000BD00000008004870B500248A
:1012A00006462146204600F003F900F041F94FF4CC
:1012B0009635304600F010F9641CAC42F9D370BD8D
:1012C00030B587B014216846FEF7A9FF1E48C16CEF
:1012D00041F00401C164C16C01F004010591C16CCD
:1012E00041F00101C164C16C01F001010591C16CC3
:1012F00041F00201C164C06C012500F002000590BC
:101300004FF44870CDE90005002403946946029427
:101310000E48FFF77DFA280203940090CDE90154AE
:101320004FF0904469462046FFF772FAFFF79EFFA0
:10133000A06940F48070A06104481830016841F44D
:101340000871016007B030BD001002400004004881
:10135000203AD2B2034B02EB420203EB021200F03E
:1013600019B80000AC230008F0B50E46074600256A
:1013700040F23F1407E021463846FFF7E9FF103CF2
:101380006D1CA4B2761C3278002A01D0142DF2D341
:10139000F0BD00002DE9F04791468A46002604463C
:1013A00000F086F8DFF84080012700BF00F0C0F8A9
:1013B0005FF0000539F8160007FA05F108424046CB
:1013C00001D1408800E0008800F086F86D1C102DE7
:1013D000F0D3641CE4B25146204600F069F8761C54
:1013E000182EE3D3BDE8F0870000002010B5FFF70A
:1013F00067FF002000F014F8084CA080A088A0F53A
:101400000241303906D000F0CBF9002000F008F896
:10141000A08010BD00F03BF9F7E7000000000020BD
:1014200070B51D490A6842F400720A600A6842F405
:1014300080720A60184C103C226842F02002226040
:10144000164A1060086840F02000086000BF00BF26
:1014500000BF206840F020002060206840F48070C9
:101460002060FFF7EDFE4FF09041886A40F48070F5
:10147000886200BF00BF00BF0848001F006885B237
:10148000886940F480708861FFF7F0FE206840F4BE
:1014900000702060284670BD2804004814080048E9
:1014A00001B5BDF800000149488008BD00000020DA
:1014B00010B50C460146202000F068F82146BDE832
:1014C0001040212000F062B801B5BDF800000149CC
:1014D000088008BD00000020134A116841F4007123
:1014E0001160114910390B6843F480730B600B686D
:1014F00043F020030B600D4B1860106840F0200093
:10150000106000BF00BF00BF086840F02000086006
:10151000086840F48070086000BF00BF00BF086822
:1015200040F4007008607047280400481408004820
:101530001449086840F400700860086840F480703E
:10154000086010481038026842F0200202600E4B1A
:1015500022221A600A6842F020020A6000BF00BF1F
:1015600000BF016841F020010160016841F4807111
:10157000016000BF00BF00BF016841F4007101605D
:10158000704700002804004814080048184B10B5A4
:101590001A6842F400721A601A6842F480721A6083
:1015A000134A103A146844F020041460114C20606F
:1015B000186840F02000186000BF00BF00BF10682E
:1015C00040F020001060106840F4807010602160CE
:1015D000186840F02000186000BF00BF00BF10680E
:1015E00040F020001060106840F48070106010BD62
:1015F0002804004814080048F0B587B01421684654
:10160000FEF70DFE1D48C16C41F00401C164C16CC0
:1016100001F004010591C16C41F02001C164C16C6D
:1016200001F020010591C16C41F00801C164C06C5A
:10163000134E00F008004FF47F440590012221462C
:101640003046FFF7C9F90F4F012204213846FFF752
:10165000C3F90125CDE900450024029469463046CE
:101660000394FFF7D5F804200090CDE901546946B2
:1016700038460394FFF7CCF807B0F0BD00100240E5
:1016800000080048000C0048FEE77047704730B57E
:1016900001210020FFF77AFF4FF47A70FFF797F8E7
:1016A00000210120FFF772FF41F290711020FFF737
:1016B0006DFF4FF41C516020FFF768FF012161208E
:1016C000FFF764FF02214620FFF760FF48F2100198
:1016D0001320FFF75BFF48F2FE011220FFF756FFD1
:1016E0004FF4A0610220FFF751FF41F230010320C7
:1016F000FFF74CFF40F2033421463020FFF746FF4E
:1017000021463120FFF742FF21463220FFF73EFFFE
:10171000E51E29463320FFF739FF03213420FFF768
:1017200035FF21463520FFF731FF14213620FFF722
:101730002DFF21463720FFF729FF21463820FFF7EC
:1017400025FF21463920FFF721FF29463A20FFF7E0
:101750001DFF03213B20FFF719FF21463C20FFF727
:1017600015FF4FF4A0513D20FFF710FF4FF400711B
:101770009220FFF70BFF21469320FFF707FF40F66B
:101780000D019020FFF702FF41F218010320FFF73F
:10179000FDFEBDE8304040F273110720FFF7F6BEB2
:1017A00010B543F20801E320FFF7F0FE1221E72015
:1017B000FFF7ECFE41F23121EF20FFF7E7FE0021B9
:1017C0000120FFF7E3FE4FF4E0610220FFF7DEFEA9
:1017D00041F230010320FFF7D9FE00210420FFF77A
:1017E000D5FE40F207210820FFF7D0FE0021092096
:1017F000FFF7CCFE00210A20FFF7C8FE00210C20D5
:10180000FFF7C4FE00210D20FFF7C0FE00210F20CE
:10181000FFF7BCFE00211020FFF7B8FE07211120C2
:10182000FFF7B4FE00211220FFF7B0FE00211320C5
:10183000FFF7ACFEC820FEF7D9FF41F290611020FF
:10184000FFF7A4FE40F227211120FFF79FFE322070
:10185000FEF7CCFF1D211220FFF798FE3220FEF785
:10186000C5FF4FF400611320FFF790FE14212920DB
:10187000FFF78CFE0B212B20FFF788FE3220FEF7AE
:10188000B5FF00212020FFF781FE00212120FFF776
:101890007DFE07213020FFF779FE40F207713120ED
:1018A000FFF774FE06213220FFF770FE40F204714C
:1018B0003520FFF76BFE41F604713620FFF766FE18
:1018C00004213720FFF762FE00213820FFF75EFE7B
:1018D00040F206713920FFF759FE40F201713C20B9
:1018E000FFF754FE0F213D20FFF750FE002150204E
:1018F000FFF74CFEEF215120FFF748FE0021522058
:10190000FFF744FE40F23F115320FFF73FFE4FF434
:101910001C516020FFF73AFE01216120FFF736FEDF
:1019200000216A20FFF732FE00218020FFF72EFE03
:1019300000218120FFF72AFE00218220FFF726FEEA
:1019400000218320FFF722FE00218420FFF71EFEE6
:1019500000218520FFF71AFE10219020FFF716FEC8
:1019600000219220FFF712FE03219320FFF70EFEC5
:101970004FF488719520FFF709FE00219720FFF7AB
:1019800005FE00219820FFF701FE41F21801032017
:10199000FFF7FCFDBDE8104040F273110720FFF790
:1019A000F5BD7047FFF724B810B594B038216846EC
:1019B000FEF735FC14210EA8FEF731FC4FF4007041
:1019C000FFF79EF8012000900004019002200324FC
:1019D000CDE907041421CDE90A100C900D9009946B
:1019E0006846FFF711FA0F20CDE90E040020109091
:1019F0001190129003210EA8FFF7E0F814B010BD6B
:101A00000548016841F47001016003494FF000602E
:101A1000803908607047000088ED00E0FEE70000B4
:101A20000FB4084B10B504A902AA039800F0EEF811
:101A3000044602A9002000F080FC204610BC5DF89E
:101A400014FB00003B2300080907090E002804DBF3
:101A500000F1E02080F80014704700F00F0000F162
:101A6000E02080F8141D704702E008C8121F08C16A
:101A7000002AFAD170477047002001E001C1121F0F
:101A8000002AFBD1704700002DE9FF5F82B00021E2
:101A9000DDE90430020DDDF840B0034318D044F610
:101AA0001050A2F2FF3242431514119801281FD0A2
:101AB000A5EB0B00401C5FEA000A4FF000064E4FFA
:101AC000DFF83891B046504615D5CAF1000413E04E
:101AD000119801244AA3012801D16FEA0B01029851
:101AE000119AC0E90031C0E9024206B0BDE8F09F9A
:101AF000CBF10000DFE704460021404A491842EBE1
:101B00000450CDE9001012E0E00707D032463B4612
:101B100040464946FEF78FFC8046894632463B46A2
:101B200010461946FEF787FC06460F466410002C47
:101B3000EAD1DDE90401DDE90023BAF1000F06DA9C
:101B4000FEF779FC42464B46FEF775FC05E0FEF7D2
:101B5000E4FC42464B46FEF7E0FC04460E460022FB
:101B6000284BFEF761FD03D84FF0FF30014607E038
:101B70000022254B20463146FEF7B6FBFEF73CFD22
:101B8000102409E0002C0ADB0A220023FEF77BFB6D
:101B9000039B30321A55641E50EA0102F2D1641CD4
:101BA000039AC4F111031444119A012A03D00122AB
:101BB00008430DD10AE0084304D000204FF0110B78
:101BC000119072E7A3EB0B056D1E0DE05B4504DD84
:101BD0004FF0000205F1010504E003DA4FF00002C6
:101BE000A5F10105002AECD002981199C0E9023153
:101BF000C0E9004579E70000000014400000F03F14
:101C0000300000000000F0430000E03F2DE9FF4FEE
:101C100095B09B468946064600250FE2252877D1D8
:101C200000242746F84A0121059400E0044316F8F1
:101C3000013F203B01FA03F01042F7D130782A2807
:101C400011D06FF02F033078A0F13002092A16D896
:101C5000059A44F0020402EB820203EB42021044B4
:101C6000761C0590EFE759F8042B0592002A03DA59
:101C7000504244F40054059044F00204761C30783D
:101C80002E2816D116F8010F44F004042A280DD08E
:101C90006FF02F023078A0F13003092B09D807EB41
:101CA000870302EB4303C718761CF3E759F8047B5C
:101CB000761C30786C280FD006DC4C2817D06828AA
:101CC0000DD06A2814D104E0742810D07A280FD1DE
:101CD0000DE044F400140AE044F4801401E044F4FC
:101CE00040147278824202D104F58014761C761C6E
:101CF000307866280BD013DC582877D009DC002810
:101D000075D04528F6D04628F4D047281AD19DE151
:101D100018E0632835D0642879D0652812D195E180
:101D2000702873D008DC6728F1D069286FD06E283E
:101D30000DD06F2806D1B5E073282CD0752875D04A
:101D4000782874D05A46179990476D1C75E1C4F3F2
:101D50000250022809D003280DD0D9F80010042819
:101D60000DD00D6009F1040967E1D9F80010EA17F8
:101D7000C1E90052F6E7D9F800100D80F2E70D70C6
:101D8000F0E719F8041B8DF8001000208DF8010011
:101D9000EA46012003E059F804AB4FF0FF30610739
:101DA0004FF0000102D40DE008F101018846B9426C
:101DB0000FDA8045F8DB1AF808100029F4D108E0A2
:101DC00008F1010188468142FADB1AF8081000295F
:101DD000F6D105985B46A0EB080721463846179ACE
:101DE00000F094FA284400EB080507E04DE029E1F3
:101DF0000DE01AF8010B5A4617999047B8F10108FF
:101E0000F7D25B4621463846179A13E142E00A2290
:101E10000092C4F302524FF0000A022A08D059F887
:101E200004CB032A4FEAEC710AD00DE029E02AE046
:101E300009F1070121F00702F2E802C1914609E029
:101E40000FFA8CFC4FEAEC71042A03D14FFA8CFC98
:101E50004FEAEC71002907DA0A460021DCF1000C98
:101E600061EB02012D2202E0220504D52B228DF820
:101E70000420012203E0E20701D02022F7E7904688
:101E800059E00A2102E010220DE010214FF0000A73
:101E900000910BE010224FF0000A44F004040827E0
:101EA000009203E008224FF0000A0092C4F30252AD
:101EB000022A05D059F804CB0021032A08D009E0F2
:101EC00009F1070121F00702F2E802C1914605E09D
:101ED0001FFA8CFC042A01D10CF0FF0C4FF0000813
:101EE000220728D5702806D0009B83F0100353EA00
:101EF0000A0305D00EE040228DF80420012208E0FC
:101F00005CEA010206D030228DF804208DF805002D
:101F100002229046009B83F0080353EA0A030AD189
:101F20005CEA010201D1620705D530228DF8042058
:101F30004FF001087F1E582804D034A003900EA84B
:101F400002900DE036A0F9E753466046009AFEF78E
:101F50009AF984460398825C0298401E02900270AF
:101F60005CEA0100F0D1029806A9081A00F1200AE3
:101F7000600702D524F4803400E00127574502DDD4
:101F8000A7EB0A0000E0002000EB0A010090059892
:101F90004144401A0590E00306D45B462146179A57
:101FA000059800F0B3F90544002706E001A85A4659
:101FB000C05D179990476D1C7F1C4745F6DBE00319
:101FC0000CD55B462146179A059800F09FF9054409
:101FD00004E030205A46179990476D1C0099481E1E
:101FE00000900029F5DC08E0029802995A46007832
:101FF000491C0291179990476D1CBAF10001AAF192
:10200000010AF1DC65E100000928010030313233BA
:102010003435363738396162636465660000000024
:10202000303132333435363738394142434445460E
:102030000000000000F058F90544761C30780028B4
:102040007FF4ECAD19B02846BDE8F08F620700D4EC
:10205000062709F1070222F0070CFCE80223E146FB
:1020600003F000485FEA080C02D00FF2702C0DE07C
:102070005FEA045C02D50FF2682C07E05FEAC47CDB
:1020800002D00FF2602C01E0AFF2700C4FF0FF387D
:1020900023F00043CDF850C065280CD006DC45285D
:1020A00009D046281DD047283DD13DE0662818D0EC
:1020B00067287ED138E00021112F01DB112000E0DC
:1020C000781CCDE9000106A90EA8FFF7DDFCDDE9CB
:1020D0000F010E9A03910021009207F1010A049169
:1020E0004DE04FF000400097CDE9011006A90EA881
:1020F000FFF7CAFCDDE90F0203920E9B1199002243
:10210000DDF80CA00093049211B9791C00EB010AD0
:10211000B7EB0A0004D4C0F1FF3007F1010A0490C4
:10212000AAEB0700019044E0012F00DA012700210B
:10213000112F01DD112000E03846CDE9000106A98C
:102140000EA8FFF7A1FCDDE90F010E9A0391002113
:1021500004910092BA4621070CD40399514500DA44
:102160008A46BAF1010F05DD009AAAF10101515C1E
:10217000302908D0B84202DA10F1040F06DA012142
:10218000CDE9011015E0AAF10101E9E7002805DC1D
:10219000049901440491AAEB000102E0411C51455D
:1021A00000DD8A460499401A401C01904FF000401F
:1021B0000290200704D40198504501DBCDF804803B
:1021C00000208DF84F0002980DF14F07B0F1004F3D
:1021D00025D02B200E9002984FF0020800280CDA30
:1021E000404202902D200E9007E00A210298FEF74F
:1021F00034F83031029007F8011DB8F10001A8F160
:102200000108F2DC02980028EFD1791E0E980870C0
:10221000307800F0200040F0450007F8020D12A8C9
:10222000C01B00F107081498007800B1012000EBF2
:102230000A01019801EBE07105984144401A401EE3
:102240000590E00306D45B462146179A059800F0F6
:102250005DF805441498007818B15A4617999047CC
:102260006D1CE00324D55B462146179A059800F0C3
:102270004DF805441CE00498002807DBDDE9030164
:10228000884203DD0098405C179901E017993020DF
:102290005A469047049805F10105401C04900198A6
:1022A000401E019004D12E205A46179990476D1C6C
:1022B000BAF10001AAF1010ADDDC05E017F8010B13
:1022C0005A46179990476D1CB8F10001A8F1010812
:1022D000F4DC5B462146179A0598ABE62D0000001A
:1022E0002B000000200000002DE9F04104460025ED
:1022F0001E461746880404D405E039462020B0471E
:102300006D1C641EF9D52846BDE8F0812DE9F04129
:10231000044600251E469046C80301D5302700E03C
:102320002027880404D505E041463846B0476D1C97
:10233000641EF9D52846BDE8F0810A68531C0B607D
:10234000107070471CB5FEF75BFBFFF72DFBFFF726
:1023500053F9FEF723FAFFF749F80020FEF79EFF36
:102360000020FFF79DF84FF6FF70FFF7ADF8084C1F
:102370006068FDF75FFFCDE90001237805A207A1A2
:102380000948FFF74DFB0849C020FEF7EDFFFEE7C7
:10239000080000206865696768743A002573256441
:1023A00025253D252E32660020000020000000007B
:1023B000000000000000000000000000000000001D
:1023C000000000000000000000000000000000000D
:1023D000000000000000000000000000000080017C
:1023E00080018001800180018001800180018001E5
:1023F00080018001800180010000000080018001D7
:1024000000000000000000000000000000000000CC
:10241000CC00CC00CC00CC00CC00CC0000000000F4
:1024200000000000000000000000000000000000AC
:10243000000000000000000000000000000000009C
:102440000000000000000000600C600C600C300612
:102450003006FE1FFE1F300638071803FE1FFE1F42
:10246000180318038C018C018C010000000080000F
:10247000E003F80F9C0E8C1C8C188C009800F8015F
:10248000E007800E801C8C188C189C18B80CF00F7C
:10249000E003800080000000000000000000000059
:1024A00000000E181B0C110C11061106110311036C
:1024B0009B018E01C038C06C60446044304430449D
:1024C0001844186C0C380000000000000000E00107
:1024D000F0033807180618063003F001F000F80082
:1024E0009C310E33061E061C061C063FFC73F021B1
:1024F00000000000000000000000000000000000DC
:102500000C000C000C000C000C000C000000000083
:1025100000000000000000000000000000000000BB
:1025200000000000000000000000000000000002A9
:1025300000038001C000C000600060003000300077
:1025400030003000300030003000300060006000AB
:10255000C000C00080010003000200000000200055
:102560006000C00080018001000300030006000637
:102570000006000600060006000600060003000331
:1025800080018001C0006000200000000000000009
:102590000000000000000000C000C000D806F807DE
:1025A000E0013003380700000000000000000000D8
:1025B000000000000000000000000000000000001B
:1025C0000000000000000000800180018001800107
:1025D0008001FC3FFC3F800180018001800180017F
:1025E00000000000000000000000000000000000EB
:1025F00000000000000000000000000000000000DB
:102600000000000000000000000000000000800149
:1026100080010001000180000000000000000000B7
:1026200000000000000000000000000000000000AA
:1026300000000000E007E0070000000000000000CC
:10264000000000000000000000000000000000008A
:10265000000000000000000000000000000000007A
:102660000000000000000000000000000000C000AA
:10267000C000000000000000000000000000000C8E
:10268000000C0006000600060003000300038003A0
:10269000800180018001C000C000C00060006000B7
:1026A0000000000000000000000000000000E00347
:1026B000F007380E180C0C180C180C180C180C1805
:1026C0000C180C180C180C18180C380EF007E00336
:1026D00000000000000000000000000000000001F9
:1026E0008001C001F0019801880180018001800112
:1026F00080018001800180018001800180018001D2
:102700000000000000000000000000000000E003E6
:10271000F80F180C0C180C1800180018000C000604
:1027200000038001C000600030001800FC1FFC1F87
:102730000000000000000000000000000000E001B8
:10274000F807180E0C0C0C0C000C0006C003C00798
:10275000000C001800180C180C18180CF807E003EF
:102760000000000000000000000000000000000C5D
:10277000000E000F000F800DC00C600C600C300CC0
:10278000180C0C0CFC3FFC3F000C000C000C000C67
:102790000000000000000000000000000000F80F32
:1027A000F80F180018000C00EC03FC071C0E001CAE
:1027B0000018001800180C181C0C180EF807E0037D
:1027C0000000000000000000000000000000C00742
:1027D000F00F381C181818000C00CC03EC0F3C0E3E
:1027E0001C1C0C180C180C18181C380EF007E003F1
:1027F0000000000000000000000000000000FC1FBE
:10280000FC1F000C00060006000380038001C001CD
:10281000C000E00060006000700030003000300058
:102820000000000000000000000000000000E003C5
:10283000F007380E180C180C180C3806F007F007C3
:10284000180C0C180C180C180C18380CF80FE003A6
:102850000000000000000000000000000000E00395
:10286000F007380E1C0C0C180C180C181C1C381E09
:10287000F81BE0190018000C000C1C0EF807F00102
:102880000000000000000000000000000000000048
:102890000000000000000000800180010000000036
:1028A0000000000000000000000000008001800126
:1028B0000000000000000000000000000000000018
:1028C0000000000000000000800180010000000006
:1028D00000000000000000000000000080018001F6
:1028E0000001000180000000000000000000000066
:1028F0000000000000000000000000000010001CAC
:10290000800FE003F8001800F800E003800F001CBF
:1029100000100000000000000000000000000000A7
:10292000000000000000000000000000F81F000090
:1029300000000000F81F0000000000000000000080
:102940000000000000000000000000000000000087
:102950000000000000000000000000000800380037
:10296000F001C007001F0018001FC007F001380069
:102970000800000000000000000000000000E0036C
:10298000F80F180C0C180C180018000C00060003A7
:102990008001C000C000C00000000000C000C000F6
:1029A0000000000000000000000000000000000027
:1029B000E00718180420C229224A11440944094496
:1029C000094409221113E20C024004201818E00700
:1029D0000000000000000000000000000000800374
:1029E0008003C006C006C006600C600C30183018AA
:1029F0003018F83FF83F1C700C600C6006C006C031
:102A00000000000000000000000000000000FC03C7
:102A1000FC0F0C0C0C180C180C180C0CFC07FC0F01
:102A20000C180C300C300C300C300C18FC1FFC0750
:102A30000000000000000000000000000000C007CF
:102A4000F01F38381C300C700660060006000600C7
:102A500006000600060006600C701C30F01FE00740
:102A60000000000000000000000000000000FE0365
:102A7000FE0F060E06180618063006300630063021
:102A800006300630063006180618060EFE0FFE0346
:102A90000000000000000000000000000000FC3FFB
:102AA000FC3F0C000C000C000C000C00FC1FFC1F79
:102AB0000C000C000C000C000C000C00FC3FFC3F58
:102AC0000000000000000000000000000000F83FCF
:102AD000F83F18001800180018001800F81FF81F19
:102AE0001800180018001800180018001800180026
:102AF0000000000000000000000000000000E00FE7
:102B0000F83F3C780E6006E007C00300030003FEB8
:102B100003FE03C007C006C00EC03CF0F83FE00F44
:102B200000000000000000000000000000000C3069
:102B30000C300C300C300C300C300C30FC3FFC3FB7
:102B40000C300C300C300C300C300C300C300C30A5
:102B500000000000000000000000000000008001F4
:102B6000800180018001800180018001800180015D
:102B7000800180018001800180018001800180014D
:102B8000000000000000000000000000000000063F
:102B90000006000600060006000600060006000605
:102BA000000600060006180618063807F003E001C4
:102BB00000000000000000000000000000000630DF
:102BC0000618060C060606038601C6006600760097
:102BD000DE008E0106030606060C061806300660A7
:102BE00000000000000000000000000000001800CD
:102BF0001800180018001800180018001800180015
:102C0000180018001800180018001800F81FF81F06
:102C100000000000000000000000000000000EE0C6
:102C20001EF01EF01EF036D836D836D836D866CC10
:102C300066CC66CCC6C6C6C6C6C6C6C686C386C36E
:102C400000000000000000000000000000000C3048
:102C50001C303C303C306C306C30CC30CC308C3163
:102C60000C330C330C360C360C3C0C3C0C380C3052
:102C70000000000000000000000000000000E0076D
:102C8000F81F1C380E70066003C003C003C003C0E9
:102C900003C003C003C006600E701C38F81FE007B5
:102CA0000000000000000000000000000000FC0F19
:102CB000FC1F0C380C300C300C300C300C18FC1F86
:102CC000FC070C000C000C000C000C000C000C00AD
:102CD0000000000000000000000000000000E0070D
:102CE000F81F1C380E70066003E003C003C003C069
:102CF00003C003C007E006630E3F1C3CF83FE0F74B
:102D000000C0000000000000000000000000FE0FF6
:102D1000FE1F06380630063006300638FE1FFE0756
:102D200006030606060C061806180630063006606E
:102D30000000000000000000000000000000E003B0
:102D4000F80F1C0C0C180C180C001C00F803E00FFA
:102D5000001E0038063006300E301C1CF80FE0074D
:102D60000000000000000000000000000000FE7FE6
:102D7000FE7F80018001800180018001800180014F
:102D8000800180018001800180018001800180013B
:102D900000000000000000000000000000000C30F7
:102DA0000C300C300C300C300C300C300C300C3043
:102DB0000C300C300C300C300C301818F81FE007B9
:102DC00000000000000000000000000000000360A0
:102DD0000630063006300C180C180C18180C180C9D
:102DE000380E30063006700760036003C001C00172
:102DF0000000000000000000000000000000036070
:102E0000C361C361C3616633663366336633663359
:102E100066336C1B6C1B6C1B2C1A3C1E380E380E58
:102E200000000000000000000000000000000FE0B3
:102E30000C7018303018700C600EC00780038003CF
:102E4000C003E006700C301C18180C300E6007E050
:102E5000000000000000000000000000000003C0AF
:102E600006600C301C383818300C6006E007C003D0
:102E7000800180018001800180018001800180014A
:102E80000000000000000000000000000000FC7FC7
:102E9000FC7F006000300018000C00060003800179
:102EA000C0006000300018000C000600FE7FFE7FAE
:102EB0000000000000000000000000000000E0032F
:102EC000E00360006000600060006000600060007F
:102ED00060006000600060006000600060006000F2
:102EE000600060006000E003E003000000003000CC
:102EF0003000600060006000C000C000C000C00181
:102F00008001800180010003000300030006000629
:102F10000000000000000000000000000000E003CE
:102F2000E0030003000300030003000300030003A9
:102F30000003000300030003000300030003000379
:102F4000000300030003E003E003000000000000B2
:102F5000C001C00160036003600330063006180C36
:102F6000180C00000000000000000000000000003D
:102F70000000000000000000000000000000000051
:102F80000000000000000000000000000000000041
:102F90000000000000000000000000000000FFFF33
:102FA000FFFF0000000000000000000000000C0017
:102FB0000C000C000C000C000C00000000000000D5
:102FC0000000000000000000000000000000000001
:102FD00000000000000000000000000000000000F1
:102FE0000000000000000000F003F8071C0C0C0CAF
:102FF000000FF00FF80C0C0C0C0C1C0FF80FF01855
:1030000000000000000000000000000000001800A8
:103010001800180018001800D803F80F380C1818FA
:1030200018181818181818181818380CF80FD8038A
:103030000000000000000000000000000000000090
:103040000000000000000000C003F007300E180C64
:103050001800180018001800180C300EF007C003F4
:103060000000000000000000000000000000001848
:103070000018001800180018C01BF01F301C18188A
:1030800018181818181818181818301CF01FC01B1A
:103090000000000000000000000000000000000030
:1030A0000000000000000000C003F00F300C1818F2
:1030B000F81FF81F180018003818301CF00FC00750
:1030C0000000000000000000000000000000800F71
:1030D000C00FC000C000C000F007F007C000C00073
:1030E000C000C000C000C000C000C000C000C000E0
:1030F00000000000000000000000000000000000D0
:103100000000000000000000E00DF80F180E0C0C8D
:103110000C0C0C0C0C0C0C0C0C0C180EF80FE00D1D
:10312000000C0C0C1C06F807F00100000000180051
:103130001800180018001800D807F80F381C1818C5
:1031400018181818181818181818181818181818FF
:103150000000000000000000000000000000C000AF
:10316000C000000000000000C000C000C000C0009F
:10317000C000C000C000C000C000C000C000C0004F
:103180000000000000000000000000000000C0007F
:10319000C000000000000000C000C000C000C0006F
:1031A000C000C000C000C000C000C000C000C0001F
:1031B000C000C000C000F8007800000000000C0053
:1031C0000C000C000C000C000C0C0C060C038C0109
:1031D000CC006C00FC009C018C030C030C060C0C56
:1031E0000000000000000000000000000000C0001F
:1031F000C000C000C000C000C000C000C000C000CF
:10320000C000C000C000C000C000C000C000C000BE
:1032100000000000000000000000000000000000AE
:1032200000000000000000007C3CFF7EC7E383C17B
:1032300083C183C183C183C183C183C183C183C16E
:10324000000000000000000000000000000000007E
:1032500000000000000000009807F80F381C181844
:1032600018181818181818181818181818181818DE
:10327000000000000000000000000000000000004E
:103280000000000000000000C003F00F300C181810
:1032900018181818181818181818300CF00FC00340
:1032A000000000000000000000000000000000001E
:1032B0000000000000000000D803F80F380C1818B8
:1032C00018181818181818181818380CF80FD803E8
:1032D0001800180018001800180000000000000076
:1032E0000000000000000000C01BF01F301C181878
:1032F00018181818181818181818301CF01FC01BA8
:103300000018001800180018001800000000000045
:103310000000000000000000B007F0037000300063
:10332000300030003000300030003000300030001D
:10333000000000000000000000000000000000008D
:103340000000000000000000E003F003380E180C3D
:103350003800F003C007000C180C380EF007E0032B
:10336000000000000000000000000000000000005D
:103370008000C000C000C000F007F007C000C0001F
:10338000C000C000C000C000C000C000C00780076F
:10339000000000000000000000000000000000002D
:1033A000000000000000000018181818181818185D
:1033B00018181818181818181818381CF01FE019C1
:1033C00000000000000000000000000000000000FD
:1033D00000000000000000000C18180C180C180C5D
:1033E000300630063006600360036003C001C00190
:1033F00000000000000000000000000000000000CD
:103400000000000000000000C141C141C3616363CE
:10341000636363633636363636361C1C1C1C1C1C34
:10342000000000000000000000000000000000009C
:1034300000000000000000001C38381C300C600642
:1034400060036003600360036006300C381C1C38A6
:10345000000000000000000000000000000000006C
:1034600000000000000000001830301830187018FC
:10347000600C600CE00CC006C00680038003800373
:1034800080018001C001F000700000000000000019
:103490000000000000000000FC1FFC1F000C0006E4
:1034A00000038001C000600030001800FC1FFC1FFA
:1034B0000000000000000000000000000000000309
:1034C0008001C000C000C000C000C000C00060009B
:1034D0006000300060004000C000C000C000C000BC
:1034E000C000C00080010003000000000000800157
:1034F00080018001800180018001800180018001C4
:1035000080018001800180018001800180018001B3
:1035100080018001800180018001000000006000C6
:10352000C000C00180018001800180018001000392
:10353000000300060003000180018001800180017A
:1035400080018001C0006000000000000000000059
:10355000000000000000000000000000F010F81F54
:10356000080F000000000000000000000000000044
:10357000000000000000000000000000000000004B
:10358000000000000102030406070809AC3500082A
:103590000000002020000000681A0008CC35000858
:1035A0002000002018040000781A00080000FFFF27
:1035B000000000007B00000071FD1D4310000000B2
:0C35C00001000000000000000024F400E6
:04000005080001D915
:00000001FF
