:020000040800F2
:1000000048060020ED01000847320008452A000894
:100010004532000805080008814200080000000081
:10002000000000000000000000000000D5360008BD
:10003000C30800080000000049320008D936000853
:10004000070200080702000807020008070200086C
:10005000070200080702000807020008070200085C
:100060000702000807020008070200080908000844
:100070001508000807020008070200080702000828
:10008000070200080000000007020008070200083D
:10009000070200080702000807020008070200081C
:1000A000070200080702000807020008070200080C
:1000B00007020008070200080702000807020008FC
:1000C00007020008070200080702000807020008EC
:1000D000070200085542000807020008070200084E
:1000E00007020008070200080702000807020008CC
:1000F00007020008070200080702000800000000CD
:1001000000000000070200080000000007020008CD
:1001100007020008000000000702000807020008AC
:10012000070200080702000807020008070200088B
:10013000070200080000000000000000070200089D
:10014000070200080702000800000000000000008D
:10015000000000000000000000000000000000009F
:10016000000000000000000000000000070200087E
:10017000070200080000000000000000000000006E
:10018000000000000702000800000000000000005E
:10019000000000000000000000000000000000005F
:1001A000000000000000000007020008070200082D
:1001B000070200080702000807020008000000000C
:1001C000000000000702000800000000000000001E
:1001D0000702000807020008DFF80CD000F05CFA04
:1001E00000480047E94B00084806002006488047C1
:1001F00006480047FEE7FEE7FEE7FEE7FEE7FEE70C
:10020000FEE7FEE7FEE7FEE77D370008D9010008BC
:100210002DE9F05F0546002092469B46884606463B
:10022000814640241BE0284641464746224600F0CE
:100230006AF853465A46C01A914110D311461846DF
:10024000224600F051F82D1A67EB01084F4622466E
:100250000120002100F048F817EB00094E41201E54
:10026000A4F10104DFDC484631462A464346BDE896
:10027000F09FD2B201E000F8012B491EFBD270477B
:100280000022F6E710B513460A4604461946FFF762
:10029000F0FF204610BD00F0004230F000400AD0D0
:1002A000C10D01F56071C0F3160042EA0151C208A8
:1002B00040071143704700200146704730B50B4698
:1002C000014600202022012409E021FA02F59D4286
:1002D00005D303FA02F5491B04FA02F52844151E5A
:1002E000A2F10102F1DC30BD202A04DB203A00FA41
:1002F00002F1002070479140C2F1200320FA03F37D
:10030000194390407047202A04DB203A21FA02F07A
:100310000021704721FA02F3D040C2F1200291403F
:100320000843194670472DE9FE4F804681EA0300D5
:10033000C00F0C46009021F0004123F00045B8EBBF
:100340000200A94105D24046214690461C460B4674
:10035000024623F00040104347D0270DC7F30A00A0
:10036000C3F30A510290401A019040286BDAC3F39C
:10037000130040F4801B0098924620B10023D2EB7A
:10038000030A63EB0B0B01985946C0F1400250463B
:10039000FFF7AAFF06460D4650465946019A00F05F
:1003A0008DF910EB08006141002487EA115284EABC
:1003B000E7731A4340D0009A62B3019A012A4FEAC8
:1003C000075215DC001B61EB02014FF0004202EA0C
:1003D0000752CDE90042001C41F5801132462B4600
:1003E00000F08DF903B0BDE8F08F40462146F9E7F3
:1003F000001B61EB0201001C41F5801300185B41FA
:100400002018A2F5001747EB030140EAD570B61992
:100410006D4111E06D084FEA360645EAC0754FEAB6
:100420000752001B61EB0201001C41F580114908D5
:100430004FEA30000019514132462B4603B0BDE867
:10044000F04F00F04DB90098012240000023D0EB9E
:10045000020263EBE073009821464FEAE074B8EBC8
:10046000000061EB0401E9E783F000435BE781F002
:10047000004158E72DE9FE4F81EA030404F00044EF
:1004800021F0004100944FF0000B23F0004350EAAC
:1004900001045ED052EA03045BD0C3F30A54C1F3F3
:1004A0000A552C44A4F2F3340194A0FB0254C1F386
:1004B000130141F48011C3F3130343F4801301FBD0
:1004C000024400FB034E840A970A44EA815447EA37
:1004D0008357A4FB076802958D0A05FB07854FEA41
:1004E000932C04FB0C542705029D4FEA065847EA5B
:1004F0001637B5EB08056EEB070C870E920E47EA30
:10050000811742EA8312A7FB0201B6EB0B0164EBF1
:1005100000042B0D43EA0C335E1844EB1C50DA4602
:100520005146E7FB0201C5F313044FEA0B3343EADC
:1005300014534FEA0432019C43EA0603A4F10C046D
:100540000294009CCDE900B400F0D9F803B0BDE8F6
:10055000F08F00200146F9E72DE9F04D81EA030410
:1005600004F0004B21F0004514464FF0000A23F040
:10057000004150EA050220D054EA01021DD0C5F323
:100580000A570246C5F31303C1F31300C1F30A5619
:1005900040F4801543F48013A7EB0608101BD646E1
:1005A00008F2FD3873EB050002D308F1010801E001
:1005B00092185B41B8F1000F03DA00200146BDE854
:1005C000F08D00204FF48011064684460EE0171B84
:1005D00073EB050705D3121B63EB050306434CEAD7
:1005E000010C49084FEA300092185B4150EA0107BC
:1005F000EDD152EA030012D082EA040083EA050139
:10060000084305D0101BAB4106D20122002306E0AF
:1006100000224FF0004302E06FF0010253101AEB8A
:1006200006004CEB085110EB0A0041EB0B01BDE852
:10063000F04D00F055B8C1F30A52C1F3130140F276
:10064000FF3341F480119A4202DA002001467047DC
:1006500040F233439A42A2F2334202DC5242FFF7A5
:1006600052BEFFF741BE000030B5041E71F1000418
:1006700004DB4FF00044404264EB0101141E73F1AF
:10068000000405DB1C464FF00043524263EB0403B9
:10069000994208BF904230BD064C074D06E0E06825
:1006A00040F0010394E8070098471034AC42F6D3B9
:1006B000FFF796FDBC5E0008DC5E0008202A06DB22
:1006C000CB17203A41FA02F043EAE07306E041FA20
:1006D00002F3D040C2F1200291400843194670470E
:1006E00010B5141E73F1000408DA401C41F100013A
:1006F00092185B411A4301D120F0010010BD2DE991
:10070000F04D92469B4611B1B1FA81F202E0B0FA87
:1007100080F220329046FFF7E7FD04460F4640EA9C
:100720000A0041EA0B0153465A46084313D01146CA
:1007300053EA010019D0C8F140025046FFF7E3FD2B
:1007400005460E46504659464246FFF7CDFD084342
:1007500005D0012004E020463946BDE8F08D002098
:10076000054346EAE0762C4337430A986305E40ADA
:10077000A0EB08000022FD0A44EA47540A3002D5E3
:1007800000200146E9E7010510196941DDE9084546
:1007900000196941BDE8F04DA2E7000070B50446BC
:1007A0000068816811F0010F28D18168144A114254
:1007B00015D18168D5432940491C816000F03CFF78
:1007C000064616E0816811F0010F03D181682940C7
:1007D000491C816000F030FF801B022809D9E06DC0
:1007E00040F01000E065206E40F00100206601201E
:1007F00070BD20680168C943C907E3D1002070BDFE
:100800003F000080FEE70000014800F012BD00003C
:1008100088010020014800F00CBD0000E801002024
:100820000D4902688A4201D20C4901E00B4920318E
:10083000D2B21423083AB2FBF3F2436C02F01F0267
:1008400023F003031944816404498031C164012108
:100850009140016570470000080402400008024012
:100860000179074A02EB81024265054A4432491E7A
:10087000826501F01F0201219140C16570470000AF
:10088000FC08024030B5D0E913456560446D14B1F1
:10089000D0E91645656090F8444004F01F05012436
:1008A000AC40056C6C60046863608368102B03685F
:1008B00003D099600068C26030BD9A600068C16072
:1008C00030BD7047002240F6B83306E00021491CD5
:1008D00089B29942FBD3521C92B28242F6D370473E
:1008E000704700002DE9F84F00270446009790F864
:1008F0005800DFF8DC930D46B846012811D00126D8
:1009000084F85860206802F00FFB60B1E06D40F0A1
:100910002000E0655FF0010784F858803846BDE8A4
:10092000F88F0220FBE7D5E900210C23206803EAB9
:1009300091131844036B01F01F014FF01F0C0CFAC8
:1009400001FCC2F3846223EA0C038A40134303636D
:10095000206802F0E9FA8246206802F0E1FA5AEAD9
:1009600000003CD1AA6829682068B2F1004F37D056
:1009700002F0E6FA2068416921F0004141612068F7
:100980006969C268C2F3C102520091402A69042A0F
:1009900031D000EB82002B68026EDFF838C303F021
:1009A000F84302EA0C020B431A4342F0004101668D
:1009B00022682869A96902EB8000026E22F0807229
:1009C0000A430266297F20682A69012910D0002184
:1009D00000EB8200026E22F000720A4302667DE0A4
:1009E000002202F0ADFA2068416941F00041C5E7FC
:1009F0004FF00071ECE7002102F08CFA4003206810
:100A00004FF0000172D002F085FA90FAA0F0B0FA2F
:100A100080F1286842036ED090FAA0F0B0FA80F01E
:100A2000814204D100221146206802F098FA012187
:100A3000206802F06FFA400320684FF001015DD09A
:100A400002F068FA90FAA0F0B0FA80F12868420348
:100A500059D090FAA0F0B0FA80F0814204D100227F
:100A60000121206802F07BFA0221206802F052FA8C
:100A7000400320684FF0020148D002F04BFA90FA90
:100A8000A0F0B0FA80F12868420344D090FAA0F0B8
:100A9000B0FA80F0814204D100220221206802F0E5
:100AA0005EFA0321206802F035FA400320684FF017
:100AB000030133D002F02EFA90FAA0F0B0FA80F1E0
:100AC000286842032FD090FAA0F0B0FA80F081425B
:100AD00004D100220321206802F041FA20688168D5
:100AE00011F0010F22D0ACE000E004E002F012FAB5
:100AF000C0F384618DE7C0F3846091E702F00AFAE5
:100B0000C0F38461A2E7C0F38460A6E702F002FAB2
:100B1000C0F38461B7E7C0F38460BBE702F0FAF981
:100B2000C0F38461CCE7C0F38460D0E72A7B2968F6
:100B300050F8B03FC1F3120C23EA0C0302F0180C7A
:100B4000654A22FA0CF20A4013430360E9684945FA
:100B500077D1286841031CD090FAA0F1B1FA81F155
:100B6000491C01F01F0109294FEA403132D8002900
:100B700012D000BF90FAA0F1B1FA81F101F10101A8
:100B800001F01F0106FA01F609D100BFC0F384612C
:100B900009E0C0F38461E3E7C0F38461EEE790FA13
:100BA000A0F1B1FA81F101F1010101F01F0146EA62
:100BB000816102D1C0F3846003E090FAA0F0B0FA42
:100BC00080F000F1010000F01F0000EB400041EA5E
:100BD000005132E000290ED090FAA0F1B1FA81F173
:100BE00001F1010101F01F0106FA01F606D100BF73
:100BF000C0F3846106E0C0F38461F1E790FAA0F1EC
:100C0000B1FA81F101F1010101F01F0146EA8161B0
:100C100002D1C0F3846003E090FAA0F0B0FA80F053
:100C200000F1010000F01F002C4A00EB400002EB35
:100C3000005041EA000141F00071AA68206802F00A
:100C40007FF927482A6802423FF466AE254881684A
:100C5000254B01F0E0719A4202D0244B9A421BD1FD
:100C60000B0219D42268B2F1A04F7FF455AE82680E
:100C700041F4000122F0E0720A4382601C481D49E1
:100C80000068B0FBF1F000EB4000800000E0401E87
:100C900000900028FBD13FE6174D184BAA4207D120
:100CA000CD0105D422689A42F5D041F0807109E067
:100CB000134DAA42EFD14A02EDD422689A42EAD0FB
:100CC00041F48001826822F0E0720A43826023E6E8
:100CD00000007F4000F0FF03FFFF0700000020FE40
:100CE0000000088000030050000021C31000C090E5
:100CF00044000020400D0300000052C700010050D6
:100D0000000084CB0068006C70470000F8B54FF01D
:100D1000000504002E46009502D0E06D10B107E0FA
:100D20000120F8BD204600F0EDF8266684F85860F2
:100D300020688168C1F3407119B18168694A114026
:100D4000816020688168C1F3007179B98168664A61
:100D5000114041F080518160644865490068B0FBF2
:100D6000F1F000E0401E00900028FBD1206881686F
:100D7000C1F3007141B9E16D41F01001E165216EEF
:100D800041F001012166012502F0CEF8E16DC906AE
:100D900000D430B1E06D40F01000E0650125284638
:100DA000F8BDE06D20F4807040F00200E06520683E
:100DB000806810F0010F11D14FF0A04080684D49BC
:100DC00000F00100896801F00101084306D14A489A
:100DD0006168826822F47C120A438260E168E06BF9
:100DE000627F0843A16841EA4231084394F8241025
:100DF00040EA0140012904D1218D404A02EB4141E2
:100E00000843E16A29B101F47871226B014342EA97
:100E100001002168CA683A4B1A400243CA60206840
:100E20000169626B21F0406111430161206802F0A9
:100E30007BF80646206802F073F830432ED1207FFD
:100E400094F83810800340EA41022068C16844F2F7
:100E5000020399431143C160206900282068016999
:100E60000AD041F480310161206850F8C01F226926
:100E70006FF30D01114307E021F480310161206817
:100E800050F8C01F6FF30D01016094F84000012875
:100E90000CD02068016921F001010161606901281D
:100EA0002068016B21F00F0111D013E0D4E911018A
:100EB0000843D4E913121143084321680A6940F238
:100EC000FC739A43104340F001000861E6E7226A90
:100ED000521E11430163E06D20F0020040F001005A
:100EE000E0655CE7C0FFFF5FC0FFFF7F44000020BC
:100EF000400D030000010050000300500000FEFF01
:100F00000740F0FF10B586B0044614216846FFF78D
:100F1000B7F91149206888421BD11048C16C41F4CF
:100F20000051C164C16C01F400510591C16C41F0E4
:100F30000201C164C06C694600F0020005904FF4E4
:100F4000004000900320019000200290044800F02F
:100F500085FA06B010BD00000001005000100240EC
:100F6000000400482DE9F041044639480F468168E5
:100F700001F01F05A16908290FD085B1052D0ED0FC
:100F8000092D0CD0806800F4604060B1E06D40F045
:100F90002000E0650120BDE8F081082604E020681B
:100FA000C068C007F1E7042600F046FB804608E071
:100FB000781C06D000F040FBA0EB0800B8420FD828
:100FC00077B1206800683042F2D0E06D40F40070E4
:100FD000E065206801F0ACFFD0B1607F48B117E058
:100FE000E06D40F00400E065002084F85800032024
:100FF000D1E72068006800070AD5E06D20F4807012
:10100000E065E06DC00403D4E06D40F00100E065F0
:10101000104A20684FF0A041904201D10B4600E0F9
:101020000346834210D07DB1052D0DD0092D0BD084
:10103000904200D00146C968082E07D0490401D467
:101040000C2101600020A6E7C168F5E70821F8E758
:1010500000030050000100502DE9F04104463848DB
:10106000806800F01F05206801F05EFF18B10221C2
:101070000846BDE8F08194F8580001280CD0012002
:1010800084F858002046FFF789FB01004FF0000369
:1010900004D084F85830EBE70220EAE7E06D40F630
:1010A0000162904340F48070E065264A20684FF06A
:1010B000A046904201D1374600E00746874200D063
:1010C0001DB9E76D27F48017E765E76DFF0404D5C8
:1010D000276E27F00607276600E023661C270760B7
:1010E00084F858302068904201D1334600E003462E
:1010F000834215D0A5B1052D12D0092D10D0E36D76
:1011000043F48013E365904200D13046C06880010B
:10111000AED5E06D20F4005040F48050E065A7E7C4
:10112000C268920105D5E26D22F4005242F4805269
:10113000E2658268044B1A40121D826098E7000045
:101140000003005000010050C0FFFF7F10B590F871
:10115000253000210122022B03D00421C16301218B
:1011600022E003681C6824F00E041C60836C1C6879
:1011700024F480741C6003681C6824F001041C6063
:1011800090F84430046C03F01F0302FA03F3636029
:10119000D0E913345C60436D33B11C6824F480746F
:1011A0001C60D0E916345C6080F82520002280F8AD
:1011B0002420084610BD70B590F825200024012198
:1011C0002346022A07D00422C26380F8251080F843
:1011D0002430012429E00268156825F00E05156009
:1011E0000268156825F001051560826C156825F404
:1011F0008075156090F84420056C02F01F0201FA1A
:1012000002F26A60D0E913255560426D32B115686B
:1012100025F480751560D0E91625556080F82510F5
:1012200080F82430816B01B18847204670BDC06BC7
:101230007047F0B4016C0C6801680D6890F84420A8
:1012400002F01F06042202FA06F3234211D06B07B4
:101250000FD50B689B0603D40B6823F004030B60C7
:1012600090F8441001F01F018A40016C4A60016B44
:101270001DE0022303FA06F727424FF0000C4FF05F
:10128000010218D0AF0716D50C68A40605D40C6867
:1012900024F00A040C6080F8252090F8441001F036
:1012A0001F018B40016C4B6080F824C0C16A00298B
:1012B0001AD0F0BC08470823B340234214D02B07B0
:1012C00012D50B6823F00E030B6090F84410036CEA
:1012D00001F01F0102FA01F15960C26380F8252074
:1012E00080F824C0416BE2E7F0BC704770B50400A1
:1012F0000CD02B4A21681420914209D2294A0A4471
:10130000B2FBF0F08000606427480AE0012070BD65
:10131000234A52420A44B2FBF0F080006064204845
:1013200008382064022084F825000A6847F6F07027
:101330008243D4E902031843D4E904352B4318430C
:10134000A3691843E3691843236A184310430860EC
:101350002046FFF765FAA0680025B0F5804F00D160
:101360006560A16C20790860D4E913014160606870
:10137000401E032808D82046FFF772FA606D05600A
:10138000D4E91601416002E06565A565E565E563A0
:10139000012084F8250084F82450002070BD00004E
:1013A00008040240F8FFFDBF0000024070B504468B
:1013B00090F82400002501280CD0012084F8240096
:1013C00094F825600020012E06D084F82400022520
:1013D000284670BD022070BD022684F82560E063B7
:1013E0002068066826F0010606602046FFF74AFAE4
:1013F000206B00282068016802D041F00E0106E051
:1014000021F0040101602068016841F00A010160D7
:10141000A06C0168C90303D5016841F480710160C3
:10142000606D18B1016841F4807101602068016845
:1014300041F001010160CBE770B5044600F0FCF813
:101440000546601C02D004484068044400F0F4F8EB
:10145000401BA042FAD370BD380000202DE9FC4F9C
:10146000DFF8A0A1002301250AF1040B03244FF0AB
:101470000F0C0BF1040EBDE005FA03F632406FD0FD
:101480004F68012F05D0022F03D0112F01D0122F4A
:1014900017D1D0F808905F0004FA07F829EA080984
:1014A0000097D1F80C8008FA07F848EA0908C0F854
:1014B00008804768B7430E79C6F300169E403E4346
:1014C0004660C6684FEA430804FA08F7BE4301972E
:1014D0008F6807FA08F73743C7604E68022E01D0BD
:1014E000122E13D1DE0800EB86060096366A5F07DF
:1014F000FF0E0CFA07F926EA0906D1F8109009FA4E
:1015000007F949EA0609009EC6F820900668019F7F
:10151000BE430F7907F0030707FA08F73743076060
:101520004E68F60065D5384E376E47F001073766CE
:10153000366E23F0030706F001060096334E3E4454
:10154000B146B6689F074FEA17780CFA08F7BE4312
:10155000B0F1904F05D02E4FB84204D1012717E0CB
:1015600047E0002714E02B4FB84201D102270FE0DB
:10157000294FB84201D103270AE0284FB84201D1D0
:10158000042705E0264FB84201D1052700E00627D1
:1015900007FA08F73743C9F80870DAF800605746C9
:1015A000D1F8048096435FEAC83800D516433E6000
:1015B000DBF800605F46D1F8048096435FEA883824
:1015C00000D516433E60DEF800607746D1F804800F
:1015D00096435FEAC82800D516433E60094F0C3792
:1015E0003E68D1F8048096435FEA882800D5164308
:1015F0003E605B1C0A6832FA03F67FF43DAFBDE83B
:10160000FC8F000000040140001002400000014077
:101610000004004800080048000C00480010004882
:10162000001400480069084000D0012070470AB14A
:10163000816170478162704701488068704700008F
:101640003800002002488168426811448160704778
:101650003800002010B50024032000F077F80020A7
:1016600000F008F808B1012401E000F025F8204658
:1016700010BD000070B50E4E05460024706898B18C
:101680004FF47A71B1FBF0F00A490968B1FBF0F050
:1016900000F0E2FE40B9102D06D200222946501E6D
:1016A00000F034F8356000E00124204670BD0000F1
:1016B00038000020440000200B4808B5016E41F0BE
:1016C00001010166016E01F001010091816D41F09F
:1016D00080518165806D00F08050009003488168E2
:1016E00041F48041816008BD00100240007000405C
:1016F000002809DB00F01F02012191404009800011
:1017000000F1E020C0F8001170470000F0B40E4B6B
:101710001B680C46C3F30223C3F10705042D00D94F
:101720000425191D072901D2002300E0DB1E012634
:1017300006FA05F1491E214099409E40761E16404A
:101740003143F0BC02F0B2BD0CED00E0064900F000
:10175000070208684FF6FF03184040EA0220034AD8
:1017600010430860704700000CED00E00000FA052F
:101770002B492C4B0A6832214A432B4940B1B0F522
:10178000007F086829D020F4C06040F480602CE01D
:101790000868C0F34120022804D051F8800F20F4DB
:1017A000807022E0D1F8800020F48070C1F88000C1
:1017B000086820F4C06040F400700860B2FBF3F0E9
:1017C000401C00E0401E4A69520501D50028F9D1AD
:1017D000486940050AD503207047C0F3412002281C
:1017E00006D051F8800F40F48070086000207047E8
:1017F000D1F8800040F48070C1F88000086820F4BF
:10180000C06040F400700860B2FBF3F0401C00E0E0
:10181000401E4A695205DBD50028F9D1D8E70000FF
:101820004400002040420F00007000402DE9F843C2
:101830000446006800269D4D00035ED5A86D002774
:10184000C00008D4A86D40F08050A865A86D01279D
:1018500000F080500090DFF85892D9F8001041F461
:101860008071C9F80010FFF7E7FE804606E000BF70
:10187000FFF7E2FEA0EB080002282BD8D9F8000001
:10188000C005F5D5D5F8900010F4407014D0216C47
:10189000814211D0D5F89000D5F8901020F4407016
:1018A00041F48031C5F89010D5F8901021F48031C2
:1018B000C5F89010C5F89000C00711D0FFF7BCFE26
:1018C000804641F2883907E0FFF7B6FEA0EB080139
:1018D000494501D903260BE0D5F890008007F3D5E0
:1018E000D5F89000216C20F440700843C5F89000B2
:1018F0001FB1A86D20F08050A8652078C00707D0E0
:10190000D5F88800616820F003000843C5F8880016
:101910002078800707D5D5F88800A16820F00C0052
:101920000843C5F888002078400707D5D5F8880017
:10193000E16820F030000843C5F8880020780007EF
:1019400007D5D5F88800216920F0C0000843C5F804
:1019500088002078800607D5D5F88800616920F4D2
:1019600040600843C5F888002078400607D5D5F8C0
:101970008800A16920F440500843C5F88800207809
:10198000000607D5D5F88800E16920F440400843F7
:10199000C5F888002088C00507D5D5F88800216AD9
:1019A00020F440300843C5F888002088800507D51A
:1019B000D5F88800616A20F440200843C5F8880003
:1019C000208840050FD5D5F88800A16A20F4401082
:1019D0000843C5F88800A06AB0F5801F03D1E86805
:1019E00040F48010E860208800050FD5D5F8880005
:1019F000E16A20F440000843C5F88800E06AB0F5C9
:101A0000800F03D1E86840F48010E8602088C004AB
:101A10000FD5D5F88800216B20F040700843C5F839
:101A20008800206BB0F1807F03D1E86840F480101B
:101A3000E86020884FF0006180040ED5D5F888005A
:101A4000626B20F040601043C5F88800606B8842EC
:101A500003D1E86840F48010E860208840040ED587
:101A6000D5F88800A26B20F040601043C5F88800CC
:101A7000A06B884203D1E86840F48010E8602088B9
:101A800000040FD5D5F88800E16B20F040500843E2
:101A9000C5F88800E06BB0F1805F03D1E86840F4DE
:101AA0008030E8603046BDE8F88300000010024056
:101AB000007000402DE9F0470E4605004FF000078A
:101AC00025D0DFF8AC81D8F8000000F00F00B0425C
:101AD0000CD2D8F8001021F00F013143C8F80010E3
:101AE000D8F8000000F00F00B04210D12968614C16
:101AF000C80741F2883A5AD06868DFF87C91032819
:101B000008D0022820682DD0400500282CDB0120B9
:101B1000BDE8F08720688001F9D5E06800F0030295
:101B2000E068C0F30310401C032A19D0534A00BFD9
:101B3000B2FBF0F0E268C2F306225043E268C2F35F
:101B40004162521C5200B0FBF2F0484517D9A06820
:101B500010F0F00F0CD0880711D5A86840B10EE046
:101B6000474AE5E78003D0E700F0B6F8484506D9D4
:101B7000A06820F0F00040F08000A0608027A068FE
:101B8000696820F003000843A060FFF755FD814617
:101B900006E000BFFFF750FDA0EB090151453AD820
:101BA000A068696800F00C00B0EB810FF2D12868E2
:101BB000810714D5400703D5A06840F4E060A06019
:101BC0002878000705D5A06820F4605040F4E06054
:101BD000A060A068A96820F0F000084304E0802F0E
:101BE00003D1A06820F0F000A060D8F800104046B3
:101BF00001F00F01B14216D9016821F00F01314304
:101C00000160FFF719FD074607E000BFFFF714FD6D
:101C1000C11B514501D903207AE7D8F8000000F034
:101C20000F00B042F2D12878400705D5A068E968D6
:101C300020F4E0600843A0602878000706D5A0687B
:101C4000296920F4605040EAC100A06000F044F827
:101C5000A1680C4AC1F30311515C01F01F01C84097
:101C60000949086009480068BDE8F047FFF702BD70
:101C7000002002400010024000B4C4040024F4001C
:101C800000366E01A45E00084400002038000020E9
:101C90000548064900688968054AC1F30221515C7C
:101CA00001F01F01C84070474400002000100240AE
:101CB000B45E00080548064900688968054AC1F312
:101CC000C221515C01F01F01C84070474400002050
:101CD00000100240B45E0008184910B58868C0F3CF
:101CE00081021748012A0BD08A68164BC2F3810281
:101CF000022A06D08A68C2F38102032A03D0002098
:101D000010BD184610BDCA6802F00304CA68C2F3C9
:101D10000312521C032C02D0B0FBF2F001E0B3FB23
:101D2000F2F0CA68C968C2F306225043C1F34161A8
:101D3000491C4900B0FBF1F010BD0000001002404A
:101D40000024F40000366E012DE9F84304007AD037
:101D50002078FA4DC00747D0A868E96800F00C0069
:101D600001F003010C2802D0082817D001E0032954
:101D700014D06068B0F5803F17D0B0F5A02F286868
:101D800017D020F480302860286820F48020286054
:101D90006068E0B1FFF750FC064614E02868800355
:101DA00022D560680028D2D01EE0286840F4803038
:101DB000EDE740F480202860F7E700BFFFF73CFC28
:101DC000801B642870D828688003F7D50CE0FFF7E3
:101DD00033FC064605E000BFFFF72EFC801B64289D
:101DE000F0D828688003F7D4207880074CD5A868FD
:101DF000E96800F00C0001F003010C2802D004286F
:101E00000DD001E002290AD0E068002828682BD014
:101E100040F480702860FFF70FFC064619E0286840
:101E2000400502D5E068002891D06868217C20F048
:101E3000FE4040EA01606860C1480068FFF71AFC94
:101E4000002800D120E076E1FFF7F6FB801B022896
:101E5000B8D828684005F7D56868217C20F0FE4096
:101E600040EA016068600FE020F480702860FFF7AE
:101E7000E3FB064605E000BFFFF7DEFB801B022800
:101E8000A0D828684005F7D42078000729D56069D4
:101E90000028D5F8940013D040F00100C5F8940054
:101EA000FFF7CAFB064606E090E000BFFFF7C4FB61
:101EB000801B022886D8D5F894008007F6D510E05C
:101EC00020F00100C5F89400FFF7B6FB064604E0D9
:101ED000FFF7B2FB801B022878D8D5F89400800762
:101EE000F6D42078400761D5A86D0026C00008D43C
:101EF000A86D40F08050A865A86D012600F08050C4
:101F0000009090480168C90511D40168804641F4E9
:101F100080710160FFF790FB074604E0FFF78CFB40
:101F2000C01B022852D8D8F80000C005F6D5A0681A
:101F3000012815D00528D5F8900016D020F0010012
:101F4000C5F89000D5F8900020F00400C5F8900086
:101F5000A06841F28838B8B1FFF76EFB07460EE083
:101F6000D5F8900040F00100F0E740F00400C5F81B
:101F70009000F5E7FFF760FBC11B414526D8D5F877
:101F800090008007F6D50CE0FFF756FB074604E00B
:101F9000FFF752FBC11B414518D8D5F890008007C8
:101FA000F6D41EB1A86D20F08050A8652078800678
:101FB00029D5A0690028D5F8980013D040F0010079
:101FC000C5F89800FFF738FB064606E077E000BF4B
:101FD000FFF732FB801B022877D8D5F898008007DE
:101FE000F6D510E020F00100C5F89800FFF724FBBB
:101FF000064604E0FFF720FB801B022865D8D5F8D1
:1020000098008007F6D4E069F0B3A968C1F38101B4
:10201000032961D00228286820F0807028600BD046
:10202000E86820F00300E860E86847490840E86095
:10203000FFF702FB04464BE0FFF7FEFA064604E01A
:10204000FFF7FAFA801B02283FD828688001F7D4EE
:10205000F4E908016FF00F0202EB01110843218A35
:102060005204490802EB4151A26841EA02210843A7
:10207000217D4FF07E42490802EB41610843217BFC
:1020800040EAC160E96800E062E0304A114008437C
:10209000E860286840F080702860E86840F0807050
:1020A000E860FFF7C9FA044605E000BFFFF7C4FA8D
:1020B000001B022809D828688001F7D548E004E011
:1020C000FFF7BAFA001B022802D90320BDE8F88303
:1020D00028688001F4D43BE00128F7D0E868226A40
:1020E00000F00301914226D1616A00F0F00209017B
:1020F000103991421FD1A26A00F4FE41B1EB022FC8
:1021000019D194F82C2000F07841B1EBC26F12D1B4
:10211000218E00F4C00249084905A1F50011914241
:1021200009D194F8341000F0C06049084906A1F1C3
:10213000007181420CD00120C8E70000001002406D
:102140003800002000700040FFFFEEFE0C809F0171
:102150000020BBE70F4810B50B4601680E48014050
:10216000080CD870C1F304245C7001F03F049C702B
:10217000C1F34231197052B901F0F1F9D8705878B1
:1021800001F0EDF95870987801F0E9F998700020A5
:1021900010BD0000042800403FFFFF00144810B5A8
:1021A00000680B464860124808300068C0F30E0013
:1021B00088600F48083801680E480140C1F30540A7
:1021C0001870C1F306245C7001F07F049C70890DC7
:1021D000D97052B901F0C3F91870587801F0BFF9FD
:1021E0005870987801F0BBF99870002010BD00007D
:1021F000082800407F7F7F0070B504004FF0010089
:102200003ED094F8250028B9002084F82400204608
:1022100000F03CF8022084F825001A4ECA203060F5
:1022200053203060204601F0AFF910BB154D0C3D36
:10223000286815490840286028686168A269084331
:1022400021691143084328602189E06840EA014080
:102250000C4914390860204601F0BCF948B9D4E9AA
:102260000721114362692B6823F060431A4311432D
:102270002960FF213160002802D1012184F8251056
:1022800070BD000024280040BFFF8FFB0068054997
:10229000884205D1044850F8901F41F40041016084
:1022A0007047000000280040001002402DE9F04176
:1022B000044690F824000B4601281AD0012684F821
:1022C0002460022084F82500B2B19878D97840EAD9
:1022D000014558781978000240EA413005431B4F08
:1022E000CA20386053203860204601F04DF9D8B13B
:1022F00022E00220BDE8F0815878C10603D500F045
:10230000EF000A305870D87801F032F90504587897
:1023100001F02EF945EA0025987801F029F90543E6
:10232000187845EA4035DAE709480540074820387B
:102330000560204601F04EF9FF21396008B984F8A4
:102340002560002184F82410D4E7000024280040F0
:102350003FFFFF002DE9F047054690F8240017469F
:102360000C46012814D04FF0010985F82490022072
:1023700085F82500DFF8A480CA21C8F80010532191
:10238000C8F80010284601F0FFF8002618B127E031
:102390000220BDE8F087214B0C3B18684FEA4060F3
:1023A0001FB3002800DBE670A0782178E27840EACD
:1023B00001406178090241EA825108431849084006
:1023C000164924390860186820F480201860D4E980
:1023D00003010843196808431860284601F0FAF819
:1023E000FF22C8F80020A0B115E0002800DBE6704D
:1023F000207801F0BDF80704607801F0B9F847EAE9
:102400000027A07801F0B4F80743E07847EA80504D
:10241000D4E785F8259085F82460BAE724280040A1
:102420007F7F7F0070B50B4D286860F0A0002860AA
:10243000FFF702F904464FF47A7606E0FFF7FCF85E
:10244000001BB04201D9032070BD28688006F5D575
:10245000002070BD0C28004010B5401EB0F1807FF8
:1024600001D3012010BD4FF0E02460610F216017FF
:1024700001F01CFF0020A06107202061002010BD9A
:1024800090F87C10012918D0012180F87C102421BB
:10249000C0F8801050F8601B0A680B6823F0010335
:1024A0000B6022F000510022426050F8603C19603D
:1024B0002021016202771046704702207047704762
:1024C00070B5044690F87C0001281DD0012084F8E6
:1024D0007C002420C4F8800020680568026822F08F
:1024E000010202602068826822F060620A43826012
:1024F000204601F051F9206805602020C4F88000D2
:10250000002084F87C0070BD022070BD70B50446C8
:1025100090F87C0001281DD0012084F87C00242044
:10252000C4F8800020680568026822F00102026099
:102530002068826822F060420A438260204601F0EF
:102540002BF9206805602020C4F88000002084F862
:102550007C0070BD022070BD7047704770B5D0F828
:1025600080100446D0F88450006882684FF010064E
:10257000120612D5212910D1816821F080018160D5
:10258000606F38B1FEF7E2FD20B1606FFEF74FFEDD
:1025900020281BD0204601F049FA206881684906AE
:1025A00012D5222D10D1816821F040018160A06FE9
:1025B00038B1FEF7CBFD20B1A06FFEF738FE202822
:1025C00004D0204601F020FA002070BDC4F88860D5
:1025D000032070BD704700002DE9F04103680446F8
:1025E000D8691A68996810F00F0F4FF0000569D08C
:1025F0005E4E02F490770E4037437DD0C70709D076
:10260000D70507D501271F62D4F8883043F00103AE
:10261000C4F8883083070AD5CB0708D0276802237F
:102620003B62D4F8883043F00403C4F88830430791
:102630000AD5CB0708D0276804233B62D4F888303A
:1026400043F00203C4F8883003070CD502F02003DE
:10265000334308D0266808233362D4F8883043F027
:102660000803C4F88830D4F88830002B3CD08006AA
:1026700009D502F0200001F08051084303D0E16E3B
:1026800009B120468847D4F888002168896849063E
:1026900001D400072AD5204601F0B6F920688168E8
:1026A00049061ED5816821F040018160A06FC0B14C
:1026B0002F498163A06FFEF77EFD002814D0A06F24
:1026C000816B0AE0860617D502F0200601F08057DC
:1026D0003E4311D0E16E24E02046BDE8F0410847BA
:1026E0000AE02046FFF776FFBDE8F0812046FFF7BD
:1026F00071FFC4F88850F7E7C60209D54E0207D526
:102700004FF4801018622046BDE8F041FFF725BF66
:10271000060609D502F0800601F400010E4303D03D
:10272000216F0029D8D1DFE741060DD551060BD521
:102730001968204621F0400119602021C4F880105A
:10274000256700F07DF9CFE7010206D5510004D5D9
:102750002046BDE8F041FFF7FFBEC001C4D5002A06
:10276000C2DA2046BDE8F041FFF7A9BE0100001023
:102770002339000810B5032000F0B6FB0C480068B0
:1027800040680C4CC0F10A00C2B262700A490B48A2
:1027900000F00AF90849A82000F052FA0020607001
:1027A000BDE810400A220449044800F0A9B800001E
:1027B00088010020080000205C000020FC000020B0
:1027C00010B5040003D0D4F8800010B107E0012058
:1027D00010BD002084F87C00204600F027F824205B
:1027E000C4F880002068016821F0010101602046E2
:1027F00001F02AF90128EBD0A06A10B1204600F0C0
:10280000FDFF2068416821F49041416020688168A3
:1028100021F02A0181602068016841F00101016016
:102820002046BDE8104001F04DB80000F0B587B07B
:10283000064614216846FDF723FD2D49306888427D
:1028400054D12C48016E41F480410166016E01F4BF
:1028500080410591C16C41F00101C164C06C00244C
:1028600000F0010005904FF4C06000900220CDE917
:1028700001040720CDE9034069464FF09040FEF780
:10288000EDFD1E4D1C48802728601820C5E9010475
:10289000C5E903476C61AC61EC6128462C62FEF728
:1028A00025FD08B1FEF71CF8B567AE62134D12485E
:1028B0006035143028601920686005F10801102087
:1028C00081E891006C61AC61EC6128462C62FEF7F6
:1028D0000DFD08B1FEF704F87567002211462520AA
:1028E000AE62FEF713FF2520FEF702FF07B0F0BD32
:1028F000003801400010024008000240880100201A
:1029000070B50446D0F88400202842D161B35AB390
:1029100094F87C0001283CD0012084F87C00A1655B
:10292000A4F85C200025C4F888502220C4F8840054
:10293000A06FD8B11849C162A16F18481346086347
:10294000A16F17484863A06F8563A66D2168324662
:102950002431A06FFEF72AFD40B11020C4F8880092
:1029600004F87C5F20206060012070BD84F87C50FA
:102970002068016841F4807101602068816841F03D
:10298000010181602068816841F040018160002080
:1029900070BD022070BD000087390008C5390008ED
:1029A000373900087047704770B50446D0F880008A
:1029B00020283DD171B36AB394F87C00012837D048
:1029C000012084F87C002165A4F85420A4F8562046
:1029D0000025C4F888502120C4F88000606FD8B169
:1029E0001449C162616F144813460863616F13484C
:1029F0004863606F85632668216D06F12802606F69
:102A0000FEF7D4FC40B11020C4F8880004F87C5FC5
:102A100020206060012070BD21684020086284F899
:102A20007C502068816841F080018160002070BD89
:102A3000022070BDCF390008FF390008373900087F
:102A400070477047FEE700002DE9F047304C314DEC
:102A5000012620784FF09049D8B1032701282FD0C4
:102A6000022814D101212846FEF7DCFDE8B302213B
:102A70002846FEF7D7FDC0B304212846FEF7D2FD55
:102A800098B301214846FEF7CDFD70B32770BDE82D
:102A9000F08701212846FEF7C5FD78B102212846BE
:102AA000FEF7C0FD50B104212846FEF7BBFD28B15A
:102AB00001214846FEF7B6FD0028E8D12670E6E77A
:102AC0000121A8462846FEF7ADFD022590B102215E
:102AD00046464046FEF7A6FD70B104213046FEF79B
:102AE000A1FD58B10121484600E00DE0FEF79AFD36
:102AF00030B107E0A67005E0A57003E0A77001E023
:102B00000420A0702570C2E7A0880A30A080BEE72C
:102B1000080000200004004800B585B01421684674
:102B2000FDF7AEFB4FF6FF70009000200321CDE9CA
:102B30000201019069460248FEF790FC05B000BD15
:102B40000008004800B585B014216846FDF798FBE1
:102B50004FF6FF70009001200190032003900020A9
:102B6000029069460248FEF779FC05B000BD0000FE
:102B70000008004870B5002406462146204600F0B3
:102B800003F900F041F94FF49635304600F010F9A2
:102B9000641CAC42F9D370BD30B587B014216846CF
:102BA000FDF76EFB1E48C16C41F00401C164C16CAD
:102BB00001F004010591C16C41F00101C164C16CD7
:102BC00001F001010591C16C41F00201C164C06CCA
:102BD000012500F0020005904FF44870CDE9000592
:102BE00000240394694602940E48FEF737FC28023D
:102BF00003940090CDE901544FF09044694620467B
:102C0000FEF72CFCFFF79EFFA06940F48070A061E6
:102C100004481830016841F40871016007B030BD04
:102C20000010024000040048203AD2B2034B02EBED
:102C3000420203EB021200F019B80000D44C000865
:102C4000F0B50E460746002540F23F1407E0214646
:102C50003846FFF7E9FF103C6D1CA4B2761C3278B1
:102C6000002A01D0142DF2D3F0BD00002DE9F04769
:102C700091468A460026044600F086F8DFF8408038
:102C8000012700BF00F0C0F85FF0000539F816001A
:102C900007FA05F10842404601D1408800E000886B
:102CA00000F086F86D1C102DF0D3641CE4B2514680
:102CB000204600F069F8761C182EE3D3BDE8F087B3
:102CC0000000002010B5FFF767FF002000F014F8A7
:102CD000084CA080A088A0F50241303906D000F051
:102CE0003DFB002000F008F8A08010BD00F0ADFA18
:102CF000F7E700000000002070B51D490A6842F4A3
:102D000000720A600A6842F480720A60184C103C33
:102D1000226842F020022260164A1060086840F0E3
:102D20002000086000BF00BF00BF206840F0200006
:102D30002060206840F480702060FFF7EDFE4FF0C7
:102D40009041886A40F48070886200BF00BF00BF75
:102D50000848001F006885B2886940F48070886167
:102D6000FFF7F0FE206840F400702060284670BD38
:102D7000280400481408004801B5BDF800000149C6
:102D8000488008BD0000002010B50C4601462020F8
:102D900000F068F82146BDE81040212000F062B83C
:102DA00001B5BDF800000149088008BD0000002001
:102DB000134A116841F400711160114910390B6810
:102DC00043F480730B600B6843F020030B600D4BE2
:102DD0001860106840F02000106000BF00BF00BF06
:102DE000086840F020000860086840F480700860BF
:102DF00000BF00BF00BF086840F400700860704763
:102E000028040048140800481449086840F4007079
:102E10000860086840F48070086010481038026844
:102E200042F0200202600E4B22221A600A6842F031
:102E300020020A6000BF00BF00BF016841F020010E
:102E40000160016841F48071016000BF00BF00BFF4
:102E5000016841F4007101607047000028040048D7
:102E600014080048184B10B51A6842F400721A6032
:102E70001A6842F480721A60134A103A146844F0D7
:102E800020041460114C2060186840F02000186085
:102E900000BF00BF00BF106840F020001060106845
:102EA00040F4807010602160186840F020001860C5
:102EB00000BF00BF00BF106840F020001060106825
:102EC00040F48070106010BD2804004814080048C9
:102ED00003480168034A12881143016000F048B8B2
:102EE00014080048060000204FF48071401E814005
:102EF00006480288514089B2018005480268D2B272
:102F0000026002680A43026000F032B80600002046
:102F10001408004800EB8100006E00F0F840704794
:102F20008068C0F3C00070478068C0F380007047BD
:102F3000C06810F4406F01D0002070470120704736
:102F4000042303EAD15310B518444369C1F3045173
:102F500007248C40A3438A401343436110BD00EB18
:102F60008100016E21F000411143016670470000AD
:102F700010B5064C012204212046FEF758FB2046DE
:102F80000022BDE810400421FEF751BB000C0048B0
:102F900030B589B020216846FDF772F91948184903
:102FA0000024C0E900148460C46004250461C0E901
:102FB0000545047744770121016280F82440C4620A
:102FC000046380F83840C46380F84040FDF79EFEFB
:102FD00008B1FDF785FC0C48009006200190072001
:102FE00002907F200594CDE9030569460548FDF769
:102FF00079FC002801D0FDF773FC09B030BD00005A
:1030000000010050680000200080F03E114808B523
:10301000816C41F004018164816C01F00401009134
:10302000816C41F001018164806C002200F001009C
:10303000009011460B20FEF769FB0B20FEF758FBB2
:10304000002211460C20FEF761FBBDE808400C2071
:10305000FEF74EBB001002402DE9F04186B014216E
:103060006846FDF70DF93648C16C41F00401C164B2
:10307000C16C01F004010591C16C41F02001C164F3
:10308000C16C01F020010591C16C41F00101C164E6
:10309000C16C01F001010591C16C41F00201C164F4
:1030A000C16C01F002010591C16C41F00801C164DD
:1030B000C06C244E00F008004FF47F4405900122BC
:1030C00021463046FEF7B3FA1F4F0022042138464E
:1030D000FEF7ADFADFF874800022C0214046FEF70B
:1030E000A6FA0125CDE90045002402946946304640
:1030F0000394FEF7B3F9CDE9005469464FF09040D0
:103100000294FEF7ABF90720CDE90004694640467A
:103110000294FEF7A3F904200090CDE9015469461A
:1031200038460394FEF79AF9C0200090CDE9015487
:10313000694640460394FEF791F906B0BDE8F08178
:103140000010024000080048000C0048000400483D
:1031500010B586B014216846FDF792F81E48002489
:103160001C490594C0E900147F218160FF21C0E95A
:10317000031444610462FFF73FF808B1FDF7B0FBA8
:1031800023208DF8000059208DF8010030208DF8A3
:10319000020001940394012269460F480494FFF74A
:1031A000D9F808B1FDF79CFB01208DF814008DF8CB
:1031B00015008DF8160022208DF81700012205A9B0
:1031C0000548FFF773F8002801D0FDF789FB06B02A
:1031D00010BD000000280040D4000020184810B5A1
:1031E000164901604FF416514160002181600C22A4
:1031F000C160C0E904128161C16101624162816202
:10320000FFF7DEFA08B1FDF76BFB00210C48FFF772
:103210007DF908B1FDF764FB00210948FFF750F97B
:1032200008B1FDF75DFB0648FFF72AF9002803D037
:10323000BDE81040FDF754BB10BD00000038014050
:10324000FC000020FEE77047704730B501210020E8
:10325000FFF708FE4FF47A70FDF734FB00210120E0
:10326000FFF700FE41F290711020FFF7FBFD4FF4D5
:103270001C516020FFF7F6FD01216120FFF7F2FDF0
:1032800002214620FFF7EEFD48F210011320FFF760
:10329000E9FD48F2FE011220FFF7E4FD4FF4A061C2
:1032A0000220FFF7DFFD41F230010320FFF7DAFDD6
:1032B00040F2033421463020FFF7D4FD214631206F
:1032C000FFF7D0FD21463220FFF7CCFDE51E294651
:1032D0003320FFF7C7FD03213420FFF7C3FD21464C
:1032E0003520FFF7BFFD14213620FFF7BBFD214637
:1032F0003720FFF7B7FD21463820FFF7B3FD214601
:103300003920FFF7AFFD29463A20FFF7ABFD032137
:103310003B20FFF7A7FD21463C20FFF7A3FD4FF41C
:10332000A0513D20FFF79EFD4FF400719220FFF762
:1033300099FD21469320FFF795FD40F60D01902061
:10334000FFF790FD41F218010320FFF78BFDBDE868
:10335000304040F273110720FFF784BD10B543F2EF
:103360000801E320FFF77EFD1221E720FFF77AFD39
:1033700041F23121EF20FFF775FD00210120FFF719
:1033800071FD4FF4E0610220FFF76CFD41F2300166
:103390000320FFF767FD00210420FFF763FD40F2E3
:1033A00007210820FFF75EFD00210920FFF75AFDE5
:1033B00000210A20FFF756FD00210C20FFF752FDE7
:1033C00000210D20FFF74EFD00210F20FFF74AFDE1
:1033D00000211020FFF746FD07211120FFF742FDD5
:1033E00000211220FFF73EFD00211320FFF73AFDD8
:1033F000C820FEF721F841F290611020FFF732FD5E
:1034000040F227211120FFF72DFD3220FEF714F89E
:103410001D211220FFF726FD3220FEF70DF84FF494
:1034200000611320FFF71EFD14212920FFF71AFD6C
:103430000B212B20FFF716FD3220FDF7FDFF0021A9
:103440002020FFF70FFD00212120FFF70BFD0721B2
:103450003020FFF707FD40F207713120FFF702FD32
:1034600006213220FFF7FEFC40F204713520FFF701
:10347000F9FC41F604713620FFF7F4FC04213720F3
:10348000FFF7F0FC00213820FFF7ECFC40F206715A
:103490003920FFF7E7FC40F201713C20FFF7E2FC26
:1034A0000F213D20FFF7DEFC00215020FFF7DAFC62
:1034B000EF215120FFF7D6FC00215220FFF7D2FC6C
:1034C00040F23F115320FFF7CDFC4FF41C51602018
:1034D000FFF7C8FC01216120FFF7C4FC00216A202E
:1034E000FFF7C0FC00218020FFF7BCFC00218120F9
:1034F000FFF7B8FC00218220FFF7B4FC00218320F5
:10350000FFF7B0FC00218420FFF7ACFC00218520F0
:10351000FFF7A8FC10219020FFF7A4FC00219220C7
:10352000FFF7A0FC03219320FFF79CFC4FF4887168
:103530009520FFF797FC00219720FFF793FC0021CF
:103540009820FFF78FFC41F218010320FFF78AFC57
:10355000BDE8104040F273110720FFF783BC01095A
:1035600001EB810100F00F0000EB4100C0B2704799
:103570000022014602E00A39C9B2521C0A29FAD2D5
:10358000100741EA106070472DE9F047104C814662
:1035900000252068400618D4206840F08000206094
:1035A000FEF74AF806464FF47A78032708E000BF92
:1035B000FEF742F8801B404502D9032589F82570A3
:1035C0002068400601D4032DF2D12846BDE8F087DB
:1035D0000C2800402DE9F0410646134800250168FB
:1035E00021F080010160104C0C3420684FF003077B
:1035F000800607D43046FEF715FF90B186F8257097
:1036000003250EE0206820F0200020603046FEF701
:1036100009FF10B186F825700325206840F02000CE
:1036200020602846BDE8F0810C28004008B5002342
:1036300000938DF803008DF801108DF802201A46D2
:1036400069460248FEF732FE08BD0000D4000020A3
:1036500070B586B00D460646144614216846FCF740
:103660000FFE8DF800608DF801508DF802400022A9
:1036700069460248FEF76EFE06B070BDD400002019
:1036800010B588B00446002201A90C48FEF786FD5B
:10369000002206A90948FEF75DFD9DF8060000908E
:1036A0009DF805309DF8042005A1204600F0EAFDB4
:1036B0002146C020FFF7C4FA08B010BDD400002096
:1036C0002020202020543A2532642D2532642D25D7
:1036D000326400007047000010B5FDF7B3FF0748E3
:1036E0000188491C89B201800A2905D10021018085
:1036F000BDE81040FFF7A8B910BD0000360000205B
:1037000030B5A5B038216846FCF7BAFD14211FA8D2
:10371000FCF7B6FD44210EA8FCF7B2FD4FF400758E
:103720002846FEF725F809200090E80101900120C5
:10373000059002210324CDE907141420CDE90A01E4
:1037400009940C9168460D91FEF7FEFA0F20CDE921
:103750001F0400242194229403211FA82394FEF720
:10376000A9F90548CDE90E044007CDE91D050EA8CD
:10377000FEF75CF825B030BD0180080005480168FF
:1037800041F47001016003494FF000608039086026
:103790007047000088ED00E03FB514A1D1E9002199
:1037A000CDE9002113A2D2E90012CDE90212416E47
:1037B000B9B1026891689268C1F34261520F1DF875
:1037C0000240E50002ACA25CB5FBF2F2A0F86A2070
:1037D0001DF80120615CD200B2FBF1F1A0F8681085
:1037E0003FBD0121A0F86A10F8E7000001010103C4
:1037F00007010000080402040801010190F82810E4
:10380000C90706D001684A68C36A22F400321A4325
:103810004A6090F82810890706D501684A68036B4A
:1038200022F480321A434A6090F82810490706D5DE
:1038300001684A68436B22F480221A434A6090F878
:103840002810090706D501684A68836B22F40042F4
:103850001A434A6090F82810C90606D501688A689C
:10386000C36B22F480521A438A6090F828108906AC
:1038700006D501688A68036C22F400521A438A60F4
:1038800090F82810490611D501684A68436C22F463
:1038900080121A434A60416CB1F5801F06D101685D
:1038A0004A68836C22F4C0021A434A6090F82810D8
:1038B000090606D501684A68C06C22F4002202435A
:1038C0004A607047F8B500260446C0F88860FDF7E6
:1038D000B3FE0546206800686FF07E47000708D5F4
:1038E0002B4600224FF400112046009700F07FFC89
:1038F00060B92068006840070AD52B4600224FF4C3
:1039000080012046009700F072FC08B10320F8BD4A
:103910002020C4F88000C4F8840084F87C60002073
:10392000F8BD10B5806A0021A0F85E10A0F856100E
:10393000FEF750FE10BD70B5846AD4F88000D4F84C
:103940008450216889684FF00006090606D52128B1
:1039500004D1A4F85660204600F068F8206880681A
:10396000400606D5222D04D1A4F85E60204600F062
:103970004BF8D4F8880040F01000C4F888002046C6
:10398000FEF728FE70BD10B50146806A0968096817
:10399000890614D40021A0F85E1001680A6822F498
:1039A00080720A6001688A6822F001028A600168F8
:1039B0008A6822F040028A602021C0F88410FEF755
:1039C000F1FF10BD10B5806AFEF7EDFF10BD10B518
:1039D0000146806A0968096889060DD40021A0F8AB
:1039E000561001688A6822F080028A6000680168C7
:1039F00041F04001016010BDFFF722F810BD10B585
:103A0000806AFFF71EF810BD01680A6822F4907200
:103A10000A6001688A68044B1A408A602021C0F855
:103A200084100021C1667047FEFFFFEF01680A683D
:103A300022F0C0020A6001688A6822F400028A60EB
:103A40002021C0F8801070472DE9F05F044601681E
:103A500080682369E5691843636900272B4318438D
:103A6000636EFA4A03430868F94D2840184308601A
:103A700020684168E36821F440511943416021689E
:103A8000A069914201D0236A18438B68F14D2B4005
:103A900003438B602068C16A636A21F00F011943F8
:103AA000C162ED4B2068ED4998420DD1D1F88810E4
:103AB00011F0030106D001295AD0022956D003295A
:103AC0003FD157E001253DE0E54B98420BD1D1F8BD
:103AD000881011F00C0147D0042949D0082945D09D
:103AE0000C292ED146E0DF4B98420BD1D1F888103B
:103AF00011F0300138D010293AD0202936D03029A1
:103B00001FD137E0D84B98420BD1D1F8881011F073
:103B1000C00129D040292BD0802927D0C02910D11D
:103B200028E090420DD1D1F8881011F440611BD0EB
:103B3000B1F5806F1CD0B1F5006F17D0B1F5406FB3
:103B400018D01025DFF824A34FF480764FF0000939
:103B50004FF4004B90426ED175B1022D29D0042D47
:103B600059D0082D68D176E00025EBE70225E9E77A
:103B70000425E7E70825E5E7FEF78AF84DE0012888
:103B800051D0022851D0032851D0042851D0052803
:103B900053D0062853D0072853D0082853D00928DB
:103BA00053D00A2853D00B2853D03AE0B1FBF0F0A1
:103BB0006CE0606AA8B1012817D0022817D003284A
:103BC00017D0042817D0052817D0062817D00728A3
:103BD00017D0082817D0092817D00A2817D00B2883
:103BE00017D00120BAFBF0F050E00220FAE70420E1
:103BF000F8E70620F6E70820F4E70A20F2E70C20B1
:103C0000F0E71020EEE72020ECE74020EAE78020F4
:103C1000E8E73046E6E7FEF75FF80146606A00280D
:103C2000ADD10120C2E70220C0E70420BEE7062094
:103C3000BCE70820BAE761E14AE00A20B6E70C20B9
:103C4000B4E71020B2E72020B0E74020AEE78020A4
:103C5000ACE73046AAE7606AA8B1012822D0022862
:103C600022D0032822D0042822D0052822D00628DA
:103C700022D0072822D0082822D0092822D00A28BA
:103C800022D00B2822D00120BBFBF0F0002820D04E
:103C90006168884601EB4101814219D8B0EB083FC9
:103CA00016D817E00220EFE70420EDE70620EBE747
:103CB0000820E9E70A20E7E70C20E5E71020E3E722
:103CC0002020E1E74020DFE78020DDE73046DBE72A
:103CD000012739E27DB3022D61D0042D7DD0082D5E
:103CE000F6D1606AA8B1012878D0022877D00328DD
:103CF00076D0042875D0052874D0062873D00728FC
:103D000072D0082871D0092870D00A286FD00B28EB
:103D100000D0012632464D46002358460021FCF7CC
:103D200077FA090241EA106102024FEA58001018BE
:103D30006941424670E0FFE7FDF7AAFF0146606A6D
:103D4000A8B1012817D0022817D0032817D00428BB
:103D500017D0052817D0062817D0072817D008280D
:103D600017D0092817D00A2817D00B2800D0012611
:103D700032464D468CE00226FAE70426F8E706268E
:103D8000F6E70826F4E70A26F2E70C26F0E7102605
:103D9000EEE72026ECE74026EAE78026E8E7606ABF
:103DA000A8B1012824D0022824D0032824D0042834
:103DB00024D0052824D0062824D0072824D0082879
:103DC00024D0092824D00A2824D00B2800D001268A
:103DD00032464D4600235046A0E726E07AE07BE0DD
:103DE0007CE07DE07EE07FE080E081E082E083E0D7
:103DF0000226EDE70426EBE70626E9E70826E7E7D3
:103E00000A26E5E70C26E3E71026E1E72026DFE7B0
:103E10004026DDE78026DBE70023FCF7F9F9144AAA
:103E2000A0F54071914271D952E7FDF755FF014667
:103E3000606A50B3012839D0022839D0032839D01C
:103E4000042839D0052839D0062813E00080004026
:103E5000F369FFCFFFF4FF1100380140001002406A
:103E60000044004000480040004C00400024F400A2
:103E7000FFFC0F0024D0072824D0082824D00928CC
:103E800024D00A2824D00B2800D001264D463246E3
:103E9000002308461946FCF7BBF90902626841EAAB
:103EA00010610302500818186941B5E70226EDE7D2
:103EB0000426EBE70626E9E70826E7E70A26E5E712
:103EC0000C26E3E71026E1E72026DFE74026DDE7C2
:103ED0008026DBE702261DE704261BE7062619E7F6
:103EE000082617E70A2615E70C2613E7102611E720
:103EF00020260FE740260DE780260BE7E0694FF606
:103F0000EF78584570D1092D8ED200E01AE1DFE834
:103F100005F006093C05800505058300D8E6FDF798
:103F2000B7FE01E0FDF7C6FE0146606AA8B10128B0
:103F300015D0022815D0032815D0042815D005283F
:103F400015D0062815D0072815D0082815D009281F
:103F500015D00A2815D00B2814D0012612E002260D
:103F600010E004260EE006260CE008260AE00A26E9
:103F700008E00C2606E0102604E0202602E0402699
:103F800000E08026B1FBF6F01AE0606AA8B10128D3
:103F90002BD002282BD003282BD004282BD0052887
:103FA0002BD006282BD007282BD008282BD0092867
:103FB0002BD00A282BD00B2800D00126BAFBF6F014
:103FC0004100606801EB5001B1FBF0F080B2A0F15C
:103FD00010014145A2D84FF6F0710140C0F34200F4
:103FE00001432068C160AFE046E00226E6E7042610
:103FF000E4E70626E2E70826E0E70A26DEE70C26E5
:10400000DCE71026DAE72026D8E74026D6E7802628
:10401000D4E7FDF761FE87E7606AA8B1012817D0F1
:10402000022817D0032817D0042817D0052817D046
:10403000062817D0072817D0082817D0092817D026
:104040000A2817D00B2800D00126BBFBF6F0B7E7F3
:104050000226FAE70426F8E70626F6E70826F4E73C
:104060000A26F2E70C26F0E71026EEE72026ECE71A
:104070004026EAE78026E8E7092DBFF4D5AEDFE861
:1040800005F006093C0583050505860020E6FDF7D9
:10409000FFFD01E0FDF70EFE0146606AA8B10128B0
:1040A00015D0022815D0032815D0042815D00528CE
:1040B00015D0062815D0072815D0082815D00928AE
:1040C00015D00A2815D00B2814D0012612E002269C
:1040D00010E004260EE006260CE008260AE00A2678
:1040E00008E00C2606E0102604E0202602E0402628
:1040F00000E08026B1FBF6F11AE0606AA8B1012861
:104100002ED002282ED003282ED004282ED0052809
:104110002ED006282ED007282ED008282ED00928E9
:104120002ED00A282ED00B2800D00126BAFBF6F19B
:10413000606801EB5001B1FBF0F080B2A0F110011A
:104140004145A3D82168C8600120A4F86A0024F87A
:10415000680F3846C4F80490C4F80890BDE8F09F92
:104160000226E3E70426E1E70626DFE70826DDE787
:104170000A26DBE70C26D9E71026D7E72026D5E765
:104180004026D3E78026D1E7FDF7A6FD84E7606AE5
:10419000A8B1012817D0022817D0032817D0042867
:1041A00017D0052817D0062817D0072817D00828B9
:1041B00017D0092817D00A2817D00B2800D00126BD
:1041C000BBFBF6F1B4E70226FAE70426F8E7062679
:1041D000F6E70826F4E70A26F2E70C26F0E71026B1
:1041E000EEE72026ECE74026EAE78026E8E72DE91F
:1041F000F041984617460E460446069D08E0681CA6
:1042000006D0FDF719FAA0EB0800A8420BD855B16B
:104210002068C06936EA000019D00020B842EED00C
:104220000020BDE8F0812068016821F4D0710160B0
:104230002068816821F0010181602020C4F880009D
:10424000C4F88400002084F87C000320E9E7012002
:10425000E4E70000094810B50068C169C943C90610
:1042600007D4102101620548FEF778F90348FEF7EC
:1042700081FABDE810400148FEF7AEB9FC0000200D
:10428000FEE700000FB4084B10B504A902AA03987A
:1042900000F0EEF8044602A9002000F080FC204661
:1042A00010BC5DF814FB00009F4B00080907090EC5
:1042B000002804DB00F1E02080F80014704700F0D3
:1042C0000F0000F1E02080F8141D704702E008C8DC
:1042D000121F08C1002AFAD170477047002001E080
:1042E00001C1121F002AFBD1704700002DE9FF5FBA
:1042F00082B00021DDE90430020DDDF840B0034357
:1043000018D044F61050A2F2FF324243151411980F
:1043100001281FD0A5EB0B00401C5FEA000A4FF0FC
:1043200000064E4FDFF83891B046504615D5CAF119
:10433000000413E0119801244AA3012801D16FEA77
:104340000B010298119AC0E90031C0E9024206B09F
:10435000BDE8F09FCBF10000DFE704460021404AB2
:10436000491842EB0450CDE9001012E0E00707D0F5
:1043700032463B4640464946FCF77CF88046894633
:1043800032463B4610461946FCF774F806460F467F
:104390006410002CEAD1DDE90401DDE90023BAF163
:1043A000000F06DAFCF766F842464B46FCF762F867
:1043B00005E0FCF7D1F842464B46FCF7CDF8044641
:1043C0000E460022284BFCF74FF903D84FF0FF3080
:1043D000014607E00022254B20463146FBF7A3FFAC
:1043E000FCF729F9102409E0002C0ADB0A2200233B
:1043F000FBF70EFF039B30321A55641E50EA010290
:10440000F2D1641C039AC4F111031444119A012AD5
:1044100003D0012208430DD10AE0084304D0002054
:104420004FF0110B119072E7A3EB0B056D1E0DE021
:104430005B4504DD4FF0000205F1010504E003DAFD
:104440004FF00002A5F10105002AECD00298119965
:10445000C0E90231C0E9004579E7000000001440DE
:104460000000F03F300000000000F0430000E03F9B
:104470002DE9FF4F95B09B468946064600250FE281
:10448000252877D100242746F84A0121059400E029
:10449000044316F8013F203B01FA03F01042F7D124
:1044A00030782A2811D06FF02F033078A0F1300235
:1044B000092A16D8059A44F0020402EB820203EBA3
:1044C00042021044761C0590EFE759F8042B059240
:1044D000002A03DA504244F40054059044F00204E8
:1044E000761C30782E2816D116F8010F44F00404FB
:1044F0002A280DD06FF02F023078A0F13003092B5D
:1045000009D807EB870302EB4303C718761CF3E7D0
:1045100059F8047B761C30786C280FD006DC4C28C8
:1045200017D068280DD06A2814D104E0742810D060
:104530007A280FD10DE044F400140AE044F480140A
:1045400001E044F440147278824202D104F58014F0
:10455000761C761C307866280BD013DC582877D070
:1045600009DC002875D04528F6D04628F4D0472825
:104570001AD19DE118E0632835D0642879D06528E8
:1045800012D195E1702873D008DC6728F1D0692832
:104590006FD06E280DD06F2806D1B5E073282CD0CF
:1045A000752875D0782874D05A46179990476D1C95
:1045B00075E1C4F30250022809D003280DD0D9F8C0
:1045C000001004280DD00D6009F1040967E1D9F845
:1045D0000010EA17C1E90052F6E7D9F800100D8083
:1045E000F2E70D70F0E719F8041B8DF800100020B9
:1045F0008DF80100EA46012003E059F804AB4FF0C2
:10460000FF3061074FF0000102D40DE008F1010115
:104610008846B9420FDA8045F8DB1AF808100029FD
:10462000F4D108E008F1010188468142FADB1AF86A
:1046300008100029F6D105985B46A0EB0807214633
:104640003846179A00F094FA284400EB080507E072
:104650004DE029E10DE01AF8010B5A4617999047F1
:10466000B8F10108F7D25B4621463846179A13E1A4
:1046700042E00A220092C4F302524FF0000A022ADA
:1046800008D059F804CB032A4FEAEC710AD00DE0A8
:1046900029E02AE009F1070121F00702F2E802C14E
:1046A000914609E00FFA8CFC4FEAEC71042A03D121
:1046B0004FFA8CFC4FEAEC71002907DA0A46002118
:1046C000DCF1000C61EB02012D2202E0220504D591
:1046D0002B228DF80420012203E0E20701D02022E2
:1046E000F7E7904659E00A2102E010220DE0102180
:1046F0004FF0000A00910BE010224FF0000A44F046
:1047000004040827009203E008224FF0000A0092F8
:10471000C4F30252022A05D059F804CB0021032A1F
:1047200008D009E009F1070121F00702F2E802C10F
:10473000914605E01FFA8CFC042A01D10CF0FF0C15
:104740004FF00008220728D5702806D0009B83F080
:10475000100353EA0A0305D00EE040228DF804202E
:10476000012208E05CEA010206D030228DF8042024
:104770008DF8050002229046009B83F0080353EA5F
:104780000A030AD15CEA010201D1620705D5302291
:104790008DF804204FF001087F1E582804D034A063
:1047A00003900EA802900DE036A0F9E7534660464C
:1047B000009AFBF72DFD84460398825C0298401E08
:1047C000029002705CEA0100F0D1029806A9081A72
:1047D00000F1200A600702D524F4803400E00127AC
:1047E000574502DDA7EB0A0000E0002000EB0A01BC
:1047F000009005984144401A0590E00306D45B46BA
:104800002146179A059800F0B3F90544002706E001
:1048100001A85A46C05D179990476D1C7F1C4745FB
:10482000F6DBE0030CD55B462146179A059800F0AD
:104830009FF9054404E030205A46179990476D1CB3
:104840000099481E00900029F5DC08E002980299C2
:104850005A460078491C0291179990476D1CBAF18D
:104860000001AAF1010AF1DC65E10000092801005C
:1048700030313233343536373839616263646566D6
:104880000000000030313233343536373839414298
:10489000434445460000000000F058F90544761CEA
:1048A000307800287FF4ECAD19B02846BDE8F08FD1
:1048B000620700D4062709F1070222F0070CFCE882
:1048C0000223E14603F000485FEA080C02D00FF231
:1048D000702C0DE05FEA045C02D50FF2682C07E053
:1048E0005FEAC47C02D00FF2602C01E0AFF2700CE2
:1048F0004FF0FF3823F00043CDF850C065280CD0AE
:1049000006DC452809D046281DD047283DD13DE08A
:10491000662818D067287ED138E00021112F01DBEE
:10492000112000E0781CCDE9000106A90EA8FFF7D0
:10493000DDFCDDE90F010E9A03910021009207F1E1
:10494000010A04914DE04FF000400097CDE90110BD
:1049500006A90EA8FFF7CAFCDDE90F0203920E9B21
:1049600011990022DDF80CA00093049211B9791C72
:1049700000EB010AB7EB0A0004D4C0F1FF3007F1E5
:10498000010A0490AAEB0700019044E0012F00DA2D
:1049900001270021112F01DD112000E03846CDE96B
:1049A000000106A90EA8FFF7A1FCDDE90F010E9A90
:1049B0000391002104910092BA4621070CD4039977
:1049C000514500DA8A46BAF1010F05DD009AAAF1D5
:1049D0000101515C302908D0B84202DA10F1040F0D
:1049E00006DA0121CDE9011015E0AAF10101E9E79C
:1049F000002805DC049901440491AAEB000102E0BF
:104A0000411C514500DD8A460499401A401C019022
:104A10004FF000400290200704D40198504501DB7C
:104A2000CDF8048000208DF84F0002980DF14F075B
:104A3000B0F1004F25D02B200E9002984FF00208C5
:104A400000280CDA404202902D200E9007E00A2147
:104A50000298FBF733FC3031029007F8011DB8F1E2
:104A60000001A8F10108F2DC02980028EFD1791EBC
:104A70000E980870307800F0200040F0450007F8EC
:104A8000020D12A8C01B00F107081498007800B1AD
:104A9000012000EB0A01019801EBE0710598414407
:104AA000401A401E0590E00306D45B462146179A43
:104AB000059800F05DF805441498007818B15A463E
:104AC000179990476D1CE00324D55B462146179A41
:104AD000059800F04DF805441CE00498002807DB19
:104AE000DDE90301884203DD0098405C179901E08D
:104AF000179930205A469047049805F10105401C4B
:104B000004900198401E019004D12E205A46179916
:104B100090476D1CBAF10001AAF1010ADDDC05E045
:104B200017F8010B5A46179990476D1CB8F1000110
:104B3000A8F10108F4DC5B462146179A0598ABE61C
:104B40002D0000002B000000200000002DE9F041A6
:104B5000044600251E461746880404D405E039465D
:104B60002020B0476D1C641EF9D52846BDE8F081B1
:104B70002DE9F041044600251E469046C80301D5A4
:104B8000302700E02027880404D505E04146384658
:104B9000B0476D1C641EF9D52846BDE8F0810A684F
:104BA000531C0B601070704710B50C48FCF754FA9A
:104BB0000A210A48FCF7D6F90848FCF7A3F880B2A6
:104BC00000EE100ADFED060AB8EE400A20EE200AD9
:104BD000DFED040A20EE200A10BD0000680000206E
:104BE00033335340000080392DED028BFCF732FD4A
:104BF000FEF786FDFEF730FAFEF708FAFEF7C8F971
:104C0000FEF7A6FAFEF7EAFAFEF762F9FEF75AF89F
:104C10000020FDF7AFFF0020FEF7AEF84FF6FF7063
:104C2000FEF7BEF837223B211720FEF711FD1522B3
:104C300003211820FEF7FAFC0A221E491E48FDF740
:104C40005FFE1D480068016841F0100101609FEDA2
:104C50001B8A1B4C00252078032801D12570A580D4
:104C6000FFF7A2FF84ED030A10EE100AFBF713FB17
:104C700041EC100B0F4853EC102B12A11438FFF726
:104C800001FB0C4930201439FDF7DAFF94ED020ADC
:104C9000D4ED030A20EE080AB4EEE00AF1EE10FAB1
:104CA00001D20120E07006491F31A1F10F00FEF78B
:104CB000E7FCD0E75C000020FC00002033335340C9
:104CC0000800002020202020202056313A252E32B6
:104CD0006656000000000000000000000000000018
:104CE00000000000000000000000000000000000C4
:104CF00000000000000000000000000000000000B4
:104D0000000000000000800180018001800180011E
:104D1000800180018001800180018001800180018B
:104D20000000000080018001000000000000000081
:104D30000000000000000000CC00CC00CC00CC0043
:104D4000CC00CC00000000000000000000000000CB
:104D50000000000000000000000000000000000053
:104D60000000000000000000000000000000000043
:104D7000600C600C600C30063006FE1FFE1F300613
:104D800038071803FE1FFE1F180318038C018C013F
:104D90008C01000000008000E003F80F9C0E8C1CCA
:104DA0008C188C009800F801E007800E801C8C188D
:104DB0008C189C18B80CF00FE003800080000000F5
:104DC000000000000000000000000E181B0C110C79
:104DD00011061106110311039B018E01C038C06C2E
:104DE00060446044304430441844186C0C3800006F
:104DF000000000000000E001F00338071806180664
:104E00003003F001F000F8009C310E33061E061C42
:104E1000061C063FFC73F0210000000000000000AB
:104E200000000000000000000C000C000C000C0052
:104E30000C000C000000000000000000000000005A
:104E40000000000000000000000000000000000062
:104E5000000000000000000200038001C000C0004C
:104E60006000600030003000300030003000300062
:104E70003000300060006000C000C000800100030E
:104E800000020000000020006000C00080018001DE
:104E900000030003000600060006000600060006E8
:104EA000000600060003000380018001C0006000CE
:104EB00020000000000000000000000000000000D2
:104EC000C000C000D806F807E00130033807000032
:104ED00000000000000000000000000000000000D2
:104EE00000000000000000000000000000000000C2
:104EF00080018001800180018001FC3FFC3F800136
:104F0000800180018001800100000000000000009D
:104F10000000000000000000000000000000000091
:104F20000000000000000000000000000000000081
:104F300000000000000080018001000100018000ED
:104F40000000000000000000000000000000000061
:104F5000000000000000000000000000E007E00783
:104F60000000000000000000000000000000000041
:104F70000000000000000000000000000000000031
:104F80000000000000000000000000000000000021
:104F9000000000000000C000C00000000000000091
:104FA000000000000000000C000C000600060006D7
:104FB0000003000300038003800180018001C00022
:104FC000C000C000600060000000000000000000A1
:104FD000000000000000E003F007380E180C0C1869
:104FE0000C180C180C180C180C180C180C180C18A1
:104FF000180C380EF007E00300000000000000006D
:1050000000000000000000018001C001F0019801D3
:105010008801800180018001800180018001800180
:10502000800180018001800100000000000000007C
:10503000000000000000E003F80F180C0C180C181A
:1050400000180018000C000600038001C00060007A
:1050500030001800FC1FFC1F0000000000000000D2
:10506000000000000000E001F807180E0C0C0C0C0A
:10507000000C0006C003C007000C001800180C1834
:105080000C18180CF807E0030000000000000000F6
:10509000000000000000000C000E000F000F800D4B
:1050A000C00C600C600C300C180C0C0CFC3FFC3F6E
:1050B000000C000C000C000C0000000000000000C0
:1050C000000000000000F80FF80F180018000C0096
:1050D000EC03FC071C0E001C0018001800180C182C
:1050E0001C0C180EF807E003000000000000000090
:1050F000000000000000C007F00F381C181818004E
:105100000C00CC03EC0F3C0E1C1C0C180C180C18DB
:10511000181C380EF007E00300000000000000003B
:10512000000000000000FC1FFC1F000C0006000631
:10513000000380038001C001C000E0006000600047
:10514000700030003000300000000000000000005F
:10515000000000000000E003F007380E180C180CE7
:10516000180C3806F007F007180C0C180C180C185F
:105170000C18380CF80FE0030000000000000000DD
:10518000000000000000E003F007380E1C0C0C18B3
:105190000C180C181C1C381EF81BE0190018000C09
:1051A000000C1C0EF807F0010000000000000000D9
:1051B00000000000000000000000000000000000EF
:1051C00080018001000000000000000000000000DD
:1051D00000000000800180010000000000000000CD
:1051E00000000000000000000000000000000000BF
:1051F00080018001000000000000000000000000AD
:10520000000000008001800100010001800000001A
:10521000000000000000000000000000000000008E
:10522000000000000010001C800FE003F8001800D0
:10523000F800E003800F001C0010000000000000D8
:10524000000000000000000000000000000000005E
:1052500000000000F81F000000000000F81F000020
:10526000000000000000000000000000000000003E
:10527000000000000000000000000000000000002E
:105280000000000008003800F001C007001F0018EF
:10529000001FC007F00138000800000000000000F7
:1052A000000000000000E003F80F180C0C180C18A8
:1052B0000018000C000600038001C000C000C00000
:1052C00000000000C000C00000000000000000005E
:1052D0000000000000000000E00718180420C229A8
:1052E000224A114409440944094409221113E20CD9
:1052F000024004201818E007000000000000000031
:1053000000000000000080038003C006C006C00645
:10531000600C600C301830183018F83FF83F1C70E3
:105320000C600C6006C006C0000000000000000019
:10533000000000000000FC03FC0F0C0C0C180C1803
:105340000C180C0CFC07FC0F0C180C300C300C303B
:105350000C300C18FC1FFC070000000000000000CF
:10536000000000000000C007F01F38381C300C702F
:10537000066006000600060006000600060006603D
:105380000C701C30F01FE00700000000000000005F
:10539000000000000000FE03FE0F060E06180618AF
:1053A0000630063006300630063006300630061865
:1053B0000618060EFE0FFE030000000000000000AD
:1053C000000000000000FC3FFC3F0C000C000C0043
:1053D0000C000C00FC1FFC1F0C000C000C000C004F
:1053E0000C000C00FC3FFC3F00000000000000002F
:1053F000000000000000F83FF83F180018001800F7
:1054000018001800F81FF81F1800180018001800DE
:10541000180018001800180000000000000000002C
:10542000000000000000E00FF83F3C780E6006E04E
:1054300007C00300030003FE03FE03C007C006C04D
:105440000EC03CF0F83FE00F00000000000000003C
:105450000000000000000C300C300C300C300C3020
:105460000C300C30FC3FFC3F0C300C300C300C305E
:105470000C300C300C300C3000000000000000003C
:105480000000000000008001800180018001800197
:105490008001800180018001800180018001800104
:1054A00080018001800180010000000000000000F8
:1054B00000000000000000060006000600060006CE
:1054C0000006000600060006000600060006180694
:1054D00018063807F003E00100000000000000009B
:1054E00000000000000006300618060C0606060341
:1054F0008601C60066007600DE008E010603060601
:10550000060C0618063006600000000000000000CF
:105510000000000000001800180018001800180013
:1055200018001800180018001800180018001800BB
:1055300018001800F81FF81F00000000000000000D
:105540000000000000000EE01EF01EF01EF036D835
:1055500036D836D836D866CC66CC66CCC6C6C6C673
:10556000C6C6C6C686C386C3000000000000000091
:105570000000000000000C301C303C303C306C302F
:105580006C30CC30CC308C310C330C330C360C36C8
:105590000C3C0C3C0C380C300000000000000000FB
:1055A000000000000000E007F81F1C380E700660C5
:1055B00003C003C003C003C003C003C003C0066030
:1055C0000E701C38F81FE00700000000000000000B
:1055D000000000000000FC0FFC1F0C380C300C30E9
:1055E0000C300C300C18FC1FFC070C000C000C00DD
:1055F0000C000C000C000C0000000000000000007B
:10560000000000000000E007F81F1C380E70066064
:1056100003E003C003C003C003C003C007E0066388
:105620000E3F1C3CF83FE0F700C000000000000007
:10563000000000000000FE0FFE1F06380630063096
:1056400006300638FE1FFE0706030606060C06187F
:10565000061806300630066000000000000000005A
:10566000000000000000E003F80F1C0C0C180C18E0
:105670000C001C00F803E00F001E00380630063056
:105680000E301C1CF80FE0070000000000000000B6
:10569000000000000000FE7FFE7F8001800180018D
:1056A00080018001800180018001800180018001F2
:1056B00080018001800180010000000000000000E6
:1056C0000000000000000C300C300C300C300C30AE
:1056D0000C300C300C300C300C300C300C300C30EA
:1056E0000C301818F81FE007000000000000000050
:1056F00000000000000003600630063006300C1881
:105700000C180C18180C180C380E300630067007E0
:1057100060036003C001C001000000000000000041
:105720000000000000000360C361C361C361663311
:10573000663366336633663366336C1B6C1B6C1BD7
:105740002C1A3C1E380E380E00000000000000002D
:105750000000000000000FE00C7018303018700CD2
:10576000600EC00780038003C003E006700C301C8D
:1057700018180C300E6007E0000000000000000068
:1057800000000000000003C006600C301C38381810
:10579000300C6006E007C0038001800180018001B9
:1057A00080018001800180010000000000000000F5
:1057B000000000000000FC7FFC7F0060003000184B
:1057C000000C000600038001C000600030001800DB
:1057D0000C000600FE7FFE7F0000000000000000BD
:1057E000000000000000E003E003600060006000D3
:1057F00060006000600060006000600060006000A9
:105800006000600060006000600060006000E00315
:10581000E003000000003000300060006000600025
:10582000C000C000C000C0018001800180010003F1
:105830000003000300060006000000000000000056
:10584000000000000000E003E00300030003000389
:105850000003000300030003000300030003000330
:105860000003000300030003000300030003E00340
:10587000E003000000000000C001C00160036003FD
:10588000600330063006180C180C00000000000001
:105890000000000000000000000000000000000008
:1058A00000000000000000000000000000000000F8
:1058B00000000000000000000000000000000000E8
:1058C000000000000000FFFFFFFF000000000000DC
:1058D0000000000000000C000C000C000C000C008C
:1058E0000C000000000000000000000000000000AC
:1058F00000000000000000000000000000000000A8
:105900000000000000000000000000000000000097
:10591000F003F8071C0C0C0C000FF00FF80C0C0C2B
:105920000C0C1C0FF80FF018000000000000000025
:1059300000000000000018001800180018001800EF
:10594000D803F80F380C1818181818181818181841
:105950001818380CF80FD8030000000000000000F1
:105960000000000000000000000000000000000037
:10597000C003F007300E180C1800180018001800AB
:10598000180C300EF007C0030000000000000000FB
:10599000000000000000001800180018001800188F
:1059A000C01BF01F301C18181818181818181818D1
:1059B0001818301CF01FC01B000000000000000081
:1059C00000000000000000000000000000000000D7
:1059D000C003F00F300C1818F81FF81F180018003B
:1059E0003818301CF00FC007000000000000000055
:1059F000000000000000800FC00FC000C000C00009
:105A0000F007F007C000C000C000C000C000C00028
:105A1000C000C000C000C000000000000000000086
:105A20000000000000000000000000000000000076
:105A3000E00DF80F180E0C0C0C0C0C0C0C0C0C0CD4
:105A40000C0C180EF80FE00D000C0C0C1C06F807DF
:105A5000F0010000000018001800180018001800DD
:105A6000D807F80F381C181818181818181818180C
:105A70001818181818181818000000000000000066
:105A8000000000000000C000C00000000000000096
:105A9000C000C000C000C000C000C000C000C00006
:105AA000C000C000C000C0000000000000000000F6
:105AB000000000000000C000C00000000000000066
:105AC000C000C000C000C000C000C000C000C000D6
:105AD000C000C000C000C000C000C000C000F8008E
