:020000040800F2
:10000000A0070020ED010008D34300084538000890
:10001000D143000849090008955A00080000000073
:100020000000000000000000000000002D49000852
:10003000070A000800000000D54300083149000805
:10004000070200080702000807020008070200086C
:1000500007020008D743000807020008070200084B
:100060000702000807020008070200084D090008FF
:1000700059090008070200080702000807020008E3
:10008000070200080000000007020008070200083D
:10009000070200080702000807020008070200081C
:1000A000070200080702000807020008070200080C
:1000B000ED490008070200080702000807020008CF
:1000C00007020008070200080702000807020008EC
:1000D00007020008695A0008070200080702000822
:1000E00007020008070200080702000807020008CC
:1000F00007020008070200080702000800000000CD
:1001000000000000070200080000000007020008CD
:100110000702000800000000F94900080702000873
:10012000070200080702000807020008070200088B
:10013000070200080000000000000000070200089D
:10014000070200080702000800000000000000008D
:10015000000000000000000000000000000000009F
:10016000000000000000000000000000070200087E
:10017000070200080000000000000000000000006E
:10018000000000000702000800000000000000005E
:10019000000000000000000000000000000000005F
:1001A000000000000000000007020008070200082D
:1001B000070200080702000807020008000000000C
:1001C000000000000702000800000000000000001E
:1001D0000702000807020008DFF80CD000F05CFA04
:1001E00000480047F1630008A00700200648804748
:1001F00006480047FEE7FEE7FEE7FEE7FEE7FEE70C
:10020000FEE7FEE7FEE7FEE7D1490008D901000856
:100210002DE9F05F0546002092469B46884606463B
:10022000814640241BE0284641464746224600F0CE
:100230006AF853465A46C01A914110D311461846DF
:10024000224600F051F82D1A67EB01084F4622466E
:100250000120002100F048F817EB00094E41201E54
:10026000A4F10104DFDC484631462A464346BDE896
:10027000F09FD2B201E000F8012B491EFBD270477B
:100280000022F6E710B513460A4604461946FFF762
:10029000F0FF204610BD00F0004230F000400AD0D0
:1002A000C10D01F56071C0F3160042EA0151C208A8
:1002B00040071143704700200146704730B50B4698
:1002C000014600202022012409E021FA02F59D4286
:1002D00005D303FA02F5491B04FA02F52844151E5A
:1002E000A2F10102F1DC30BD202A04DB203A00FA41
:1002F00002F1002070479140C2F1200320FA03F37D
:10030000194390407047202A04DB203A21FA02F07A
:100310000021704721FA02F3D040C2F1200291403F
:100320000843194670472DE9FE4F804681EA0300D5
:10033000C00F0C46009021F0004123F00045B8EBBF
:100340000200A94105D24046214690461C460B4674
:10035000024623F00040104347D0270DC7F30A00A0
:10036000C3F30A510290401A019040286BDAC3F39C
:10037000130040F4801B0098924620B10023D2EB7A
:10038000030A63EB0B0B01985946C0F1400250463B
:10039000FFF7AAFF06460D4650465946019A00F05F
:1003A0008DF910EB08006141002487EA115284EABC
:1003B000E7731A4340D0009A62B3019A012A4FEAC8
:1003C000075215DC001B61EB02014FF0004202EA0C
:1003D0000752CDE90042001C41F5801132462B4600
:1003E00000F08DF903B0BDE8F08F40462146F9E7F3
:1003F000001B61EB0201001C41F5801300185B41FA
:100400002018A2F5001747EB030140EAD570B61992
:100410006D4111E06D084FEA360645EAC0754FEAB6
:100420000752001B61EB0201001C41F580114908D5
:100430004FEA30000019514132462B4603B0BDE867
:10044000F04F00F04DB90098012240000023D0EB9E
:10045000020263EBE073009821464FEAE074B8EBC8
:10046000000061EB0401E9E783F000435BE781F002
:10047000004158E72DE9FE4F81EA030404F00044EF
:1004800021F0004100944FF0000B23F0004350EAAC
:1004900001045ED052EA03045BD0C3F30A54C1F3F3
:1004A0000A552C44A4F2F3340194A0FB0254C1F386
:1004B000130141F48011C3F3130343F4801301FBD0
:1004C000024400FB034E840A970A44EA815447EA37
:1004D0008357A4FB076802958D0A05FB07854FEA41
:1004E000932C04FB0C542705029D4FEA065847EA5B
:1004F0001637B5EB08056EEB070C870E920E47EA30
:10050000811742EA8312A7FB0201B6EB0B0164EBF1
:1005100000042B0D43EA0C335E1844EB1C50DA4602
:100520005146E7FB0201C5F313044FEA0B3343EADC
:1005300014534FEA0432019C43EA0603A4F10C046D
:100540000294009CCDE900B400F0D9F803B0BDE8F6
:10055000F08F00200146F9E72DE9F04D81EA030410
:1005600004F0004B21F0004514464FF0000A23F040
:10057000004150EA050220D054EA01021DD0C5F323
:100580000A570246C5F31303C1F31300C1F30A5619
:1005900040F4801543F48013A7EB0608101BD646E1
:1005A00008F2FD3873EB050002D308F1010801E001
:1005B00092185B41B8F1000F03DA00200146BDE854
:1005C000F08D00204FF48011064684460EE0171B84
:1005D00073EB050705D3121B63EB050306434CEAD7
:1005E000010C49084FEA300092185B4150EA0107BC
:1005F000EDD152EA030012D082EA040083EA050139
:10060000084305D0101BAB4106D20122002306E0AF
:1006100000224FF0004302E06FF0010253101AEB8A
:1006200006004CEB085110EB0A0041EB0B01BDE852
:10063000F04D00F055B8C1F30A52C1F3130140F276
:10064000FF3341F480119A4202DA002001467047DC
:1006500040F233439A42A2F2334202DC5242FFF7A5
:1006600052BEFFF741BE000030B5041E71F1000418
:1006700004DB4FF00044404264EB0101141E73F1AF
:10068000000405DB1C464FF00043524263EB0403B9
:10069000994208BF904230BD064C074D06E0E06825
:1006A00040F0010394E8070098471034AC42F6D3B9
:1006B000FFF796FD94780008B4780008202A06DB3E
:1006C000CB17203A41FA02F043EAE07306E041FA20
:1006D00002F3D040C2F1200291400843194670470E
:1006E00010B5141E73F1000408DA401C41F100013A
:1006F00092185B411A4301D120F0010010BD2DE991
:10070000F04D92469B4611B1B1FA81F202E0B0FA87
:1007100080F220329046FFF7E7FD04460F4640EA9C
:100720000A0041EA0B0153465A46084313D01146CA
:1007300053EA010019D0C8F140025046FFF7E3FD2B
:1007400005460E46504659464246FFF7CDFD084342
:1007500005D0012004E020463946BDE8F08D002098
:10076000054346EAE0762C4337430A986305E40ADA
:10077000A0EB08000022FD0A44EA47540A3002D5E3
:1007800000200146E9E7010510196941DDE9084546
:1007900000196941BDE8F04DA2E700002DE9F041E4
:1007A000044600270D46006803F05CFB06462068FF
:1007B00003F054FB304359D02068C1682C4E8901A6
:1007C00005D5617F012902D1217F01290BD0022D9E
:1007D0001DD0206803F046FBB8B120688168C1F3E2
:1007E000400169B111E00125224902E08F422ED279
:1007F0007F1C0268D2435206F8D440210160E8E72A
:100800008168314041F010018160012D11D02068D4
:1008100003F024FB48B120688168C1F3400121B98D
:100820008168314041F020018160022D08D0032D04
:1008300004D0042501F056F8064613E00C25F9E72C
:100840000825F7E701F04EF8801B05280AD9E06D6E
:1008500040F01000E065206E40F0010020660120AD
:10086000BDE8F081206880682842EBD10020F7E7DE
:10087000C0FFFF7F000040A370B504460068816898
:100880008268C1F3400112F0010F24D019BB8168C6
:1008900001F00D01012910D18168104A1140891C15
:1008A000816021680320086001F01CF805460EE015
:1008B00001F018F8401B022809D9E06D40F0100043
:1008C000E065206E40F001002066012070BD2068C8
:1008D0008068C007ECD1002070BD0000C0FFFF7F22
:1008E00070B504460068816811F0010F28D1816855
:1008F000144A114215D18168D5432940491C8160B1
:1009000000F0F0FF064616E0816811F0010F03D1F8
:1009100081682940491C816000F0E4FF801B0228A7
:1009200009D9E06D40F01000E065206E40F0010054
:100930002066012070BD20680168C943C907E3D162
:10094000002070BD3F000080FEE70000014800F07D
:10095000BDBD0000DC020020014800F0B7BD000072
:100960003C0300200D4902688A4201D20C4901E093
:100970000B492031D2B21423083AB2FBF3F2436C94
:1009800002F01F0223F003031944816404498031FB
:10099000C1640121914001657047000008040240D4
:1009A000000802400179074A02EB81024265054ACC
:1009B0004432491E826501F01F0201219140C16548
:1009C00070470000FC08024030B5D0E9134565606F
:1009D000446D14B1D0E91645656090F8444004F0C8
:1009E0001F050124AC40056C6C600468636083687B
:1009F000102B036803D099600068C26030BD9A6014
:100A00000068C16030BD7047002240F6B83306E090
:100A10000021491C89B29942FBD3521C92B28242F6
:100A2000F6D37047704700002DE9F047044690F870
:100A300058009CB00D464FF00008012814D001204A
:100A400084F8580020684FF0A0474FF00009B842E2
:100A50000ED1284E0096304603F008FA82462068F0
:100A600003F004FA60B10EE002201CB0BDE8F0878C
:100A7000E16D41F02001E16584F858900120F4E730
:100A8000BAF1000F0AD0E06D40F02000E0654FF0B1
:100A9000010800BF84F858904046E6E716482A68E7
:100AA00040F61F71002A826822F4604215D094F843
:100AB000383042EA43326B681A438260BA68B368DE
:100AC00002F0010203F001031A43E3D1AB682A6884
:100AD0001A4383688B431A430AE08260BA68B3689A
:100AE00002F0010203F001031A43D3D182688A4362
:100AF0008260CFE700010050000300502DE9F84F5D
:100B000000270446009790F85800DFF8DC930D4664
:100B1000B846012811D0012684F85860206803F0F7
:100B2000A1F960B1E06D40F02000E0655FF00107E1
:100B300084F858803846BDE8F88F0220FBE7D5E9F5
:100B400000210C23206803EA91131844036B01F081
:100B50001F014FF01F0C0CFA01FCC2F3846223EA60
:100B60000C038A4013430363206803F07BF9824639
:100B7000206803F073F95AEA00003CD1AA6829689A
:100B80002068B2F1004F37D003F07CF9206841694A
:100B900021F00041416120686969C268C2F3C10265
:100BA000520091402A69042A31D000EB82002B6860
:100BB000026EDFF838C303F0F84302EA0C020B437D
:100BC0001A4342F00041016622682869A96902EBD4
:100BD0008000026E22F080720A430266297F20683C
:100BE0002A69012910D0002100EB8200026E22F058
:100BF00000720A4302667DE0002203F043F9206898
:100C0000416941F00041C5E74FF00071ECE7002178
:100C100003F01EF9400320684FF0000172D003F08A
:100C200017F990FAA0F0B0FA80F1286842036ED06C
:100C300090FAA0F0B0FA80F0814204D1002211466F
:100C4000206803F02EF90121206803F001F9400328
:100C500020684FF001015DD003F0FAF890FAA0F09F
:100C6000B0FA80F12868420359D090FAA0F0B0FAA7
:100C700080F0814204D100220121206803F011F9A3
:100C80000221206803F0E4F8400320684FF00201DD
:100C900048D003F0DDF890FAA0F0B0FA80F12868AF
:100CA000420344D090FAA0F0B0FA80F0814204D11F
:100CB00000220221206803F0F4F80321206803F0E9
:100CC000C7F8400320684FF0030133D003F0C0F8A9
:100CD00090FAA0F0B0FA80F1286842032FD090FA81
:100CE000A0F0B0FA80F0814204D1002203212068F4
:100CF00003F0D7F82068816811F0010F22D0ACE032
:100D000000E004E003F0A4F8C0F384618DE7C0F3D1
:100D1000846091E703F09CF8C0F38461A2E7C0F31C
:100D20008460A6E703F094F8C0F38461B7E7C0F3EA
:100D30008460BBE703F08CF8C0F38461CCE7C0F3B8
:100D40008460D0E72A7B296850F8B03FC1F3120CC9
:100D500023EA0C0302F0180C654A22FA0CF20A404E
:100D600013430360E968494577D1286841031CD0E3
:100D700090FAA0F1B1FA81F1491C01F01F01092993
:100D80004FEA403132D8002912D000BF90FAA0F1CA
:100D9000B1FA81F101F1010101F01F0106FA01F63A
:100DA00009D100BFC0F3846109E0C0F38461E3E7C7
:100DB000C0F38461EEE790FAA0F1B1FA81F101F19C
:100DC000010101F01F0146EA816102D1C0F3846094
:100DD00003E090FAA0F0B0FA80F000F1010000F01A
:100DE0001F0000EB400041EA005132E000290ED024
:100DF00090FAA0F1B1FA81F101F1010101F01F01B6
:100E000006FA01F606D100BFC0F3846106E0C0F324
:100E10008461F1E790FAA0F1B1FA81F101F10101E9
:100E200001F01F0146EA816102D1C0F3846003E052
:100E300090FAA0F0B0FA80F000F1010000F01F007D
:100E40002C4A00EB400002EB005041EA000141F067
:100E50000071AA68206803F015F827482A68024242
:100E60003FF466AE25488168254B01F0E0719A4257
:100E700002D0244B9A421BD10B0219D42268B2F142
:100E8000A04F7FF455AE826841F4000122F0E07279
:100E90000A4382601C481D490068B0FBF1F000EB7A
:100EA0004000800000E0401E00900028FBD13FE69B
:100EB000174D184BAA4207D1CD0105D422689A429A
:100EC000F5D041F0807109E0134DAA42EFD14A02FA
:100ED000EDD422689A42EAD041F48001826822F07F
:100EE000E0720A43826023E600007F4000F0FF03C7
:100EF000FFFF0700000020FE0000088000030050F4
:100F0000000021C31000C09040000020400D0300ED
:100F1000000052C700010050000084CB0068006C44
:100F200070470000F8B54FF0000504002E4600950C
:100F300002D0E06D10B107E00120F8BD204600F0BE
:100F4000EDF8266684F8586020688168C1F3407126
:100F500019B18168694A1140816020688168C1F3D4
:100F6000007179B98168664A114041F08051816011
:100F7000644865490068B0FBF1F000E0401E009055
:100F80000028FBD120688168C1F3007141B9E16D8F
:100F900041F01001E165216E41F00101216601255A
:100FA00002F060FFE16DC90600D430B1E06D40F0A1
:100FB0001000E06501252846F8BDE06D20F4807042
:100FC00040F00200E0652068806810F0010F11D148
:100FD0004FF0A04080684D4900F00100896801F0A1
:100FE0000101084306D14A486168826822F47C12F4
:100FF0000A438260E168E06B627F0843A16841EACE
:101000004231084394F8241040EA0140012904D1F8
:10101000218D404A02EB41410843E16A29B101F4C4
:101020007871226B014342EA01002168CA683A4B99
:101030001A400243CA6020680169626B21F0406176
:1010400011430161206802F00DFF0646206802F09E
:1010500005FF30432ED1207F94F83810800340EAFA
:1010600041022068C16844F2020399431143C16000
:1010700020690028206801690AD041F480310161AB
:10108000206850F8C01F22696FF30D01114307E07B
:1010900021F480310161206850F8C01F6FF30D0109
:1010A000016094F8400001280CD02068016921F00B
:1010B00001010161606901282068016B21F00F01C5
:1010C00011D013E0D4E911010843D4E913121143FC
:1010D000084321680A6940F2FC739A43104340F0C8
:1010E00001000861E6E7226A521E11430163E06DC8
:1010F00020F0020040F00100E0655CE7C0FFFF5F08
:10110000C0FFFF7F40000020400D030000010050A1
:10111000000300500000FEFF0740F0FFF0B587B06D
:10112000044614216846FFF7ABF8214B26680024DB
:101130001A6803251F482049521CB6F1A04F06D05B
:101140001E4FBE4231D11A60012A16D01DE01A602E
:10115000012A07D1CA6C42F40052CA64CA6C02F474
:1011600000520592CA6C42F00202CA64C96C01F0D6
:10117000020105914FF4805111E0CA6C42F4005213
:10118000CA64CA6C02F400520592CA6C42F00202B0
:10119000CA64C96C01F0020105914FF40041CDE928
:1011A00000150294694600F0A7FA07B0F0BD0000F0
:1011B0002C000020000400480010024000010050F4
:1011C0002DE9F041044639480F46816801F01F05BA
:1011D000A16908290FD085B1052D0ED0092D0CD09D
:1011E000806800F4604060B1E06D40F02000E06590
:1011F0000120BDE8F081082604E02068C068C0072F
:10120000F1E7042600F06EFB804608E0781C06D06B
:1012100000F068FBA0EB0800B8420FD877B1206857
:1012200000683042F2D0E06D40F40070E065206864
:1012300002F020FED0B1607F48B117E0E06D40F0D1
:101240000400E065002084F858000320D1E72068FE
:10125000006800070AD5E06D20F48070E065E06D5D
:10126000C00403D4E06D40F00100E065104A20683E
:101270004FF0A041904201D10B4600E0034683426B
:1012800010D07DB1052D0DD0092D0BD0904200D08E
:101290000146C968082E07D0490401D40C21016019
:1012A0000020A6E7C168F5E70821F8E70003005031
:1012B000000100502DE9F04104463848806800F0F4
:1012C0001F05206802F0CEFD18B102210846BDE8D6
:1012D000F08194F8580001280CD0012084F85800BF
:1012E0002046FFF7FDFA01004FF0000304D084F818
:1012F0005830EBE70220EAE7E06D40F601629043E8
:1013000040F48070E065264A20684FF0A046904285
:1013100001D1374600E00746874200D01DB9E76D8E
:1013200027F48017E765E76DFF0404D5276E27F0E3
:101330000607276600E023661C27076084F85830FC
:101340002068904201D1334600E00346834215D025
:10135000A5B1052D12D0092D10D0E36D43F48013F3
:10136000E365904200D13046C0688001AED5E06DA3
:1013700020F4005040F48050E065A7E7C268920175
:1013800005D5E26D22F4005242F48052E265826893
:10139000044B1A40121D826098E7000000030050C1
:1013A00000010050C0FFFF7F10B5044690F85800C0
:1013B000012808D0012084F8580003212046FFF7B7
:1013C000EDF910B10BE0022010BD2046FFF754FAF2
:1013D00028B9E16D21F4885141F00101E165002156
:1013E00084F8581010BD10B590F825300021012266
:1013F000022B03D00421C163012122E003681C6891
:1014000024F00E041C60836C1C6824F480741C603F
:1014100003681C6824F001041C6090F84430046CDC
:1014200003F01F0302FA03F36360D0E913345C6036
:10143000436D33B11C6824F480741C60D0E9163409
:101440005C6080F82520002280F82420084610BD2A
:1014500070B590F82520002401212346022A07D0E8
:101460000422C26380F8251080F82430012429E08A
:101470000268156825F00E0515600268156825F0EC
:1014800001051560826C156825F48075156090F86B
:101490004420056C02F01F0201FA02F26A60D0E9F2
:1014A00013255560426D32B1156825F480751560BD
:1014B000D0E91625556080F8251080F82430816B1E
:1014C00001B18847204670BDC06B7047F0B4016C15
:1014D0000C6801680D6890F8442002F01F06042291
:1014E00002FA06F3234211D06B070FD50B689B0657
:1014F00003D40B6823F004030B6090F8441001F050
:101500001F018A40016C4A60016B1DE0022303FA4F
:1015100006F727424FF0000C4FF0010218D0AF073A
:1015200016D50C68A40605D40C6824F00A040C60D7
:1015300080F8252090F8441001F01F018B40016CC9
:101540004B6080F824C0C16A00291AD0F0BC08475B
:101550000823B340234214D02B0712D50B6823F085
:101560000E030B6090F84410036C01F01F0102FAA7
:1015700001F15960C26380F8252080F824C0416BD6
:10158000E2E7F0BC7047000070B504000CD02B4AB5
:1015900021681420914209D2294A0A44B2FBF0F092
:1015A0008000606427480AE0012070BD234A52424F
:1015B0000A44B2FBF0F080006064204808382064E0
:1015C000022084F825000A6847F6F0708243D4E9C7
:1015D00002031843D4E904352B431843A369184385
:1015E000E3691843236A1843104308602046FFF755
:1015F000B9F9A0680025B0F5804F00D16560A16CF5
:1016000020790860D4E9130141606068401E032816
:1016100008D82046FFF7C6F9606D0560D4E91601C9
:10162000416002E06565A565E565E563012084F834
:10163000250084F82450002070BD000008040240FA
:10164000F8FFFDBF0000024070B5044690F824008A
:10165000002501280CD0012084F8240094F825608E
:101660000020012E06D084F824000225284670BDF3
:10167000022070BD022684F82560E06320680668B9
:1016800026F0010606602046FFF79EF9206B002831
:101690002068016802D041F00E0106E021F004014B
:1016A00001602068016841F00A010160A06C0168D6
:1016B000C90303D5016841F480710160606D18B100
:1016C000016841F4807101602068016841F0010106
:1016D0000160CBE770B5044600F004F90546601CD4
:1016E00002D004484068044400F0FCF8401BA042CB
:1016F000FAD370BD340000202DE9FC4FDFF8A0A123
:10170000002301250AF1040B03244FF00F0C0BF109
:10171000040EBDE005FA03F632406FD04F68012F8A
:1017200005D0022F03D0112F01D0122F17D1D0F8DE
:1017300008905F0004FA07F829EA08090097D1F831
:101740000C8008FA07F848EA0908C0F808804768DA
:10175000B7430E79C6F300169E403E434660C66806
:101760004FEA430804FA08F7BE4301978F6807FA67
:1017700008F73743C7604E68022E01D0122E13D1EE
:10178000DE0800EB86060096366A5F07FF0E0CFA4D
:1017900007F926EA0906D1F8109009FA07F949EA8B
:1017A0000609009EC6F820900668019FBE430F7987
:1017B00007F0030707FA08F7374307604E68F6009B
:1017C00065D5384E376E47F001073766366E23F021
:1017D000030706F001060096334E3E44B146B66854
:1017E0009F074FEA17780CFA08F7BE43B0F1904F05
:1017F00005D02E4FB84204D1012717E047E000275B
:1018000014E02B4FB84201D102270FE0294FB84214
:1018100001D103270AE0284FB84201D1042705E08F
:10182000264FB84201D1052700E0062707FA08F73E
:101830003743C9F80870DAF800605746D1F80480D9
:1018400096435FEAC83800D516433E60DBF8006077
:101850005F46D1F8048096435FEA883800D5164386
:101860003E60DEF800607746D1F8048096435FEA78
:10187000C82800D516433E60094F0C373E68D1F8A2
:10188000048096435FEA882800D516433E605B1CBF
:101890000A6832FA03F67FF43DAFBDE8FC8F000022
:1018A0000004014000100240000001400004004814
:1018B00000080048000C00480010004800140048D0
:1018C0000069084000D00120704742690A4201D0F7
:1018D00081627047816170470AB18161704781629E
:1018E0007047000001488068704700003400002005
:1018F00002488168426811448160704734000020CA
:1019000010B50024032000F07FF8002000F008F854
:1019100008B1012401E000F025F8204610BD0000C8
:1019200070B50E4E05460024706898B14FF47A7178
:10193000B1FBF0F00A490968B1FBF0F000F0EAFEF3
:1019400040B9102D06D200222946501E00F03CF866
:10195000356000E00124204670BD00003400002006
:10196000400000200F4808B5016E41F001010166FA
:10197000016E01F001010091816D41F0805181659E
:10198000806D002200F0805000901146052000F08C
:101990001BF8052000F00AF80348816841F48041F3
:1019A000816008BD0010024000700040002809DB83
:1019B00000F01F02012191404009800000F1E02069
:1019C000C0F8001170470000F0B40E4B1B680C46C5
:1019D000C3F30223C3F10705042D00D90425191D03
:1019E000072901D2002300E0DB1E012606FA05F1DB
:1019F000491E214099409E40761E16403143F0BC5E
:101A000004F05EB80CED00E0064900F0070208683B
:101A10004FF6FF03184040EA0220034A10430860D3
:101A2000704700000CED00E00000FA052B492C4B3C
:101A30000A6832214A432B4940B1B0F5007F08685B
:101A400029D020F4C06040F480602CE00868C0F326
:101A50004120022804D051F8800F20F4807022E049
:101A6000D1F8800020F48070C1F88000086820F46C
:101A7000C06040F400700860B2FBF3F0401C00E06E
:101A8000401E4A69520501D50028F9D14869400530
:101A90000AD503207047C0F34120022806D051F830
:101AA000800F40F48070086000207047D1F88000FB
:101AB00040F48070C1F88000086820F4C06040F4F1
:101AC00000700860B2FBF3F0401C00E0401E4A6961
:101AD0005205DBD50028F9D1D8E7000040000020EE
:101AE00040420F00007000402DE9F84304460068B2
:101AF00000269D4D00035ED5A86D0027C00008D4C8
:101B0000A86D40F08050A865A86D012700F08050B6
:101B10000090DFF85892D9F8001041F48071C9F8AC
:101B20000010FFF7DFFE804606E000BFFFF7DAFE99
:101B3000A0EB080002282BD8D9F80000C005F5D585
:101B4000D5F8900010F4407014D0216C814211D06F
:101B5000D5F89000D5F8901020F4407041F4803111
:101B6000C5F89010D5F8901021F48031C5F8901088
:101B7000C5F89000C00711D0FFF7B4FE804641F2CF
:101B8000883907E0FFF7AEFEA0EB0801494501D90F
:101B900003260BE0D5F890008007F3D5D5F8900028
:101BA000216C20F440700843C5F890001FB1A86D67
:101BB00020F08050A8652078C00707D0D5F88800AD
:101BC000616820F003000843C5F88800207880078A
:101BD00007D5D5F88800A16820F00C000843C5F8A7
:101BE00088002078400707D5D5F88800E16820F004
:101BF00030000843C5F888002078000707D5D5F8DD
:101C00008800216920F0C0000843C5F888002078CA
:101C1000800607D5D5F88800616920F44060084344
:101C2000C5F888002078400607D5D5F88800A16956
:101C300020F440500843C5F888002078000607D5F6
:101C4000D5F88800E16920F440400843C5F88800D1
:101C50002088C00507D5D5F88800216A20F44030D7
:101C60000843C5F888002088800507D5D5F8880086
:101C7000616A20F440200843C5F8880020884005A8
:101C80000FD5D5F88800A16A20F440100843C5F8A4
:101C90008800A06AB0F5801F03D1E86840F4801086
:101CA000E860208800050FD5D5F88800E16A20F4A7
:101CB00040000843C5F88800E06AB0F5800F03D102
:101CC000E86840F48010E8602088C0040FD5D5F89B
:101CD0008800216B20F040700843C5F88800206B15
:101CE000B0F1807F03D1E86840F48010E86020887C
:101CF0004FF0006180040ED5D5F88800626B20F0AB
:101D000040601043C5F88800606B884203D1E868E2
:101D100040F48010E860208840040ED5D5F8880093
:101D2000A26B20F040601043C5F88800A06B884289
:101D300003D1E86840F48010E860208800040FD5E3
:101D4000D5F88800E16B20F040500843C5F88800C2
:101D5000E06BB0F1805F03D1E86840F48030E86068
:101D60003046BDE8F88300000010024000700040DB
:101D70002DE9F0470E4605004FF0000725D0DFF8AB
:101D8000AC81D8F8000000F00F00B0420CD2D8F8B7
:101D9000001021F00F013143C8F80010D8F80000FE
:101DA00000F00F00B04210D12968614CC80741F221
:101DB000883A5AD06868DFF87C91032808D0022856
:101DC00020682DD0400500282CDB0120BDE8F087DD
:101DD00020688001F9D5E06800F00302E068C0F3F4
:101DE0000310401C032A19D0534A00BFB2FBF0F085
:101DF000E268C2F306225043E268C2F34162521C19
:101E00005200B0FBF2F0484517D9A06810F0F00F6F
:101E10000CD0880711D5A86840B10EE0474AE5E725
:101E20008003D0E700F0B6F8484506D9A06820F056
:101E3000F00040F08000A0608027A068696820F072
:101E400003000843A060FFF74DFD814606E000BF98
:101E5000FFF748FDA0EB090151453AD8A068696831
:101E600000F00C00B0EB810FF2D12868810714D587
:101E7000400703D5A06840F4E060A0602878000720
:101E800005D5A06820F4605040F4E060A060A06830
:101E9000A96820F0F000084304E0802F03D1A06877
:101EA00020F0F000A060D8F80010404601F00F01CB
:101EB000B14216D9016821F00F0131430160FFF7EB
:101EC00011FD074607E000BFFFF70CFDC11B5145A0
:101ED00001D903207AE7D8F8000000F00F00B042E3
:101EE000F2D12878400705D5A068E96820F4E060C1
:101EF0000843A0602878000706D5A068296920F467
:101F0000605040EAC100A06000F044F8A1680C4AAB
:101F1000C1F30311515C01F01F01C8400949086079
:101F200009480068BDE8F047FFF7FABC002002400E
:101F30000010024000B4C4040024F40000366E0116
:101F40007C78000840000020340000200548064945
:101F500000688968054AC1F30221515C01F01F0144
:101F6000C840704740000020001002408C780008F4
:101F70000548064900688968054AC1F3C221515CD9
:101F800001F01F01C84070474000002000100240CF
:101F90008C780008184910B58868C0F3810217488A
:101FA000012A0BD08A68164BC2F38102022A06D09E
:101FB0008A68C2F38102032A03D0002010BD1846AC
:101FC00010BDCA6802F00304CA68C2F30312521CAF
:101FD000032C02D0B0FBF2F001E0B3FBF2F0CA68D0
:101FE000C968C2F306225043C1F34161491C49004C
:101FF000B0FBF1F010BD0000001002400024F4001E
:1020000000366E012DE9F84304007AD02078FA4DAD
:10201000C00747D0A868E96800F00C0001F0030190
:102020000C2802D0082817D001E0032914D06068DA
:10203000B0F5803F17D0B0F5A02F286817D020F456
:1020400080302860286820F4802028606068E0B133
:10205000FFF748FC064614E02868800322D5606834
:102060000028D2D01EE0286840F48030EDE740F42C
:1020700080202860F7E700BFFFF734FC801B64284E
:1020800070D828688003F7D50CE0FFF72BFC0646D4
:1020900005E000BFFFF726FC801B6428F0D8286805
:1020A0008003F7D4207880074CD5A868E96800F051
:1020B0000C0001F003010C2802D004280DD001E02F
:1020C00002290AD0E068002828682BD040F48070EC
:1020D0002860FFF707FC064619E02868400502D58E
:1020E000E068002891D06868217C20F0FE4040EA3A
:1020F00001606860C1480068FFF712FC002800D149
:1021000020E076E1FFF7EEFB801B0228B8D82868B4
:102110004005F7D56868217C20F0FE4040EA016068
:1021200068600FE020F480702860FFF7DBFB064654
:1021300005E000BFFFF7D6FB801B0228A0D8286867
:102140004005F7D42078000729D560690028D5F824
:10215000940013D040F00100C5F89400FFF7C2FBD3
:10216000064606E090E000BFFFF7BCFB801B02289C
:1021700086D8D5F894008007F6D510E020F001004D
:10218000C5F89400FFF7AEFB064604E0FFF7AAFB94
:10219000801B022878D8D5F894008007F6D42078E0
:1021A000400761D5A86D0026C00008D4A86D40F096
:1021B0008050A865A86D012600F0805000909048DE
:1021C0000168C90511D40168804641F4807101603D
:1021D000FFF788FB074604E0FFF784FBC01B0228DB
:1021E00052D8D8F80000C005F6D5A068012815D04F
:1021F0000528D5F8900016D020F00100C5F8900011
:10220000D5F8900020F00400C5F89000A06841F2D5
:102210008838B8B1FFF766FB07460EE0D5F89000A6
:1022200040F00100F0E740F00400C5F89000F5E749
:10223000FFF758FBC11B414526D8D5F89000800711
:10224000F6D50CE0FFF74EFB074604E0FFF74AFB2C
:10225000C11B414518D8D5F890008007F6D41EB1AF
:10226000A86D20F08050A8652078800629D5A06947
:102270000028D5F8980013D040F00100C5F8980068
:10228000FFF730FB064606E077E000BFFFF72AFBCA
:10229000801B022877D8D5F898008007F6D510E083
:1022A00020F00100C5F89800FFF71CFB064604E08B
:1022B000FFF718FB801B022865D8D5F89800800727
:1022C000F6D4E069F0B3A968C1F38101032961D0B4
:1022D0000228286820F0807028600BD0E86820F081
:1022E0000300E860E86847490840E860FFF7FAFA49
:1022F00004464BE0FFF7F6FA064604E0FFF7F2FA71
:10230000801B02283FD828688001F7D4F4E908012F
:102310006FF00F0202EB01110843218A52044908B1
:1023200002EB4151A26841EA02210843217D4FF0AE
:102330007E42490802EB41610843217B40EAC160CB
:10234000E96800E062E0304A11400843E86028682C
:1023500040F080702860E86840F08070E860FFF727
:10236000C1FA044605E000BFFFF7BCFA001B0228D3
:1023700009D828688001F7D548E004E0FFF7B2FAF1
:10238000001B022802D90320BDE8F88328688001D9
:10239000F4D43BE00128F7D0E868226A00F003019A
:1023A000914226D1616A00F0F00209011039914290
:1023B0001FD1A26A00F4FE41B1EB022F19D194F8AB
:1023C0002C2000F07841B1EBC26F12D1218E00F4C5
:1023D000C00249084905A1F50011914209D194F8BC
:1023E000341000F0C06049084906A1F10071814233
:1023F0000CD00120C8E7000000100240340000208B
:1024000000700040FFFFEEFE0C809F010020BBE744
:102410000F4810B50B4601680E480140080CD870F3
:10242000C1F304245C7001F03F049C70C1F342319D
:10243000197052B902F05AF9D870587802F056F96A
:102440005870987802F052F99870002010BD000082
:10245000042800403FFFFF00144810B500680B46F9
:102460004860124808300068C0F30E0088600F48CA
:10247000083801680E480140C1F305401870C1F3E7
:1024800006245C7001F07F049C70890DD97052B9EC
:1024900002F02CF91870587802F028F958709878E2
:1024A00002F024F99870002010BD000008280040B8
:1024B0007F7F7F0070B504004FF001003ED094F89C
:1024C000250028B9002084F82400204600F03CF8BC
:1024D000022084F825001A4ECA2030605320306054
:1024E000204602F019F910BB154D0C3D286815491E
:1024F0000840286028686168A2690843216911437F
:10250000084328602189E06840EA01400C491439F9
:102510000860204602F026F948B9D4E907211143A2
:1025200062692B6823F060431A4311432960FF213D
:102530003160002802D1012184F8251070BD00000F
:1025400024280040BFFF8FFB00680549884205D161
:10255000044850F8901F41F40041016070470000AA
:1025600000280040001002402DE9F041044690F898
:1025700024000B4601281AD0012684F8246002208A
:1025800084F82500B2B19878D97840EA01455878A6
:102590001978000240EA413005431B4FCA203860D9
:1025A00053203860204602F0B7F8D8B122E002206C
:1025B000BDE8F0815878C10603D500F0EF000A307D
:1025C0005870D87802F09BF80504587802F097F814
:1025D00045EA0025987802F092F80543187845EA14
:1025E0004035DAE7094805400748203805602046AD
:1025F00002F0B8F8FF21396008B984F8256000219D
:1026000084F82410D4E70000242800403FFFFF0096
:102610002DE9F047054690F8240017460C4601289E
:1026200014D04FF0010985F82490022085F8250088
:10263000DFF8A480CA21C8F800105321C8F80010A0
:10264000284602F069F8002618B127E00220BDE80C
:10265000F087214B0C3B18684FEA40601FB30028FD
:1026600000DBE670A0782178E27840EA01406178EA
:10267000090241EA825108431849084016492439A1
:102680000860186820F480201860D4E9030108432A
:10269000196808431860284602F064F8FF22C8F859
:1026A0000020A0B115E0002800DBE670207802F0E1
:1026B00026F80704607802F022F847EA0027A0789D
:1026C00002F01DF80743E07847EA8050D4E785F828
:1026D000259085F82460BAE7242800407F7F7F009A
:1026E00070B50B4D286860F0A0002860FFF7FAF87D
:1026F00004464FF47A7606E0FFF7F4F8001BB04288
:1027000001D9032070BD28688006F5D5002070BD72
:102710000C28004010B5401EB0F1807F01D301208D
:1027200010BD4FF0E02460610F21601703F0C8F97D
:102730000020A06107202061002010BD7047704775
:102740007047704770477047F0B590F83C20012AF9
:102750003AD0012580F83C50022280F83D200368E1
:102760005A689C68194E1A4FB34201D0BB4204D13B
:1027700022F4700C4A6842EA0C02DFF858C002EA00
:102780000C02D1F800C04CEA020CC3F804C0026885
:10279000B2420DD0B2F1804F0AD00F4B9A4207D00F
:1027A0000E4B9A4204D0BA4202D00D4B9A4204D149
:1027B000896824F080031943916080F83D5000211E
:1027C00080F83C100846F0BD0220F0BD002C01400E
:1027D000003401408FFFFFFD00040040000800406E
:1027E00000400140704710B5040003D094F83D004C
:1027F00010B107E0012010BD002084F83C00204605
:1028000000F022F8022084F83D00211D206802F02B
:10281000F9F8012084F8480084F83E0084F83F006D
:1028200084F8400084F8410084F8420084F84300B2
:1028300084F8440084F8450084F8460084F8470092
:1028400084F83D00002010BD10B586B00446142168
:102850006846FDF715FD21682548B1F1804F0CD081
:10286000244A91422FD1816D41F002018165806D32
:1028700000F00200059006B010BD816D41F001012D
:102880008165816D01F001010591C16C41F001018B
:10289000C164C06C694600F0010005904FF400402F
:1028A00000900220019000200290039001200490EB
:1028B0004FF09040FEF720FF002211461C20FFF74A
:1028C00083F81C2010E00C4A9142D4D1816D41F074
:1028D00010018165806D002200F010000590114606
:1028E0003620FFF771F83620FFF760F8C3E70000E5
:1028F00000100240000400400010004090F83D101D
:10290000012901D001207047022180F83D100168A3
:10291000CA6842F00102CA6000688168064A114034
:10292000062906D0B1F5803F03D0016841F00101CE
:1029300001600020704700000700010070B50446E8
:1029400090F83C00012815D0012584F83C50022065
:1029500084F83D0022689068354B184020F47F4091
:1029600090600868B0F5805F50D010DC10F00F0F59
:1029700003D04BE04FF0020070BD4FEA2012082A4E
:1029800044D2DFE802F05151515149323A1B294BF0
:10299000C21A984248D00ADCB0F5005F19D0B0F1F5
:1029A000101F41D0A0F5801120392FD13CE0102A12
:1029B0003AD0302A38D0402A28D135E0CB68D1E946
:1029C0000121206802F083F82068816841F07701D6
:1029D00009E0CB68D1E90121206802F078F820688D
:1029E000816841F48041816010E0CA6849682068CC
:1029F00002F066FA5021206806E0CA68496820683B
:102A000002F0A6FA6021206802F06CF884F83D50CC
:102A1000002084F83C0070BDCA684968206802F054
:102A20004FFA40212068EFE7226801461046EBE7A5
:102A300088FFCEFF3000100010B50168B1F1804F63
:102A400012D1007F0E4C01280FD002280CD1042196
:102A50000C4800F0D9FBC0B22071642110FB01F0DA
:102A6000E178B0FBF1F0A07110BD0021054800F045
:102A7000CBFBC0B20449E070B1FBF0F0607110BD57
:102A8000080000206C01002040420F002DE9F041B9
:102A9000054690F83C000C46012836D0012085F808
:102AA0003C008AB3042A42D02868082A51D0D4E9CD
:102AB0000023E168066A26F480560662C669076A42
:102AC00026F4407646EA03234FF6FF7606EA013104
:102AD00023F4704319434FF4204627F4204306EAB9
:102AE00002321A43C16102622868C16921F440615F
:102AF000C1612868C169A26841EA0221C161002060
:102B000085F83C00BDE8F08101E00220FAE7D4E955
:102B10000012E368286802F0E5F92868816921F06D
:102B20000C01816128688169A26811430FE0D4E932
:102B30000012E368286802F01DFA2868816921F410
:102B40004061816128688169A26841EA022181614E
:102B5000D5E7D4E90027267B016A21F48071016260
:102B6000C169036A21F00301394321F0F0073107FD
:102B70004FF4206647EA116123F4206306EA02223B
:102B80001A43C16102622868C16921F00C01C16168
:102B90002868C169A2681143B0E710B5040003D0EA
:102BA00094F83D0010B107E0012010BD002084F82A
:102BB0003C00204600F022F8022084F83D00211D50
:102BC000206801F01FFF012084F8480084F83E00CF
:102BD00084F83F0084F8400084F8410084F8420003
:102BE00084F8430084F8440084F8450084F84600E3
:102BF00084F8470084F83D00002010BD70470000B5
:102C000010B5044679B1042912D0082915D00C2931
:102C100018D0102919D094F8430000BF94F8472029
:102C2000012817D114E094F83E0094F84420F7E707
:102C300094F83F0094F84520F2E794F8400094F8A7
:102C40004620EDE794F84100E8E794F84200E5E714
:102C5000012A01D0012010BD022071B1042915D034
:102C600008291CD00C2936D0102937D084F843000D
:102C700084F847000C291BD133E084F83E0084F827
:102C800044002068C26842F0020210E084F83F006D
:102C900084F845002068C26842F0040207E084F826
:102CA000400084F846002068C26842F00802C26012
:102CB0000122206801F0FEFE206881680B4A114065
:102CC000062906D0B1F5803F03D0016841F001012B
:102CD0000160002010BD84F84100C9E784F842007B
:102CE000C6E72068C26842F01002E0E70700010072
:102CF00070B50446006801694FF00005C9438907B3
:102D000015D4C168C943890711D4E91E01610120A6
:102D10002077206880698007204602D0FFF78CFE6C
:102D200004E000F00BF9204600F0CAF9257720688E
:102D30000169C943490717D4C168C943490713D476
:102D40006FF004010161022020772068806910F48F
:102D5000407F204602D0FFF76FFE04E000F0EEF85F
:102D6000204600F0ADF9257720680169C9430907BD
:102D700016D4C168C943090712D46FF00801016174
:102D8000042020772068C0698007204602D0FFF722
:102D900053FE04E000F0D2F8204600F091F92577C8
:102DA00020680169C943C90617D4C168C943C90667
:102DB00013D46FF010010161082020772068C069EA
:102DC00010F4407F204602D0FFF736FE04E000F00A
:102DD000B5F8204600F074F9257720680169C943E9
:102DE000C90708D1C168C943C90704D1891E016157
:102DF000204600F0E5F920680169C943090609D4B5
:102E0000C168C943090605D46FF0800101612046FD
:102E1000FFF795FC20680169C943C90509D4C16859
:102E2000C943090605D46FF4807101612046FFF79C
:102E300085FC20680169C943490609D4C168C943B2
:102E4000490605D46FF040010161204600F01CFAEC
:102E500020680169C943890609D4C168C943890644
:102E600005D46FF0200101612046FFF769FC20685E
:102E70000169C943C90209D4C168C943C90205D45B
:102E80006FF4801101612046FFF75CFC2068016946
:102E9000C943890209D4C168C943890205D46FF4C2
:102EA000001101612046FFF74CFC20680169C9430D
:102EB000490209D4C168C943490205D46FF48001AD
:102EC00001612046FFF73FFC20680169C943090200
:102ED0000BD4C168C943090207D46FF40001016132
:102EE0002046BDE87040FFF77DBC70BD10B586B0D0
:102EF000044614216846FDF7C3F90E49206888424C
:102F000015D10D48C16C41F00101C164C06C0021B4
:102F100000F001000590C02000900220CDE90101E1
:102F2000CDE9031069464FF09040FEF7E5FB06B08F
:102F300010BD00000004004000100240704770B552
:102F4000044690F83C000D4601280BD0012084F87F
:102F50003C000C2A45D007DC5AB1042A1BD0082AB1
:102F600078D12CE0022070BD102A4ED0142A71D1E5
:102F70005DE0206801F0C0FD2068816941F0080132
:102F800081612068816921F0040181612068816983
:102F90002A69114311E0206801F0FCFD2068816975
:102FA00041F4006181612068816921F4806181615F
:102FB000206881692A6941EA022181614AE020682A
:102FC00001F030FE2068C16941F00801C16120684C
:102FD000C16921F00401C1612068C1692A691143F6
:102FE00011E0206801F066FE2068C16941F40061CB
:102FF000C1612068C16921F48061C1612068C16933
:103000002A6941EA0221C16124E0206801F09AFEA8
:103010002068016D41F0080101652068016D21F013
:10302000040101652068016D2A69114311E02068DF
:1030300001F0C0FE2068016D41F400610165206867
:10304000016D21F4806101652068016D2A6941EA02
:1030500002210165002084F83C0070BD10B5040019
:1030600003D094F83D0010B107E0012010BD00200E
:1030700084F83C00204600F022F8022084F83D004D
:10308000211D206801F0BEFC012084F8480084F86E
:103090003E0084F83F0084F8400084F8410084F842
:1030A000420084F8430084F8440084F8450084F822
:1030B000460084F8470084F83D00002010BD7047AA
:1030C0007047000010B50446022269B1042916D0E9
:1030D000082920D00C2929D010292ED094F843009B
:1030E000012831D0012010BD94F83E000128F9D10B
:1030F00084F83E202068C26842F0020209E094F899
:103100003F000128EED184F83F202068C26842F0D9
:103110000402C2601CE094F840000128E2D184F867
:1031200040202068C26842F00802F2E794F84100AB
:103130000128D7D184F8412008E094F84200012802
:10314000D0D184F8422003E084F843200C2926D013
:103150000122206801F0AEFC1349206888420BD0A0
:103160001249884208D01249884205D01149884244
:1031700002D01149884203D1416C41F400414164BD
:10318000206881680D4A1140062906D0B1F5803FBC
:1031900003D0016841F001010160002010BD2068EA
:1031A000C26842F01002B4E7002C01400034014034
:1031B0000040014000440140004801400700010078
:1031C0000E4810B50189491C89B20181B1F5FA7F19
:1031D00013D1002101814FF400410948FEF775FB2E
:1031E000084C012204212046FEF776FB20460022EF
:1031F000BDE810400421FEF76FBB10BD08000020A1
:1032000000080048000C00480246002041B1042993
:1032100009D008290AD00C2901D11068006C704728
:103220001068406B70471068806B70471068C06B07
:10323000704770B5044690F83C00012812D0012573
:1032400084F83C50022084F83D00204601F0EAFD5D
:1032500001004FF0000007D084F83D5084F83C0096
:10326000012070BD022070BD2168CA6822F04002B2
:10327000CA602168CA6822F48042CA6084F83D505E
:1032800084F83C00002070BD704790F87C10012944
:1032900018D0012180F87C102421C0F8801050F84B
:1032A000601B0A680B6823F001030B6022F00051D9
:1032B0000022426050F8603C1960202101620277D0
:1032C0001046704702207047704770B5044690F86A
:1032D0007C0001281DD0012084F87C002420C4F843
:1032E000800020680568026822F001020260206800
:1032F000826822F060620A438260204601F056FE36
:10330000206805602020C4F88000002084F87C003C
:1033100070BD022070BD70B5044690F87C00012895
:103320001DD0012084F87C002420C4F8800020688F
:103330000568026822F0010202602068826822F0BB
:1033400060420A438260204601F030FE206805603A
:103350002020C4F88000002084F87C0070BD02208A
:1033600070BD7047704770B5D0F880100446D0F833
:103370008450006882684FF01006120612D5212989
:1033800010D1816821F080018160606F38B1FEF753
:103390002AF820B1606FFEF797F820281BD020464E
:1033A00001F04EFF20688168490612D5222D10D108
:1033B000816821F040018160A06F38B1FEF713F8F9
:1033C00020B1A06FFEF780F8202804D0204601F03D
:1033D00025FF002070BDC4F88860032070BD7047D1
:1033E0002DE9F04103680446D8691A68996810F01D
:1033F0000F0F4FF0000569D05E4E02F490770E403B
:1034000037437DD0C70709D0D70507D501271F62ED
:10341000D4F8883043F00103C4F8883083070AD514
:10342000CB0708D0276802233B62D4F8883043F0EA
:103430000403C4F8883043070AD5CB0708D02768AF
:1034400004233B62D4F8883043F00203C4F8883088
:1034500003070CD502F02003334308D02668082365
:103460003362D4F8883043F00803C4F88830D4F8C5
:103470008830002B3CD0800609D502F0200001F0F6
:103480008051084303D0E16E09B120468847D4F843
:10349000880021688968490601D400072AD520469A
:1034A00001F0BCFE2068816849061ED5816821F0C4
:1034B00040018160A06FC0B12F498163A06FFDF70B
:1034C000C7FF002814D0A06F816B0AE0860617D5CD
:1034D00002F0200601F080573E4311D0E16E24E057
:1034E0002046BDE8F04108470AE02046FFF777FF95
:1034F000BDE8F0812046FFF772FFC4F88850F7E777
:10350000C60209D54E0207D54FF480101862204636
:10351000BDE8F041FFF726BF060609D502F0800698
:1035200001F400010E4303D0216F0029D8D1DFE759
:1035300041060DD551060BD51968204621F04001F2
:1035400019602021C4F88010256700F079F9CFE7D1
:10355000010206D5510004D52046BDE8F041FFF731
:1035600000BFC001C4D5002AC2DA2046BDE8F04140
:10357000FFF7AABE01000010375100080C4810B533
:10358000006840680B4CC0F10A00C2B2E2710A49FF
:103590000A4800F009F90020E0710749302000F0E6
:1035A000F7FABDE810400A220349044800F0A8B821
:1035B000DC020020080000205800002050020020FB
:1035C00010B5040003D0D4F8800010B107E001204A
:1035D00010BD002084F87C00204600F027F824204D
:1035E000C4F880002068016821F0010101602046D4
:1035F00001F034FE0128EBD0A06A10B1204601F0A2
:1036000007FD2068416821F490414160206881688D
:1036100021F02A0181602068016841F00101016008
:103620002046BDE8104001F057BD0000F0B587B05E
:10363000064614216846FCF723FE2D49306888426F
:1036400054D12C48016E41F480410166016E01F4B1
:1036500080410591C16C41F00101C164C06C00243E
:1036600000F0010005904FF4C06000900220CDE909
:1036700001040720CDE9034069464FF09040FEF772
:103680003BF81E4D1C48802728601820C5E901041E
:10369000C5E903476C61AC61EC6128462C62FDF71B
:1036A00073FF08B1FDF7BEF9B567AE62134D12485E
:1036B0006035143028601920686005F10801102079
:1036C00081E891006C61AC61EC6128462C62FDF7E9
:1036D0005BFF08B1FDF7A6F97567002211462520AA
:1036E000AE62FEF771F92520FEF760F907B0F0BD74
:1036F000003801400010024008000240DC020020B7
:1037000070B50446D0F88400202842D161B35AB382
:1037100094F87C0001283CD0012084F87C00A1654D
:10372000A4F85C200025C4F888502220C4F8840046
:10373000A06FD8B11849C162A16F18481346086339
:10374000A16F17484863A06F8563A66D2168324654
:103750002431A06FFDF778FF40B11020C4F8880035
:1037600004F87C5F20206060012070BD84F87C50EC
:103770002068016841F4807101602068816841F02F
:10378000010181602068816841F040018160002072
:1037900070BD022070BD00009B510008D951000887
:1037A0004B5100087047704770B50446D0F8800050
:1037B00020283DD171B36AB394F87C00012837D03A
:1037C000012084F87C002165A4F85420A4F8562038
:1037D0000025C4F888502120C4F88000606FD8B15B
:1037E0001449C162616F144813460863616F13483E
:1037F0004863606F85632668216D06F12802606F5B
:10380000FDF722FF40B11020C4F8880004F87C5F67
:1038100020206060012070BD21684020086284F88B
:103820007C502068816841F080018160002070BD7B
:10383000022070BDE3510008135200084B510008EC
:1038400070477047FEE770B50824002501F036F890
:1038500013E06806050E002001F018F8142002F0AD
:10386000ADFD142002F0AAFD012001F00FF8142094
:1038700002F0A4FD01F016F80543641EE4B2E8D29C
:10388000002001F003F8142002F098FD01F038F850
:10389000284670BD70B50446082516E000F0F6FF16
:1038A000142002F08BFD04F0800001F01DF81420BC
:1038B00002F084FD6006040E142002F07FFD01205A
:1038C00000F0E4FF142002F079FD6D1EEDB24FF020
:1038D0000000E3D200F0DAFFBDE87040142002F0EF
:1038E0006DBD10B5012000F0FFFF142002F066FD51
:1038F000012000F0CBFF142002F060FD002000F05A
:10390000F3FF142002F05AFD002000F0BFFFBDE8D5
:103910001040142002F052BD10B5002000F0B6FF98
:10392000142002F04BFD002000F0DEFF142002F016
:1039300045FD012000F0AAFF142002F03FFD012008
:1039400000F0D2FFBDE81040142002F037BD10B5E2
:10395000052400F0B3FF142002F030FD012000F038
:1039600095FF142002F02AFD05E0641EA4B2142085
:1039700002F024FD6CB100F095FF0028F5D100F0B5
:10398000BFFF002000F082FF142002F017FD00208E
:1039900010BD00F0B5FFFFF7BFFF012010BD000014
:1039A0002DE9F0412E4C2F4D012620784FF0904804
:1039B000D8B1032701282FD0022814D1012128468D
:1039C000FDF77EFFF0B302212846FDF779FFC8B36B
:1039D00004212846FDF774FFA0B301214046FDF7FE
:1039E0006FFF78B32770BDE8F08101212846FDF70D
:1039F00067FF78B102212846FDF762FF50B104212C
:103A00002846FDF75DFF28B101214046FDF758FF2C
:103A10000028E8D12670E6E701212846FDF750FF8F
:103A200000B9667002212E462846FDF749FF02259F
:103A300000B9657004213046FDF742FF00B9677098
:103A4000012100E007E04046FDF73AFF08B90420F5
:103A500060702570C7E7E0680A30E060C3E70000E7
:103A6000080000200004004800B585B01421684615
:103A7000FCF706FC4FF6FF70009000200321CDE913
:103A80000201019069460248FDF736FE05B000BD0F
:103A90000008004800B585B014216846FCF7F0FB2B
:103AA0004FF6FF700090012001900320039000204A
:103AB000029069460248FDF71FFE05B000BD0000F8
:103AC0000008004870B5002406462146204600F054
:103AD00003F900F041F94FF49635304600F010F943
:103AE000641CAC42F9D370BD30B587B01421684670
:103AF000FCF7C6FB1E48C16C41F00401C164C16CF7
:103B000001F004010591C16C41F00101C164C16C77
:103B100001F001010591C16C41F00201C164C06C6A
:103B2000012500F0020005904FF44870CDE9000532
:103B300000240394694602940E48FDF7DDFD280237
:103B400003940090CDE901544FF09044694620461B
:103B5000FDF7D2FDFFF79EFFA06940F48070A061E1
:103B600004481830016841F40871016007B030BDA5
:103B70000010024000040048203AD2B2034B02EB8E
:103B8000420203EB021200F019B80000AC66000814
:103B9000F0B50E460746002540F23F1407E02146E7
:103BA0003846FFF7E9FF103C6D1CA4B2761C327852
:103BB000002A01D0142DF2D3F0BD00002DE9F0470A
:103BC00091468A460026044600F086F8DFF84080D9
:103BD000012700BF00F0C0F85FF0000539F81600BB
:103BE00007FA05F10842404601D1408800E000880C
:103BF00000F086F86D1C102DF0D3641CE4B2514621
:103C0000204600F069F8761C182EE3D3BDE8F08753
:103C10000000002010B5FFF767FF002000F014F847
:103C2000084CA080A088A0F50241303906D000F0F1
:103C30005CFC002000F008F8A08010BD00F0CCFB78
:103C4000F7E700000000002070B51D490A6842F443
:103C500000720A600A6842F480720A60184C103CD4
:103C6000226842F020022260164A1060086840F084
:103C70002000086000BF00BF00BF206840F02000A7
:103C80002060206840F480702060FFF7EDFE4FF068
:103C90009041886A40F48070886200BF00BF00BF16
:103CA0000848001F006885B2886940F48070886108
:103CB000FFF7F0FE206840F400702060284670BDD9
:103CC000280400481408004801B5BDF80000014967
:103CD000488008BD0000002010B50C460146202099
:103CE00000F068F82146BDE81040212000F062B8DD
:103CF00001B5BDF800000149088008BD00000020A2
:103D0000134A116841F400711160114910390B68B0
:103D100043F480730B600B6843F020030B600D4B82
:103D20001860106840F02000106000BF00BF00BFA6
:103D3000086840F020000860086840F4807008605F
:103D400000BF00BF00BF086840F400700860704703
:103D500028040048140800481449086840F400701A
:103D60000860086840F480700860104810380268E5
:103D700042F0200202600E4B22221A600A6842F0D2
:103D800020020A6000BF00BF00BF016841F02001AF
:103D90000160016841F48071016000BF00BF00BF95
:103DA000016841F400710160704700002804004878
:103DB00014080048184B10B51A6842F400721A60D3
:103DC0001A6842F480721A60134A103A146844F078
:103DD00020041460114C2060186840F02000186026
:103DE00000BF00BF00BF106840F0200010601068E6
:103DF00040F4807010602160186840F02000186066
:103E000000BF00BF00BF106840F0200010601068C5
:103E100040F48070106010BD280400481408004869
:103E200010B501224FF47F410748FDF755FD074CBF
:103E3000012204212046FDF74FFD20460022BDE867
:103E400010400421FDF748BD00080048000C004860
:103E500000EB8100006E00F0F84070478068C0F30E
:103E6000C00070478068C0F3800070478068C0F36E
:103E700080007047C06810F4406F01D00020704788
:103E800001207047042303EAD15310B51844436955
:103E9000C1F3045107248C40A3438A401343436178
:103EA00010BD00EB8100016E21F00041114301665D
:103EB0007047000030B58BB000240894099420218D
:103EC00068460A94FCF7DCF91C484FF0A041042531
:103ED000C0E900148460C4600461C0E9054504774A
:103EE00044770121016280F82440C462046380F8B1
:103EF0003840C46380F84040FDF714F808B1FCF77F
:103F000091FD08A90D480894FCF78EFD08B1FCF757
:103F100089FD0B48009006200190072002907F2029
:103F20000594CDE9030569460448FCF7E7FD002840
:103F300001D0FCF777FD0BB030BD00006C00002015
:103F40000008302E30B589B020216846FCF798F97A
:103F5000194818490024C0E900148460C46004258D
:103F60000461C0E90545047744770121016280F8C6
:103F70002440C462046380F83840C46380F8404041
:103F8000FCF7D0FF08B1FCF74DFD0C48009006206F
:103F90000190072002907F200594CDE90305694632
:103FA0000548FCF7ABFD002801D0FCF73BFD09B04C
:103FB00030BD000000010050D80000200080F03E1D
:103FC000114808B5816C41F004018164816C01F0F5
:103FD00004010091816C41F001018164806C002238
:103FE00000F00100009011460B20FDF7EDFC0B20C6
:103FF000FDF7DCFC002211460C20FDF7E5FCBDE8D6
:1040000008400C20FDF7D2BC001002402DE9F04121
:1040100086B014216846FCF733F93948C16C41F089
:104020000401C164C16C01F004010591C16C41F04F
:104030002001C164C16C01F020010591C16C41F007
:104040000101C164C16C01F001010591C16C41F035
:104050000201C164C16C01F002010591C16C41F023
:104060000801C164C06C274E00F008004FF47F4483
:104070000590012221463046FDF72EFC224F0022FA
:1040800004213846FDF728FCDFF880800122082152
:104090004046FDF721FC0022C0214046FDF71CFCF4
:1040A0000125CDE900450024029469463046039479
:1040B000FDF722FBCDE9005469464FF09040029491
:1040C000FDF71AFB0720CDE900046946404602943B
:1040D000FDF712FB04200090CDE9015469463846F3
:1040E0000394FDF709FBC8200090CDE9015469460F
:1040F00040460394FDF700FB06B0BDE8F0810000E8
:104100000010024000080048000C0048000400486D
:1041100010B586B014216846FCF7B2F81E4800249A
:104120001C490594C0E900147F218160FF21C0E98A
:10413000031444610462FEF7BDF908B1FCF772FC98
:1041400023208DF8000059208DF8010030208DF8D3
:10415000020001940394012269460F480494FEF77B
:1041600057FA08B1FCF75EFC01208DF814008DF8B9
:1041700015008DF8160022208DF81700012205A9E0
:104180000548FEF7F1F9002801D0FCF74BFC06B01A
:1041900010BD0000002800404401002010B590B080
:1041A000002409940A940B94142104A80C94FCF79D
:1041B00067F82D4800940394019402940D940E9492
:1041C0004FF080410F9401604F21C0E901144FF678
:1041D000FF71C0E9031480218161FEF704FB08B17F
:1041E000FCF720FC4FF48050099009A91E48FEF707
:1041F000A5FB08B1FCF716FC1B48FEF7CEFC08B186
:10420000FCF710FC042004905020CDE9050407942D
:1042100004A915480894FFF70CF808B1FCF702FC54
:104220000120CDE900400294002269460E48039423
:10423000FEF72CFC08B1FCF7F5FB02200090019082
:10424000042269460848FEF721FC08B1FCF7EAFBA6
:104250000D940DA904480F94FEF776FA002801D0BA
:10426000FCF7E0FB10B010BD6C01002030B58FB042
:1042700000240794089409940A940B940C941C212C
:1042800068460D94FBF7FCFF2448234901604F2149
:10429000C0E9011440F2E731C0E9031480218161D3
:1042A000FEF7A1FA08B1FCF7BDFB4FF48050079070
:1042B00007A91A48FEF742FB08B1FCF7B3FB174801
:1042C000FEF7CCFE08B1FCF7ADFB0B940BA913482D
:1042D0000D94FEF739FA08B1FCF7A4FB60200090BA
:1042E0004FF4FA75CDE90154002269460B48049455
:1042F000FEF725FE08B1FCF795FB04226946074846
:104300000195FEF71CFE08B1FCF78CFB0348FEF795
:10431000EDFD0FB030BD000000040040B8010020EA
:104320003EB500240F48009401940D4902940160A9
:104330004F21C0E9011440F2CF71C1608021816139
:10434000FEF751FA08B1FCF76DFB00946946054889
:104350000294FEF7F9F9002801D0FCF763FB3EBD9B
:104360000010004004020020184810B516490160F2
:104370004FF4E1314160002181600C22C160C0E94D
:1043800004128161C161016241628162FFF718F923
:1043900008B1FCF747FB00210C48FEF7BCFF08B151
:1043A000FCF740FB00210948FEF78FFF08B1FCF73E
:1043B00039FB0648FEF769FF002803D0BDE810402E
:1043C000FCF730BB10BD0000003801405002002057
:1043D000FEE770477047704730B501210020FFF7B6
:1043E000E9FC4FF47A70FCF70FFB00210120FFF786
:1043F000E1FC41F290711020FFF7DCFC4FF41C51FE
:104400006020FFF7D7FC01216120FFF7D3FC0221D8
:104410004620FFF7CFFC48F210011320FFF7CAFC3B
:1044200048F2FE011220FFF7C5FC4FF4A061022004
:10443000FFF7C0FC41F230010320FFF7BBFC40F264
:10444000033421463020FFF7B5FC21463120FFF729
:10445000B1FC21463220FFF7ADFCE51E2946332092
:10446000FFF7A8FC03213420FFF7A4FC21463520E8
:10447000FFF7A0FC14213620FFF79CFC21463720D3
:10448000FFF798FC21463820FFF794FC214639209D
:10449000FFF790FC29463A20FFF78CFC03213B20D4
:1044A000FFF788FC21463C20FFF784FC4FF4A05125
:1044B0003D20FFF77FFC4FF400719220FFF77AFC5C
:1044C00021469320FFF776FC40F60D019020FFF780
:1044D00071FC41F218010320FFF76CFCBDE830408D
:1044E00040F273110720FFF765BC10B543F20801D5
:1044F000E320FFF75FFC1221E720FFF75BFC41F2AE
:104500003121EF20FFF756FC00210120FFF752FC7C
:104510004FF4E0610220FFF74DFC41F2300103202F
:10452000FFF748FC00210420FFF744FC40F207217C
:104530000820FFF73FFC00210920FFF73BFC00218A
:104540000A20FFF737FC00210C20FFF733FC002185
:104550000D20FFF72FFC00210F20FFF72BFC00217F
:104560001020FFF727FC07211120FFF723FC002173
:104570001220FFF71FFC00211320FFF71BFCC820AF
:10458000FDF7A8F841F290611020FFF713FC40F20C
:1045900027211120FFF70EFC3220FDF79BF81D218B
:1045A0001220FFF707FC3220FDF794F84FF400616A
:1045B0001320FFF7FFFB14212920FFF7FBFB0B2142
:1045C0002B20FFF7F7FB3220FDF784F80021202095
:1045D000FFF7F0FB00212120FFF7ECFB0721302043
:1045E000FFF7E8FB40F207713120FFF7E3FB0621FC
:1045F0003220FFF7DFFB40F204713520FFF7DAFBD2
:1046000041F604713620FFF7D5FB04213720FFF770
:10461000D1FB00213820FFF7CDFB40F20671392095
:10462000FFF7C8FB40F201713C20FFF7C3FB0F21ED
:104630003D20FFF7BFFB00215020FFF7BBFBEF2120
:104640005120FFF7B7FB00215220FFF7B3FB40F2E8
:104650003F115320FFF7AEFB4FF41C516020FFF7D2
:10466000A9FB01216120FFF7A5FB00216A20FFF7CC
:10467000A1FB00218020FFF79DFB00218120FFF797
:1046800099FB00218220FFF795FB00218320FFF793
:1046900091FB00218420FFF78DFB00218520FFF78F
:1046A00089FB10219020FFF785FB00219220FFF766
:1046B00081FB03219320FFF77DFB4FF48871952048
:1046C000FFF778FB00219720FFF774FB002198206B
:1046D000FFF770FB41F218010320FFF76BFBBDE809
:1046E000104040F273110720FFF764BB010901EB92
:1046F000810100F00F0000EB4100C0B270470022C2
:10470000014602E00A39C9B2521C0A29FAD210073E
:1047100041EA1060704700002DE9F047104C8146D7
:1047200000252068400618D4206840F080002060F2
:10473000FDF7D8F806464FF47A78032708E000BF63
:10474000FDF7D0F8801B404502D9032589F8257074
:104750002068400601D4032DF2D12846BDE8F08739
:104760000C2800402DE9F041064613480025016859
:1047700021F080010160104C0C3420684FF00307D9
:10478000800607D43046FDF7ABFF90B186F8257060
:1047900003250EE0206820F0200020603046FDF761
:1047A0009FFF10B186F825700325206840F0200097
:1047B00020602846BDE8F0810C28004008B50023A1
:1047C00000938DF803008DF801108DF802201A4631
:1047D00069460248FDF7C8FE08BD000044010020FC
:1047E00070B586B00D460646144614216846FBF7A0
:1047F00047FD8DF800608DF801508DF802400022D1
:1048000069460248FDF704FF06B070BD4401002070
:1048100030B587B00C460546002201A91448FDF7C3
:104820001BFE002206A91248FDF7F2FD9DF80600C6
:1048300000909DF805309DF804200EA1284601F057
:104840002BF929466020FFF7A3F99DF81A009DF87F
:104850001B2000909DF8193009A1204602F5FA624C
:1048600001F01AF921467820FFF792F907B030BD20
:10487000440100202532643A2532643A253264002E
:104880002532642D2532642D2532640008B1044898
:1048900001E003481030016841F0400101607047B9
:1048A0001804004810B580210348FDF709F80128D5
:1048B00000D0002010BD00000004004800B585B005
:1048C00014216846FBF7DCFC80200090002001905A
:1048D000012002900220039069460248FCF70CFF79
:1048E00005B000BD0004004808B1044801E00348D9
:1048F0001030016841F080010160704718040048E1
:1049000000B585B014216846FBF7BAFC8020009002
:104910001120019000200290022003906946024875
:10492000FCF7EAFE05B000BD000400487047000037
:1049300010B5FCF7DDFF06480168491C01600A2933
:1049400005D100210160BDE81040FFF729B810BD76
:104950003000002030B5A5B038216846FBF790FC48
:1049600014211FA8FBF78CFC44210EA8FBF788FC40
:104970004FF400752846FDF759F809200090E8012A
:1049800001900120059002210324CDE90714142091
:10499000CDE90A0109940C9168460D91FDF732FBAF
:1049A0000F20CDE91F0400242194229403211FA885
:1049B0002394FDF7DDF90548CDE90E044007CDE964
:1049C0001D050EA8FDF790F825B030BD0180080048
:1049D0000548016841F47001016003494FF000602F
:1049E000803908607047000088ED00E00148FEF75C
:1049F0007FB900006C0100200148FEF779B9000082
:104A0000040200202DE9F0430268234B234D244E7D
:104A1000244C4FF08049984207D0484505D0A84221
:104A200003D0B04201D0A04203D122F070074A68FF
:104A30003A431D4FDFF874C0DFF8748098420DD000
:104A400048450BD0A84209D0B04207D0A04205D0BB
:104A5000B84203D0604501D0404503D122F44075EF
:104A6000CA682A434D6922F080022A4302608A689C
:104A7000C2620A688262984207D0A04205D0B8425A
:104A800003D0604501D0404501D10969016301218E
:104A90004161BDE8F0830000002C014000040040AB
:104AA0000008004000340140004001400044014043
:104AB0000048014010B501F01F030121046A99402C
:104AC0008C430462016A9A401143016210BD10B523
:104AD000846842EA032224F47F440A43224382602A
:104AE00010BD00008268034B1A400A4342F00701E0
:104AF000816070478FFFCFFF2DE9F043026A22F0FB
:104B000001020262056A436882691C4C25F00205B5
:104B100022400C6822F0030214438A68194E2A438B
:104B2000174D194FDFF864C0DFF86490A84207D032
:104B3000B04205D0B84203D0604501D0484506D107
:104B400022F00808CA6842EA080222F00402A842D9
:104B500007D0B04205D0B84203D0604501D04845E7
:104B600005D14D6923F440731D438B692B4343608A
:104B70008461496841630262BDE8F0838FFFFEFFF4
:104B8000002C01400034014000400140004401403D
:104B900000480140F0B5026A22F010020262056A84
:104BA00042688369194C1B4E23400C6823F4407300
:104BB00043EA042425F020038D6843EA0513144DCD
:104BC000A84201D0B04206D1CF6823F0800343EA67
:104BD000071323F04003A8420AD0B04208D00E4D7C
:104BE000A84205D00D4DA84202D00D4DA84207D1D4
:104BF0004D6922F4406242EA85028D6942EA8502EB
:104C000042608461496881630362F0BDFF8FFFFEEB
:104C1000002C0140003401400040014000440140AC
:104C200000480140F0B5026A22F480720262056A0F
:104C30004368C269194C1B4E22400C6822F00302E3
:104C4000144325F400728D6842EA0522144DA842EF
:104C500001D0B04206D1CF6822F4006242EA0722B6
:104C600022F48062A8420AD0B04208D00E4DA84279
:104C700005D00E4DA84202D00D4DA84207D14D6976
:104C800023F4405343EA05138D6943EA0513436057
:104C9000C4614968C1630262F0BD00008FFFFEFF7E
:104CA000002C01400034014000400140004401401C
:104CB00000480140F0B5026A22F480520262056A9F
:104CC0004268C369194C1B4E23400C6823F440739F
:104CD00043EA042425F400538D6843EA0533144D58
:104CE000A84201D0B04206D1CF6823F4004343EA82
:104CF000073323F48043A8420AD0B04208D00E4DB7
:104D0000A84205D00D4DA84202D00D4DA84207D1B2
:104D10004D6922F4404242EA85128D6942EA8512C9
:104D20004260C461496801640362F0BDFF8FFFFE09
:104D3000002C01400034014000400140004401408B
:104D40000048014030B5026A22F480320262046AEF
:104D50004268036D114D2B400D681D4324F4003350
:104D60000C8943EA04430E4CA0420BD00D4CA042E8
:104D700008D00D4CA04205D00C4CA04202D00C4CE7
:104D8000A04204D14C6922F4803242EA04224260FB
:104D9000056549688164036230BD00008FFFFEFF36
:104DA000002C01400034014000400140004401401B
:104DB0000048014030B5026A22F480120262046A9F
:104DC0004268036D114D24F400142B400D6843EA32
:104DD00005230D8944EA05540D4DA8420BD00D4D15
:104DE000A84208D00C4DA84205D00C4DA84202D0D4
:104DF0000B4DA84204D14D6922F4802242EA85225B
:104E0000426003654968C164046230BDFF8FFFFEE4
:104E1000002C0140003401400040014000440140AA
:104E20000048014010B50468A268234B1A404B6843
:104E30001343224A13400A681A43A2604A68702A40
:104E40000DD037DC12F00F0F34D14FEA2212072AAF
:104E500030D2DFE802F02F2F2F2F0B242A000B690E
:104E6000D1E902210068FFF732FE23E00A68052A33
:104E700013D0B2F1011F10D00268136A146A24F033
:104E80000104146202689469096924F0F00444EA98
:104E900001119161006803620CE0012010BD0A69F4
:104EA0008968006800F00CF804E00A698968006805
:104EB00000F04EF8002010BD8FFFCFFFF8FFFEFF7F
:104EC00010B5036A046A24F001040462846924F0C2
:104ED000F00444EA021423F00A020A4384610262E5
:104EE00010BD000070B5046A24F0010404628469F6
:104EF000056A124EB0420ED0B0F1804F0BD0104E6A
:104F0000B04208D00F4EB04205D00F4EB04202D092
:104F10000E4EB04203D124F00304144301E044F0E8
:104F200001041A0724F0F00444EA126225F00A038F
:104F300001F00A0119438261016270BD002C014039
:104F400000040040000800400034014000400140DF
:104F500010B5036A23F0100303628369046A23F423
:104F6000704343EA023224F0A00343EA0111826154
:104F7000016210BD30B5046A24F010040462846933
:104F8000056A24F4407444EA022222F470444FF685
:104F9000FF7202EA03322243A02425F0A00304EAB0
:104FA000011119438261016230BD00003FB514A1B7
:104FB000D1E90021CDE9002113A2D2E90012CDE907
:104FC0000212416EB9B1026891689268C1F3426100
:104FD000520F1DF80240E50002ACA25CB5FBF2F2F4
:104FE000A0F86A201DF80120615CD200B2FBF1F14B
:104FF000A0F868103FBD0121A0F86A10F8E7000092
:105000000101010307010000080402040801010175
:1050100090F82810C90706D001684A68C36A22F4CC
:1050200000321A434A6090F82810890706D50168B3
:105030004A68036B22F480321A434A6090F82810C1
:10504000490706D501684A68436B22F480221A4357
:105050004A6090F82810090706D501684A68836BF2
:1050600022F400421A434A6090F82810C90606D577
:1050700001688A68C36B22F480521A438A6090F8F0
:105080002810890606D501688A68036C22F400524C
:105090001A438A6090F82810490611D501684A68B9
:1050A000436C22F480121A434A60416CB1F5801FB0
:1050B00006D101684A68836C22F4C0021A434A6030
:1050C00090F82810090606D501684A68C06C22F4D9
:1050D000002202434A607047F8B500260446C0F833
:1050E0008860FCF7FFFB0546206800686FF07E478C
:1050F000000708D52B4600224FF4001120460097E8
:1051000000F07FFC60B92068006840070AD52B4694
:1051100000224FF480012046009700F072FC08B195
:105120000320F8BD2020C4F88000C4F8840084F86F
:105130007C600020F8BD10B5806A0021A0F85E10E8
:10514000A0F85610FEF74BF910BD70B5846AD4F87C
:105150008000D4F88450216889684FF00006090661
:1051600006D5212804D1A4F85660204600F068F83E
:1051700020688068400606D5222D04D1A4F85E6020
:10518000204600F04BF8D4F8880040F01000C4F836
:1051900088002046FEF723F970BD10B50146806AED
:1051A00009680968890614D40021A0F85E10016816
:1051B0000A6822F480720A6001688A6822F001029B
:1051C0008A6001688A6822F040028A602021C0F863
:1051D0008410FEF7E7FA10BD10B5806AFEF7E3FA17
:1051E00010BD10B50146806A0968096889060DD4AA
:1051F0000021A0F8561001688A6822F080028A60B7
:105200000068016841F04001016010BDFEF718FB25
:1052100010BD10B5806AFEF714FB10BD01680A6866
:1052200022F490720A6001688A68044B1A408A600E
:105230002021C0F884100021C1667047FEFFFFEFF7
:1052400001680A6822F0C0020A6001688A6822F4D4
:1052500000028A602021C0F8801070472DE9F05FBD
:105260000446016880682369E5691843636900277B
:105270002B431843636EFA4A03430868F94D2840EC
:105280001843086020684168E36821F440511943DD
:1052900041602168A069914201D0236A18438B685C
:1052A000F14D2B4003438B602068C16A636A21F093
:1052B0000F011943C162ED4B2068ED4998420DD1B1
:1052C000D1F8881011F0030106D001295AD0022923
:1052D00056D003293FD157E001253DE0E54B9842E8
:1052E0000BD1D1F8881011F00C0147D0042949D016
:1052F000082945D00C292ED146E0DF4B98420BD12E
:10530000D1F8881011F0300138D010293AD0202976
:1053100036D030291FD137E0D84B98420BD1D1F885
:10532000881011F0C00129D040292BD0802927D026
:10533000C02910D128E090420DD1D1F8881011F485
:1053400040611BD0B1F5806F1CD0B1F5006F17D054
:10535000B1F5406F18D01025DFF824A34FF4807604
:105360004FF000094FF4004B90426ED175B1022D01
:1053700029D0042D59D0082D68D176E00025EBE71F
:105380000225E9E70425E7E70825E5E7FCF7DEFD68
:105390004DE0012851D0022851D0032851D00428D3
:1053A00051D0052853D0062853D0072853D00828B9
:1053B00053D0092853D00A2853D00B2853D03AE0B1
:1053C000B1FBF0F06CE0606AA8B1012817D00228A8
:1053D00017D0032817D0042817D0052817D006287F
:1053E00017D0072817D0082817D0092817D00A285F
:1053F00017D00B2817D00120BAFBF0F050E00220A4
:10540000FAE70420F8E70620F6E70820F4E70A2088
:10541000F2E70C20F0E71020EEE72020ECE7402038
:10542000EAE78020E8E73046E6E7FCF7B3FD01460F
:10543000606A0028ADD10120C2E70220C0E7042045
:10544000BEE70620BCE70820BAE761E14AE00A208F
:10545000B6E70C20B4E71020B2E72020B0E74020E8
:10546000AEE78020ACE73046AAE7606AA8B1012821
:1054700022D0022822D0032822D0042822D00528B6
:1054800022D0062822D0072822D0082822D0092896
:1054900022D00A2822D00B2822D00120BBFBF0F01A
:1054A000002820D06168884601EB4101814219D86B
:1054B000B0EB083F16D817E00220EFE70420EDE735
:1054C0000620EBE70820E9E70A20E7E70C20E5E7FC
:1054D0001020E3E72020E1E74020DFE78020DDE740
:1054E0003046DBE7012739E27DB3022D61D0042D80
:1054F0007DD0082DF6D1606AA8B1012878D00228A5
:1055000077D0032876D0042875D0052874D00628D3
:1055100073D0072872D0082871D0092870D00A28C3
:105520006FD00B2800D0012632464D460023584646
:105530000021FAF76DFE090241EA106102024FEA0A
:10554000580010186941424670E0FFE7FCF7FEFC86
:105550000146606AA8B1012817D0022817D0032895
:1055600017D0042817D0052817D0062817D00728E9
:1055700017D0082817D0092817D00A2817D00B28C9
:1055800000D0012632464D468CE00226FAE704267A
:10559000F8E70626F6E70826F4E70A26F2E70C26DF
:1055A000F0E71026EEE72026ECE74026EAE7802623
:1055B000E8E7606AA8B1012824D0022824D0032893
:1055C00024D0042824D0052824D0062824D0072855
:1055D00024D0082824D0092824D00A2824D00B2835
:1055E00000D0012632464D4600235046A0E726E073
:1055F0007AE07BE07CE07DE07EE07FE080E081E0BF
:1056000082E083E00226EDE70426EBE70626E9E7E1
:105610000826E7E70A26E5E70C26E3E71026E1E798
:105620002026DFE74026DDE78026DBE70023FAF7C8
:10563000EFFD144AA0F54071914271D952E7FCF791
:10564000A9FC0146606A50B3012839D0022839D03C
:10565000032839D0042839D0052839D0062813E08A
:1056600000800040F369FFCFFFF4FF1100380140D4
:10567000001002400044004000480040004C004040
:105680000024F400FFFC0F0024D0072824D00828B1
:1056900024D0092824D00A2824D00B2800D00126A1
:1056A0004D463246002308461946FAF7B1FD090275
:1056B000626841EA10610302500818186941B5E7B1
:1056C0000226EDE70426EBE70626E9E70826E7E7EA
:1056D0000A26E5E70C26E3E71026E1E72026DFE7C8
:1056E0004026DDE78026DBE702261DE704261BE7D0
:1056F000062619E7082617E70A2615E70C2613E7FA
:10570000102611E720260FE740260DE780260BE73D
:10571000E0694FF6EF78584570D1092D8ED200E040
:105720001AE1DFE805F006093C0580050505830060
:10573000D8E6FCF70BFC01E0FCF71AFC0146606AB6
:10574000A8B1012815D0022815D0032815D00428A7
:1057500015D0052815D0062815D0072815D00828FB
:1057600015D0092815D00A2815D00B2814D00126E9
:1057700012E0022610E004260EE006260CE00826C1
:105780000AE00A2608E00C2606E0102604E020269F
:1057900002E0402600E08026B1FBF6F01AE0606AE5
:1057A000A8B101282BD002282BD003282BD0042805
:1057B0002BD005282BD006282BD007282BD0082843
:1057C0002BD009282BD00A282BD00B2800D001265B
:1057D000BAFBF6F04100606801EB5001B1FBF0F05C
:1057E00080B2A0F110014145A2D84FF6F0710140FE
:1057F000C0F3420001432068C160AFE046E00226EA
:10580000E6E70426E4E70626E2E70826E0E70A26BC
:10581000DEE70C26DCE71026DAE72026D8E740266C
:10582000D6E78026D4E7FCF7B5FB87E7606AA8B126
:10583000012817D0022817D0032817D0042817D022
:10584000052817D0062817D0072817D0082817D002
:10585000092817D00A2817D00B2800D00126BBFB37
:10586000F6F0B7E70226FAE70426F8E70626F6E799
:105870000826F4E70A26F2E70C26F0E71026EEE702
:105880002026ECE74026EAE78026E8E7092DBFF46A
:10589000D5AEDFE805F006093C0583050505860061
:1058A00020E6FCF753FB01E0FCF762FB0146606A6F
:1058B000A8B1012815D0022815D0032815D0042836
:1058C00015D0052815D0062815D0072815D008288A
:1058D00015D0092815D00A2815D00B2814D0012678
:1058E00012E0022610E004260EE006260CE0082650
:1058F0000AE00A2608E00C2606E0102604E020262E
:1059000002E0402600E08026B1FBF6F11AE0606A72
:10591000A8B101282ED002282ED003282ED004288A
:105920002ED005282ED006282ED007282ED00828C5
:105930002ED009282ED00A282ED00B2800D00126E0
:10594000BAFBF6F1606801EB5001B1FBF0F080B2F8
:10595000A0F110014145A3D82168C8600120A4F836
:105960006A0024F8680F3846C4F80490C4F8089018
:10597000BDE8F09F0226E3E70426E1E70626DFE71D
:105980000826DDE70A26DBE70C26D9E71026D7E74D
:105990002026D5E74026D3E78026D1E7FCF7FAFAA0
:1059A00084E7606AA8B1012817D0022817D003281D
:1059B00017D0042817D0052817D0062817D0072895
:1059C00017D0082817D0092817D00A2817D00B2875
:1059D00000D00126BBFBF6F1B4E70226FAE7042665
:1059E000F8E70626F6E70826F4E70A26F2E70C268B
:1059F000F0E71026EEE72026ECE74026EAE78026CF
:105A0000E8E72DE9F041984617460E460446069D04
:105A100008E0681C06D0FBF765FFA0EB0800A84271
:105A20000BD855B12068C06936EA000019D00020B3
:105A3000B842EED00020BDE8F0812068016821F472
:105A4000D07101602068816821F00101816020200F
:105A5000C4F88000C4F88400002084F87C0003208F
:105A6000E9E70120E4E70000094810B50068C169D2
:105A7000C943C90607D4102101620548FDF773FC2C
:105A80000348FDF77BFDBDE810400148FDF7A8BCC9
:105A900050020020FEE700000FB4084B10B504A927
:105AA00002AA039800F0EEF8044602A9002000F0D4
:105AB00080FC204610BC5DF814FB0000B3630008B6
:105AC0000907090E002804DB00F1E02080F800142B
:105AD000704700F00F0000F1E02080F8141D7047BF
