:020000040800F2
:1000000080050020ED010008372400086B1B000864
:100010003524000885020008BD2E000800000000FD
:100020000000000000000000000000003D29000862
:10003000A50200080000000055240008412900081E
:10004000070200080702000807020008070200086C
:10005000070200080702000807020008070200085C
:10006000070200080702000807020008070200084C
:10007000070200080702000807020008070200083C
:10008000070200080000000007020008070200083D
:10009000070200080702000807020008070200081C
:1000A000070200080702000807020008070200080C
:1000B00007020008070200080702000807020008FC
:1000C00007020008070200080702000807020008EC
:1000D00007020008070200080702000807020008DC
:1000E00007020008070200080702000807020008CC
:1000F00007020008070200080702000800000000CD
:1001000000000000070200080000000007020008CD
:1001100007020008000000002D2A0008070200085E
:10012000070200080702000807020008070200088B
:10013000070200080000000000000000070200089D
:10014000070200080702000800000000000000008D
:10015000000000000000000000000000000000009F
:10016000000000000000000000000000070200087E
:10017000070200080000000000000000000000006E
:10018000000000000702000800000000000000005E
:10019000000000000000000000000000000000005F
:1001A000000000000000000007020008070200082D
:1001B000070200080702000807020008000000000C
:1001C000000000000702000800000000000000001E
:1001D0000702000807020008DFF80CD000F040F822
:1001E0000048004775320008800500200648804717
:1001F00006480047FEE7FEE7FEE7FEE7FEE7FEE70C
:10020000FEE7FEE7FEE7FEE7112A0008D901000835
:10021000D2B201E000F8012B491EFBD27047002248
:10022000F6E710B513460A4604461946FFF7F0FFF5
:10023000204610BD30B50B46014600202022012487
:1002400009E021FA02F59D4205D303FA02F5491BA4
:1002500004FA02F52844151EA2F10102F1DC30BDBA
:10026000064C074D06E0E06840F0010394E8070003
:1002700098471034AC42F6D3FFF7B2FF944500081C
:10028000B4450008FEE7000005494FF4FA7009681C
:100290004863002220214FF0904000F01EB900007A
:1002A000300100207047002240F6B83306E00021FC
:1002B000491C89B29942FBD3521C92B28242F6D3B6
:1002C0007047000005494FF41670096888630022E2
:1002D00010214FF0904000F000B90000980000207D
:1002E0007047000070B5044600F0FCF80546601C3D
:1002F00002D004484068044400F0F4F8401BA042D7
:10030000FAD370BD400000202DE9FC4FDFF8A0A11A
:10031000002301250AF1040B03244FF00F0C0BF10D
:10032000040EBDE005FA03F632406FD04F68012F8E
:1003300005D0022F03D0112F01D0122F17D1D0F8E2
:1003400008905F0004FA07F829EA08090097D1F835
:100350000C8008FA07F848EA0908C0F808804768DE
:10036000B7430E79C6F300169E403E434660C6680A
:100370004FEA430804FA08F7BE4301978F6807FA6B
:1003800008F73743C7604E68022E01D0122E13D1F2
:10039000DE0800EB86060096366A5F07FF0E0CFA51
:1003A00007F926EA0906D1F8109009FA07F949EA8F
:1003B0000609009EC6F820900668019FBE430F798B
:1003C00007F0030707FA08F7374307604E68F6009F
:1003D00065D5384E376E47F001073766366E23F025
:1003E000030706F001060096334E3E44B146B66858
:1003F0009F074FEA17780CFA08F7BE43B0F1904F09
:1004000005D02E4FB84204D1012717E047E000275E
:1004100014E02B4FB84201D102270FE0294FB84218
:1004200001D103270AE0284FB84201D1042705E093
:10043000264FB84201D1052700E0062707FA08F742
:100440003743C9F80870DAF800605746D1F80480DD
:1004500096435FEAC83800D516433E60DBF800607B
:100460005F46D1F8048096435FEA883800D516438A
:100470003E60DEF800607746D1F8048096435FEA7C
:10048000C82800D516433E60094F0C373E68D1F8A6
:10049000048096435FEA882800D516433E605B1CC3
:1004A0000A6832FA03F67FF43DAFBDE8FC8F000026
:1004B0000004014000100240000001400004004818
:1004C00000080048000C00480010004800140048D4
:1004D0000069084000D0012070470AB1816170476F
:1004E000816270470148806870470000400000202A
:1004F00002488168426811448160704740000020D2
:1005000010B50024032000F077F8002000F008F870
:1005100008B1012401E000F025F8204610BD0000DC
:1005200070B50E4E05460024706898B14FF47A718C
:10053000B1FBF0F00A490968B1FBF0F000F0BEFE33
:1005400040B9102D06D200222946501E00F034F882
:10055000356000E00124204670BD0000400000200E
:100560004C0000200B4808B5016E41F00101016606
:10057000016E01F001010091816D41F080518165B2
:10058000806D00F0805000900348816841F4804104
:10059000816008BD0010024000700040002809DBA7
:1005A00000F01F02012191404009800000F1E0208D
:1005B000C0F8001170470000F0B40E4B1B680C46E9
:1005C000C3F30223C3F10705042D00D90425191D27
:1005D000072901D2002300E0DB1E012606FA05F1FF
:1005E000491E214099409E40761E16403143F0BC82
:1005F00002F07ABC0CED00E0064900F00702086842
:100600004FF6FF03184040EA0220034A10430860F7
:10061000704700000CED00E00000FA052B492C4B60
:100620000A6832214A432B4940B1B0F5007F08687F
:1006300029D020F4C06040F480602CE00868C0F34A
:100640004120022804D051F8800F20F4807022E06D
:10065000D1F8800020F48070C1F88000086820F490
:10066000C06040F400700860B2FBF3F0401C00E092
:10067000401E4A69520501D50028F9D14869400554
:100680000AD503207047C0F34120022806D051F854
:10069000800F40F48070086000207047D1F880001F
:1006A00040F48070C1F88000086820F4C06040F415
:1006B00000700860B2FBF3F0401C00E0401E4A6985
:1006C0005205DBD50028F9D1D8E700004C00002006
:1006D00040420F00007000402DE9F84304460068D6
:1006E00000269D4D00035ED5A86D0027C00008D4EC
:1006F000A86D40F08050A865A86D012700F08050DB
:100700000090DFF85892D9F8001041F48071C9F8D0
:100710000010FFF7E7FE804606E000BFFFF7E2FEAD
:10072000A0EB080002282BD8D9F80000C005F5D5A9
:10073000D5F8900010F4407014D0216C814211D093
:10074000D5F89000D5F8901020F4407041F4803135
:10075000C5F89010D5F8901021F48031C5F89010AC
:10076000C5F89000C00711D0FFF7BCFE804641F2EB
:10077000883907E0FFF7B6FEA0EB0801494501D92B
:1007800003260BE0D5F890008007F3D5D5F890004C
:10079000216C20F440700843C5F890001FB1A86D8B
:1007A00020F08050A8652078C00707D0D5F88800D1
:1007B000616820F003000843C5F8880020788007AE
:1007C00007D5D5F88800A16820F00C000843C5F8CB
:1007D00088002078400707D5D5F88800E16820F028
:1007E00030000843C5F888002078000707D5D5F801
:1007F0008800216920F0C0000843C5F888002078EF
:10080000800607D5D5F88800616920F44060084368
:10081000C5F888002078400607D5D5F88800A1697A
:1008200020F440500843C5F888002078000607D51A
:10083000D5F88800E16920F440400843C5F88800F5
:100840002088C00507D5D5F88800216A20F44030FB
:100850000843C5F888002088800507D5D5F88800AA
:10086000616A20F440200843C5F8880020884005CC
:100870000FD5D5F88800A16A20F440100843C5F8C8
:100880008800A06AB0F5801F03D1E86840F48010AA
:10089000E860208800050FD5D5F88800E16A20F4CB
:1008A00040000843C5F88800E06AB0F5800F03D126
:1008B000E86840F48010E8602088C0040FD5D5F8BF
:1008C0008800216B20F040700843C5F88800206B39
:1008D000B0F1807F03D1E86840F48010E8602088A0
:1008E0004FF0006180040ED5D5F88800626B20F0CF
:1008F00040601043C5F88800606B884203D1E86807
:1009000040F48010E860208840040ED5D5F88800B7
:10091000A26B20F040601043C5F88800A06B8842AD
:1009200003D1E86840F48010E860208800040FD507
:10093000D5F88800E16B20F040500843C5F88800E6
:10094000E06BB0F1805F03D1E86840F48030E8608C
:100950003046BDE8F88300000010024000700040FF
:100960002DE9F0470E4605004FF0000725D0DFF8CF
:10097000AC81D8F8000000F00F00B0420CD2D8F8DB
:10098000001021F00F013143C8F80010D8F8000022
:1009900000F00F00B04210D12968614CC80741F245
:1009A000883A5AD06868DFF87C91032808D002287A
:1009B00020682DD0400500282CDB0120BDE8F08701
:1009C00020688001F9D5E06800F00302E068C0F318
:1009D0000310401C032A19D0534A00BFB2FBF0F0A9
:1009E000E268C2F306225043E268C2F34162521C3D
:1009F0005200B0FBF2F0484517D9A06810F0F00F94
:100A00000CD0880711D5A86840B10EE0474AE5E749
:100A10008003D0E700F092F8484506D9A06820F09E
:100A2000F00040F08000A0608027A068696820F096
:100A300003000843A060FFF755FD814606E000BFB4
:100A4000FFF750FDA0EB090151453AD8A06869684D
:100A500000F00C00B0EB810FF2D12868810714D5AB
:100A6000400703D5A06840F4E060A0602878000744
:100A700005D5A06820F4605040F4E060A060A06854
:100A8000A96820F0F000084304E0802F03D1A0689B
:100A900020F0F000A060D8F80010404601F00F01EF
:100AA000B14216D9016821F00F0131430160FFF70F
:100AB00019FD074607E000BFFFF714FDC11B5145B4
:100AC00001D903207AE7D8F8000000F00F00B04207
:100AD000F2D12878400705D5A068E96820F4E060E5
:100AE0000843A0602878000706D5A068296920F48B
:100AF000605040EAC100A06000F020F8A1680C4AF4
:100B0000C1F30311515C01F01F01C840094908609D
:100B100009480068BDE8F047FFF702BD0020024029
:100B20000010024000B4C4040024F40000366E013A
:100B3000844500084C00002040000020184910B5F2
:100B40008868C0F381021748012A0BD08A68164BC7
:100B5000C2F38102022A06D08A68C2F38102032A04
:100B600003D0002010BD184610BDCA6802F003046F
:100B7000CA68C2F30312521C032C02D0B0FBF2F07D
:100B800001E0B3FBF2F0CA68C968C2F30622504321
:100B9000C1F34161491C4900B0FBF1F010BD0000F8
:100BA000001002400024F40000366E012DE9F843E5
:100BB00004007AD02078FA4DC00747D0A868E968C9
:100BC00000F00C0001F003010C2802D0082817D017
:100BD00001E0032914D06068B0F5803F17D0B0F56C
:100BE000A02F286817D020F480302860286820F4CF
:100BF000802028606068E0B1FFF774FC064614E0CE
:100C00002868800322D560680028D2D01EE02868BA
:100C100040F48030EDE740F480202860F7E700BF23
:100C2000FFF760FC801B642870D828688003F7D524
:100C30000CE0FFF757FC064605E000BFFFF752FC4B
:100C4000801B6428F0D828688003F7D420788007B8
:100C50004CD5A868E96800F00C0001F003010C28ED
:100C600002D004280DD001E002290AD0E068002853
:100C700028682BD040F480702860FFF733FC0646CC
:100C800019E02868400502D5E068002891D068681E
:100C9000217C20F0FE4040EA01606860C1480068A5
:100CA000FFF73EFC002800D120E076E1FFF71AFCB8
:100CB000801B0228B8D828684005F7D56868217CD1
:100CC00020F0FE4040EA016068600FE020F4807090
:100CD0002860FFF707FC064605E000BFFFF702FCAF
:100CE000801B0228A0D828684005F7D42078000788
:100CF00029D560690028D5F8940013D040F0010090
:100D0000C5F89400FFF7EEFB064606E090E000BF52
:100D1000FFF7E8FB801B022886D8D5F894008007EF
:100D2000F6D510E020F00100C5F89400FFF7DAFBDB
:100D3000064604E0FFF7D6FB801B022878D8D5F8DA
:100D400094008007F6D42078400761D5A86D00266E
:100D5000C00008D4A86D40F08050A865A86D012699
:100D600000F08050009090480168C90511D40168D6
:100D7000804641F480710160FFF7B4FB074604E050
:100D8000FFF7B0FBC01B022852D8D8F80000C005FE
:100D9000F6D5A068012815D00528D5F8900016D002
:100DA00020F00100C5F89000D5F8900020F0040074
:100DB000C5F89000A06841F28838B8B1FFF792FBFF
:100DC00007460EE0D5F8900040F00100F0E740F053
:100DD0000400C5F89000F5E7FFF784FBC11B41450F
:100DE00026D8D5F890008007F6D50CE0FFF77AFBFF
:100DF000074604E0FFF776FBC11B414518D8D5F83C
:100E000090008007F6D41EB1A86D20F08050A86530
:100E10002078800629D5A0690028D5F8980013D03D
:100E200040F00100C5F89800FFF75CFB064606E0BD
:100E300077E000BFFFF756FB801B022877D8D5F874
:100E400098008007F6D510E020F00100C5F8980062
:100E5000FFF748FB064604E0FFF744FB801B02282F
:100E600065D8D5F898008007F6D4E069F0B3A96892
:100E7000C1F38101032961D00228286820F0807025
:100E800028600BD0E86820F00300E860E868474974
:100E90000840E860FFF726FB04464BE0FFF722FB23
:100EA000064604E0FFF71EFB801B02283FD8286897
:100EB0008001F7D4F4E908016FF00F0202EB011191
:100EC0000843218A5204490802EB4151A26841EAD1
:100ED00002210843217D4FF07E42490802EB416127
:100EE0000843217B40EAC160E96800E062E0304AE3
:100EF00011400843E860286840F080702860E86886
:100F000040F08070E860FFF7EDFA044605E000BFAE
:100F1000FFF7E8FA001B022809D828688001F7D5F6
:100F200048E004E0FFF7DEFA001B022802D90320A4
:100F3000BDE8F88328688001F4D43BE00128F7D0AD
:100F4000E868226A00F00301914226D1616A00F04C
:100F5000F0020901103991421FD1A26A00F4FE414A
:100F6000B1EB022F19D194F82C2000F07841B1EBAD
:100F7000C26F12D1218E00F4C00249084905A1F5C3
:100F80000011914209D194F8341000F0C060490872
:100F90004906A1F1007181420CD00120C8E7000090
:100FA000001002404000002000700040FFFFEEFEF5
:100FB0000C809F010020BBE70F4810B50B4601686D
:100FC0000E480140080CD870C1F304245C7001F095
:100FD0003F049C70C1F34231197052B901F004FC16
:100FE000D870587801F000FC5870987801F0FCFB3C
:100FF0009870002010BD0000042800403FFFFF0053
:10100000144810B500680B46486012480830006864
:10101000C0F30E0088600F48083801680E48014090
:10102000C1F305401870C1F306245C7001F07F0421
:101030009C70890DD97052B901F0D6FB18705878A0
:1010400001F0D2FB5870987801F0CEFB9870002028
:1010500010BD0000082800407F7F7F0070B50400AD
:101060004FF001003ED094F8250028B9002084F804
:101070002400204600F03CF8022084F825001A4E97
:10108000CA20306053203060204601F0C3FB10BB03
:10109000154D0C3D2868154908402860286861688E
:1010A000A269084321691143084328602189E06847
:1010B00040EA01400C4914390860204601F0D0FB99
:1010C00048B9D4E90721114362692B6823F06043D2
:1010D0001A4311432960FF213160002802D1012108
:1010E00084F8251070BD000024280040BFFF8FFB4E
:1010F00000680549884205D1044850F8901F41F422
:1011000000410160704700000028004000100240CC
:101110002DE9F041044690F824000B4601281AD02E
:10112000012684F82460022084F82500B2B1987862
:10113000D97840EA014558781978000240EA4130F0
:1011400005431B4FCA20386053203860204601F009
:1011500061FBD8B122E00220BDE8F0815878C106D9
:1011600003D500F0EF000A305870D87801F045FB45
:101170000504587801F041FB45EA0025987801F014
:101180003CFB0543187845EA4035DAE70948054055
:10119000074820380560204601F062FBFF213960D6
:1011A00008B984F82560002184F82410D4E70000F1
:1011B000242800403FFFFF002DE9F047054690F846
:1011C000240017460C46012814D04FF0010985F879
:1011D0002490022085F82500DFF8A480CA21C8F8F1
:1011E00000105321C8F80010284601F013FB002618
:1011F00018B127E00220BDE8F087214B0C3B1868AE
:101200004FEA40601FB3002800DBE670A078217829
:10121000E27840EA01406178090241EA82510843DC
:1012200018490840164924390860186820F48020BD
:101230001860D4E903010843196808431860284678
:1012400001F00EFBFF22C8F80020A0B115E0002835
:1012500000DBE670207801F0D0FA0704607801F036
:10126000CCFA47EA0027A07801F0C7FA0743E078F4
:1012700047EA8050D4E785F8259085F82460BAE7DE
:10128000242800407F7F7F0070B50B4D286860F0F8
:10129000A0002860FFF726F904464FF47A7606E0AE
:1012A000FFF720F9001BB04201D9032070BD286868
:1012B0008006F5D5002070BD0C28004010B5401EFA
:1012C000B0F1807F01D3012010BD4FF0E0246061B8
:1012D0000F21601701F008FE0020A06107202061A7
:1012E000002010BD7047704770470000F0B590F8BF
:1012F0003C20012A4AD0012280F83C20CA688B6831
:1013000022F440721A434B6822F480621A430B683D
:1013100022F400621A430B6922F480521A434B698B
:1013200022F400521A430B6B22F480421A430B8BB7
:1013300022F4702242EA0342154C03680026154D40
:10134000A34201D0AB4203D1CF6922F080523A438D
:10135000A34201D0AB4214D10F8D22F4700242EAB5
:1013600007520F6A22F080723A434F6A22F00072ED
:101370003A43A34201D0AB4203D1C96A22F00052E2
:101380000A435A6480F83C600020F0BD0220F0BDA2
:10139000002C014000340140704770477047000046
:1013A000F0B590F83C20012A3AD0012580F83C5055
:1013B000022280F83D2003685A689C68194E1A4F33
:1013C000B34201D0BB4204D122F4700C4A6842EA15
:1013D0000C02DFF858C002EA0C02D1F800C04CEA57
:1013E000020CC3F804C00268B2420DD0B2F1804FC3
:1013F0000AD00F4B9A4207D00E4B9A4204D0BA4201
:1014000002D00D4B9A4204D1896824F0800319431D
:10141000916080F83D50002180F83C100846F0BDF6
:101420000220F0BD002C0140003401408FFFFFFD81
:10143000000400400008004000400140704710B523
:10144000040003D094F83D0010B107E0012010BD66
:10145000002084F83C00204600F022F8022084F8A6
:101460003D00211D206801F0E7FA012084F84800C2
:1014700084F83E0084F83F0084F8400084F841007E
:1014800084F8420084F8430084F8440084F845005E
:1014900084F8460084F8470084F83D00002010BD21
:1014A00008B5174A01681748914207D1816D41F08C
:1014B00002018165806D00F002001EE0124A914237
:1014C00011D1816D41F010018165806D002200F025
:1014D0001000009011463620FFF76EF8BDE8084076
:1014E0003620FFF75BB8094A914207D1016E41F4FB
:1014F00000310166006E00F40030009008BD00006D
:101500000004004000100240001000400044014070
:1015100090F83D10012901D001207047022180F888
:101520003D100168CA6842F00102CA600068816823
:10153000064A1140062906D0B1F5803F03D0016864
:1015400041F0010101600020704700000700010028
:1015500070B5044690F83C00012815D0012584F8A8
:101560003C50022084F83D0022689068354B1840BA
:1015700020F47F4090600868B0F5805F50D010DCA8
:1015800010F00F0F03D04BE04FF0020070BD4FEA98
:101590002012082A44D2DFE802F051515151493259
:1015A0003A1B294BC21A984248D00ADCB0F5005FBA
:1015B00019D0B0F1101F41D0A0F5801120392FD1E2
:1015C0003CE0102A3AD0302A38D0402A28D135E0E1
:1015D000CB68D1E90121206801F093FA2068816885
:1015E00041F0770109E0CB68D1E90121206801F0E1
:1015F00088FA2068816841F48041816010E0CA68FF
:101600004968206801F028FC5021206806E0CA687B
:101610004968206801F031FC6021206801F07CFA03
:1016200084F83D50002084F83C0070BDCA684968C9
:10163000206801F011FC40212068EFE72268014694
:101640001046EBE788FFCEFF30001000704770B502
:101650000446006801694FF00005C943890715D4A5
:10166000C168C943890711D4E91E016101202077AF
:10167000206880698007204602D0FFF7E7FF04E07A
:1016800000F054F9204600F084F9257720680169BC
:10169000C943490717D4C168C943490713D46FF038
:1016A00004010161022020772068806910F4407FE6
:1016B000204602D0FFF7CAFF04E000F037F92046C9
:1016C00000F067F9257720680169C943090716D436
:1016D000C168C943090712D46FF0080101610420F1
:1016E00020772068C0698007204602D0FFF7AEFF50
:1016F00004E000F01BF9204600F04BF92577206844
:101700000169C943C90617D4C168C943C90613D4BE
:101710006FF010010161082020772068C06910F483
:10172000407F204602D0FFF791FF04E000F0FEF872
:10173000204600F02EF9257720680169C943C907C2
:1017400008D1C168C943C90704D1891E0161204677
:1017500000F09EF920680169C943090609D4C168EF
:10176000C943090605D46FF0800101612046FFF7E7
:10177000BAFD20680169C943C90509D4C168C943D4
:10178000090605D46FF4807101612046FFF7AAFDB8
:1017900020680169C943490609D4C168C94349069B
:1017A00005D46FF040010161204600F0DDF92068AA
:1017B0000169C943890609D4C168C943890605D4AA
:1017C0006FF0200101612046FFF78EFD206801695E
:1017D000C943C90209D4C168C943C90205D46FF419
:1017E000801101612046FFF7D8FD20680169C943D7
:1017F000890209D4C168C943890205D46FF4001174
:1018000001612046FFF7C8FD20680169C94349020C
:1018100009D4C168C943490205D46FF4800101614C
:101820002046FFF7BBFD20680169C94309020BD4BC
:10183000C168C943090207D46FF400010161204661
:10184000BDE87040FFF7FABD70BD000030B587B04D
:10185000044614216846FEF7E2FC2468164D002376
:10186000164902224FF09040AC420ED1CC6C44F0AD
:101870000104CC64C96C01F00101059180218DE85F
:101880000E00CDE90332694611E00D4DAC4210D196
:10189000CC6C44F00104CC64C96C01F001010591E9
:1018A00040218DE80E000121CDE903316946FEF7A4
:1018B0002BFD07B030BD00000004004000100240C6
:1018C0000044014010B5044690F83C0001280BD0BC
:1018D000012084F83C000C2A19D007DC5AB1042AF4
:1018E0000DD0082A1ED10EE0022010BD102A12D001
:1018F000142A17D113E0206801F018F912E02068CB
:1019000001F062F90EE0206801F0A6F90AE0206813
:1019100001F0EAF906E0206801F02EFA02E0206802
:1019200001F062FA002084F83C0010BD704710B549
:10193000040003D094F83D0010B107E0012010BD71
:10194000002084F83C00204600F022F8022084F8B1
:101950003D00211D206801F06FF8012084F8480047
:1019600084F83E0084F83F0084F8400084F8410089
:1019700084F8420084F8430084F8440084F8450069
:1019800084F8460084F8470084F83D00002010BD2C
:101990007047704710B50446022269B1042916D079
:1019A000082920D00C2929D010292ED094F84300E2
:1019B000012831D0012010BD94F83E000128F9D152
:1019C00084F83E202068C26842F0020209E094F8E0
:1019D0003F000128EED184F83F202068C26842F021
:1019E0000402C2601CE094F840000128E2D184F8AF
:1019F00040202068C26842F00802F2E794F84100F3
:101A00000128D7D184F8412008E094F84200012849
:101A1000D0D184F8422003E084F843200C2926D05A
:101A20000122206801F060F81349206888420BD039
:101A30001249884208D01249884205D0114988428B
:101A400002D01149884203D1416C41F40041416404
:101A5000206881680D4A1140062906D0B1F5803F03
:101A600003D0016841F001010160002010BD206831
:101A7000C26842F01002B4E7002C0140003401407B
:101A800000400140004401400048014007000100BF
:101A9000F0B4344841790129016901D1491C01613F
:101AA0000125B1F57A7F01D3857102E081790129A1
:101AB0001ED12C4A8778002112894FF47A66521C75
:101AC00093B2012F0CD0274A264C527814348FB190
:101AD000022F0DD10381B34237D8F0BC00F0ACBC6B
:101AE0000381B34202D8F0BCFEF7CEBB0181817006
:101AF000F0BC704790F803C0022741F27076BCF149
:101B0000000F0AD0BCF1010FF2D1012A1BD90381C9
:101B1000B3420FD8F0BCFEF7D5BB042A08D203812C
:101B2000B34202D8F0BC01F0BBB90181521C03E002
:101B3000C570DDE70181521ED1B24170615C01299F
:101B4000D6D18770D4E7C170D2E743895B1C9BB2C2
:101B50004381B3F5FA6FCBD141810181A1548570E6
:101B6000C6E70000080000207047FEE72DE9F047B7
:101B7000344C0027344D207801264FF0904900B3B3
:101B80004FF00308012834D0022818D1012128463B
:101B9000FEF79EFC002851D002212846FEF798FC53
:101BA000F0B304212846FEF793FCC8B30121484650
:101BB000FEF78EFCA0B384F8008066712761BDE853
:101BC000F08701212846FEF783FC78B102212846E0
:101BD000FEF77EFC50B104212846FEF779FC28B1BF
:101BE00001214846FEF774FC0028E8D12670677191
:101BF000E5E701212F462846FEF76AFC022590B151
:101C000002213E463846FEF763FC70B1042130469F
:101C1000FEF75EFC58B101214846FEF759FC00E092
:101C20000CE038B108E0267106E0257104E084F884
:101C3000048001E0042020712570C0E7A0890A30EB
:101C4000A081BCE7080000200004004800B585B072
:101C500014216846FEF7E3FA4FF6FF70009000206B
:101C60000321CDE90201019069460248FEF74CFBD1
:101C700005B000BD0008004800B585B014216846D5
:101C8000FEF7CDFA4FF6FF7000900120019003207F
:101C900003900020029069460248FEF735FB05B02C
:101CA00000BD00000008004870B50024064621462B
:101CB000204600F003F900F041F94FF49635304624
:101CC00000F010F9641CAC42F9D370BD30B587B098
:101CD00014216846FEF7A3FA1E48C16C41F00401C6
:101CE000C164C16C01F004010591C16C41F00101B6
:101CF000C164C16C01F001010591C16C41F00201A8
:101D0000C164C06C012500F0020005904FF44870DA
:101D1000CDE9000500240394694602940E48FEF7BD
:101D2000F3FA280203940090CDE901544FF0904457
:101D300069462046FEF7E8FAFFF79EFFA06940F4E7
:101D40008070A06104481830016841F40871016096
:101D500007B030BD0010024000040048203AD2B263
:101D6000034B02EB420203EB021200F019B8000031
:101D7000B4330008F0B50E460746002540F23F1484
:101D800007E021463846FFF7E9FF103C6D1CA4B27E
:101D9000761C3278002A01D0142DF2D3F0BD000059
:101DA0002DE9F04791468A460026044600F086F861
:101DB000DFF84080012700BF00F0C0F85FF00005A9
:101DC00039F8160007FA05F10842404601D140886B
:101DD00000E0008800F086F86D1C102DF0D3641C24
:101DE000E4B25146204600F069F8761C182EE3D381
:101DF000BDE8F0870000002010B5FFF767FF002066
:101E000000F014F8084CA080A088A0F502413039F9
:101E100006D000F0E8FB002000F008F8A08010BD1C
:101E200000F058FBF7E700000000002070B51D49E6
:101E30000A6842F400720A600A6842F480720A601A
:101E4000184C103C226842F020022260164A1060B2
:101E5000086840F02000086000BF00BF00BF206895
:101E600040F020002060206840F480702060FFF780
:101E7000EDFE4FF09041886A40F48070886200BFA8
:101E800000BF00BF0848001F006885B2886940F4A1
:101E900080708861FFF7F0FE206840F400702060D9
:101EA000284670BD280400481408004801B5BDF854
:101EB00000000149488008BD0000002010B50C4614
:101EC0000146202000F068F82146BDE8104021209E
:101ED00000F062B801B5BDF800000149088008BDF6
:101EE00000000020134A116841F40071116011498B
:101EF00010390B6843F480730B600B6843F02003C8
:101F00000B600D4B1860106840F02000106000BF9F
:101F100000BF00BF086840F020000860086840F477
:101F20008070086000BF00BF00BF086840F4007008
:101F300008607047280400481408004814490868DD
:101F400040F400700860086840F480700860104831
:101F50001038026842F0200202600E4B22221A6002
:101F60000A6842F020020A6000BF00BF00BF01689B
:101F700041F020010160016841F48071016000BFFF
:101F800000BF00BF016841F40071016070470000AC
:101F90002804004814080048184B10B51A6842F489
:101FA00000721A601A6842F480721A60134A103A7A
:101FB000146844F020041460114C2060186840F04C
:101FC0002000186000BF00BF00BF106840F0200074
:101FD0001060106840F4807010602160186840F054
:101FE0002000186000BF00BF00BF106840F0200054
:101FF0001060106840F48070106010BD2804004824
:102000001408004803480168034A1288114301601C
:1020100000F07CB814080048060000204FF48071DE
:10202000401E814006480288114389B2018005485C
:102030000268D2B2026002680A43026000F066B829
:1020400006000020140800484FF48072401E8240B1
:10205000064801889143018005480268D2B20260B7
:1020600002680A43026000F051B800000600002038
:10207000140800482DE9F041214D224F224CE87808
:102080000526B8B9E87910B926700120E8712078E2
:10209000FFF7DAFF2078052803D9401EC0B2FFF70A
:1020A000BDFF4FF480513846FEF712FA10B90820F0
:1020B000FFF7B4FFE87801281FD1E879012802D1A1
:1020C00026700020E8712078C0F10D00C0B2FFF743
:1020D000BBFF2078052804D9C0F10E00C0B2FFF77D
:1020E0009DFF4FF400413846FEF7F2F9002804D175
:1020F000BDE8F0410520FFF791BFBDE8F081000089
:1021000008000020000800483600002010B5064CEA
:10211000012204212046FEF7E0F920460022BDE816
:1021200010400421FEF7D9B9000C00482DE9F04118
:1021300086B014216846FEF772F83648C16C41F04B
:102140000401C164C16C01F004010591C16C41F04E
:102150002001C164C16C01F020010591C16C41F006
:102160000101C164C16C01F001010591C16C41F034
:102170000201C164C16C01F002010591C16C41F022
:102180000801C164C06C244E00F008004FF47F4485
:102190000590012221463046FEF79FF94FF0904707
:1021A000002230213846FEF798F9DFF870800022CF
:1021B00004214046FEF791F90125CDE900450024B0
:1021C0000294694630460394FEF79EF8CDE9005428
:1021D000694638460294FEF797F830200090CDE922
:1021E0000154694638460394FEF78EF80720CDE97E
:1021F000000469460A480294FEF786F8042000901D
:10220000CDE90154694640460394FEF77DF806B0D7
:10221000BDE8F0810010024000080048000C0048B2
:102220000004004810B586B014216846FDF7F7FF9A
:102230001E4800241C490594C0E900147F218160D8
:10224000FF21C0E9031444610462FEF707FF08B1EF
:10225000FEF746F823208DF8000059208DF8010084
:1022600030208DF8020001940394012269460F4842
:102270000494FEF7A1FF08B1FEF732F801208DF8B3
:1022800014008DF815008DF8160022208DF8170027
:10229000012205A90548FEF73BFF002801D0FEF703
:1022A0001FF806B010BD000000280040700000209C
:1022B00010B594B01C210DA8FDF7B1FF342168467C
:1022C000FDF7ADFF20481F49002401602721C0E928
:1022D000011440F2E731C0E903148021C0E905414F
:1022E000FFF7ADF808B1FDF7FBFF1748FFF71FFB3D
:1022F00008B1FDF7F5FF4FF4FA70CDE90D400F94EA
:1023000010941194129400220DA90F481394FFF712
:10231000D9FA08B1FDF7E4FF00944FF40050CDE97D
:1023200004400194029403940694694606480C9470
:10233000FEF7DCFF08B1FDF7D3FF0348FFF786FA8D
:1023400014B010BD004401403001002010B58EB023
:1023500000240794089409940A940B940C941C216B
:1023600068460D94FDF75BFF1F481E4901604F2131
:10237000C0E9011440F2E731C0E903148021816112
:10238000FFF75DF808B1FDF7ABFF4FF48050079001
:1023900007A91548FFF7DCF808B1FDF7A1FF1248BF
:1023A000FFF7C5FA08B1FDF79BFF0B940BA90E4888
:1023B0000D94FEF7F5FF08B1FDF792FF4FF4FA70A8
:1023C000CDE9004002940422694607480494FFF7CF
:1023D00079FA08B1FDF784FF0348FFF737FA0EB02A
:1023E00010BD000000040040980000203EB500240D
:1023F0000F48009401940D49029401604F21C0E9F7
:10240000011440F2CF71C16080218161FFF717F89C
:1024100008B1FDF765FF0094694605480294FEF790
:10242000BFFF002801D0FDF75BFF3EBD001000405C
:10243000E4000020FEE7704705494FF41670096874
:102440004863012220214FF09040FEF746B800007B
:10245000300100207047000070B51D4DA5F1140437
:102460006878012809D1607801284FF0010002D076
:10247000FFF7EAFD01E0FFF7D1FDA878012809D1B7
:10248000607802284FF0020002D0FFF7DDFD01E086
:10249000FFF7C4FDE878012809D1607803284FF0E0
:1024A000030002D0FFF7D0FD01E0FFF7B7FD287968
:1024B00001280CD1607804284FF0040003D0BDE857
:1024C0007040FFF7C1BDBDE87040FFF7A7BD70BD0C
:1024D0001C00002030B501210020FFF75DFD4FF406
:1024E0007A70FDF7E0FE00210120FFF755FD41F273
:1024F00090711020FFF750FD4FF41C516020FFF742
:102500004BFD01216120FFF747FD02214620FFF727
:1025100043FD48F210011320FFF73EFD48F2FE0193
:102520001220FFF739FD4FF4A0610220FFF734FDC0
:1025300041F230010320FFF72FFD40F20334214622
:102540003020FFF729FD21463120FFF725FD2146E8
:102550003220FFF721FDE51E29463320FFF71CFD41
:1025600003213420FFF718FD21463520FFF714FD25
:1025700014213620FFF710FD21463720FFF70CFD10
:1025800021463820FFF708FD21463920FFF704FDDA
:1025900029463A20FFF700FD03213B20FFF7FCFC12
:1025A00021463C20FFF7F8FC4FF4A0513D20FFF7F7
:1025B000F3FC4FF400719220FFF7EEFC21469320CC
:1025C000FFF7EAFC40F60D019020FFF7E5FC41F231
:1025D00018010320FFF7E0FCBDE8304040F2731122
:1025E0000720FFF7D9BC10B543F20801E320FFF73D
:1025F000D3FC1221E720FFF7CFFC41F23121EF207D
:10260000FFF7CAFC00210120FFF7C6FC4FF4E06190
:102610000220FFF7C1FC41F230010320FFF7BCFCB0
:1026200000210420FFF7B8FC40F207210820FFF743
:10263000B3FC00210920FFF7AFFC00210A20FFF7BF
:10264000ABFC00210C20FFF7A7FC00210D20FFF7B9
:10265000A3FC00210F20FFF79FFC00211020FFF7B3
:102660009BFC07211120FFF797FC00211220FFF7A8
:1026700093FC00211320FFF78FFCC820FDF732FEEA
:1026800041F290611020FFF787FC40F227211120D2
:10269000FFF782FC3220FDF725FE1D211220FFF7F7
:1026A0007BFC3220FDF71EFE4FF400611320FFF784
:1026B00073FC14212920FFF76FFC0B212B20FFF75F
:1026C0006BFC3220FDF70EFE00212020FFF764FC9A
:1026D00000212120FFF760FC07213020FFF75CFC80
:1026E00040F207713120FFF757FC06213220FFF737
:1026F00053FC40F204713520FFF74EFC41F60471A3
:102700003620FFF749FC04213720FFF745FC002164
:102710003820FFF741FC40F206713920FFF73CFCFE
:1027200040F201713C20FFF737FC0F213D20FFF7FD
:1027300033FC00215020FFF72FFCEF215120FFF741
:102740002BFC00215220FFF727FC40F23F115320C1
:10275000FFF722FC4FF41C516020FFF71DFC012104
:102760006120FFF719FC00216A20FFF715FC00210A
:102770008020FFF711FC00218120FFF70DFC0021D4
:102780008220FFF709FC00218320FFF705FC0021D0
:102790008420FFF701FC00218520FFF7FDFB1021BD
:1027A0009020FFF7F9FB00219220FFF7F5FB0321B2
:1027B0009320FFF7F1FB4FF488719520FFF7ECFBB6
:1027C00000219720FFF7E8FB00219820FFF7E4FBAA
:1027D00041F218010320FFF7DFFBBDE8104040F293
:1027E00073110720FFF7D8BB010901EB810100F04D
:1027F0000F0000EB4100C0B270470022014602E02A
:102800000A39C9B2521C0A29FAD2100741EA1060EB
:10281000704700002DE9F047104C814600252068E4
:10282000400618D4206840F080002060FDF75AFE72
:1028300006464FF47A78032708E000BFFDF752FE02
:10284000801B404502D9032589F825702068400681
:1028500001D4032DF2D12846BDE8F0870C280040B2
:102860002DE9F041064613480025016821F080015A
:102870000160104C0C3420684FF00307800607D429
:102880003046FEF701FD90B186F8257003250EE075
:10289000206820F0200020603046FEF7F5FC10B1E3
:1028A00086F825700325206840F020002060284627
:1028B000BDE8F0810C28004070B586B00D46064694
:1028C000144614216846FDF7AAFC8DF800608DF8C7
:1028D00001508DF80240002269460248FEF76CFC68
:1028E00006B070BD7000002010B588B0044600220C
:1028F00001A90C48FEF784FB002206A90948FEF74F
:102900005BFB9DF8060000909DF805309DF80420C3
:1029100005A1204600F0D4FA2146C020FFF72AFA8C
:1029200008B010BD7000002020202020202025327B
:10293000643A2532643A2532640000007047000092
:1029400070B5FDF7D5FD144C00256088401C80B2A1
:1029500060800A2802D16580FFF708F9A088401C32
:1029600080B2A080FA2804D1A580607890B10020C0
:102970006070E088401C80B2E080B0F5FA7F08D13A
:10298000E5802078401CC0B22070092801D10520C4
:10299000207070BD0120EBE73600002030B5A5B0F7
:1029A00038216846FDF73BFC14211FA8FDF737FCD2
:1029B00044210EA8FDF733FC4FF400752846FDF7BF
:1029C0002DFE09200090E8010190012005900221D0
:1029D0000324CDE907141420CDE90A0109940C91D0
:1029E00068460D91FEF7E2F80021CDE920410F2065
:1029F0001F902291239103211FA8FDF7B1FFA80288
:102A00000E901E950EA8FDF767FE25B030BD0000A4
:102A10000548016841F47001016003494FF000600E
:102A2000803908607047000088ED00E00148FEF73B
:102A30000EBE0000E40000202DE9F0430268234BA5
:102A4000234D244E244C4FF08049984207D04845EE
:102A500005D0A84203D0B04201D0A04203D122F059
:102A600070074A683A431D4FDFF874C0DFF874807E
:102A700098420DD048450BD0A84209D0B04207D0AB
:102A8000A04205D0B84203D0604501D0404503D1F3
:102A900022F44075CA682A434D6922F080022A4315
:102AA00002608A68C2620A688262984207D0A042C5
:102AB00005D0B84203D0604501D0404501D1096935
:102AC000016301214161BDE8F0830000002C014059
:102AD0000004004000080040003401400040014074
:102AE000004401400048014010B501F01F030121DE
:102AF000046A99408C430462016A9A40114301625E
:102B000010BD10B5846842EA032224F47F440A43CE
:102B10002243826010BD00008268034B1A400A43C2
:102B200042F00701816070478FFFCFFF2DE9F0432E
:102B3000026A22F001020262056A436882691C4C43
:102B400025F0020522400C6822F0030214438A6833
:102B5000194E2A43174D194FDFF864C0DFF864900F
:102B6000A84207D0B04205D0B84203D0604501D09A
:102B7000484506D122F00808CA6842EA080222F055
:102B80000402A84207D0B04205D0B84203D0604545
:102B900001D0484505D14D6923F440731D438B692D
:102BA0002B4343608461496841630262BDE8F0835E
:102BB0008FFFFEFF002C0140003401400040014027
:102BC0000044014000480140F0B5026A22F01002C2
:102BD0000262056A42688369194C1B4E23400C68E7
:102BE00023F4407343EA042425F020038D6843EA6C
:102BF0000513144DA84201D0B04206D1CF6823F08E
:102C0000800343EA071323F04003A8420AD0B042EE
:102C100008D00E4DA84205D00D4DA84202D00D4D52
:102C2000A84207D14D6922F4406242EA85028D69CB
:102C300042EA850242608461496881630362F0BDB3
:102C4000FF8FFFFE002C0140003401400040014096
:102C50000044014000480140F0B5026A22F480724D
:102C60000262056A4368C269194C1B4E22400C6817
:102C700022F00302144325F400728D6842EA052213
:102C8000144DA84201D0B04206D1CF6822F40062B0
:102C900042EA072222F48062A8420AD0B04208D059
:102CA0000E4DA84205D00E4DA84202D00D4DA842AF
:102CB00007D14D6923F4405343EA05138D6943EA74
:102CC00005134360C4614968C1630262F0BD00003E
:102CD0008FFFFEFF002C0140003401400040014006
:102CE0000044014000480140F0B5026A22F48052DD
:102CF0000262056A4268C369194C1B4E23400C6886
:102D000023F4407343EA042425F400538D6843EA16
:102D10000533144DA84201D0B04206D1CF6823F448
:102D2000004343EA073323F48043A8420AD0B04269
:102D300008D00E4DA84205D00D4DA84202D00D4D31
:102D4000A84207D14D6922F4404242EA85128D69BA
:102D500042EA85124260C461496801640362F0BDC1
:102D6000FF8FFFFE002C0140003401400040014075
:102D7000004401400048014030B5026A22F480322C
:102D80000262046A4268036D114D2B400D681D43B9
:102D900024F400330C8943EA04430E4CA0420BD0C8
:102DA0000D4CA04208D00D4CA04205D00C4CA042C6
:102DB00002D00C4CA04204D14C6922F4803242EA89
:102DC00004224260056549688164036230BD0000E9
:102DD0008FFFFEFF002C0140003401400040014005
:102DE000004401400048014030B5026A22F48012DC
:102DF0000262046A4268036D114D24F400142B40F2
:102E00000D6843EA05230D8944EA05540D4DA84297
:102E10000BD00D4DA84208D00C4DA84205D00C4D4A
:102E2000A84202D00B4DA84204D14D6922F4802261
:102E300042EA8522426003654968C164046230BD8C
:102E4000FF8FFFFE002C0140003401400040014094
:102E5000004401400048014010B5036A046A24F0B0
:102E600001040462846924F0F00444EA021423F0AB
:102E70000A020A438461026210BD10B5036A23F09E
:102E8000100303628369046A23F4704343EA023245
:102E900024F0A00343EA01118261016210BD000029
:102EA00005494FF4487009688863012210214FF0EA
:102EB0009040FDF712BB000098000020FEE70000E4
:102EC0000FB4084B10B504A902AA039800F02CF81F
:102ED000044602A9002000F0C8F9204610BC5DF8A5
:102EE00014FB00006B3200080907090E002804DB00
:102EF00000F1E02080F80014704700F00F0000F1AE
:102F0000E02080F8141D704702E008C8121F08C1B5
:102F1000002AFAD170477047002001E001C1121F5A
:102F2000002AFBD1704700002DE9FF4F8BB0884687
:102F30000546002606E025280BD0DDE90D12904756
:102F40006D1C761C28780028F5D10FB03046BDE8FE
:102F5000F08F0024A146A2460122AE4900E00443BE
:102F600015F8013F203B02FA03F00842F7D1287818
:102F70002A2810D06FF02F022878A0F130010929FB
:102F800015D809EB890102EB410144F0020400EB82
:102F900001096D1CF0E758F8041B5FEA010903D52D
:102FA00044F40054C9F1000944F002046D1C28786F
:102FB0002E2817D115F8010F44F004042A280ED04A
:102FC0006FF02F022878A0F1300109290AD80AEB06
:102FD0008A0102EB410100EB010A6D1CF2E758F88F
:102FE00004AB6D1C28786C280FD006DC4C2817D059
:102FF00068280DD06A2814D104E0742810D07A28EB
:103000000FD10DE044F400140AE044F4801401E010
:1030100044F440146978814202D104F580146D1C97
:103020006D1C2878692865D006DC00288DD06328BF
:1030300027D0642806D15DE06E2808D073282AD0F6
:10304000752877D0DDE90D129047761CE0E0C4F3D7
:103050000250022809D003280DD0D8F80010042807
:103060000DD00E6008F10408D2E0D8F80010F21775
:10307000C1E90062F6E7D8F800100E80F2E70E70A2
:10308000F0E718F8041B8DF8001000208DF80100FF
:10309000EB46012003E058F804BB4FF0FF30610716
:1030A0004FF0000701D40AE07F1C57450DDA874234
:1030B000FADB1BF807100029F6D106E07F1C8742D7
:1030C000FCDB1BF807100029F8D1DDE90D23A9EB83
:1030D00007008146214600F0B1F83044C61904E0EB
:1030E000DDE90D121BF8010B90477F1EF8D2214637
:1030F000484688E058F8040BC4F302514FF00A0B1D
:10310000032900D100B2042900D140B2002802DA1C
:1031100040422D2102E0210505D52B218DF82410F8
:10312000012104E006E0E10710D02021F6E708AF16
:10313000089113E058F8040BC4F302514FF00A0B46
:10314000032900D180B2042900D1C0B20021EEE7EA
:103150005946FDF76FF8303107F8011D0028F7D107
:10316000ADEB070000F1200B600702D524F480349A
:1031700001E04FF0010ADA4502DDAAEB0B0000E0A6
:103180000020824600EB0B0108980144A9EB0100E6
:103190000A90E00306D4DDE90D2321460A9800F0E9
:1031A0004DF806444FF0000908E009A911F809009C
:1031B000DDE90D12904709F10109761C089989454E
:1031C000F3DBE0030CD5DDE90D2321460A9800F07E
:1031D00035F8064404E0DDE90D1230209047761CF6
:1031E000BAF10001AAF1010AF5DC05E0DDE90D12F2
:1031F00017F8010B9047761CBBF10001ABF1010BF6
:10320000F4DC0A982146DDE90D2300F005F80644B8
:103210006D1C97E6092801002DE9F04104460025C0
:103220001E461746880404D405E039462020B047DE
:103230006D1C641EF9D52846BDE8F0812DE9F041EA
:10324000044600251E469046C80301D5302700E0FD
:103250002027880404D505E041463846B0476D1C58
:10326000641EF9D52846BDE8F0810A68531C0B603E
:1032700010707047FDF744F9FFF790FBFEF756FF1B
:10328000FEF7D0FFFFF762F8FFF712F8FFF7AEF88E
:10329000FEF7B8FEFEF7B0FD0020FEF705FD0020AA
:1032A000FEF704FE4FF6FF70FEF714FE2EA130204D
:1032B000FEF760FD002211460D20FFF7FDFA2F48B2
:1032C000FEF726F92D496FF0010009680861042115
:1032D0002B48FEF75FFB2A496FF00400096808617C
:1032E00000212848FEF756FB26494FF0FF300968B9
:1032F0000861254D0126A5F1140423490F31A1F1E0
:103300000A00FFF7F1FA2078032816D10020207078
:10331000A07880B12079012806D0022806D00328A1
:1033200006D0042806D006E06E7004E0AE7002E01D
:10333000EE7000E02E711420A081FFF78DF8FEF7EB
:1033400099FE6278A85C012808D11048007801280D
:1033500004D00FA16020FEF70DFDCEE710A11448A8
:10336000FFF7AEFD1249F5E7202020204E6F7720B1
:103370002D20506C6174666F6D000000E400002029
:1033800098000020300100201C00002037000020A1
:10339000202020202020202020202020202020004D
:1033A0002020202020202020202025640000000054
:1033B000500000200000000000000000000000009D
:1033C00000000000000000000000000000000000FD
:1033D00000000000000000000000000000000000ED
:1033E0000000000000008001800180018001800158
:1033F00080018001800180018001800180018001C5
:1034000000000000800180010000000000000000BA
:103410000000000000000000CC00CC00CC00CC007C
:10342000CC00CC0000000000000000000000000004
:10343000000000000000000000000000000000008C
:10344000000000000000000000000000000000007C
:10345000600C600C600C30063006FE1FFE1F30064C
:1034600038071803FE1FFE1F180318038C018C0178
:103470008C01000000008000E003F80F9C0E8C1C03
:103480008C188C009800F801E007800E801C8C18C6
:103490008C189C18B80CF00FE0038000800000002E
:1034A000000000000000000000000E181B0C110CB2
:1034B00011061106110311039B018E01C038C06C67
:1034C00060446044304430441844186C0C380000A8
:1034D000000000000000E001F0033807180618069D
:1034E0003003F001F000F8009C310E33061E061C7C
:1034F000061C063FFC73F0210000000000000000E5
:1035000000000000000000000C000C000C000C008B
:103510000C000C0000000000000000000000000093
:10352000000000000000000000000000000000009B
:10353000000000000000000200038001C000C00085
:10354000600060003000300030003000300030009B
:103550003000300060006000C000C0008001000347
:1035600000020000000020006000C0008001800117
:103570000003000300060006000600060006000621
:10358000000600060003000380018001C000600007
:10359000200000000000000000000000000000000B
:1035A000C000C000D806F807E0013003380700006B
:1035B000000000000000000000000000000000000B
:1035C00000000000000000000000000000000000FB
:1035D00080018001800180018001FC3FFC3F80016F
:1035E00080018001800180010000000000000000D7
:1035F00000000000000000000000000000000000CB
:1036000000000000000000000000000000000000BA
:103610000000000000008001800100010001800026
:10362000000000000000000000000000000000009A
:10363000000000000000000000000000E007E007BC
:10364000000000000000000000000000000000007A
:10365000000000000000000000000000000000006A
:10366000000000000000000000000000000000005A
:10367000000000000000C000C000000000000000CA
:10368000000000000000000C000C00060006000610
:103690000003000300038003800180018001C0005B
:1036A000C000C000600060000000000000000000DA
:1036B000000000000000E003F007380E180C0C18A2
:1036C0000C180C180C180C180C180C180C180C18DA
:1036D000180C380EF007E0030000000000000000A6
:1036E00000000000000000018001C001F00198010D
:1036F00088018001800180018001800180018001BA
:1037000080018001800180010000000000000000B5
:10371000000000000000E003F80F180C0C180C1853
:1037200000180018000C000600038001C0006000B3
:1037300030001800FC1FFC1F00000000000000000B
:10374000000000000000E001F807180E0C0C0C0C43
:10375000000C0006C003C007000C001800180C186D
:103760000C18180CF807E00300000000000000002F
:10377000000000000000000C000E000F000F800D84
:10378000C00C600C600C300C180C0C0CFC3FFC3FA7
:10379000000C000C000C000C0000000000000000F9
:1037A000000000000000F80FF80F180018000C00CF
:1037B000EC03FC071C0E001C0018001800180C1865
:1037C0001C0C180EF807E0030000000000000000C9
:1037D000000000000000C007F00F381C1818180087
:1037E0000C00CC03EC0F3C0E1C1C0C180C180C1815
:1037F000181C380EF007E003000000000000000075
:10380000000000000000FC1FFC1F000C000600066A
:10381000000380038001C001C000E0006000600080
:103820007000300030003000000000000000000098
:10383000000000000000E003F007380E180C180C20
:10384000180C3806F007F007180C0C180C180C1898
:103850000C18380CF80FE003000000000000000016
:10386000000000000000E003F007380E1C0C0C18EC
:103870000C180C181C1C381EF81BE0190018000C42
:10388000000C1C0EF807F001000000000000000012
:103890000000000000000000000000000000000028
:1038A0008001800100000000000000000000000016
:1038B0000000000080018001000000000000000006
:1038C00000000000000000000000000000000000F8
:1038D00080018001000000000000000000000000E6
:1038E0000000000080018001000100018000000054
:1038F00000000000000000000000000000000000C8
:10390000000000000010001C800FE003F800180009
:10391000F800E003800F001C001000000000000011
:103920000000000000000000000000000000000097
:1039300000000000F81F000000000000F81F000059
:103940000000000000000000000000000000000077
:103950000000000000000000000000000000000067
:103960000000000008003800F001C007001F001828
:10397000001FC007F0013800080000000000000030
:10398000000000000000E003F80F180C0C180C18E1
:103990000018000C000600038001C000C000C00039
:1039A00000000000C000C000000000000000000097
:1039B0000000000000000000E00718180420C229E1
:1039C000224A114409440944094409221113E20C12
:1039D000024004201818E00700000000000000006A
:1039E00000000000000080038003C006C006C0067F
:1039F000600C600C301830183018F83FF83F1C701D
:103A00000C600C6006C006C0000000000000000052
:103A1000000000000000FC03FC0F0C0C0C180C183C
:103A20000C180C0CFC07FC0F0C180C300C300C3074
:103A30000C300C18FC1FFC07000000000000000008
:103A4000000000000000C007F01F38381C300C7068
:103A50000660060006000600060006000600066076
:103A60000C701C30F01FE007000000000000000098
:103A7000000000000000FE03FE0F060E06180618E8
:103A8000063006300630063006300630063006189E
:103A90000618060EFE0FFE030000000000000000E6
:103AA000000000000000FC3FFC3F0C000C000C007C
:103AB0000C000C00FC1FFC1F0C000C000C000C0088
:103AC0000C000C00FC3FFC3F000000000000000068
:103AD000000000000000F83FF83F18001800180030
:103AE00018001800F81FF81F180018001800180018
:103AF0001800180018001800000000000000000066
:103B0000000000000000E00FF83F3C780E6006E087
:103B100007C00300030003FE03FE03C007C006C086
:103B20000EC03CF0F83FE00F000000000000000075
:103B30000000000000000C300C300C300C300C3059
:103B40000C300C30FC3FFC3F0C300C300C300C3097
:103B50000C300C300C300C30000000000000000075
:103B600000000000000080018001800180018001D0
:103B7000800180018001800180018001800180013D
:103B80008001800180018001000000000000000031
:103B90000000000000000006000600060006000607
:103BA00000060006000600060006000600061806CD
:103BB00018063807F003E0010000000000000000D4
:103BC00000000000000006300618060C060606037A
:103BD0008601C60066007600DE008E01060306063A
:103BE000060C061806300660000000000000000009
:103BF000000000000000180018001800180018004D
:103C000018001800180018001800180018001800F4
:103C100018001800F81FF81F000000000000000046
:103C20000000000000000EE01EF01EF01EF036D86E
:103C300036D836D836D866CC66CC66CCC6C6C6C6AC
:103C4000C6C6C6C686C386C30000000000000000CA
:103C50000000000000000C301C303C303C306C3068
:103C60006C30CC30CC308C310C330C330C360C3601
:103C70000C3C0C3C0C380C30000000000000000034
:103C8000000000000000E007F81F1C380E700660FE
:103C900003C003C003C003C003C003C003C0066069
:103CA0000E701C38F81FE007000000000000000044
:103CB000000000000000FC0FFC1F0C380C300C3022
:103CC0000C300C300C18FC1FFC070C000C000C0016
:103CD0000C000C000C000C000000000000000000B4
:103CE000000000000000E007F81F1C380E7006609E
:103CF00003E003C003C003C003C003C007E00663C2
:103D00000E3F1C3CF83FE0F700C000000000000040
:103D1000000000000000FE0FFE1F063806300630CF
:103D200006300638FE1FFE0706030606060C0618B8
:103D30000618063006300660000000000000000093
:103D4000000000000000E003F80F1C0C0C180C1819
:103D50000C001C00F803E00F001E0038063006308F
:103D60000E301C1CF80FE0070000000000000000EF
:103D7000000000000000FE7FFE7F800180018001C6
:103D8000800180018001800180018001800180012B
:103D9000800180018001800100000000000000001F
:103DA0000000000000000C300C300C300C300C30E7
:103DB0000C300C300C300C300C300C300C300C3023
:103DC0000C301818F81FE007000000000000000089
:103DD00000000000000003600630063006300C18BA
:103DE0000C180C18180C180C380E3006300670071A
:103DF00060036003C001C00100000000000000007B
:103E00000000000000000360C361C361C36166334A
:103E1000663366336633663366336C1B6C1B6C1B10
:103E20002C1A3C1E380E380E000000000000000066
:103E30000000000000000FE00C7018303018700C0B
:103E4000600EC00780038003C003E006700C301CC6
:103E500018180C300E6007E00000000000000000A1
:103E600000000000000003C006600C301C38381849
:103E7000300C6006E007C0038001800180018001F2
:103E8000800180018001800100000000000000002E
:103E9000000000000000FC7FFC7F00600030001884
:103EA000000C000600038001C00060003000180014
:103EB0000C000600FE7FFE7F0000000000000000F6
:103EC000000000000000E003E0036000600060000C
:103ED00060006000600060006000600060006000E2
:103EE0006000600060006000600060006000E0034F
:103EF000E00300000000300030006000600060005F
:103F0000C000C000C000C00180018001800100032A
:103F1000000300030006000600000000000000008F
:103F2000000000000000E003E003000300030003C2
:103F30000003000300030003000300030003000369
:103F40000003000300030003000300030003E00379
:103F5000E003000000000000C001C0016003600336
:103F6000600330063006180C180C0000000000003A
:103F70000000000000000000000000000000000041
:103F80000000000000000000000000000000000031
:103F90000000000000000000000000000000000021
:103FA000000000000000FFFFFFFF00000000000015
:103FB0000000000000000C000C000C000C000C00C5
:103FC0000C000000000000000000000000000000E5
:103FD00000000000000000000000000000000000E1
:103FE00000000000000000000000000000000000D1
:103FF000F003F8071C0C0C0C000FF00FF80C0C0C65
:104000000C0C1C0FF80FF01800000000000000005E
:104010000000000000001800180018001800180028
:10402000D803F80F380C181818181818181818187A
:104030001818380CF80FD80300000000000000002A
:104040000000000000000000000000000000000070
:10405000C003F007300E180C1800180018001800E4
:10406000180C300EF007C003000000000000000034
:1040700000000000000000180018001800180018C8
:10408000C01BF01F301C181818181818181818180A
:104090001818301CF01FC01B0000000000000000BA
:1040A0000000000000000000000000000000000010
:1040B000C003F00F300C1818F81FF81F1800180074
:1040C0003818301CF00FC00700000000000000008E
:1040D000000000000000800FC00FC000C000C00042
:1040E000F007F007C000C000C000C000C000C00062
:1040F000C000C000C000C0000000000000000000C0
:1041000000000000000000000000000000000000AF
:10411000E00DF80F180E0C0C0C0C0C0C0C0C0C0C0D
:104120000C0C180EF80FE00D000C0C0C1C06F80718
:10413000F001000000001800180018001800180016
:10414000D807F80F381C1818181818181818181845
:10415000181818181818181800000000000000009F
:10416000000000000000C000C000000000000000CF
:10417000C000C000C000C000C000C000C000C0003F
:10418000C000C000C000C00000000000000000002F
:10419000000000000000C000C0000000000000009F
:1041A000C000C000C000C000C000C000C000C0000F
:1041B000C000C000C000C000C000C000C000F800C7
:1041C0007800000000000C000C000C000C000C003B
:1041D0000C0C0C060C038C01CC006C00FC009C0148
:1041E0008C030C030C060C0C000000000000000007
:1041F000000000000000C000C000C000C000C000FF
:10420000C000C000C000C000C000C000C000C000AE
:10421000C000C000C000C00000000000000000009E
:10422000000000000000000000000000000000008E
:104230007C3CFF7EC7E383C183C183C183C183C14B
:1042400083C183C183C183C100000000000000005E
:10425000000000000000000000000000000000005E
:104260009807F80F381C1818181818181818181864
:10427000181818181818181800000000000000007E
:10428000000000000000000000000000000000002E
:10429000C003F00F300C1818181818181818181830
:1042A0001818300CF00FC0030000000000000000E0
:1042B00000000000000000000000000000000000FE
:1042C000D803F80F380C18181818181818181818D8
:1042D0001818380CF80FD803180018001800180028
:1042E00018000000000000000000000000000000B6
:1042F000C01BF01F301C1818181818181818181898
:104300001818301CF01FC01B0018001800180018E7
:104310000018000000000000000000000000000085
:10432000B007F00370003000300030003000300083
:1043300030003000300030000000000000000000BD
:10434000000000000000000000000000000000006D
:10435000E003F003380E180C3800F003C007000C1F
:10436000180C380EF007E003000000000000000009
:1043700000000000000000008000C000C000C0007D
:10438000F007F007C000C000C000C000C000C000BF
:10439000C000C000C007800700000000000000004F
:1043A000000000000000000000000000000000000D
:1043B000181818181818181818181818181818187D
:1043C0001818381CF01FE019000000000000000061
:1043D00000000000000000000000000000000000DD
:1043E0000C18180C180C180C300630063006600338
:1043F00060036003C001C001000000000000000075
:1044000000000000000000000000000000000000AC
:10441000C141C141C361636363636363363636364A
:1044200036361C1C1C1C1C1C000000000000000078
:10443000000000000000000000000000000000007C
:104440001C38381C300C6006600360036003600396
:104450006006300C381C1C38000000000000000012
:10446000000000000000000000000000000000004C
:104470001830301830187018600C600CE00CC00652
:10448000C00680038003800380018001C001F0002A
:1044900070000000000000000000000000000000AC
:1044A000FC1FFC1F000C000600038001C000600020
:1044B00030001800FC1FFC1F00000000000000007E
:1044C00000000000000000038001C000C000C00028
:1044D000C000C000C000600060003000600040000C
:1044E000C000C000C000C000C000C00080010003C8
:1044F0000000000000008001800180018001800137
:1045000080018001800180018001800180018001A3
:104510008001800180018001800180018001800193
:104520008001000000006000C000C0018001800127
:1045300080018001800100030003000600030001E8
:10454000800180018001800180018001C000600045
:10455000000000000000000000000000000000005B
:1045600000000000F010F81F080F0000000000001D
:10457000000000000000000000000000000000003B
:104580000000000000000000000000000102030421
:1045900006070809B445000800000020500000008C
:1045A000082F0008044600085000002030050000D5
:1045B000182F00080000FFFF000000FF00010100AD
:1045C00000000000000000000000000000000000EB
:1045D000000000000048483A4D4D3A53530000593E
:1045E0005959593A4D4D3A44440005000000000025
:1045F00000000000100000000100000000000000AA
:044600000024F4009E
:04000005080001D915
:00000001FF
