:020000040800F2
:1000000090040020ED010008371F0008451A000881
:10001000351F000821040008C1230008000000006B
:100020000000000000000000000000004F22000857
:100030008F04000800000000391F00082923000871
:10004000070200080702000807020008070200086C
:10005000070200080702000807020008070200085C
:10006000070200080702000807020008070200084C
:10007000070200080702000807020008070200083C
:10008000070200080000000007020008070200083D
:10009000070200080702000807020008070200081C
:1000A000070200080702000807020008070200080C
:1000B00007020008070200080702000807020008FC
:1000C00007020008070200080702000807020008EC
:1000D00007020008070200080702000807020008DC
:1000E00007020008070200080702000807020008CC
:1000F00007020008070200080702000800000000CD
:1001000000000000070200080000000007020008CD
:1001100007020008000000000702000807020008AC
:10012000070200080702000807020008070200088B
:10013000070200080000000000000000070200089D
:10014000070200080702000800000000000000008D
:10015000000000000000000000000000000000009F
:10016000000000000000000000000000070200087E
:10017000070200080000000000000000000000006E
:10018000000000000702000800000000000000005E
:10019000000000000000000000000000000000005F
:1001A000000000000000000007020008070200082D
:1001B000070200080702000807020008000000000C
:1001C000000000000702000800000000000000001E
:1001D0000702000807020008DFF80CD000F02AF838
:1001E0000048004729240008900400200648804762
:1001F00006480047FEE7FEE7FEE7FEE7FEE7FEE70C
:10020000FEE7FEE7FEE7FEE7B1230008D90100089C
:10021000D2B201E000F8012B491EFBD27047002248
:10022000F6E710B513460A4604461946FFF7F0FFF5
:10023000204610BD064C074D06E0E06840F0010383
:1002400094E8070098471034AC42F6D3FFF7C8FF94
:1002500054360008743600082DE9F04104460027A2
:100260000D46006801F0D6FD0646206801F0CEFD7F
:1002700030435DD02068C1682E4E890105D5617F6D
:10028000012902D1217F01290BD0022D1DD0206828
:1002900001F0C0FDB8B120688168C1F3400169B1C7
:1002A00011E00125244902E08F4232D27F1C02680E
:1002B000D2435206F8D440210160E8E7816831401A
:1002C00041F010018160012D11D0206801F09EFDE8
:1002D00048B120688168C1F3400121B9816831408B
:1002E00041F020018160022D08D0032D04D00425A7
:1002F00000F034FE064617E00C25F9E70825F7E77D
:1003000000F02CFE801B05280ED92068806828424A
:100310000AD0E06D40F01000E065206E40F0010072
:1003200020660120BDE8F081206880682842E7D17E
:100330000020F7E7C0FFFF7F000040A370B5044630
:10034000006881688268C1F3400112F0010F28D073
:1003500039BB816801F00D01012914D18168124A6D
:100360001140891C816021680320086000F0F6FDBF
:10037000054612E000F0F2FD401B02280DD920686E
:100380008068C00709D0E06D40F01000E065206E85
:1003900040F001002066012070BD20688068C00721
:1003A000E8D1002070BD0000C0FFFF7F70B504469B
:1003B0000068816811F0010F2DD18168174A114240
:1003C0001AD18168D5432940491C816000F0C6FDDF
:1003D00006461BE0816811F0010F03D181682940B6
:1003E000491C816000F0BAFD801B02280ED92068EC
:1003F0000068C043C00709D0E06D40F01000E06520
:10040000206E40F001002066012070BD2068016868
:10041000C943C907DED1002070BD00003F00008045
:10042000FEE710B501F0ECFFB0F5927F01D201209C
:1004300010BDA0F2251240F247218A4201D20220CB
:1004400010BDA0F26D328A4201D2032010BDA0F28D
:10045000B5528A4201D2042010BDA0F2FD728A4238
:1004600001D2052010BDA0F645228A4201D2062005
:1004700010BDA0F68D428A4201D2072010BDA0F621
:10048000D5609A2801D2082010BD002010BD704709
:10049000002240F6B83306E00021491C89B2994297
:1004A000FBD3521C92B28242F6D3704772B6FEE77B
:1004B0002DE9F84F00270446009790F85800DFF820
:1004C000E0930D46B846012811D0012684F8586003
:1004D000206801F09FFC60B1E06D40F02000E06515
:1004E0005FF0010784F858803846BDE8F88F022095
:1004F000FBE7D5E900210C23206803EA9113184497
:10050000036B01F01F014FF01F0C0CFA01FCC2F34A
:10051000846223EA0C038A4013430363206801F0DA
:1005200079FC8246206801F071FC5AEA00003CD157
:10053000AA6829682068B2F1004F37D001F076FC34
:100540002068416921F00041416120686969C26801
:10055000C2F3C102520091402A69042A31D000EB53
:1005600082002B68026EDFF83CC303F0F84302EA16
:100570000C020B431A4342F00041016620682A69CD
:10058000A96900EB8200026E22F080720A430266C3
:10059000297F22682869012910D0002102EB800000
:1005A000026E22F000720A4302667DE0002201F032
:1005B0003DFC2068416941F00041C5E74FF0007102
:1005C000ECE7002101F01CFC400320684FF0000123
:1005D00072D001F015FC90FAA0F0B0FA80F1286812
:1005E00042036ED090FAA0F0B0FA80F0814204D1BC
:1005F00000221146206801F028FC0121206801F04A
:10060000FFFB400320684FF001015DD001F0F8FBD3
:1006100090FAA0F0B0FA80F12868420359D090FA1D
:10062000A0F0B0FA80F0814204D1002201212068BC
:1006300001F00BFC0221206801F0E2FB400320687E
:100640004FF0020148D001F0DBFB90FAA0F0B0FAC5
:1006500080F12868420344D090FAA0F0B0FA80F00C
:10066000814204D100220221206801F0EEFB032127
:10067000206801F0C5FB400320684FF0030133D030
:1006800001F0BEFB90FAA0F0B0FA80F128684203B6
:100690002FD090FAA0F0B0FA80F0814204D100226D
:1006A0000321206801F0D1FB2068816811F0010F5F
:1006B00022D0ACE000E004E001F0A2FBC0F38461D2
:1006C0008DE7C0F3846091E701F09AFBC0F3846189
:1006D000A2E7C0F38460A6E701F092FBC0F3846157
:1006E000B7E7C0F38460BBE701F08AFBC0F3846125
:1006F000CCE7C0F38460D0E72A7B296850F8B03F8C
:10070000C1F3120C23EA0C0302F0180C664A22FA19
:100710000CF20A4013430360E968494577D1286821
:1007200041031CD090FAA0F1B1FA81F1491C01F00B
:100730001F0109294FEA403132D8002912D000BFE9
:1007400090FAA0F1B1FA81F101F1010101F01F016C
:1007500006FA01F609D100BFC0F3846109E0C0F3D5
:100760008461E3E7C0F38461EEE790FAA0F1B1FAA7
:1007700081F101F1010101F01F0146EA816102D11D
:10078000C0F3846003E090FAA0F0B0FA80F000F1CA
:10079000010000F01F0000EB400041EA005132E090
:1007A00000290ED090FAA0F1B1FA81F101F1010116
:1007B00001F01F0106FA01F606D100BFC0F3846103
:1007C00006E0C0F38461F1E790FAA0F1B1FA81F19B
:1007D00001F1010101F01F0146EA816102D1C0F37C
:1007E000846003E090FAA0F0B0FA80F000F101001C
:1007F00000F01F002D4A00EB400002EB005041EAE0
:10080000000141F00071AA68206801F00FFB284840
:100810002A6802423FF466AE26488168264B01F002
:10082000E0719A4202D0254B9A421CD10B021AD495
:100830002268B2F1A04F7FF455AE826841F4000106
:1008400022F0E0720A4382601D481E490068B0FB36
:10085000F1F0401C00EB4000800000E0401E0090E2
:100860000028FBD13EE6184D184BAA4207D1CD0116
:1008700005D422689A42F5D041F0807109E0144D08
:10088000AA42EFD14A02EDD422689A42EAD041F45A
:100890008001826822F0E0720A43826022E6000052
:1008A00000007F4000F0FF03FFFF0700000020FE74
:1008B0000000088000030050000021C31000C09019
:1008C00020000020400D0300000052C7000100502E
:1008D000000084CB0068006C70470000F8B54FF052
:1008E000000504002E46009502D0E06D10B107E02F
:1008F0000120F8BD204600F0EFF8266684F8586025
:1009000020688168C1F3407119B181686A4A114059
:10091000816020688168C1F3007189B98168674A84
:10092000114041F080518160654866490068B0FB24
:10093000F1F04000801C00E0401E00900028FBD138
:1009400020688168C1F3007141B9E16D41F0100187
:10095000E165216E41F001012166012501F05AFA9D
:10096000E16DC90600D430B1E06D40F01000E065E3
:1009700001252846F8BDE06D20F4807040F00200AB
:10098000E0652068806810F0010F11D14FF0A040A1
:1009900080684D4900F00100896801F001010843B9
:1009A00006D14A486168826822F47C120A43826058
:1009B000E168E06B627F0843A16841EA4231084385
:1009C00094F8241040EA0140012904D1218D404AC5
:1009D00002EB41410843E16A29B101F47871226BCD
:1009E000014342EA01002168CA683A4B1A400243B7
:1009F000CA6020680169626B21F0406111430161A6
:100A0000206801F007FA0646206801F0FFF930433C
:100A10002ED1207F94F83810800340EA41022068EC
:100A2000C16844F2020399431143C1602069002860
:100A3000206801690AD041F480310161206850F8D2
:100A4000C01F22696FF30D01114307E021F48031CB
:100A50000161206850F8C01F6FF30D01016094F828
:100A6000400001280CD02068016921F001010161DA
:100A7000606901282068016B21F00F0111D013E09B
:100A8000D4E911010843D4E9131211430843216842
:100A90000A6940F2FC739A43104340F00100086178
:100AA000E6E7226A521E11430163E06D20F0020066
:100AB00040F00100E0655CE7C0FFFF5FC0FFFF7F23
:100AC00020000020400D03000001005000030050F2
:100AD0000000FEFF0740F0FF10B586B00446142169
:100AE0006846FFF79CFB1149206888421BD11048DB
:100AF000C16C41F40051C164C16C01F40051059115
:100B0000C16C41F00101C164C06C694600F0010094
:100B100005902020009003200190002002904FF0CB
:100B2000904000F031F906B010BD00000001005007
:100B3000001002402DE9F04104463B480F46816811
:100B400001F01F05A16908290FD085B1052D0ED030
:100B5000092D0CD0806800F4604060B1E06D40F079
:100B60002000E0650120BDE8F081082604E020684F
:100B7000C068C007F1E7042600F0F0F9804615E0F0
:100B8000781C13D000F0EAF9A0EB0800B84200D8B6
:100B900067B920680068304208D1E06D40F0040079
:100BA000E065002084F858000320DCE72068006836
:100BB0003042E5D0E06D40F40070E065206801F05F
:100BC0002DF980B1607F70B92068006800070AD5F0
:100BD000E06D20F48070E065E06DC00403D4E06D4A
:100BE00040F00100E065114A20684FF0A0419042BA
:100BF00001D10B4600E00346834210D07DB1052DA4
:100C00000DD0092D0BD0904200D00146C968082EA6
:100C100007D0490401D40C2101600020A3E7C1687A
:100C2000F5E70821F8E7000000030050000100503C
:100C30002DE9F04104463848806800F01F0520681F
:100C400001F0E8F818B102210846BDE8F08194F8F7
:100C5000580001280CD0012084F858002046FFF7E6
:100C6000A5FB01004FF0000304D084F85830EBE7F7
:100C70000220EAE7E06D40F60162904340F48070A4
:100C8000E065264A20684FF0A046904201D13746E1
:100C900000E00746874200D01DB9E76D27F48017B2
:100CA000E765E76DFF0404D5276E27F00607276682
:100CB00000E023661C27076084F8583020689042C3
:100CC00001D1334600E00346834215D0A5B1052D7E
:100CD00012D0092D10D0E36D43F48013E3659042E8
:100CE00000D13046C0688001AED5E06D20F40050E0
:100CF00040F48050E065A7E7C268920105D5E26D37
:100D000022F4005242F48052E2658268044B1A4099
:100D1000121D826098E7000000030050000100509F
:100D2000C0FFFF7F10B5044690F85800012808D096
:100D3000012084F8580003212046FFF78DFA10B1F6
:100D40000BE0022010BD2046FFF7F8FA28B9E16D4C
:100D500021F4885141F00101E165002184F8581027
:100D600010BD000070B5044600F0F8F80546601CA0
:100D700002D004484068044400F0F0F8401BA04250
:100D8000FAD370BD140000202DE9FC4FDFF8A0A1BC
:100D9000002301250AF1040B03244FF00F0C0BF183
:100DA000040EBDE005FA03F632406FD04F68012F04
:100DB00005D0022F03D0112F01D0122F17D1D0F858
:100DC00008905F0004FA07F829EA08090097D1F8AB
:100DD0000C8008FA07F848EA0908C0F80880476854
:100DE000B7430E79C6F300169E403E434660C66880
:100DF0004FEA430804FA08F7BE4301978F6807FAE1
:100E000008F73743C7604E68022E01D0122E13D167
:100E1000DE0800EB86060096366A5F07FF0E0CFAC6
:100E200007F926EA0906D1F8109009FA07F949EA04
:100E30000609009EC6F820900668019FBE430F7900
:100E400007F0030707FA08F7374307604E68F60014
:100E500065D5384E376E47F001073766366E23F09A
:100E6000030706F001060096334E3E44B146B668CD
:100E70009F074FEA17780CFA08F7BE43B0F1904F7E
:100E800005D02E4FB84204D1012717E047E00027D4
:100E900014E02B4FB84201D102270FE0294FB8428E
:100EA00001D103270AE0284FB84201D1042705E009
:100EB000264FB84201D1052700E0062707FA08F7B8
:100EC0003743C9F80870DAF800605746D1F8048053
:100ED00096435FEAC83800D516433E60DBF80060F1
:100EE0005F46D1F8048096435FEA883800D5164300
:100EF0003E60DEF800607746D1F8048096435FEAF2
:100F0000C82800D516433E60094F0C373E68D1F81B
:100F1000048096435FEA882800D516433E605B1C38
:100F20000A6832FA03F67FF43DAFBDE8FC8F00009B
:100F3000000401400010024000000140000400488D
:100F400000080048000C0048001000480014004849
:100F50000AB1816170478162704700000148806872
:100F60007047000014000020024881684268114464
:100F7000816070471400002010B50024032000F0A9
:100F800065F8002000F008F808B1012401E000F045
:100F900025F8204610BD000070B50E4E0546002411
:100FA000706898B14FF47A71B1FBF0F00A490968A2
:100FB000B1FBF0F000F032FD40B9102D06D2002256
:100FC0002946501E00F022F8356000E0012420463A
:100FD00070BD000014000020200000200A4882B0EC
:100FE000016E41F001010166016E01F00101009105
:100FF000816D41F080518165806D00F080500090DE
:1010000002B000F093B8000000100240F0B40E4BA4
:101010001B680C46C3F30223C3F10705042D00D956
:101020000425191D072901D2002300E0DB1E01263B
:1010300006FA05F1491E214099409E40761E164051
:101040003143F0BC01F0BDB90CED00E0064900F001
:10105000070208684FF6FF03184040EA0220034ADF
:1010600010430860704700000CED00E00000FA0536
:101070002B492C4B0A6832214A432B4940B1B0F529
:10108000007F086829D020F4C06040F480602CE024
:101090000868C0F34120022804D051F8800F20F4E2
:1010A000807022E0D1F8800020F48070C1F88000C8
:1010B000086820F4C06040F400700860B2FBF3F0F0
:1010C000401C00E0401E4A69520501D50028F9D1B4
:1010D000486940050AD503207047C0F34120022823
:1010E00006D051F8800F40F48070086000207047EF
:1010F000D1F8800040F48070C1F88000086820F4C6
:10110000C06040F400700860B2FBF3F0401C00E0E7
:10111000401E4A695205DBD50028F9D1D8E7000006
:101120002000002040420F0000700040024881680B
:1011300041F4804181607047007000402DE9F84320
:101140000446006800269D4D00035ED5A86D00276B
:10115000C00008D4A86D40F08050A865A86D012794
:1011600000F080500090DFF85892D9F8001041F458
:101170008071C9F80010FFF7F1FE804606E000BF5D
:10118000FFF7ECFEA0EB080002282BD8D9F80000EE
:10119000C005F5D5D5F8900010F4407014D0216C3E
:1011A000814211D0D5F89000D5F8901020F440700D
:1011B00041F48031C5F89010D5F8901021F48031B9
:1011C000C5F89010C5F89000C00711D0FFF7C6FE13
:1011D000804641F2883907E0FFF7C0FEA0EB080126
:1011E000494501D903260BE0D5F890008007F3D5D7
:1011F000D5F89000216C20F440700843C5F89000A9
:101200001FB1A86D20F08050A8652078C00707D0D6
:10121000D5F88800616820F003000843C5F888000D
:101220002078800707D5D5F88800A16820F00C0049
:101230000843C5F888002078400707D5D5F888000E
:10124000E16820F030000843C5F8880020780007E6
:1012500007D5D5F88800216920F0C0000843C5F8FB
:1012600088002078800607D5D5F88800616920F4C9
:1012700040600843C5F888002078400607D5D5F8B7
:101280008800A16920F440500843C5F88800207800
:10129000000607D5D5F88800E16920F440400843EE
:1012A000C5F888002088C00507D5D5F88800216AD0
:1012B00020F440300843C5F888002088800507D511
:1012C000D5F88800616A20F440200843C5F88800FA
:1012D000208840050FD5D5F88800A16A20F4401079
:1012E0000843C5F88800A06AB0F5801F03D1E868FC
:1012F00040F48010E860208800050FD5D5F88800FC
:10130000E16A20F440000843C5F88800E06AB0F5BF
:10131000800F03D1E86840F48010E8602088C004A2
:101320000FD5D5F88800216B20F040700843C5F830
:101330008800206BB0F1807F03D1E86840F4801012
:10134000E86020884FF0006180040ED5D5F8880051
:10135000626B20F040601043C5F88800606B8842E3
:1013600003D1E86840F48010E860208840040ED57E
:10137000D5F88800A26B20F040601043C5F88800C3
:10138000A06B884203D1E86840F48010E8602088B0
:1013900000040FD5D5F88800E16B20F040500843D9
:1013A000C5F88800E06BB0F1805F03D1E86840F4D5
:1013B0008030E8603046BDE8F8830000001002404D
:1013C000007000402DE9F0470E4605004FF0000781
:1013D00025D0DFF8AC81D8F8000000F00F00B04253
:1013E0000CD2D8F8001021F00F013143C8F80010DA
:1013F000D8F8000000F00F00B04210D12968614C0D
:10140000C80741F2883A5AD06868DFF87C9103280F
:1014100008D0022820682DD0400500282CDB0120B0
:10142000BDE8F08720688001F9D5E06800F003028C
:10143000E068C0F30310401C032A19D0534A00BFD0
:10144000B2FBF0F0E268C2F306225043E268C2F356
:101450004162521C5200B0FBF2F0484517D9A06817
:1014600010F0F00F0CD0880711D5A86840B10EE03D
:10147000474AE5E78003D0E700F092F8484506D9EF
:10148000A06820F0F00040F08000A0608027A068F5
:10149000696820F003000843A060FFF75FFD814604
:1014A00006E000BFFFF75AFDA0EB090151453AD80D
:1014B000A068696800F00C00B0EB810FF2D12868D9
:1014C000810714D5400703D5A06840F4E060A06010
:1014D0002878000705D5A06820F4605040F4E0604B
:1014E000A060A068A96820F0F000084304E0802F05
:1014F00003D1A06820F0F000A060D8F800104046AA
:1015000001F00F01B14216D9016821F00F013143FA
:101510000160FFF723FD074607E000BFFFF71EFD50
:10152000C11B514501D903207AE7D8F8000000F02B
:101530000F00B042F2D12878400705D5A068E968CD
:1015400020F4E0600843A0602878000706D5A06872
:10155000296920F4605040EAC100A06000F020F842
:10156000A1680C4AC1F30311515C01F01F01C8408E
:101570000949086009480068BDE8F047FFF70CBD5D
:10158000002002400010024000B4C4040024F40013
:1015900000366E01443600082000002014000020B0
:1015A000184910B58868C0F381021748012A0BD08A
:1015B0008A68164BC2F38102022A06D08A68C2F3F7
:1015C0008102032A03D0002010BD184610BDCA684E
:1015D00002F00304CA68C2F30312521C032C02D0A7
:1015E000B0FBF2F001E0B3FBF2F0CA68C968C2F3E5
:1015F00006225043C1F34161491C4900B0FBF1F0A0
:1016000010BD0000001002400024F40000366E01FE
:101610002DE9F84304007AD02078FA4DC00747D06E
:10162000A868E96800F00C0001F003010C2802D062
:10163000082817D001E0032914D06068B0F5803F76
:1016400017D0B0F5A02F286817D020F4803028607C
:10165000286820F4802028606068E0B1FFF77EFCF5
:10166000064614E02868800322D560680028D2D09E
:101670001EE0286840F48030EDE740F480202860C8
:10168000F7E700BFFFF76AFC801B642870D8286862
:101690008003F7D50CE0FFF761FC064605E000BFCC
:1016A000FFF75CFC801B6428F0D828688003F7D41F
:1016B000207880074CD5A868E96800F00C0001F09C
:1016C00003010C2802D004280DD001E002290AD021
:1016D000E068002828682BD040F480702860FFF76D
:1016E0003DFC064619E02868400502D5E068002860
:1016F00091D06868217C20F0FE4040EA016068607B
:10170000C1480068FFF748FC002800D120E076E1DE
:10171000FFF724FC801B0228B8D828684005F7D5BD
:101720006868217C20F0FE4040EA016068600FE0BC
:1017300020F480702860FFF711FC064605E000BF2A
:10174000FFF70CFC801B0228A0D828684005F7D4BE
:101750002078000729D560690028D5F8940013D0B7
:1017600040F00100C5F89400FFF7F8FB064606E0DC
:1017700090E000BFFFF7F2FB801B022886D8D5F867
:1017800094008007F6D510E020F00100C5F8940021
:10179000FFF7E4FB064604E0FFF7E0FB801B0228AE
:1017A00078D8D5F894008007F6D42078400761D522
:1017B000A86D0026C00008D4A86D40F08050A86530
:1017C000A86D012600F08050009090480168C9057E
:1017D00011D40168804641F480710160FFF7BEFBBF
:1017E000074604E0FFF7BAFBC01B022852D8D8F81E
:1017F0000000C005F6D5A068012815D00528D5F849
:10180000900016D020F00100C5F89000D5F89000A7
:1018100020F00400C5F89000A06841F28838B8B103
:10182000FFF79CFB07460EE0D5F8900040F0010062
:10183000F0E740F00400C5F89000F5E7FFF78EFBF5
:10184000C11B414526D8D5F890008007F6D50CE09D
:10185000FFF784FB074604E0FFF780FBC11B41450F
:1018600018D8D5F890008007F6D41EB1A86D20F0E6
:101870008050A8652078800629D5A0690028D5F871
:10188000980013D040F00100C5F89800FFF766FB00
:10189000064606E077E000BFFFF760FB801B0228EA
:1018A00077D8D5F898008007F6D510E020F0010031
:1018B000C5F89800FFF752FB064604E0FFF74EFB21
:1018C000801B022865D8D5F898008007F6D4E06917
:1018D000F0B3A968C1F38101032961D00228286807
:1018E00020F0807028600BD0E86820F00300E860EA
:1018F000E86847490840E860FFF730FB04464BE0E2
:10190000FFF72CFB064604E0FFF728FB801B0228AC
:101910003FD828688001F7D4F4E908016FF00F027E
:1019200002EB01110843218A5204490802EB41519C
:10193000A26841EA02210843217D4FF07E42490816
:1019400002EB41610843217B40EAC160E96800E0A5
:1019500062E0304A11400843E860286840F0807037
:101960002860E86840F08070E860FFF7F7FA044606
:1019700005E000BFFFF7F2FA001B022809D828682B
:101980008001F7D548E004E0FFF7E8FA001B0228E1
:1019900002D90320BDE8F88328688001F4D43BE035
:1019A0000128F7D0E868226A00F00301914226D1AD
:1019B000616A00F0F0020901103991421FD1A26A58
:1019C00000F4FE41B1EB022F19D194F82C2000F065
:1019D0007841B1EBC26F12D1218E00F4C0024908E8
:1019E0004905A1F50011914209D194F8341000F095
:1019F000C06049084906A1F1007181420CD0012064
:101A0000C8E70000001002401400002000700040F1
:101A1000FFFFEEFE0C809F010020BBE710B5401ECB
:101A2000B0F1807F01D3012010BD4FF0E024606150
:101A30000F21601700F0C5FC0020A0610720206185
:101A4000002010BDFEE7000000B585B014216846F7
:101A5000FEF7E5FB4FF6FF70009000200321CDE973
:101A60000201019069460248FFF78EF905B000BDFA
:101A70000008004800B585B014216846FEF7CFFB8A
:101A80004FF6FF700090012001900320039000208A
:101A9000029069460248FFF777F905B000BD0000E3
:101AA0000008004870B5002406462146204600F094
:101AB00003F900F041F94FF49635304600F010F983
:101AC000641CAC42F9D370BD30B587B014216846B0
:101AD000FEF7A5FB1E48C16C41F00401C164C16C56
:101AE00001F004010591C16C41F00101C164C16CB8
:101AF00001F001010591C16C41F00201C164C06CAB
:101B0000012500F0020005904FF44870CDE9000572
:101B100000240394694602940E48FFF735F9280221
:101B200003940090CDE901544FF09044694620465B
:101B3000FFF72AF9FFF79EFFA06940F48070A061CB
:101B400004481830016841F40871016007B030BDE5
:101B50000010024000040048203AD2B2034B02EBCE
:101B6000420203EB021200F019B8000074240008CE
:101B7000F0B50E460746002540F23F1407E0214627
:101B80003846FFF7E9FF103C6D1CA4B2761C327892
:101B9000002A01D0142DF2D3F0BD00002DE9F0474A
:101BA00091468A460026044600F086F8DFF8408019
:101BB000012700BF00F0C0F85FF0000539F81600FB
:101BC00007FA05F10842404601D1408800E000884C
:101BD00000F086F86D1C102DF0D3641CE4B2514661
:101BE000204600F069F8761C182EE3D3BDE8F08794
:101BF0000000002010B5FFF767FF002000F014F888
:101C0000084CA080A088A0F50241303906D000F031
:101C10001DFA002000F008F8A08010BD00F08DF93A
:101C2000F7E700000000002070B51D490A6842F483
:101C300000720A600A6842F480720A60184C103C14
:101C4000226842F020022260164A1060086840F0C4
:101C50002000086000BF00BF00BF206840F02000E7
:101C60002060206840F480702060FFF7EDFE4FF0A8
:101C70009041886A40F48070886200BF00BF00BF56
:101C80000848001F006885B2886940F48070886148
:101C9000FFF7F0FE206840F400702060284670BD19
:101CA000280400481408004801B5BDF800000149A7
:101CB000488008BD0000002010B50C4601462020D9
:101CC00000F068F82146BDE81040212000F062B81D
:101CD00001B5BDF800000149088008BD00000020E2
:101CE000134A116841F400711160114910390B68F1
:101CF00043F480730B600B6843F020030B600D4BC3
:101D00001860106840F02000106000BF00BF00BFE6
:101D1000086840F020000860086840F4807008609F
:101D200000BF00BF00BF086840F400700860704743
:101D300028040048140800481449086840F400705A
:101D40000860086840F48070086010481038026825
:101D500042F0200202600E4B22221A600A6842F012
:101D600020020A6000BF00BF00BF016841F02001EF
:101D70000160016841F48071016000BF00BF00BFD5
:101D8000016841F4007101607047000028040048B8
:101D900014080048184B10B51A6842F400721A6013
:101DA0001A6842F480721A60134A103A146844F0B8
:101DB00020041460114C2060186840F02000186066
:101DC00000BF00BF00BF106840F020001060106826
:101DD00040F4807010602160186840F020001860A6
:101DE00000BF00BF00BF106840F020001060106806
:101DF00040F48070106010BD2804004814080048AA
:101E000000EB8100006E00F0F84070478068C0F37E
:101E1000C00070478068C0F380007047C06810F44D
:101E2000406F01D00020704701207047042303EA6F
:101E3000D15310B518444369C1F3045107248C40B1
:101E4000A3438A401343436110BD00EB8100016E40
:101E500021F00041114301667047000030B589B0A0
:101E600020216846FEF7DBF9194818490024016073
:101E70004902C0E90114C46004250461C0E90545B4
:101E8000047744770121016280F82440C46204632E
:101E900080F83840C46380F84040FEF71FFD08B169
:101EA000FEF704FB0B4800900620019002907F2073
:101EB0000594CDE9030569460548FEF7F9FA0028BF
:101EC00001D0FEF7F3FA09B030BD00000001005068
:101ED000240000200020903610B586B014216846FA
:101EE000FEF79DF91248C16C41F02001C164C16C3C
:101EF00001F020010591C16C41F00101C164C06C89
:101F00004FF0904400F00100059000220E21204681
:101F1000FFF71EF80E20009001200021CDE90101FD
:101F2000039169462046FEF72FFF06B010BD000062
:101F300000100240FEE7FEE7704730B501210020A7
:101F4000FFF728FF4FF47A70FEF7A2FA0021012074
:101F5000FFF720FF41F290711020FFF71BFF4FF4B5
:101F60001C516020FFF716FF01216120FFF712FFCF
:101F700002214620FFF70EFF48F210011320FFF761
:101F800009FF48F2FE011220FFF704FF4FF4A061A1
:101F90000220FFF7FFFE41F230010320FFF7FAFEB7
:101FA00040F2033421463020FFF7F4FE2146312071
:101FB000FFF7F0FE21463220FFF7ECFEE51E294632
:101FC0003320FFF7E7FE03213420FFF7E3FE21462D
:101FD0003520FFF7DFFE14213620FFF7DBFE214618
:101FE0003720FFF7D7FE21463820FFF7D3FE2146E2
:101FF0003920FFF7CFFE29463A20FFF7CBFE032119
:102000003B20FFF7C7FE21463C20FFF7C3FE4FF4FD
:10201000A0513D20FFF7BEFE4FF400719220FFF764
:10202000B9FE21469320FFF7B5FE40F60D01902042
:10203000FFF7B0FE41F218010320FFF7ABFEBDE849
:10204000304040F273110720FFF7A4BE10B543F2F1
:102050000801E320FFF79EFE1221E720FFF79AFE1A
:1020600041F23121EF20FFF795FE00210120FFF71B
:1020700091FE4FF4E0610220FFF78CFE41F2300147
:102080000320FFF787FE00210420FFF783FE40F2C4
:1020900007210820FFF77EFE00210920FFF77AFEC6
:1020A00000210A20FFF776FE00210C20FFF772FEC8
:1020B00000210D20FFF76EFE00210F20FFF76AFEC2
:1020C00000211020FFF766FE07211120FFF762FEB6
:1020D00000211220FFF75EFE00211320FFF75AFEB9
:1020E000C820FEF73FFE41F290611020FFF752FE3C
:1020F00040F227211120FFF74DFE3220FEF732FE7D
:102100001D211220FFF746FE3220FEF72BFE4FF472
:1021100000611320FFF73EFE14212920FFF73AFE4D
:102120000B212B20FFF736FE3220FEF71BFE00218D
:102130002020FFF72FFE00212120FFF72BFE072193
:102140003020FFF727FE40F207713120FFF722FE13
:1021500006213220FFF71EFE40F204713520FFF702
:1021600019FE41F604713620FFF714FE04213720D2
:10217000FFF710FE00213820FFF70CFE40F2067139
:102180003920FFF707FE40F201713C20FFF702FE05
:102190000F213D20FFF7FEFD00215020FFF7FAFD43
:1021A000EF215120FFF7F6FD00215220FFF7F2FD4D
:1021B00040F23F115320FFF7EDFD4FF41C5160201A
:1021C000FFF7E8FD01216120FFF7E4FD00216A200F
:1021D000FFF7E0FD00218020FFF7DCFD00218120DA
:1021E000FFF7D8FD00218220FFF7D4FD00218320D6
:1021F000FFF7D0FD00218420FFF7CCFD00218520D2
:10220000FFF7C8FD10219020FFF7C4FD00219220A8
:10221000FFF7C0FD03219320FFF7BCFD4FF4887149
:102220009520FFF7B7FD00219720FFF7B3FD0021B0
:102230009820FFF7AFFD41F218010320FFF7AAFD38
:10224000BDE8104040F273110720FFF7A3BD7047AF
:102250002DE9F0471446894682464FF09046002209
:1022600004213046FEF774FEDFF8B880002518F828
:1022700004708024002208213046FEF769FE24FA0B
:1022800005F0384201D0012200E000220221304650
:10229000FEF75EFE012208213046FEF759FE6D1C56
:1022A000EDB2082DE6D318F80970002500220821A8
:1022B0003046FEF74DFE24FA05F0384201D00122E7
:1022C00000E0002202213046FEF742FE01220821F2
:1022D0003046FEF73DFE6D1CEDB2082DE6D318F832
:1022E0000A700025002208213046FEF731FE24FA4C
:1022F00005F0384201D0012200E0002202213046E0
:10230000FEF726FE012208213046FEF721FE6D1C55
:10231000EDB2082DE6D33046BDE8F0470122042196
:10232000FEF716BE06000020FEF71EBE10B5A4B0D4
:1023300038216846FDF773FF14211FA8FDF76FFFD2
:1023400044210EA8FDF76BFF4FF40070FEF790FEDE
:10235000012000900004019002200324CDE907042D
:102360001421CDE90A100C900D9009946846FFF7EE
:102370004FF908B172B6FEE70F20CDE91F04002027
:1023800021902290239002211FA8FFF71BF808B18B
:1023900072B6FEE74FF400400E9080031D900EA829
:1023A000FEF7CCFE002801D072B6FEE724B010BDC7
:1023B0000248016841F470010160704788ED00E057
:1023C000FEE70907090E002804DB00F1E02080F891
:1023D0000014704700F00F0000F1E02080F8141D99
:1023E000704702E008C8121F08C1002AFAD17047DE
:1023F0007047002001E001C1121F002AFBD1704785
:1024000010B50848FEF714FC0A210648FEF792FBB7
:102410000448FEF75FFA84B20248FEF783FC2046C8
:1024200010BD000024000020FEF7A6FDFFF77EFF90
:10243000FFF752FDFFF712FDFFF7DCFB0020FFF76F
:1024400031FB0020FFF730FC4FF6FF70FFF740FC38
:1024500005A10020FFF78CFBFDF7E3FF0A221146E0
:10246000FFF7F6FEF8E70000617364666467686D65
:102470006A000000000000000000000000000000F2
:10248000000000000000000000000000000000004C
:10249000000000000000000000000000000000003C
:1024A00000000000000080018001800180018001A7
:1024B0008001800180018001800180018001800114
:1024C000000000008001800100000000000000000A
:1024D0000000000000000000CC00CC00CC00CC00CC
:1024E000CC00CC0000000000000000000000000054
:1024F00000000000000000000000000000000000DC
:1025000000000000000000000000000000000000CB
:10251000600C600C600C30063006FE1FFE1F30069B
:1025200038071803FE1FFE1F180318038C018C01C7
:102530008C01000000008000E003F80F9C0E8C1C52
:102540008C188C009800F801E007800E801C8C1815
:102550008C189C18B80CF00FE0038000800000007D
:10256000000000000000000000000E181B0C110C01
:1025700011061106110311039B018E01C038C06CB6
:1025800060446044304430441844186C0C380000F7
:10259000000000000000E001F003380718061806EC
:1025A0003003F001F000F8009C310E33061E061CCB
:1025B000061C063FFC73F021000000000000000034
:1025C00000000000000000000C000C000C000C00DB
:1025D0000C000C00000000000000000000000000E3
:1025E00000000000000000000000000000000000EB
:1025F000000000000000000200038001C000C000D5
:1026000060006000300030003000300030003000EA
:102610003000300060006000C000C0008001000396
:1026200000020000000020006000C0008001800166
:102630000003000300060006000600060006000670
:10264000000600060003000380018001C000600056
:10265000200000000000000000000000000000005A
:10266000C000C000D806F807E001300338070000BA
:10267000000000000000000000000000000000005A
:10268000000000000000000000000000000000004A
:1026900080018001800180018001FC3FFC3F8001BE
:1026A0008001800180018001000000000000000026
:1026B000000000000000000000000000000000001A
:1026C000000000000000000000000000000000000A
:1026D0000000000000008001800100010001800076
:1026E00000000000000000000000000000000000EA
:1026F000000000000000000000000000E007E0070C
:1027000000000000000000000000000000000000C9
:1027100000000000000000000000000000000000B9
:1027200000000000000000000000000000000000A9
:10273000000000000000C000C00000000000000019
:10274000000000000000000C000C0006000600065F
:102750000003000300038003800180018001C000AA
:10276000C000C00060006000000000000000000029
:10277000000000000000E003F007380E180C0C18F1
:102780000C180C180C180C180C180C180C180C1829
:10279000180C380EF007E0030000000000000000F5
:1027A00000000000000000018001C001F00198015C
:1027B0008801800180018001800180018001800109
:1027C0008001800180018001000000000000000005
:1027D000000000000000E003F80F180C0C180C18A3
:1027E00000180018000C000600038001C000600003
:1027F00030001800FC1FFC1F00000000000000005B
:10280000000000000000E001F807180E0C0C0C0C92
:10281000000C0006C003C007000C001800180C18BC
:102820000C18180CF807E00300000000000000007E
:10283000000000000000000C000E000F000F800DD3
:10284000C00C600C600C300C180C0C0CFC3FFC3FF6
:10285000000C000C000C000C000000000000000048
:10286000000000000000F80FF80F180018000C001E
:10287000EC03FC071C0E001C0018001800180C18B4
:102880001C0C180EF807E003000000000000000018
:10289000000000000000C007F00F381C18181800D6
:1028A0000C00CC03EC0F3C0E1C1C0C180C180C1864
:1028B000181C380EF007E0030000000000000000C4
:1028C000000000000000FC1FFC1F000C00060006BA
:1028D000000380038001C001C000E00060006000D0
:1028E00070003000300030000000000000000000E8
:1028F000000000000000E003F007380E180C180C70
:10290000180C3806F007F007180C0C180C180C18E7
:102910000C18380CF80FE003000000000000000065
:10292000000000000000E003F007380E1C0C0C183B
:102930000C180C181C1C381EF81BE0190018000C91
:10294000000C1C0EF807F001000000000000000061
:102950000000000000000000000000000000000077
:102960008001800100000000000000000000000065
:102970000000000080018001000000000000000055
:102980000000000000000000000000000000000047
:102990008001800100000000000000000000000035
:1029A00000000000800180010001000180000000A3
:1029B0000000000000000000000000000000000017
:1029C000000000000010001C800FE003F800180059
:1029D000F800E003800F001C001000000000000061
:1029E00000000000000000000000000000000000E7
:1029F00000000000F81F000000000000F81F0000A9
:102A000000000000000000000000000000000000C6
:102A100000000000000000000000000000000000B6
:102A20000000000008003800F001C007001F001877
:102A3000001FC007F001380008000000000000007F
:102A4000000000000000E003F80F180C0C180C1830
:102A50000018000C000600038001C000C000C00088
:102A600000000000C000C0000000000000000000E6
:102A70000000000000000000E00718180420C22930
:102A8000224A114409440944094409221113E20C61
:102A9000024004201818E0070000000000000000B9
:102AA00000000000000080038003C006C006C006CE
:102AB000600C600C301830183018F83FF83F1C706C
:102AC0000C600C6006C006C00000000000000000A2
:102AD000000000000000FC03FC0F0C0C0C180C188C
:102AE0000C180C0CFC07FC0F0C180C300C300C30C4
:102AF0000C300C18FC1FFC07000000000000000058
:102B0000000000000000C007F01F38381C300C70B7
:102B100006600600060006000600060006000660C5
:102B20000C701C30F01FE0070000000000000000E7
:102B3000000000000000FE03FE0F060E0618061837
:102B400006300630063006300630063006300618ED
:102B50000618060EFE0FFE03000000000000000035
:102B6000000000000000FC3FFC3F0C000C000C00CB
:102B70000C000C00FC1FFC1F0C000C000C000C00D7
:102B80000C000C00FC3FFC3F0000000000000000B7
:102B9000000000000000F83FF83F1800180018007F
:102BA00018001800F81FF81F180018001800180067
:102BB00018001800180018000000000000000000B5
:102BC000000000000000E00FF83F3C780E6006E0D7
:102BD00007C00300030003FE03FE03C007C006C0D6
:102BE0000EC03CF0F83FE00F0000000000000000C5
:102BF0000000000000000C300C300C300C300C30A9
:102C00000C300C30FC3FFC3F0C300C300C300C30E6
:102C10000C300C300C300C300000000000000000C4
:102C2000000000000000800180018001800180011F
:102C3000800180018001800180018001800180018C
:102C40008001800180018001000000000000000080
:102C50000000000000000006000600060006000656
:102C6000000600060006000600060006000618061C
:102C700018063807F003E001000000000000000023
:102C800000000000000006300618060C06060603C9
:102C90008601C60066007600DE008E010603060689
:102CA000060C061806300660000000000000000058
:102CB000000000000000180018001800180018009C
:102CC0001800180018001800180018001800180044
:102CD00018001800F81FF81F000000000000000096
:102CE0000000000000000EE01EF01EF01EF036D8BE
:102CF00036D836D836D866CC66CC66CCC6C6C6C6FC
:102D0000C6C6C6C686C386C3000000000000000019
:102D10000000000000000C301C303C303C306C30B7
:102D20006C30CC30CC308C310C330C330C360C3650
:102D30000C3C0C3C0C380C30000000000000000083
:102D4000000000000000E007F81F1C380E7006604D
:102D500003C003C003C003C003C003C003C00660B8
:102D60000E701C38F81FE007000000000000000093
:102D7000000000000000FC0FFC1F0C380C300C3071
:102D80000C300C300C18FC1FFC070C000C000C0065
:102D90000C000C000C000C00000000000000000003
:102DA000000000000000E007F81F1C380E700660ED
:102DB00003E003C003C003C003C003C007E0066311
:102DC0000E3F1C3CF83FE0F700C000000000000090
:102DD000000000000000FE0FFE1F0638063006301F
:102DE00006300638FE1FFE0706030606060C061808
:102DF00006180630063006600000000000000000E3
:102E0000000000000000E003F80F1C0C0C180C1868
:102E10000C001C00F803E00F001E003806300630DE
:102E20000E301C1CF80FE00700000000000000003E
:102E3000000000000000FE7FFE7F80018001800115
:102E4000800180018001800180018001800180017A
:102E5000800180018001800100000000000000006E
:102E60000000000000000C300C300C300C300C3036
:102E70000C300C300C300C300C300C300C300C3072
:102E80000C301818F81FE0070000000000000000D8
:102E900000000000000003600630063006300C1809
:102EA0000C180C18180C180C380E30063006700769
:102EB00060036003C001C0010000000000000000CA
:102EC0000000000000000360C361C361C36166339A
:102ED000663366336633663366336C1B6C1B6C1B60
:102EE0002C1A3C1E380E380E0000000000000000B6
:102EF0000000000000000FE00C7018303018700C5B
:102F0000600EC00780038003C003E006700C301C15
:102F100018180C300E6007E00000000000000000F0
:102F200000000000000003C006600C301C38381898
:102F3000300C6006E007C003800180018001800141
:102F4000800180018001800100000000000000007D
:102F5000000000000000FC7FFC7F006000300018D3
:102F6000000C000600038001C00060003000180063
:102F70000C000600FE7FFE7F000000000000000045
:102F8000000000000000E003E0036000600060005B
:102F90006000600060006000600060006000600031
:102FA0006000600060006000600060006000E0039E
:102FB000E0030000000030003000600060006000AE
:102FC000C000C000C000C00180018001800100037A
:102FD00000030003000600060000000000000000DF
:102FE000000000000000E003E00300030003000312
:102FF00000030003000300030003000300030003B9
:103000000003000300030003000300030003E003C8
:10301000E003000000000000C001C0016003600385
:10302000600330063006180C180C00000000000089
:103030000000000000000000000000000000000090
:103040000000000000000000000000000000000080
:103050000000000000000000000000000000000070
:10306000000000000000FFFFFFFF00000000000064
:103070000000000000000C000C000C000C000C0014
:103080000C00000000000000000000000000000034
:103090000000000000000000000000000000000030
:1030A0000000000000000000000000000000000020
:1030B000F003F8071C0C0C0C000FF00FF80C0C0CB4
:1030C0000C0C1C0FF80FF0180000000000000000AE
:1030D0000000000000001800180018001800180078
:1030E000D803F80F380C18181818181818181818CA
:1030F0001818380CF80FD80300000000000000007A
:1031000000000000000000000000000000000000BF
:10311000C003F007300E180C180018001800180033
:10312000180C300EF007C003000000000000000083
:103130000000000000000018001800180018001817
:10314000C01BF01F301C1818181818181818181859
:103150001818301CF01FC01B000000000000000009
:10316000000000000000000000000000000000005F
:10317000C003F00F300C1818F81FF81F18001800C3
:103180003818301CF00FC0070000000000000000DD
:10319000000000000000800FC00FC000C000C00091
:1031A000F007F007C000C000C000C000C000C000B1
:1031B000C000C000C000C00000000000000000000F
:1031C00000000000000000000000000000000000FF
:1031D000E00DF80F180E0C0C0C0C0C0C0C0C0C0C5D
:1031E0000C0C180EF80FE00D000C0C0C1C06F80768
:1031F000F001000000001800180018001800180066
:10320000D807F80F381C1818181818181818181894
:1032100018181818181818180000000000000000EE
:10322000000000000000C000C0000000000000001E
:10323000C000C000C000C000C000C000C000C0008E
:10324000C000C000C000C00000000000000000007E
:10325000000000000000C000C000000000000000EE
:10326000C000C000C000C000C000C000C000C0005E
:10327000C000C000C000C000C000C000C000F80016
:103280007800000000000C000C000C000C000C008A
:103290000C0C0C060C038C01CC006C00FC009C0197
:1032A0008C030C030C060C0C000000000000000056
:1032B000000000000000C000C000C000C000C0004E
:1032C000C000C000C000C000C000C000C000C000FE
:1032D000C000C000C000C0000000000000000000EE
:1032E00000000000000000000000000000000000DE
:1032F0007C3CFF7EC7E383C183C183C183C183C19B
:1033000083C183C183C183C10000000000000000AD
:1033100000000000000000000000000000000000AD
:103320009807F80F381C18181818181818181818B3
:1033300018181818181818180000000000000000CD
:10334000000000000000000000000000000000007D
:10335000C003F00F300C181818181818181818187F
:103360001818300CF00FC00300000000000000002F
:10337000000000000000000000000000000000004D
:10338000D803F80F380C1818181818181818181827
:103390001818380CF80FD803180018001800180077
:1033A0001800000000000000000000000000000005
:1033B000C01BF01F301C18181818181818181818E7
:1033C0001818301CF01FC01B001800180018001837
:1033D00000180000000000000000000000000000D5
:1033E000B007F003700030003000300030003000D3
:1033F000300030003000300000000000000000000D
:1034000000000000000000000000000000000000BC
:10341000E003F003380E180C3800F003C007000C6E
:10342000180C380EF007E003000000000000000058
:1034300000000000000000008000C000C000C000CC
:10344000F007F007C000C000C000C000C000C0000E
:10345000C000C000C007800700000000000000009E
:10346000000000000000000000000000000000005C
:1034700018181818181818181818181818181818CC
:103480001818381CF01FE0190000000000000000B0
:10349000000000000000000000000000000000002C
:1034A0000C18180C180C180C300630063006600387
:1034B00060036003C001C0010000000000000000C4
:1034C00000000000000000000000000000000000FC
:1034D000C141C141C361636363636363363636369A
:1034E00036361C1C1C1C1C1C0000000000000000C8
:1034F00000000000000000000000000000000000CC
:103500001C38381C300C60066003600360036003E5
:103510006006300C381C1C38000000000000000061
:10352000000000000000000000000000000000009B
:103530001830301830187018600C600CE00CC006A1
:10354000C00680038003800380018001C001F00079
:1035500070000000000000000000000000000000FB
:10356000FC1FFC1F000C000600038001C00060006F
:1035700030001800FC1FFC1F0000000000000000CD
:1035800000000000000000038001C000C000C00077
:10359000C000C000C000600060003000600040005B
:1035A000C000C000C000C000C000C0008001000317
:1035B0000000000000008001800180018001800186
:1035C00080018001800180018001800180018001F3
:1035D00080018001800180018001800180018001E3
:1035E0008001000000006000C000C0018001800177
:1035F0008001800180010003000300060003000138
:10360000800180018001800180018001C000600094
:1036100000000000000000000000000000000000AA
:1036200000000000F010F81F080F0000000000006C
:10363000000000000000000000000000000000008A
:103640000000000000000000000000000102030470
:103650000607080974360008000000202400000056
:10366000E223000898360008240000206C040000C3
:10367000F22300080000FFFF00003F065B4F666D6D
:103680007D077F6F3F000000100000000100000078
:08369000000000000024F4001A
:04000005080001D915
:00000001FF
