:020000040800F2
:10000000A0170020ED01000803400008AB340008F1
:1000100001400008B908000835550008000000003C
:10002000000000000000000000000000154400086F
:100030006B09000800000000054000081744000894
:10004000070200080702000807020008070200086C
:10005000070200080702000807020008070200085C
:10006000070200080702000807020008BD08000890
:10007000070200080702000807020008070200083C
:10008000070200080000000007020008070200083D
:10009000070200080702000807020008070200081C
:1000A0000702000807020008B5440008070200081C
:1000B000C144000807020008070200080702000800
:1000C00007020008070200080702000807020008EC
:1000D00007020008070200081D55000829550008FE
:1000E00007020008070200080702000807020008CC
:1000F00007020008070200080702000800000000CD
:1001000000000000070200080000000007020008CD
:100110000702000800000000CD44000807020008A4
:10012000070200080702000807020008070200088B
:10013000070200080000000000000000070200089D
:10014000070200080702000800000000000000008D
:10015000000000000000000000000000000000009F
:10016000000000000000000000000000070200087E
:10017000070200080000000000000000000000006E
:10018000000000000702000800000000000000005E
:10019000000000000000000000000000000000005F
:1001A000000000000000000007020008070200082D
:1001B000070200080702000807020008000000000C
:1001C000000000000702000800000000000000001E
:1001D0000702000807020008DFF80CD000F076FAEA
:1001E0000048004769590008A017002006488047CA
:1001F00006480047FEE7FEE7FEE7FEE7FEE7FEE70C
:10020000FEE7FEE7FEE7FEE7A5440008D901000887
:100210002DE9F05F0546002092469B46884606463B
:10022000814640241BE0284641464746224600F0CE
:10023000CEF953465A46C01A914110D3114618467A
:10024000224600F0B5F92D1A67EB01084F46224609
:100250000120002100F0ACF917EB00094E41201EEF
:10026000A4F10104DFDC484631462A464346BDE896
:10027000F09FD2B201E000F8012B491EFBD270477B
:100280000022F6E710B513460A4604461946FFF762
:10029000F0FF204610BD421C10F8011B0029FBD1C5
:1002A000801A70472DE9FE4F804681EA0300C00F97
:1002B0000C46009021F0004123F00045B8EB02000D
:1002C000A94105D24046214690461C460B460246AF
:1002D00023F00040104347D0270DC7F30A00C3F3B3
:1002E0000A510290401A019040286BDAC3F31300C0
:1002F00040F4801B0098924620B10023D2EB030A01
:1003000063EB0B0B01985946C0F14002504600F0D8
:100310004FF906460D4650465946019A00F067F9D6
:1003200010EB08006141002487EA115284EAE77368
:100330001A4340D0009A62B3019A012A4FEA075249
:1003400015DC001B61EB02014FF0004202EA07528C
:10035000CDE90042001C41F5801132462B4600F0E9
:1003600067F903B0BDE8F08F40462146F9E7001B6E
:1003700061EB0201001C41F5801300185B4120185D
:10038000A2F5001747EB030140EAD570B6196D419D
:1003900011E06D084FEA360645EAC0754FEA07528C
:1003A000001B61EB0201001C41F5801149084FEA76
:1003B00030000019514132462B4603B0BDE8F04FE2
:1003C00000F027B90098012240000023D0EB020280
:1003D00063EBE073009821464FEAE074B8EB00004D
:1003E00061EB0401E9E783F000435BE781F0004142
:1003F00058E72DE9FE4F81EA030404F0004421F0A0
:10040000004100944FF0000B23F0004350EA010438
:100410005ED052EA03045BD0C3F30A54C1F30A5519
:100420002C44A4F2F3340194A0FB0254C1F3130151
:1004300041F48011C3F3130343F4801301FB02441E
:1004400000FB034E840A970A44EA815447EA835723
:10045000A4FB076802958D0A05FB07854FEA932CDC
:1004600004FB0C542705029D4FEA065847EA16374D
:10047000B5EB08056EEB070C870E920E47EA811765
:1004800042EA8312A7FB0201B6EB0B0164EB000406
:100490002B0D43EA0C335E1844EB1C50DA465146F0
:1004A000E7FB0201C5F313044FEA0B3343EA14538D
:1004B0004FEA0432019C43EA0603A4F10C040294BF
:1004C000009CCDE900B400F0B3F803B0BDE8F08FB4
:1004D00000200146F9E70EB540F2334102910021B8
:1004E000CDE900110A460B4600F0A2F803B000BDAA
:1004F000C1F30A5210B5C1F3130140F2FF3341F4C6
:1005000080119A4201DA002010BD40F233439A4232
:10051000A2F2334203DC524200F059F810BD904081
:1005200010BD000030B5041E71F1000404DB4FF073
:100530000044404264EB0101141E73F1000405DB2A
:100540001C464FF00043524263EB04038B4208BF4A
:10055000824230BD30B5041E71F1000404DB4FF05F
:100560000044404264EB0101141E73F1000405DBFA
:100570001C464FF00043524263EB0403994208BF0C
:10058000904230BD30B50B460146002020220124A8
:1005900009E021FA02F59D4205D303FA02F5491B51
:1005A00004FA02F52844151EA2F10102F1DC30BD67
:1005B000202A04DB203A00FA02F100207047914023
:1005C000C2F1200320FA03F3194390407047202A18
:1005D00004DB203A21FA02F00021704721FA02F3ED
:1005E000D040C2F120029140084319467047202AAA
:1005F00006DBCB17203A41FA02F043EAE07306E04B
:1006000041FA02F3D040C2F120029140084319465A
:10061000704710B5141E73F1000408DA401C41F154
:10062000000192185B411A4301D120F0010010BD76
:100630002DE9F04D92469B4611B1B1FA81F202E0EC
:10064000B0FA80F220329046FFF7B2FF04460F4620
:1006500040EA0A0041EA0B0153465A46084313D0C8
:10066000114653EA010019D0C8F140025046FFF785
:10067000AEFF05460E46504659464246FFF798FFE4
:10068000084305D0012004E020463946BDE8F08D3E
:100690000020054346EAE0762C4337430A98630579
:1006A000E40AA0EB08000022FD0A44EA47540A309D
:1006B00002D500200146E9E7010510196941DDE98D
:1006C000084500196941BDE8F04DA2E7064C074D09
:1006D00006E0E06840F0010394E807009847103412
:1006E000AC42F6D3FFF77CFDA86C0008C86C00088C
:1006F0002DE9F041044600270D46006803F014FA86
:100700000646206803F00CFA30435DD02068C168CB
:100710002E4E890105D5617F012902D1217F012952
:100720000BD0022D1DD0206803F0FEF9B8B120686F
:100730008168C1F3400169B111E00125244902E05B
:100740008F4232D27F1C0268D2435206F8D4402135
:100750000160E8E78168314041F010018160012DBE
:1007600011D0206803F0DCF948B120688168C1F33A
:10077000400121B98168314041F020018160022DA2
:1007800008D0032D04D0042500F0CEFF064617E064
:100790000C25F9E70825F7E700F0C6FF801B0528C0
:1007A0000ED92068806828420AD0E06D40F0100021
:1007B000E065206E40F0010020660120BDE8F08178
:1007C000206880682842E7D10020F7E7C0FFFF7F5C
:1007D000000040A370B50446006881688268C1F3D8
:1007E000400112F0010F28D039BB816801F00D01E2
:1007F000012914D18168124A1140891C8160216845
:100800000320086000F090FF054612E000F08CFF26
:10081000401B02280DD920688068C00709D0E06D10
:1008200040F01000E065206E40F0010020660120DD
:1008300070BD20688068C007E8D1002070BD00004E
:10084000C0FFFF7F70B504460068816811F0010F9A
:100850002DD18168174A11421AD18168D5432940A8
:10086000491C816000F060FF06461BE0816811F0C2
:10087000010F03D181682940491C816000F054FFB9
:10088000801B02280ED920680068C043C00709D029
:10089000E06D40F01000E065206E40F00100206641
:1008A000012070BD20680168C943C907DED100205E
:1008B00070BD00003F000080FEE70000014800F02E
:1008C0002FBD0000201200200D4902688A4201D28B
:1008D0000C4901E00B492031D2B21423083AB2FB93
:1008E000F3F2436C02F01F0223F003031944816406
:1008F00004498031C16401219140016570470000C5
:1009000008040240000802400179074A02EB810214
:100910004265054A4432491E826501F01F020121E9
:100920009140C16570470000FC08024030B5D0E935
:1009300013456560446D14B1D0E91645656090F8C3
:10094000444004F01F050124AC40056C6C60046851
:1009500063608368102B036803D099600068C260ED
:1009600030BD9A600068C16030BD7047002240F61B
:10097000B83306E00021491C89B29942FBD3521CCE
:1009800092B28242F6D3704772B6FEE72DE9F84F75
:1009900000270446009790F85800DFF8E0930D46D2
:1009A000B846012811D0012684F85860206803F069
:1009B000BBF860B1E06D40F02000E0655FF001073A
:1009C00084F858803846BDE8F88F0220FBE7D5E967
:1009D00000210C23206803EA91131844036B01F0F3
:1009E0001F014FF01F0C0CFA01FCC2F3846223EAD2
:1009F0000C038A4013430363206803F095F8824692
:100A0000206803F08DF85AEA00003CD1AA682968F2
:100A10002068B2F1004F37D003F092F820684169A6
:100A200021F00041416120686969C268C2F3C102D6
:100A3000520091402A69042A31D000EB82002B68D1
:100A4000026EDFF83CC303F0F84302EA0C020B43EA
:100A50001A4342F00041016620682A69A96900EB47
:100A60008200026E22F080720A430266297F2268A9
:100A70002869012910D0002102EB8000026E22F0CB
:100A800000720A4302667DE0002203F059F82068F4
:100A9000416941F00041C5E74FF00071ECE70021EA
:100AA00003F038F8400320684FF0000172D003F0E3
:100AB00031F890FAA0F0B0FA80F1286842036ED0C5
:100AC00090FAA0F0B0FA80F0814204D100221146E1
:100AD000206803F044F80121206803F01BF840036C
:100AE00020684FF001015DD003F014F890FAA0F0F7
:100AF000B0FA80F12868420359D090FAA0F0B0FA19
:100B000080F0814204D100220121206803F027F8FF
:100B10000221206802F0FEFF400320684FF002012E
:100B200048D002F0F7FF90FAA0F0B0FA80F1286800
:100B3000420344D090FAA0F0B0FA80F0814204D190
:100B400000220221206803F00AF80321206802F045
:100B5000E1FF400320684FF0030133D002F0DAFFD9
:100B600090FAA0F0B0FA80F1286842032FD090FAF2
:100B7000A0F0B0FA80F0814204D100220321206865
:100B800002F0EDFF2068816811F0010F22D0ACE087
:100B900000E004E002F0BEFFC0F384618DE7C0F323
:100BA000846091E702F0B6FFC0F38461A2E7C0F36E
:100BB0008460A6E702F0AEFFC0F38461B7E7C0F33C
:100BC0008460BBE702F0A6FFC0F38461CCE7C0F30A
:100BD0008460D0E72A7B296850F8B03FC1F3120C3B
:100BE00023EA0C0302F0180C664A22FA0CF20A40BF
:100BF00013430360E968494577D1286841031CD055
:100C000090FAA0F1B1FA81F1491C01F01F01092904
:100C10004FEA403132D8002912D000BF90FAA0F13B
:100C2000B1FA81F101F1010101F01F0106FA01F6AB
:100C300009D100BFC0F3846109E0C0F38461E3E738
:100C4000C0F38461EEE790FAA0F1B1FA81F101F10D
:100C5000010101F01F0146EA816102D1C0F3846005
:100C600003E090FAA0F0B0FA80F000F1010000F08B
:100C70001F0000EB400041EA005132E000290ED095
:100C800090FAA0F1B1FA81F101F1010101F01F0127
:100C900006FA01F606D100BFC0F3846106E0C0F396
:100CA0008461F1E790FAA0F1B1FA81F101F101015B
:100CB00001F01F0146EA816102D1C0F3846003E0C4
:100CC00090FAA0F0B0FA80F000F1010000F01F00EF
:100CD0002D4A00EB400002EB005041EA000141F0D8
:100CE0000071AA68206802F02BFF28482A68024297
:100CF0003FF466AE26488168264B01F0E0719A42C7
:100D000002D0254B9A421CD10B021AD42268B2F1B0
:100D1000A04F7FF455AE826841F4000122F0E072EA
:100D20000A4382601D481E490068B0FBF1F0401C78
:100D300000EB4000800000E0401E00900028FBD146
:100D40003EE6184D184BAA4207D1CD0105D42268C2
:100D50009A42F5D041F0807109E0144DAA42EFD1DA
:100D60004A02EDD422689A42EAD041F480018268B6
:100D700022F0E0720A43826022E6000000007F4019
:100D800000F0FF03FFFF0700000020FE00000880C6
:100D900000030050000021C31000C0906400002038
:100DA000400D0300000052C700010050000084CB3A
:100DB0000068006C70470000F8B54FF000050400B3
:100DC0002E46009502D0E06D10B107E00120F8BD7D
:100DD000204600F0EFF8266684F8586020688168A5
:100DE000C1F3407119B181686A4A1140816020687D
:100DF0008168C1F3007189B98168674A114041F087
:100E000080518160654866490068B0FBF1F04000A0
:100E1000801C00E0401E00900028FBD12068816803
:100E2000C1F3007141B9E16D41F01001E165216E3E
:100E300041F001012166012502F076FEE16DC9064F
:100E400000D430B1E06D40F01000E0650125284687
:100E5000F8BDE06D20F4807040F00200E06520688D
:100E6000806810F0010F11D14FF0A04080684D490B
:100E700000F00100896801F00101084306D14A48E9
:100E80006168826822F47C120A438260E168E06B48
:100E9000627F0843A16841EA4231084394F8241074
:100EA00040EA0140012904D1218D404A02EB414131
:100EB0000843E16A29B101F47871226B014342EAE7
:100EC00001002168CA683A4B1A400243CA60206890
:100ED0000169626B21F0406111430161206802F0F9
:100EE00023FE0646206802F01BFE30432ED1207FF1
:100EF00094F83810800340EA41022068C16844F247
:100F0000020399431143C1602069002820680169E8
:100F10000AD041F480310161206850F8C01F226975
:100F20006FF30D01114307E021F480310161206866
:100F300050F8C01F6FF30D01016094F840000128C4
:100F40000CD02068016921F001010161606901286C
:100F50002068016B21F00F0111D013E0D4E91101D9
:100F60000843D4E913121143084321680A6940F287
:100F7000FC739A43104340F001000861E6E7226ADF
:100F8000521E11430163E06D20F0020040F00100A9
:100F9000E0655CE7C0FFFF5FC0FFFF7F64000020EB
:100FA000400D030000010050000300500000FEFF50
:100FB0000740F0FF10B586B0044614216846FFF7DD
:100FC0005FF91149206888421BD11048C16C41F477
:100FD0000051C164C16C01F400510591C16C41F034
:100FE0000101C164C06C694600F001000590202039
:100FF000009003200190002002904FF0904000F0FC
:10100000A5FA06B010BD000000010050001002401B
:101010002DE9F04104463B480F46816801F01F0569
:10102000A16908290FD085B1052D0ED0092D0CD04E
:10103000806800F4604060B1E06D40F02000E06541
:101040000120BDE8F081082604E02068C068C007E0
:10105000F1E7042600F068FB804615E0781C13D009
:1010600000F062FBA0EB0800B84200D867B9206826
:101070000068304208D1E06D40F00400E0650020D7
:1010800084F858000320DCE7206800683042E5D08F
:10109000E06D40F40070E065206802F049FD80B129
:1010A000607F70B92068006800070AD5E06D20F401
:1010B0008070E065E06DC00403D4E06D40F0010095
:1010C000E065114A20684FF0A041904201D10B46E3
:1010D00000E00346834210D07DB1052D0DD0092DCF
:1010E0000BD0904200D00146C968082E07D04904B1
:1010F00001D40C2101600020A3E7C168F5E70821B5
:10110000F8E7000000030050000100502DE9F04115
:1011100004463848806800F01F05206802F004FD8E
:1011200018B102210846BDE8F08194F85800012862
:101130000CD0012084F858002046FFF783FB010003
:101140004FF0000304D084F85830EBE70220EAE7C0
:10115000E06D40F60162904340F48070E065264AFD
:1011600020684FF0A046904201D1374600E0074684
:10117000874200D01DB9E76D27F48017E765E76D5A
:10118000FF0404D5276E27F00607276600E02366D4
:101190001C27076084F858302068904201D13346FC
:1011A00000E00346834215D0A5B1052D12D0092DCC
:1011B00010D0E36D43F48013E365904200D13046D4
:1011C000C0688001AED5E06D20F4005040F480503E
:1011D000E065A7E7C268920105D5E26D22F40052EE
:1011E00042F48052E2658268044B1A40121D82600C
:1011F00098E700000003005000010050C0FFFF7F8F
:1012000010B5044690F85800012808D0012084F851
:10121000580003212046FFF76BFA10B10BE00220C3
:1012200010BD2046FFF7D6FA28B9E16D21F48851A8
:1012300041F00101E165002184F8581010BD10B59E
:1012400090F8253000210122022B03D00421C16334
:10125000012122E003681C6824F00E041C60836CEA
:101260001C6824F480741C6003681C6824F001046A
:101270001C6090F84430046C03F01F0302FA03F37F
:101280006360D0E913345C60436D33B11C6824F4AF
:1012900080741C60D0E916345C6080F82520002240
:1012A00080F82420084610BD70B590F82520002451
:1012B00001212346022A07D00422C26380F82510A8
:1012C00080F82430012429E00268156825F00E0515
:1012D00015600268156825F001051560826C1568B7
:1012E00025F48075156090F84420056C02F01F020B
:1012F00001FA02F26A60D0E913255560426D32B1FD
:10130000156825F480751560D0E91625556080F8BC
:10131000251080F82430816B01B18847204670BDCC
:10132000F0B4016C0C6801680D6890F8442002F07C
:101330001F06042202FA06F3234211D06B070FD5D1
:101340000B689B0603D40B6823F004030B6090F832
:10135000441001F01F018A40016C4A60016B1DE0DE
:10136000022303FA06F727424FF0000C4FF0010268
:1013700018D0AF0716D50C68A40605D40C6824F065
:101380000A040C6080F8252090F8441001F01F0139
:101390008B40016C4B6080F824C0C16A00291AD0D0
:1013A000F0BC08470823B340234214D02B0712D5C2
:1013B0000B6823F00E030B6090F84410036C01F0EF
:1013C0001F0102FA01F15960C26380F8252080F8FC
:1013D00024C0416BE2E7F0BC7047000070B5040028
:1013E0000CD02B4A21681420914209D2294A0A4480
:1013F000B2FBF0F08000606427480AE0012070BD75
:10140000234A52420A44B2FBF0F080006064204854
:1014100008382064022084F825000A6847F6F07036
:101420008243D4E902031843D4E904352B4318431B
:10143000A3691843E3691843236A184310430860FB
:101440002046FFF741FAA0680025B0F5804F00D193
:101450006560A16C20790860D4E91301416060687F
:10146000401E032808D82046FFF74EFA606D05603D
:10147000D4E91601416002E06565A565E565E563AF
:10148000012084F8250084F82450002070BD00005D
:1014900008040240F8FFFDBF0000024070B504469A
:1014A00090F82400002501280CD0012084F82400A5
:1014B00094F825600020012E06D084F8240002252F
:1014C000284670BD022070BD022684F82560E063C6
:1014D0002068066826F0010606602046FFF726FA17
:1014E000206B00282068016802D041F00E0106E060
:1014F00021F0040101602068016841F00A010160E7
:10150000A06C0168C90303D5016841F480710160D2
:10151000606D18B1016841F4807101602068016854
:1015200041F001010160CBE770B5044600F0FCF822
:101530000546601C02D004484068044400F0F4F8FA
:10154000401BA042FAD370BD580000202DE9FC4F8B
:10155000DFF8A0A1002301250AF1040B03244FF0BA
:101560000F0C0BF1040EBDE005FA03F632406FD00C
:101570004F68012F05D0022F03D0112F01D0122F59
:1015800017D1D0F808905F0004FA07F829EA080993
:101590000097D1F80C8008FA07F848EA0908C0F863
:1015A00008804768B7430E79C6F300169E403E4355
:1015B0004660C6684FEA430804FA08F7BE4301973D
:1015C0008F6807FA08F73743C7604E68022E01D0CC
:1015D000122E13D1DE0800EB86060096366A5F07EE
:1015E000FF0E0CFA07F926EA0906D1F8109009FA5D
:1015F00007F949EA0609009EC6F820900668019F8F
:10160000BE430F7907F0030707FA08F7374307606F
:101610004E68F60065D5384E376E47F001073766DD
:10162000366E23F0030706F001060096334E3E4463
:10163000B146B6689F074FEA17780CFA08F7BE4321
:10164000B0F1904F05D02E4FB84204D1012717E0DA
:1016500047E0002714E02B4FB84201D102270FE0EA
:10166000294FB84201D103270AE0284FB84201D1DF
:10167000042705E0264FB84201D1052700E00627E0
:1016800007FA08F73743C9F80870DAF800605746D8
:10169000D1F8048096435FEAC83800D516433E600F
:1016A000DBF800605F46D1F8048096435FEA883833
:1016B00000D516433E60DEF800607746D1F804801E
:1016C00096435FEAC82800D516433E60094F0C37A1
:1016D0003E68D1F8048096435FEA882800D5164317
:1016E0003E605B1C0A6832FA03F67FF43DAFBDE84A
:1016F000FC8F000000040140001002400000014087
:101700000004004800080048000C00480010004891
:10171000001400480069084000D0012070470AB159
:10172000816170478162704701488068704700009E
:101730005800002002488168426811448160704767
:101740005800002010B50024032000F073F800209A
:1017500000F008F808B1012401E000F025F8204667
:1017600010BD000070B50E4E05460024706898B19B
:101770004FF47A71B1FBF0F00A490968B1FBF0F05F
:1017800000F064FD40B9102D06D200222946501EFB
:1017900000F030F8356000E00124204670BD000004
:1017A00058000020640000200A4882B0016E41F019
:1017B00001010166016E01F001010091816D41F0AE
:1017C00080518165806D00F08050009002B000F083
:1017D000A1B8000000100240002809DB00F01F0241
:1017E000012191404009800000F1E020C0F8001183
:1017F00070470000F0B40E4B1B680C46C3F3022385
:10180000C3F10705042D00D90425191D072901D2AC
:10181000002300E0DB1E012606FA05F1491E2140E7
:1018200099409E40761E16403143F0BC03F098BEAE
:101830000CED00E0064900F0070208684FF6FF03D0
:10184000184040EA0220034A104308607047000035
:101850000CED00E00000FA052B492C4B0A68322100
:101860004A432B4940B1B0F5007F086829D020F4E5
:10187000C06040F480602CE00868C0F3412002287A
:1018800004D051F8800F20F4807022E0D1F880005D
:1018900020F48070C1F88000086820F4C06040F433
:1018A00000700860B2FBF3F0401C00E0401E4A6983
:1018B000520501D50028F9D1486940050AD5032011
:1018C0007047C0F34120022806D051F8800F40F441
:1018D0008070086000207047D1F8800040F480706C
:1018E000C1F88000086820F4C06040F4007008600F
:1018F000B2FBF3F0401C00E0401E4A695205DBD504
:101900000028F9D1D8E700006400002040420F0011
:10191000007000400248816841F480418160704756
:10192000007000402DE9F8430446006800269D4DF4
:1019300000035ED5A86D0027C00008D4A86D40F054
:101940008050A865A86D012700F080500090DFF856
:101950005892D9F8001041F48071C9F80010FFF7CF
:10196000E3FE804606E000BFFFF7DEFEA0EB0800C6
:1019700002282BD8D9F80000C005F5D5D5F890007D
:1019800010F4407014D0216C814211D0D5F8900031
:10199000D5F8901020F4407041F48031C5F89010D3
:1019A000D5F8901021F48031C5F89010C5F890005A
:1019B000C00711D0FFF7B8FE804641F2883907E032
:1019C000FFF7B2FEA0EB0801494501D903260BE061
:1019D000D5F890008007F3D5D5F89000216C20F45D
:1019E00040700843C5F890001FB1A86D20F08050EA
:1019F000A8652078C00707D0D5F88800616820F076
:101A000003000843C5F888002078800707D5D5F87B
:101A10008800A16820F00C000843C5F888002078F1
:101A2000400707D5D5F88800E16820F0300008436A
:101A3000C5F888002078000707D5D5F88800216907
:101A400020F0C0000843C5F888002078800607D53C
:101A5000D5F88800616920F440600843C5F8880023
:101A60002078400607D5D5F88800A16920F44050B9
:101A70000843C5F888002078000607D5D5F8880007
:101A8000E16920F440400843C5F888002088C0057B
:101A900007D5D5F88800216A20F440300843C5F8FE
:101AA00088002088800507D5D5F88800616A20F471
:101AB00040200843C5F88800208840050FD5D5F898
:101AC0008800A16A20F440100843C5F88800A06A85
:101AD000B0F5801F03D1E86840F48010E8602088EA
:101AE00000050FD5D5F88800E16A20F440000843CE
:101AF000C5F88800E06AB0F5800F03D1E86840F4CB
:101B00008010E8602088C0040FD5D5F88800216BCC
:101B100020F040700843C5F88800206BB0F1807F4A
:101B200003D1E86840F48010E86020884FF000613D
:101B300080040ED5D5F88800626B20F04060104319
:101B4000C5F88800606B884203D1E86840F48010D3
:101B5000E860208840040ED5D5F88800A26B20F0FC
:101B600040601043C5F88800A06B884203D1E86844
:101B700040F48010E860208800040FD5D5F8880074
:101B8000E16B20F040500843C5F88800E06BB0F1ED
:101B9000805F03D1E86840F48030E8603046BDE8FB
:101BA000F883000000100240007000402DE9F0476B
:101BB0000E4605004FF0000725D0DFF8AC81D8F8BD
:101BC000000000F00F00B0420CD2D8F8001021F055
:101BD0000F013143C8F80010D8F8000000F00F00E2
:101BE000B04210D12968614CC80741F2883A5AD0F6
:101BF0006868DFF87C91032808D0022820682DD07F
:101C0000400500282CDB0120BDE8F087206880011A
:101C1000F9D5E06800F00302E068C0F30310401C4F
:101C2000032A19D0534A00BFB2FBF0F0E268C2F3B6
:101C300006225043E268C2F34162521C5200B0FBDC
:101C4000F2F0484517D9A06810F0F00F0CD08807C3
:101C500011D5A86840B10EE0474AE5E78003D0E718
:101C600000F0B6F8484506D9A06820F0F00040F032
:101C70008000A0608027A068696820F00300084306
:101C8000A060FFF751FD814606E000BFFFF74CFD65
:101C9000A0EB090151453AD8A068696800F00C0032
:101CA000B0EB810FF2D12868810714D5400703D526
:101CB000A06840F4E060A0602878000705D5A0681F
:101CC00020F4605040F4E060A060A068A96820F0B3
:101CD000F000084304E0802F03D1A06820F0F0005A
:101CE000A060D8F80010404601F00F01B14216D9AB
:101CF000016821F00F0131430160FFF715FD074630
:101D000007E000BFFFF710FDC11B514501D90320BB
:101D10007AE7D8F8000000F00F00B042F2D128783E
:101D2000400705D5A068E96820F4E0600843A0609A
:101D30002878000706D5A068296920F4605040EA99
:101D4000C100A06000F044F8A1680C4AC1F303117F
:101D5000515C01F01F01C84009490860094800684A
:101D6000BDE8F047FFF7FEBC002002400010024033
:101D700000B4C4040024F40000366E01906C000826
:101D80006400002058000020054806490068896862
:101D9000054AC1F30221515C01F01F01C8407047A0
:101DA0006400002000100240A06C000805480649AD
:101DB00000688968054AC1F3C221515C01F01F0126
:101DC000C84070476400002000100240A06C00086A
:101DD000184910B58868C0F381021748012A0BD052
:101DE0008A68164BC2F38102022A06D08A68C2F3BF
:101DF0008102032A03D0002010BD184610BDCA6816
:101E000002F00304CA68C2F30312521C032C02D06E
:101E1000B0FBF2F001E0B3FBF2F0CA68C968C2F3AC
:101E200006225043C1F34161491C4900B0FBF1F067
:101E300010BD0000001002400024F40000366E01C6
:101E40002DE9F84304007AD02078FA4DC00747D036
:101E5000A868E96800F00C0001F003010C2802D02A
:101E6000082817D001E0032914D06068B0F5803F3E
:101E700017D0B0F5A02F286817D020F48030286044
:101E8000286820F4802028606068E0B1FFF74CFCEF
:101E9000064614E02868800322D560680028D2D066
:101EA0001EE0286840F48030EDE740F48020286090
:101EB000F7E700BFFFF738FC801B642870D828685C
:101EC0008003F7D50CE0FFF72FFC064605E000BFC6
:101ED000FFF72AFC801B6428F0D828688003F7D419
:101EE000207880074CD5A868E96800F00C0001F064
:101EF00003010C2802D004280DD001E002290AD0E9
:101F0000E068002828682BD040F480702860FFF734
:101F10000BFC064619E02868400502D5E068002859
:101F200091D06868217C20F0FE4040EA0160686042
:101F3000C1480068FFF716FC002800D120E076E1D8
:101F4000FFF7F2FB801B0228B8D828684005F7D5B8
:101F50006868217C20F0FE4040EA016068600FE084
:101F600020F480702860FFF7DFFB064605E000BF25
:101F7000FFF7DAFB801B0228A0D828684005F7D4B9
:101F80002078000729D560690028D5F8940013D07F
:101F900040F00100C5F89400FFF7C6FB064606E0D6
:101FA00090E000BFFFF7C0FB801B022886D8D5F861
:101FB00094008007F6D510E020F00100C5F89400E9
:101FC000FFF7B2FB064604E0FFF7AEFB801B0228DA
:101FD00078D8D5F894008007F6D42078400761D5EA
:101FE000A86D0026C00008D4A86D40F08050A865F8
:101FF000A86D012600F08050009090480168C90546
:1020000011D40168804641F480710160FFF78CFBB8
:10201000074604E0FFF788FBC01B022852D8D8F817
:102020000000C005F6D5A068012815D00528D5F810
:10203000900016D020F00100C5F89000D5F890006F
:1020400020F00400C5F89000A06841F28838B8B1CB
:10205000FFF76AFB07460EE0D5F8900040F001005C
:10206000F0E740F00400C5F89000F5E7FFF75CFBEF
:10207000C11B414526D8D5F890008007F6D50CE065
:10208000FFF752FB074604E0FFF74EFBC11B41453B
:1020900018D8D5F890008007F6D41EB1A86D20F0AE
:1020A0008050A8652078800629D5A0690028D5F839
:1020B000980013D040F00100C5F89800FFF734FBFA
:1020C000064606E077E000BFFFF72EFB801B0228E4
:1020D00077D8D5F898008007F6D510E020F00100F9
:1020E000C5F89800FFF720FB064604E0FFF71CFB4D
:1020F000801B022865D8D5F898008007F6D4E069DF
:10210000F0B3A968C1F38101032961D002282868CE
:1021100020F0807028600BD0E86820F00300E860B1
:10212000E86847490840E860FFF7FEFA04464BE0DC
:10213000FFF7FAFA064604E0FFF7F6FA801B0228DA
:102140003FD828688001F7D4F4E908016FF00F0246
:1021500002EB01110843218A5204490802EB415164
:10216000A26841EA02210843217D4FF07E424908DE
:1021700002EB41610843217B40EAC160E96800E06D
:1021800062E0304A11400843E860286840F08070FF
:102190002860E86840F08070E860FFF7C5FA044600
:1021A00005E000BFFFF7C0FA001B022809D8286825
:1021B0008001F7D548E004E0FFF7B6FA001B0228DB
:1021C00002D90320BDE8F88328688001F4D43BE0FD
:1021D0000128F7D0E868226A00F00301914226D175
:1021E000616A00F0F0020901103991421FD1A26A20
:1021F00000F4FE41B1EB022F19D194F82C2000F02D
:102200007841B1EBC26F12D1218E00F4C0024908AF
:102210004905A1F50011914209D194F8341000F05C
:10222000C06049084906A1F1007181420CD001202B
:10223000C8E7000000100240580000200070004075
:10224000FFFFEEFE0C809F010020BBE710B5401E93
:10225000B0F1807F01D3012010BD4FF0E024606118
:102260000F21601703F07CF90020A0610720206196
:10227000002010BD70477047704770477047704727
:10228000F0B590F83C20012A3AD0012580F83C5066
:10229000022280F83D2003685A689C68194E1A4F44
:1022A000B34201D0BB4204D122F4700C4A6842EA26
:1022B0000C02DFF858C002EA0C02D1F800C04CEA68
:1022C000020CC3F804C00268B2420DD0B2F1804FD4
:1022D0000AD00F4B9A4207D00E4B9A4204D0BA4212
:1022E00002D00D4B9A4204D1896824F0800319432F
:1022F000916080F83D50002180F83C100846F0BD08
:102300000220F0BD002C0140003401408FFFFFFD92
:10231000000400400008004000400140704710B534
:10232000040003D094F83D0010B107E0012010BD77
:10233000002084F83C00204600F022F8022084F8B7
:102340003D00211D206802F0C7F8012084F84800F4
:1023500084F83E0084F83F0084F8400084F841008F
:1023600084F8420084F8430084F8440084F845006F
:1023700084F8460084F8470084F83D00002010BD32
:1023800030B587B0054614216846FDF779FF2A6805
:102390003849B2F1804F25D0374C00208023A2422B
:1023A0002FD18A6D42F002028A65896D344C01F0AA
:1023B00002010591314921603E2161601021C4E98B
:1023C00002104901C4E904314900C4E90610206241
:1023D0002046FFF703F808B1FEF7D6FAAC62A56213
:1023E00007B030BD886D40F001008865886D00221F
:1023F00000F00100059011461C20FFF7FBF91C209E
:1024000010E0204CA24210D1886D40F01000886589
:10241000886D002200F01000059011463620FFF76D
:10242000E9F93620FFF7D8F9DAE7174CA242D7D1FD
:102430000A6E42F480220A660A6E02F48022059235
:10244000CA6C42F00102CA64C96C009301F0010138
:1024500005910221CDE90110039001200490694605
:102460002004FFF773F8002211461A20FFF7C2F983
:102470001A20D7E700100240000400400800024084
:1024800020120020001000400048014090F83D104C
:10249000012901D001207047022180F83D10016818
:1024A000CA6842F00102CA600068104988420ED032
:1024B000B0F1804F0BD00E49884208D00D498842B8
:1024C00005D00D49884202D00C49884207D1816865
:1024D0000B4A1140062906D0B1F5803F03D00168B0
:1024E00041F001010160002070470000002C014014
:1024F000000400400008004000340140004001405A
:102500000700010070B5044690F83C00012814D083
:10251000012584F83C50022084F83D002268906830
:10252000344B184020F47F4090600868702827D012
:1025300010DC10F00F0F03D04AE04FF0020070BD26
:102540004FEA2012072A43D2DFE802F050505050E1
:1025500048313900284BC21A984247D009DCB0F5FF
:10256000805F35D0B0F5005F15D0B0F1101F2FD1CE
:102570003CE0102A3AD0202A38D0502A28D135E021
:10258000CB68D1E90121206802F080F820688168D9
:1025900041F0770109E0CB68D1E90121206802F020
:1025A00075F82068816841F48041816010E0CA6854
:1025B0004968206802F014FA5021206806E0CA68D1
:1025C0004968206802F054FA6021206802F068F837
:1025D00084F83D50002084F83C0070BDCA6849680A
:1025E000206802F0FDF940212068EFE722680146EB
:1025F0001046EBE788FFCEFF200010007047000078
:1026000070B5234D01682A6891422AD1007F0128C4
:1026100027D1204CE07828B3012822D10021284678
:1026200000F06BFC60812868016A21F00A010162F8
:102630002868016A01620021284600F0E7F86089F5
:1026400021898842A0EB010001D200F5803080B2E0
:10265000E08000EB00106421B0FBF1F0A0700020DE
:10266000E07070BD00210A4800F047FC2081286816
:10267000016A21F00A0101622868016A41F0020141
:1026800001620421024800F0C1F80120E8E70000DF
:10269000D4110020400000202DE9F041054690F8BB
:1026A0003C000C46012836D0012085F83C008AB356
:1026B000042A42D02868082A51D0D4E90023E168CE
:1026C000066A26F480560662C669076A26F44076D2
:1026D00046EA03234FF6FF7606EA013123F47043FE
:1026E00019434FF4204627F4204306EA02321A43E6
:1026F000C16102622868C16921F44061C161286832
:10270000C169A26841EA0221C161002085F83C004C
:10271000BDE8F08101E00220FAE7D4E90012E368A5
:10272000286802F06FF92868816921F00C01816145
:1027300028688169A26811430FE0D4E90012E368B8
:10274000286802F0A7F92868816921F44061816155
:1027500028688169A26841EA02218161D5E7D4E94C
:102760000027267B016A21F480710162C169036A36
:1027700021F00301394321F0F00731074FF42066BF
:1027800047EA116123F4206306EA02221A43C16179
:1027900002622868C16921F00C01C1612868C16921
:1027A000A2681143B0E710B5040003D094F83D00CF
:1027B00010B107E0012010BD002084F83C00204645
:1027C00000F022F8022084F83D00211D206801F06D
:1027D00083FE012084F8480084F83E0084F83F001E
:1027E00084F8400084F8410084F8420084F84300F3
:1027F00084F8440084F8450084F8460084F84700D3
:1028000084F83D00002010BD7047000010B504465C
:1028100079B1042912D0082915D00C2918D0102913
:1028200019D094F8430000BF94F84720012817D12D
:1028300014E094F83E0094F84420F7E794F83F0041
:1028400094F84520F2E794F8400094F84620EDE72C
:1028500094F84100E8E794F84200E5E7012A01D046
:10286000012010BD022071B1042915D008291CD007
:102870000C2948D0102949D084F8430084F8470037
:102880000C291BD145E084F83E0084F84400206800
:10289000C26842F0020210E084F83F0084F845006C
:1028A0002068C26842F0040207E084F8400084F81F
:1028B00046002068C26842F00802C2600122206817
:1028C00001F062FE1549206888420ED0B0F1804FB9
:1028D0000BD01349884208D01249884205D01249CA
:1028E000884202D01149884207D18168104A1140BC
:1028F000062906D0B1F5803F03D0016841F00101FF
:102900000160002010BD84F84100B7E784F8420060
:10291000B4E72068C26842F01002CEE7002C014004
:102920000004004000080040003401400040014025
:102930000700010070B50446006801694FF000050A
:10294000C943890715D4C168C943890711D4E91E51
:10295000016101202077206880698007204602D02D
:10296000FFF74EFE04E000F00BF9204600F0CAF934
:10297000257720680169C943490717D4C168C9434D
:10298000490713D46FF00401016102202077206809
:10299000806910F4407F204602D0FFF731FE04E04A
:1029A00000F0EEF8204600F0ADF9257720680169C7
:1029B000C943090716D4C168C943090712D46FF087
:1029C00008010161042020772068C0698007204643
:1029D00002D0FFF715FE04E000F0D2F8204600F028
:1029E00091F9257720680169C943C90617D4C168E0
:1029F000C943C90613D46FF0100101610820207784
:102A00002068C06910F4407F204602D0FFF7F8FD2F
:102A100004E000F0B5F8204600F074F9257720684E
:102A20000169C943C90708D1C168C943C90704D1AD
:102A3000891E0161204600F05FFA20680169C943E0
:102A4000090609D4C168C943090605D46FF080019D
:102A500001612046FFF70FFC20680169C943C905E1
:102A600009D4C168C943090605D46FF480710161B6
:102A70002046FFF7FFFB20680169C943490609D4D6
:102A8000C168C943490605D46FF040010161204681
:102A900000F048FA20680169C943890609D4C16871
:102AA000C943890605D46FF0200101612046FFF774
:102AB000E3FB20680169C943C90209D4C168C9435D
:102AC000C90205D46FF4801101612046FFF7D6FBDF
:102AD00020680169C943890209D4C168C9438902D0
:102AE00005D46FF4001101612046FFF7C6FB206892
:102AF0000169C943490209D4C168C943490205D4DF
:102B00006FF4800101612046FFF7B9FB206801697D
:102B1000C94309020BD4C168C943090207D46FF441
:102B2000000101612046BDE87040FFF7F7BB70BDB2
:102B300010B586B0044614216846FDF7A1FB0E4986
:102B40002068884215D10D48C16C41F00101C16473
:102B5000C06C002100F001000590102000900220C0
:102B6000CDE90101CDE9031069464FF09040FEF731
:102B7000EDFC06B010BD0000000400400010024053
:102B8000704770B5044690F83C000D4601280BD004
:102B9000012084F83C000C2A45D007DC5AB1042AF5
:102BA0001BD0082A78D12CE0022070BD102A4ED00C
:102BB000142A71D15DE0206801F07CFD20688169F4
:102BC00041F0080181612068816921F0040181617F
:102BD000206881692A69114311E0206801F0B8FD7D
:102BE0002068816941F4006181612068816921F474
:102BF00080618161206881692A6941EA02218161DD
:102C00004AE0206801F0ECFD2068C16941F008014C
:102C1000C1612068C16921F00401C1612068C169F6
:102C20002A69114311E0206801F022FE2068C16981
:102C300041F40061C1612068C16921F48061C16112
:102C40002068C1692A6941EA0221C16124E0206843
:102C500001F056FE2068016D41F008010165206811
:102C6000016D21F0040101652068016D2A6911439D
:102C700011E0206801F07CFE2068016D41F40061E4
:102C800001652068016D21F4806101652068016D96
:102C90002A6941EA02210165002084F83C0070BDE8
:102CA00010B5040003D094F83D0010B107E00120F6
:102CB00010BD002084F83C00204600F022F80220DD
:102CC00084F83D00211D206801F006FC012084F8F5
:102CD000480084F83E0084F83F0084F8400084F8FF
:102CE000410084F8420084F8430084F8440084F8EA
:102CF000450084F8460084F8470084F83D00002031
:102D000010BD7047704770472DE9F04116460D0021
:102D1000044610D0042D15D0082D1AD00C2D1FD02C
:102D2000102D24D094F84300022827D094F84300B3
:102D3000012826D077E094F83E0002281ED094F8AF
:102D40003E00F5E794F83F00022817D094F83F00C2
:102D5000EEE794F84000022810D094F84000E7E72E
:102D600094F84100022809D094F84100E0E794F873
:102D70004200022802D094F84200D9E70220BDE8C0
:102D8000F08106B97BBB5149514A524F022055B1DF
:102D9000042D18D0082D27D00C2D35D0102D44D05F
:102DA00084F843004EE084F83E00606AC162606AC5
:102DB00031460263606A47632268606A3432FEF714
:102DC0006DFB80B934E084F83F00A06AC162A06A5C
:102DD00031460263A06A47632268A06A3832FEF770
:102DE0005DFB00B929E01EE084F84000E06AC162A2
:102DF000E06A31460263E06A47632268E06A3C3277
:102E0000FEF74CFB78B956E084F84100206BC162B4
:102E1000206B31460263206B47632268206B40328F
:102E2000FEF73CFBE8B30120A9E784F8420009E083
:102E30002068C16841F4007103E02068C16841F472
:102E40008061C16001222946206801F09DFB224972
:102E50002068224A224B884209D0904207D09842EB
:102E600005D0204DA84202D01F4DA84203D1456C89
:102E700045F400454564206888420CD0B0F1804F8D
:102E800009D01A49884206D01949884203D0904295
:102E900001D0984209D18168164A1140062908D00C
:102EA00000E00DE0B1F5803F03D0016841F0010181
:102EB0000160002063E72068C16841F40061C0E759
:102EC0002068C16841F48051BBE70000A3450008B9
:102ED0000146000839460008002C0140003401403A
:102EE000004001400044014000480140000400400F
:102EF000000800400700010070470246002041B171
:102F0000042909D008290AD00C2901D11068006CC5
:102F100070471068406B70471068806B704710688E
:102F2000C06B7047704790F88010012918D00121BC
:102F300080F880102421C0F8841050F8641B0A68BF
:102F40000B6823F001030B6022F0005100220260A5
:102F500050F8643C196020210162027710467047E6
:102F6000022070477047704770B5044690F88000A3
:102F700001281DD0012084F880002420C4F884009A
:102F800020680568026822F00102026020688268F9
:102F900022F060620A438260204601F097FD2068BB
:102FA00005602020C4F88400002084F8800070BDF3
:102FB000022070BD70B5044690F8800001281DD035
:102FC000012084F880002420C4F88400206805686B
:102FD000026822F0010202602068826822F06042EA
:102FE0000A438260204601F071FD206805602020C0
:102FF000C4F88400002084F8800070BD022070BDF9
:1030000070477047704700002DE9F041036804469F
:10301000D86919689A6840F60F0528424FF00005F4
:1030200009D186067ED501F0200602F080573E4386
:1030300078D0216FFFE0924E924F16400F403743F9
:1030400070D0C70709D0CF0507D501271F62D4F874
:103050008C3043F00103C4F88C3083070AD5D307C2
:1030600008D0276802233B62D4F88C3043F0040375
:10307000C4F88C3043070AD5D30708D02768042347
:103080003B62D4F88C3043F00203C4F88C30030761
:103090000CD501F02003334308D02668082333629F
:1030A000D4F88C3043F00803C4F88C3003050BD5FA
:1030B0004B0109D526684FF400633362D4F88C3095
:1030C00043F02003C4F88C30D4F88C30002B34D07B
:1030D000800609D501F0200002F08051084303D09A
:1030E000216F09B120468847D4F88C00216889688F
:1030F000490602D410F0280F21D0204601F0A6FD89
:1031000020688168490615D5816821F040018160F9
:10311000E06F78B15C498163E06FFEF7C5F8002885
:103120000BD000E011E0E06F816B00E02046BDE8CD
:10313000F04108472046FFF765FFBDE8F0812046D3
:10314000FFF760FFC4F88C50F7E7E76E2026012FE9
:103150005CD1C7065AD5CF0658D510201862206812
:10316000816849062FD5E26F116849680904090C86
:10317000E3D0B4F85C308B42DFD9A4F85E1011685C
:103180000968890618D4016821F4807101602068FB
:10319000816821F0010181602068816821F040018F
:1031A0008160C4F88860E5662068016821F010013C
:1031B0000160E06FFEF743F8B4F85C00B4F85E100D
:1031C000401A81B21EE0B4F85C10B4F85E20891A8F
:1031D000B4F85E2089B2002AAFD00029ADD00268D1
:1031E00022F49072026020688268254BDB431A400B
:1031F0008260C4F88860E56625672068026822F06E
:10320000100202602046FFF7ADFE96E7C70209D51F
:10321000570207D54FF4801018622046BDE8F041F0
:10322000FFF7EFBE07060AD501F0800702F400029F
:10323000174304D0616F00297FF478AF7DE7420621
:103240000CD54A060AD51968204621F040011960BC
:10325000C4F88460656700F027F96EE7020206D5BE
:103260004A0004D52046BDE8F041FFF7C9BEC001C1
:10327000CBD50029C9DA2046BDE8F041FFF773BE7F
:103280000100001020010004394C000810B50400B2
:1032900003D0D4F8840010B107E0012010BD002055
:1032A00084F88000204600F027F82420C4F8840029
:1032B0002068016821F001010160204601F09EFEB6
:1032C0000128EBD0A06A10B1204601F021FC206853
:1032D000416821F4904141602068816821F02A0111
:1032E00081602068016841F0010101602046BDE86D
:1032F000104001F071BC000030B587B004461421C5
:103300006846FCF7BDFF2468284D002128480223A9
:103310000722AC4221D1846D44F400348465846D6D
:1033200004F400340594C46C44F00104C464C06C1B
:1033300000F0010005900C200090CDE90131CDE9AD
:10334000031269464FF09040FEF700F90022114643
:103350002620FEF74FFA262023E0164DAC4222D15C
:10336000846D44F480248465846D04F48024059481
:10337000C46C44F00204C464C06C00F00200059008
:103380004FF440600090CDE90131CDE90312694668
:103390000948FEF7DBF8002211462720FEF72AFA3B
:1033A0002720FEF719FA07B030BD000000440040A6
:1033B00000100240004800400004004810B4D0F85B
:1033C0008830202B1BD1B9B1B2B190F88030012BDD
:1033D00015D0012380F880300023C366094C0368B0
:1033E000A34206D05C68240203D51C6844F08064C4
:1033F0001C6010BC01F03CBF012010BC70470220D3
:10340000FBE700000080004070470000D0F88430E7
:10341000202B3ED149B342B390F88030012B38D0F5
:10342000012380F880300165A0F85420A0F85620D0
:1034300000214167C0F88C102122C0F88420436E1F
:103440004FF48052B3F1005F836810D0934201D1F2
:103450000269E2B1104A426780F880100068016892
:1034600041F08001016000207047012070479342C5
:1034700001D102694AB1094A426780F880100068A8
:10348000816841F400018160EDE7054AF4E7054AEF
:10349000E1E7022070470000E553000825540008CA
:1034A0008D530008495300087047FEE700B585B00A
:1034B00014216846FCF7E4FE4FF6FF7000900020F0
:1034C0000321CDE90201019069460248FEF73EF86A
:1034D00005B000BD0008004800B585B0142168465D
:1034E000FCF7CEFE4FF6FF70009001200190032004
:1034F00003900020029069460248FEF727F805B0C5
:1035000000BD00000008004870B5002406462146B2
:10351000204600F003F900F071F94FF4963530467B
:1035200000F040F9641CAC42F9D370BD70B586B0B0
:1035300014216846FCF7A4FE1E48C16C41F004014A
:10354000C164C16C01F004010591C16C41F001013D
:10355000C164C16C01F001010591C16C41F002012F
:10356000C164C06C032500F0020005904FF4487060
:103570000124002603958DE8510069460E48FDF7A9
:10358000E5FF200203958DE851004FF09044694615
:103590002046FDF7DBFFFFF79FFFA06940F4807036
:1035A000A06105481830016841F40871016006B057
:1035B00070BD00000010024000040048203AD2B262
:1035C000034B02EB420203EB021200F019B80000B9
:1035D000985A0008F0B50E460746002540F23F1401
:1035E00007E021463846FFF7E9FF103C6D1CA4B206
:1035F000761C3278002A01D0142DF2D3F0BD0000E1
:103600002DE9F04791468A460026044600F086F8E8
:10361000DFF84080012700BF00F0F0F85FF0000500
:1036200039F8160007FA05F10842404601D14088F2
:1036300000E0008800F0B6F86D1C102DF0D3641C7B
:10364000E4B25146204600F069F8761C182EE3D308
:10365000BDE8F0873600002010B5FFF767FF0020B7
:1036600000F014F8084CA080A088A0F50241303981
:1036700006D000F051FD002000F008F8A08010BD39
:1036800000F0C1FCF7E700003600002070B51D49CE
:103690000A6842F400720A600A6842F480720A60A2
:1036A000184C103C226842F020022260164A10603A
:1036B000086840F02000086000BF00BF00BF20681D
:1036C00040F020002060206840F480702060FFF708
:1036D000EDFE4FF09041886A40F48070886200BF30
:1036E00000BF00BF0848001F006885B2886940F429
:1036F00080708861FFF7F0FE206840F40070206061
:10370000284670BD280400481408004801B5BDF8DB
:1037100000000149488008BD3600002010B50C4665
:103720000146202000F098F82146BDE810402120F5
:1037300000F092B801B5BDF800000149088008BD4D
:10374000360000203EB50F4D4FF480412846FDF76E
:10375000E1FF044602212846FDF7DCFF02460A4845
:1037600083788188C0688DE80B00234607A10C4848
:1037700001F0E2FE03B00A49BDE830409020FFF7B7
:1037800029BF0000000400484000002025642C25CB
:10379000642C25642C256425252C2564636D00008C
:1037A00028100020134A116841F40071116011497A
:1037B00010390B6843F480730B600B6843F02003EF
:1037C0000B600D4B1860106840F02000106000BFC7
:1037D00000BF00BF086840F020000860086840F49F
:1037E0008070086000BF00BF00BF086840F4007030
:1037F0000860704728040048140800481449086805
:1038000040F400700860086840F480700860104858
:103810001038026842F0200202600E4B22221A6029
:103820000A6842F020020A6000BF00BF00BF0168C2
:1038300041F020010160016841F48071016000BF26
:1038400000BF00BF016841F40071016070470000D3
:103850002804004814080048184B10B51A6842F4B0
:1038600000721A601A6842F480721A60134A103AA1
:10387000146844F020041460114C2060186840F073
:103880002000186000BF00BF00BF106840F020009B
:103890001060106840F4807010602160186840F07B
:1038A0002000186000BF00BF00BF106840F020007B
:1038B0001060106840F48070106010BD280400484B
:1038C0001408004803480168034A12881143016044
:1038D00000F04EB9140800480000002030B5784CC4
:1038E0002DED108B81B09FED778B9FED789B9FED39
:1038F00079AB9FED7ABB9FED7BCB9FED7CDB9FEDA2
:103900007DEB7E4D9FED7EFB9FED7F0B53EC102BEF
:1039100095ED040B51EC100BFCF71CFE0DD295ED50
:10392000040B53EC182B51EC100BFCF7FBFD04D8E7
:10393000608AADF80000207DB7E095ED040B53ECF4
:10394000182B51EC100BFCF705FE0ED295ED040B75
:1039500053EC192B51EC100BFCF7E4FD05D8B4F82F
:103960001500ADF80000E07D9FE095ED040B53ECF1
:10397000192B51EC100BFCF7EDFD0DD295ED040B5E
:1039800053EC1A2B51EC100BFCF7CCFD04D8208B18
:10399000ADF80000A07E88E095ED040B53EC1A2BE7
:1039A00051EC100BFCF7D6FD0BD295ED040B53EC4C
:1039B0001B2B51EC100BFCF7B5FD02D834F8270F88
:1039C0002BE095ED040B53EC1B2B51EC100BFCF78B
:1039D000C1FD0ED295ED040B53EC1C2B51EC100BDA
:1039E000FCF7A0FD05D8A08CADF8000094F82600E7
:1039F0005BE095ED040B53EC1C2B51EC100BFCF72A
:103A0000A9FD0ED295ED040B53EC1D2B51EC100BC0
:103A1000FCF788FD05D834F8210FADF80000A07838
:103A200043E095ED040B53EC1D2B51EC100BFCF710
:103A300091FD0ED295ED040B53EC1E2B51EC100BA7
:103A4000FCF770FD05D8B4F81B00ADF80000607FEE
:103A50002BE095ED040B53EC1E2B51EC100BFCF7F7
:103A600079FD0ED295ED040B53EC1F2B51EC100B8E
:103A7000FCF758FD05D8E08BADF8000094F8200065
:103A800013E095ED040B53EC1F2B51EC100BFCF7DE
:103A900061FD05D2608DADF8000094F82C0004E0C3
:103AA0001B480188ADF8001080788DF8020000985E
:103AB00001B0BDEC108BBDE8304000F0A1BC0000AF
:103AC00005000020CDCCCCCCCCCCFC3F00000000CD
:103AD000000000409A999999999901403333333302
:103AE00033330340CDCCCCCCCCCC04406666666688
:103AF000666606400000000000000840400000200C
:103B00009A999999999909409A9999999999F93F06
:103B10000200002000EB8100006E00F0F8407047CA
:103B20008068C0F3C00070478068C0F380007047B1
:103B3000C06810F4406F01D000207047012070472A
:103B4000042303EAD15310B518444369C1F3045167
:103B500007248C40A3438A401343436110BD00EB0C
:103B60008100016E21F000411143016670470000A1
:103B700010B5064C012204212046FDF7D0FD204659
:103B80000022BDE810400421FDF7C9BD000C00482B
:103B900030B589B020216846FCF772FB19481849F6
:103BA000002401604902C0E90114C46004250461D5
:103BB000C0E90545047744770121016280F824407B
:103BC000C462046380F83840C46380F84040FDF765
:103BD000F3F808B1FCF7D8FE0B48009006200190DE
:103BE00002907F200594CDE9030569460548FCF75E
:103BF000CDFE002801D0FCF7C7FE09B030BD0000A3
:103C00000001005084100020002090360D4808B5B7
:103C1000816C41F004018164816C01F00401009128
:103C2000816C41F001018164806C002200F0010090
:103C3000009011460B20FDF7DDFDBDE808400B208C
:103C4000FDF7CABD001002402DE9F04786B01421EF
:103C50006846FCF715FB4648C16C41F00401C1649D
:103C6000C16C01F004010591C16C41F02001C164F7
:103C7000C16C01F020010591C16C41F00101C164EA
:103C8000C16C01F001010591C16C41F00201C164F8
:103C9000C16C01F002010591C16C41F00801C164E1
:103CA000C06C344E00F008004FF47F4405900022B1
:103CB00021463046FDF733FD4FF090490022402168
:103CC0004846FDF72CFDDFF8B0804FF4C0470022D6
:103CD00039464046FDF723FDDFF8A0A0002204216D
:103CE0005046FDF71CFD0125CDE900450024029456
:103CF000694630460394FDF729FC0226CDE90064AD
:103D0000694648460294FDF721FC40200090CDE929
:103D10000154694648460394FDF718FC2803CDE991
:103D20000004694640460294FDF710FC0097CDE977
:103D30000154694640460394FDF708FCE8038DE80A
:103D4000510069464046FDF701FCB8108DE851006E
:103D500069464846FDF7FAFB04200090CDE901547E
:103D6000694650460394FDF7F1FB06B0BDE8F087C5
:103D7000001002400008004800040048000C004801
:103D80001FB500241648009401940294134903942B
:103D9000016040F21F31C0E901144FF6FF71C0E924
:103DA000031444618461FEF7BAFA08B1FCF7ECFD34
:103DB0000B48FEF7F8FC08B1FCF7E6FD0120CDE961
:103DC000004002940022694605480394FEF764FC13
:103DD000002801D0FCF7D8FD1FBD000000480140BD
:103DE000D411002010B588B0002418480094019424
:103DF00002940394049405944FF08041069401606A
:103E000041F63F71C0E9011442F20F71C0E9031499
:103E100080218161FEF783FA08B1FCF7B5FD4FF40C
:103E20008050009069460948FEF76CFB08B1FCF72A
:103E3000ABFD049404A905480694FEF721FA002876
:103E400001D0FCF7A1FD08B010BD0000F01000206B
:103E500010B58EB000240794089409940A940B942A
:103E60000C941C2168460D94FCF70AFA1D481C4965
:103E7000C0E900146321C0E902418021046181612D
:103E8000FEF74DFA08B1FCF77FFD4FF48050079024
:103E900007A91448FEF736FB08B1FCF775FD114879
:103EA000FEF7FEFE08B1FCF76FFD0B940BA90D4861
:103EB0000D94FEF7E5F908B1FCF766FD6020CDE949
:103EC000000402940422694606480494FEF759FE51
:103ED00008B1FCF759FD0348FEF72AFE0EB010BDED
:103EE000000400403C1100203EB500240F4800941F
:103EF00001940D49029401604F21C0E9011440F280
:103F0000F311C16080218161FEF709FA08B1FCF765
:103F10003BFD0094694605480294FEF7B1F900287C
:103F200001D0FCF731FD3EBD00100040881100209B
:103F3000184810B5164901604FF4E1314160002185
:103F400081600C22C160C0E904128161C16101621B
:103F500041628162FFF79AF908B1FCF715FD002173
:103F60000C48FFF727F808B1FCF70EFD00210948BF
:103F7000FEF7FAFF08B1FCF707FD0648FEF7D3FF8E
:103F8000002803D0BDE81040FCF7FEBC10BD0000C7
:103F90000044004080120020184810B51649016006
:103FA0004FF4E1314160002181600C22C160C0E921
:103FB00004128161C161016241628162FFF766F9A9
:103FC00008B1FCF7E1FC00210C48FEF7F3FF08B153
:103FD000FCF7DAFC00210948FEF7C6FF08B1FCF740
:103FE000D3FC0648FEF79FFF002803D0BDE8104031
:103FF000FCF7CABC10BD00000048004010130020B0
:10400000FEE7FEE7704730B501210020FFF724FCF2
:104010004FF47A70FCF7AAFC00210120FFF71CFC8A
:1040200041F290711020FFF717FC4FF41C516020F3
:10403000FFF712FC01216120FFF70EFC0221462050
:10404000FFF70AFC48F210011320FFF705FC48F2C5
:10405000FE011220FFF700FC4FF4A0610220FFF7E1
:10406000FBFB41F230010320FFF7F6FB40F2033483
:1040700021463020FFF7F0FB21463120FFF7ECFB13
:1040800021463220FFF7E8FBE51E29463320FFF7E3
:10409000E3FB03213420FFF7DFFB21463520FFF748
:1040A000DBFB14213620FFF7D7FB21463720FFF733
:1040B000D3FB21463820FFF7CFFB21463920FFF7FD
:1040C000CBFB29463A20FFF7C7FB03213B20FFF734
:1040D000C3FB21463C20FFF7BFFB4FF4A0513D201E
:1040E000FFF7BAFB4FF400719220FFF7B5FB2146B2
:1040F0009320FFF7B1FB40F60D019020FFF7ACFBDA
:1041000041F218010320FFF7A7FBBDE8304040F261
:1041100073110720FFF7A0BB10B543F20801E3209D
:10412000FFF79AFB1221E720FFF796FB41F23121BE
:10413000EF20FFF791FB00210120FFF78DFB4FF4EB
:10414000E0610220FFF788FB41F230010320FFF716
:1041500083FB00210420FFF77FFB40F207210820AA
:10416000FFF77AFB00210920FFF776FB00210A20E8
:10417000FFF772FB00210C20FFF76EFB00210D20E2
:10418000FFF76AFB00210F20FFF766FB00211020DC
:10419000FFF762FB07211120FFF75EFB00211220D1
:1041A000FFF75AFB00211320FFF756FBC820FDF74D
:1041B000BBF941F290611020FFF74EFB40F227213E
:1041C0001120FFF749FB3220FDF7AEF91D21122027
:1041D000FFF742FB3220FDF7A7F94FF400611320EF
:1041E000FFF73AFB14212920FFF736FB0B212B2088
:1041F000FFF732FB3220FDF797F900212020FFF76F
:104200002BFB00212120FFF727FB07213020FFF7A0
:1042100023FB40F207713120FFF71EFB06213220FD
:10422000FFF71AFB40F204713520FFF715FB41F64A
:1042300004713620FFF710FB04213720FFF70CFB39
:1042400000213820FFF708FB40F206713920FFF704
:1042500003FB40F201713C20FFF7FEFA0F213D20E5
:10426000FFF7FAFA00215020FFF7F6FAEF2151206C
:10427000FFF7F2FA00215220FFF7EEFA40F23F1169
:104280005320FFF7E9FA4FF41C516020FFF7E4FADE
:1042900001216120FFF7E0FA00216A20FFF7DCFA34
:1042A00000218020FFF7D8FA00218120FFF7D4FAFF
:1042B00000218220FFF7D0FA00218320FFF7CCFAFB
:1042C00000218420FFF7C8FA00218520FFF7C4FAF7
:1042D00010219020FFF7C0FA00219220FFF7BCFACE
:1042E00003219320FFF7B8FA4FF488719520FFF768
:1042F000B3FA00219720FFF7AFFA00219820FFF7CB
:10430000ABFA41F218010320FFF7A6FABDE810400E
:1043100040F273110720FFF79FBA000030B400216C
:104320000D4B0A4601EB4104002003EB441400BF8F
:1043300004EB8005401CC0B2C5F8402B1828F7D309
:10434000491CC9B20A29EDD330BC4FF47073024A3C
:1043500004210248FEF7D8BC680000203C11002070
:1043600070B516460D46044605E03146204600F07D
:1043700005F8641CE4B2AC42F7D970BD30B51E2814
:104380003BD81E4C002300EB4000C1F3072501225F
:1043900004EB4014C3F1070002FA00F0054201D01B
:1043A000422000E0212044F823005B1CDBB2082BF4
:1043B000F0D308205FFA81F3C0F10F0502FA05F58A
:1043C0002B4201D0422500E0212544F82050401C1A
:1043D000C0B21028F0D31020C1F30741C0F1170379
:1043E00002FA03F3194201D0422300E0212344F8EA
:1043F0002030401CC0B21828F0D330BD6800002027
:1044000010B502461E210020FFF7AAFFBDE81040AC
:10441000FFF784BF7047FDF78DB910B5A4B0382100
:104420006846FBF72DFF14211FA8FBF729FF442145
:104430000EA8FBF725FF4FF40070FDF70DFA0120E1
:1044400000900004019002200324CDE90704142108
:10445000CDE90A100C900D9009946846FDF7F0FC28
:1044600008B172B6FEE70F20CDE91F0400242194A5
:10447000229402211FA82394FDF798FB08B172B67D
:10448000FEE748F206000E904FF000501D90109489
:1044900011940EA8FDF746FA002801D072B6FEE787
:1044A00024B010BD0248016841F4700101607047FA
:1044B00088ED00E00148FEF73DBA0000D41100206D
:1044C0000148FEF737BA0000F01000200148FEF75F
:1044D00031BA0000881100202DE9F0430268234B17
:1044E000234D244E244C4FF08049984207D0484534
:1044F00005D0A84203D0B04201D0A04203D122F09F
:1045000070074A683A431D4FDFF874C0DFF87480C3
:1045100098420DD048450BD0A84209D0B04207D0F0
:10452000A04205D0B84203D0604501D0404503D138
:1045300022F44075CA682A434D6922F080022A435A
:1045400002608A68C2620A688262984207D0A0420A
:1045500005D0B84203D0604501D0404501D109697A
:10456000016301214161BDE8F0830000002C01409E
:1045700000040040000800400034014000400140B9
:10458000004401400048014010B501F01F03012123
:10459000046A99408C430462016A9A4011430162A3
:1045A00010BD10B5846A0121626A824205D121776B
:1045B000C069F8B984F83E101CE0A26A824206D1B4
:1045C00002222277C069A8B984F83F1012E0E26A9B
:1045D000824206D104222277C06958B984F840107B
:1045E00008E0226B824205D108222277C06908B90F
:1045F00084F841102046FEF785FB0020207710BD8F
:1046000010B5846A616A814201D101200DE0A16A7E
:10461000814201D1022008E0E16A814201D10420F7
:1046200003E0216B814201D1082020772046FEF76C
:104630006AFB0020207710BD10B5846A0121626AF0
:10464000824203D1217784F83E1019E0A26A8242A7
:1046500004D10220207784F83F1011E0E26A824200
:1046600004D10420207784F8401009E0226B8242B4
:1046700004D10820207784F8411001E084F83D102F
:104680002046FDF7BBFF0020207710BD10B58468E1
:1046900042EA032224F47F440A432243826010BD8D
:1046A0008268034B1A400A4342F007018160704759
:1046B0008FFFCFFF2DE9F043026A22F00102026270
:1046C000056A436882691C4C25F0020522400C688B
:1046D00022F0030214438A68194E2A43174D194FDA
:1046E000DFF864C0DFF86490A84207D0B04205D07C
:1046F000B84203D0604501D0484506D122F00808F1
:10470000CA6842EA080222F00402A84207D0B04276
:1047100005D0B84203D0604501D0484505D14D6968
:1047200023F440731D438B692B43436084614968C4
:1047300041630262BDE8F0838FFFFEFF002C014061
:104740000034014000400140004401400048014065
:10475000F0B5026A22F010020262056A42688369BB
:10476000194C1B4E23400C6823F4407343EA042485
:1047700025F020038D6843EA0513144DA84201D0AB
:10478000B04206D1CF6823F0800343EA071323F039
:104790004003A8420AD0B04208D00E4DA84205D02E
:1047A0000D4DA84202D00D4DA84207D14D6922F40B
:1047B000406242EA85028D6942EA85024260846174
:1047C000496881630362F0BDFF8FFFFE002C01404A
:1047D00000340140004001400044014000480140D5
:1047E000F0B5026A22F480720262056A4368C26907
:1047F000194C1B4E22400C6822F00302144325F48E
:1048000000728D6842EA0522144DA84201D0B042E0
:1048100006D1CF6822F4006242EA072222F48062C5
:10482000A8420AD0B04208D00E4DA84205D00E4D85
:10483000A84202D00D4DA84207D14D6923F4405340
:1048400043EA05138D6943EA05134360C46149686F
:10485000C1630262F0BD00008FFFFEFF002C01402B
:104860000034014000400140004401400048014044
:10487000F0B5026A22F480520262056A4268C36996
:10488000194C1B4E23400C6823F4407343EA042464
:1048900025F400538D6843EA0533144DA84201D036
:1048A000B04206D1CF6823F4004343EA073323F430
:1048B0008043A8420AD0B04208D00E4DA84205D08D
:1048C0000D4DA84202D00D4DA84207D14D6922F4EA
:1048D000404242EA85128D6942EA85124260C46113
:1048E000496801640362F0BDFF8FFFFE002C0140A8
:1048F00000340140004001400044014000480140B4
:1049000030B5026A22F480320262046A4268036DA2
:10491000114D2B400D681D4324F400330C8943EAEC
:1049200004430E4CA0420BD00D4CA04208D00D4CBD
:10493000A04205D00C4CA04202D00C4CA04204D1A5
:104940004C6922F4803242EA0422426005654968DB
:104950008164036230BD00008FFFFEFF002C014028
:104960000034014000400140004401400048014043
:1049700030B5026A22F480120262046A4268036D52
:10498000114D24F400142B400D6843EA05230D89D2
:1049900044EA05540D4DA8420BD00D4DA84208D055
:1049A0000C4DA84205D00C4DA84202D00B4DA84298
:1049B00004D14D6922F4802242EA852242600365D7
:1049C0004968C164046230BDFF8FFFFE002C0140C6
:1049D00000340140004001400044014000480140D3
:1049E00010B5036A046A24F001040462846924F0A7
:1049F000F00444EA021423F00A020A4384610262CA
:104A000010BD000070B5046A24F0010404628469DA
:104A1000056A124EB0420ED0B0F1804F0BD0104E4E
:104A2000B04208D00F4EB04205D00F4EB04202D077
:104A30000E4EB04203D124F00304144301E044F0CD
:104A400001041A0724F0F00444EA126225F00A0374
:104A500001F00A0119438261016270BD002C01401E
:104A600000040040000800400034014000400140C4
:104A700010B5036A23F0100303628369046A23F408
:104A8000704343EA023224F0A00343EA0111826139
:104A9000016210BD30B5046A24F010040462846918
:104AA000056A24F4407444EA022222F470444FF66A
:104AB000FF7202EA03322243A02425F0A00304EA95
:104AC000011119438261016230BD000030B5416EB1
:104AD000B9B1026891689268C1F342610B4B520F01
:104AE0009C5CE50003F10804A25CB5FBF2F2A0F8BF
:104AF0006A205A5C615CD200B2FBF1F1A0F8681048
:104B000030BD0121A0F86A10F8E70000806C0008B1
:104B100090F82810C90706D001684A68C36A22F4D1
:104B200000321A434A6090F82810890706D50168B8
:104B30004A68036B22F480321A434A6090F82810C6
:104B4000490706D501684A68436B22F480221A435C
:104B50004A6090F82810090706D501684A68836BF7
:104B600022F400421A434A6090F82810C90606D57C
:104B700001688A68C36B22F480521A438A6090F8F5
:104B80002810890606D501688A68036C22F4005251
:104B90001A438A6090F82810490611D501684A68BE
:104BA000436C22F480121A434A60416CB1F5801FB5
:104BB00006D101684A68836C22F4C0021A434A6035
:104BC00090F82810090606D501684A68C06C22F4DE
:104BD000002202434A607047F8B500260446C0F838
:104BE0008C60FCF7A1FD0546206800686FF07E47E9
:104BF000000708D52B4600224FF4001120460097ED
:104C000000F03AFC60B92068006840070AD52B46DE
:104C100000224FF480012046009700F02DFC08B1DF
:104C20000320F8BD2020C4F88400C4F8880044F8AC
:104C30006C6F00202675F8BD10B5806A0021A0F8C1
:104C40005E10A0F85610FEF7DDF910BD01680A6885
:104C500022F490720A6001688A68094B1A408A60DF
:104C6000C16E012904D101680A6822F010020A60AD
:104C70002021C0F888100021C1660167704700003C
:104C8000FEFFFFEF70B5B0F86010D0F88820044642
:104C90000068222A04D0816941F00801816170BD59
:104CA000406AA26D08401080A06D801CA065B4F819
:104CB0005E00401EA4F85E00B4F85E000028EED14D
:104CC0002068016821F4907101602068816821F0FA
:104CD000010181602020C4F8880000252567E06E6E
:104CE000012804D02046FEF78FFBE56670BD2068E2
:104CF000016821F010010160B4F85C102046FEF755
:104D000031F9F2E72DE9F0470446B0F86060006839
:104D1000C569D0F800A0D0F80880D4F888102229FE
:104D200005D0816941F008018161BDE8F087B4F8E0
:104D300068704FF000095BE02068406AA16D304068
:104D40000880A06D801CA065B4F85E00401EA4F829
:104D50005E002068C569690730D0E9070AD05FEABC
:104D6000CA5107D501210162D4F88C0040F001003E
:104D7000C4F88C00A8070BD55FEAC87008D021687A
:104D800002200862D4F88C0040F00400C4F88C00C3
:104D900068070BD55FEAC87008D021680420086254
:104DA000D4F88C0040F00200C4F88C00D4F88C00D9
:104DB00020B12046FEF726F9C4F88C90B4F85E00C6
:104DC000B0B92068016821F48071016020688168B1
:104DD000194A114081602020C4F88800C4F87090FE
:104DE000E06E01281CD02046FEF70EFBC4F86C9044
:104DF0000FB1A806A0D4B4F85E00002895D0B4F88E
:104E00006810814291D92068816821F080518160C9
:104E10000A4820672068016841F02001016084E7AA
:104E20002068016821F010010160B4F85C10204690
:104E3000FEF798F8DAE70000FEFFFFEF854C000868
:104E400070B5B0F86010D0F8882004460068222AB7
:104E500004D0816941F00801816170BD406A084059
:104E6000A16D0870A06D401CA065B4F85E00401EE6
:104E7000A4F85E00B4F85E000028EED12068016856
:104E800021F4907101602068816821F00101816046
:104E90002020C4F8880000252567E06E012804D092
:104EA0002046FEF7B1FAE56670BD2068016821F082
:104EB00010010160B4F85C102046FEF753F8F2E7E9
:104EC0002DE9F0470446B0F860600068C569D0F885
:104ED00000A0D0F80880D4F88810222905D0816974
:104EE00041F008018161BDE8F087B4F868704FF0C7
:104EF00000095BE02068406AA16D30400870A06D39
:104F0000401CA065B4F85E00401EA4F85E00206856
:104F1000C569690730D0E9070AD05FEACA5107D5E9
:104F200001210162D4F88C0040F00100C4F88C002B
:104F3000A8070BD55FEAC87008D021680220086274
:104F4000D4F88C0040F00400C4F88C0068070BD53E
:104F50005FEAC87008D0216804200862D4F88C0089
:104F600040F00200C4F88C00D4F88C0020B1204638
:104F7000FEF748F8C4F88C90B4F85E00B0B9206829
:104F8000016821F48071016020688168194A11402C
:104F900081602020C4F88800C4F87090E06E012879
:104FA0001CD02046FEF730FAC4F86C900FB1A8066A
:104FB000A0D4B4F85E00002895D0B4F868108142FF
:104FC00091D92068816821F0805181600A4820676A
:104FD0002068016841F02001016084E720680168D1
:104FE00021F010010160B4F85C102046FDF7BAFF13
:104FF000DAE70000FEFFFFEF414E00082DE9F04127
:105000000446016880682269E369104362690025EB
:105010001A431043DFF82CC20A688B4B1A40024334
:105020000A6020684168E26821F440511143416000
:105030002168A069614501D0226A10438A68834BC8
:105040001A4002438A602068C16A626A21F00F0137
:105050001143C1627E4923687E488B420DD1D0F84E
:10506000880010F0030006D0012855D0022842D055
:1050700003283FD152E001203DE077498B420BD11C
:10508000D0F8880010F00C0035D0042833D0082860
:1050900040D00C282ED141E070498B420BD1D0F882
:1050A000880010F0300026D0102835D0202831D0CC
:1050B00030281FD132E06A498B420BD1D0F88800EA
:1050C00010F0C00017D0402826D0802822D0C02859
:1050D00010D123E063450DD1D0F8880010F4406072
:1050E00009D0B0F5806F17D0B0F5006F12D0B0F5D1
:1050F000406F13D010205B4A5B4F00264FF40041F5
:10510000634539D160B102280DD004280DD008289C
:1051100031D10EE00220EEE70420ECE70820EAE7B8
:10512000FCF732FE03E0114603E0FCF751FE0100FC
:105130007DD0606A37F810206768B1FBF2F007EBAA
:10514000470383426CD8B0EB073F69D80023084679
:105150001946FBF75DF8090241EA1061020278087E
:10516000101871413A460023FBF752F83F4AA0F568
:105170004071914259D953E0E3694FF6EF788B4281
:105180002DD109284CD2DFE800F005080D4B274B44
:105190004B4B0E00FCF7F8FD01E0FCF707FE0100A9
:1051A00001D144E01146606A37F81000B1FBF0F01D
:1051B0004100606801EB5001B1FBF0F080B2A0F15A
:1051C000100141452CD84FF6F0710140C0F3420068
:1051D00001432068C1602AE0FCF7FAFDDFE70928F7
:1051E0001ED2DFE800F005080D1D1F1D1D1D0E005D
:1051F000FCF7CAFD01E0FCF7D9FD010001D116E082
:105200001146606A37F81000B1FBF0F1606801EBFD
:105210005001B1FBF0F080B2A0F11001414504D97A
:10522000012504E0FCF7D4FDE7E72168C860012010
:10523000A4F86A0024F8680F2846A660E660BDE876
:10524000F081000000800040F369FFCFFFF4FF1100
:105250000038014000100240004400400048004077
:10526000004C00400024F400686C0008FFFC0F00B4
:1052700070B58165A0F85C20A0F85E200021016770
:1052800083684FF48056FF24B34204D10369D3B935
:1052900040F2FF131DE07F259BB1B3F1805F15D075
:1052A000A0F86010C0F88C102223C0F88830036882
:1052B0009C6844F001049C60436EB3F1005F0ED023
:1052C00027E0036943B9A0F86040EBE703691BB12D
:1052D0003F23A0F86030E5E7A0F86050E2E7B0F8BF
:1052E0006830934215D88268B24201D1026972B126
:1052F000114A026780F8801001680A6842F48072DF
:105300000A600068816841F0805181600FE00B4ABB
:10531000EFE78268B24201D1026952B1084A0267DE
:1053200080F880100068016841F4907101600020ED
:1053300070BD044AF3E70000C14E0008054D0008A7
:10534000414E0008854C0008D0F88410212910D166
:10535000B0F8561071B1016D02680988C1F30801F7
:105360009162016D891C0165B0F85610491EA0F8C4
:105370005610704701680A6822F080020A600068CF
:10538000016841F04001016070470000D0F88410CE
:1053900021291BD1B0F86A1016E000BFB0F85620E2
:1053A000AAB10268D3691B060CD5036D1B88C3F331
:1053B00008039362026D921C0265B0F85620521EDB
:1053C000A0F85620491E89B20029E7D1704701682C
:1053D0008A6822F400028A600068016841F0400196
:1053E00001607047D0F8841021290ED1B0F8561012
:1053F00061B1016D026809789162016D491C016516
:10540000B0F85610491EA0F85610704701680A6897
:1054100022F080020A600068016841F040010160EA
:1054200070470000D0F88410212919D1B0F86A1013
:1054300014E000BFB0F856209AB10268D3691B0689
:105440000AD5036D1B789362026D521C0265B0F899
:105450005620521EA0F85620491E89B20029E9D1D3
:10546000704701688A6822F400028A600068016857
:1054700041F04001016070472DE9F0479A46174618
:105480000E4604464FF000094FF02008089D39E011
:10549000681C37D0FCF748F9A0EB0A00A84222D8D4
:1054A0000DB32068016849072CD5C069C0430005C9
:1054B00028D421684FF4006008622068016821F454
:1054C000D07101602068816821F001018160C4F819
:1054D0008480C4F88880C4F88C8000BF84F88090F1
:1054E0000320BDE8F0872068016821F4D0710160D5
:1054F0002068816821F001018160C4F88480C4F8CB
:105500008880EBE72068C06936EA000004D00020FC
:10551000B842BDD00020E4E70120F9E70148FDF7DB
:1055200073BD0000801200200148FDF76DBD000032
:1055300010130020FEE700000FB4084B10B504A9BB
:1055400002AA039800F02CF8044602A9002000F0FB
:10555000C8F9204610BC5DF814FB0000E3580008B1
:105560000907090E002804DB00F1E02080F8001490
:10557000704700F00F0000F1E02080F8141D704724
:1055800002E008C8121F08C1002AFAD1704770470C
:10559000002001E001C1121F002AFBD1704700006A
:1055A0002DE9FF4F8BB088460546002606E02528EA
:1055B0000BD0DDE90D1290476D1C761C2878002871
:1055C000F5D10FB03046BDE8F08F0024A146A246C9
:1055D0000122AE4900E0044315F8013F203B02FAE6
:1055E00003F00842F7D128782A2810D06FF02F0254
:1055F0002878A0F13001092915D809EB890102EBBF
:10560000410144F0020400EB01096D1CF0E758F879
:10561000041B5FEA010903D544F40054C9F10009F1
:1056200044F002046D1C28782E2817D115F8010FBC
:1056300044F004042A280ED06FF02F022878A0F13D
:10564000300109290AD80AEB8A0102EB410100EB7B
:10565000010A6D1CF2E758F804AB6D1C28786C2821
:105660000FD006DC4C2817D068280DD06A2814D13A
:1056700004E0742810D07A280FD10DE044F400140F
:105680000AE044F4801401E044F440146978814253
:1056900002D104F580146D1C6D1C2878692865D032
:1056A00006DC00288DD0632827D0642806D15DE071
:1056B0006E2808D073282AD0752877D0DDE90D121E
:1056C0009047761CE0E0C4F30250022809D003287A
:1056D0000DD0D8F8001004280DD00E6008F1040891
:1056E000D2E0D8F80010F217C1E90062F6E7D8F866
:1056F00000100E80F2E70E70F0E718F8041B8DF82A
:10570000001000208DF80100EB46012003E058F85E
:1057100004BB4FF0FF3061074FF0000701D40AE0EF
:105720007F1C57450DDA8742FADB1BF8071000296A
:10573000F6D106E07F1C8742FCDB1BF8071000292E
:10574000F8D1DDE90D23A9EB07008146214600F0E1
:10575000B1F83044C61904E0DDE90D121BF8010B65
:1057600090477F1EF8D22146484688E058F8040B3F
:10577000C4F302514FF00A0B032900D100B20429EF
:1057800000D140B2002802DA40422D2102E021057A
:1057900005D52B218DF82410012104E006E0E10756
:1057A00010D02021F6E708AF089113E058F8040B59
:1057B000C4F302514FF00A0B032900D180B204292F
:1057C00000D1C0B20021EEE75946FAF7DBFE3031D6
:1057D00007F8011D0028F7D1ADEB070000F1200B01
:1057E000600702D524F4803401E04FF0010ADA4565
:1057F00002DDAAEB0B0000E00020824600EB0B016B
:1058000008980144A9EB01000A90E00306D4DDE901
:105810000D2321460A9800F04DF806444FF0000988
:1058200008E009A911F80900DDE90D12904709F116
:105830000109761C08998945F3DBE0030CD5DDE905
:105840000D2321460A9800F035F8064404E0DDE90E
:105850000D1230209047761CBAF10001AAF1010A1E
:10586000F5DC05E0DDE90D1217F8010B9047761C19
:10587000BBF10001ABF1010BF4DC0A982146DDE934
:105880000D2300F005F806446D1C97E60928010079
:105890002DE9F041044600251E461746880404D42D
:1058A00005E039462020B0476D1C641EF9D5284616
:1058B000BDE8F0812DE9F041044600251E469046E2
:1058C000C80301D5302700E02027880404D505E06F
:1058D00041463846B0476D1C641EF9D52846BDE8E0
:1058E000F0810A68531C0B601070704710B54FF0C0
:1058F0009044012240212046FBF711FF0120FBF7D5
:1059000013FE20460022BDE810404021FBF707BFF0
:1059100010B51048FBF7FAFB0A210E48FBF778FB9D
:105920000C48FBF745FA84B20A48FBF769FC2046AD
:10593000FAF7D1FD9FED081B53EC112BFAF759FD37
:105940009FED071B53EC112BFAF753FD41EC100BA5
:1059500010BD0000841000206666666666660A4018
:10596000000000000000303F08B5FBF7EBFEFEF73B
:1059700054FDFEF769F9FEF749F9FEF733FAFEF731
:1059800067FAFEF705F9FEF7AFFAFEF705FBFEF73B
:10599000CFFAFEF7F5F9FDF795FFFDF75DFE002064
:1059A000FDF7B2FD0020FDF7B1FE4FF6FF70FDF7E9
:1059B000C1FE2A48FCF76AFD00212948FCF726FFB2
:1059C000012228492848FDF7F9FC012225492748EA
:1059D000FDF7F4FC264C00BFFFF788FFA0781E28D7
:1059E00001D264201DE0A0F11F010F2916D2FAF7A1
:1059F00072FD9FED201B53EC112BFAF7F7FC9FED86
:105A00001F1B53EC112BFAF7F4FC9FED1E1B53ECFC
:105A1000112BFAF7EEFCFAF76BFD02E02E2801D904
:105A20000020A080A08800900E486378227817A1FB
:105A30001438FFF781FD0B481438FAF72CFC09499C
:105A400082B214390848FDF7E1FCFFF761FF84EDED
:105A5000040BFDF743FFFDF775FEBDE7881100203D
:105A6000D4110020501000201013002080120020BC
:105A7000400000200000000000004740000000003F
:105A80000000B03F000000000000594025326425AE
:105A900032642564000000000000000000000000E7
:105AA00000000000000000000000000000000000F6
:105AB00000000000000000000000000000000000E6
:105AC0000000000000000000000080018001800153
:105AD00080018001800180018001800180018001BE
