:020000040800F2
:1000000010050020ED010008D3240008111A000893
:10001000D124000899070008432B000800000000C5
:10002000000000000000000000000000EB270008B6
:100030009B07000800000000D5240008ED270008F9
:10004000070200080702000807020008070200086C
:10005000070200080702000807020008070200085C
:10006000070200080702000807020008070200084C
:10007000070200080702000807020008070200083C
:10008000070200080000000007020008070200083D
:10009000070200080702000807020008070200081C
:1000A000070200080702000807020008070200080C
:1000B0004D29000859290008070200080702000816
:1000C00007020008070200080702000807020008EC
:1000D00007020008070200080702000807020008DC
:1000E00007020008070200080702000807020008CC
:1000F00007020008070200080702000800000000CD
:1001000000000000070200080000000007020008CD
:1001100007020008000000000702000807020008AC
:10012000070200080702000807020008070200088B
:10013000070200080000000000000000070200089D
:10014000070200080702000800000000000000008D
:10015000000000000000000000000000000000009F
:10016000000000000000000000000000070200087E
:10017000070200080000000000000000000000006E
:10018000000000000702000800000000000000005E
:10019000000000000000000000000000000000005F
:1001A000000000000000000007020008070200082D
:1001B000070200080702000807020008000000000C
:1001C000000000000702000800000000000000001E
:1001D0000702000807020008DFF80CD000F03CFA24
:1001E0000048004769340008100500200648804791
:1001F00006480047FEE7FEE7FEE7FEE7FEE7FEE70C
:10020000FEE7FEE7FEE7FEE73D290008D90100080A
:10021000D2B201E000F8012B491EFBD27047002248
:10022000F6E710B513460A4604461946FFF7F0FFF5
:10023000204610BD00F0004230F000400AD0C10D51
:1002400001F56071C0F3160042EA0151C20840078F
:100250001143704700200146704730B50B460146F8
:1002600000202022012409E021FA02F59D4205D355
:1002700003FA02F5491B04FA02F52844151EA2F1FF
:100280000102F1DC30BD2DE9F05F05460020924609
:100290009B4688460646814640241BE02846414648
:1002A0004746224600F0F9F953465A46C01A914192
:1002B00010D311461846224600F0E0F92D1A67EBDC
:1002C00001084F4622460120002100F0D7F917EB24
:1002D00000094E41201EA4F10104DFDC48463146EE
:1002E0002A464346BDE8F09F2DE9FE4F804681EA4D
:1002F0000300C00F0C46009021F0004123F00045A0
:10030000B8EB0200A94105D24046214690461C4662
:100310000B46024623F00040104347D0270DC7F399
:100320000A00C3F30A510290401A019040286BDA88
:10033000C3F3130040F4801B0098924620B10023C1
:10034000D2EB030A63EB0B0B01985946C0F1400254
:10035000504600F093F906460D4650465946019A1C
:1003600000F0ABF910EB08006141002487EA11525C
:1003700084EAE7731A4340D0009A62B3019A012AD3
:100380004FEA075215DC001B61EB02014FF00042FF
:1003900002EA0752CDE90042001C41F580113246C5
:1003A0002B4600F0ABF903B0BDE8F08F4046214684
:1003B000F9E7001B61EB0201001C41F580130018F6
:1003C0005B412018A2F5001747EB030140EAD57006
:1003D000B6196D4111E06D084FEA360645EAC07561
:1003E0004FEA0752001B61EB0201001C41F580112E
:1003F00049084FEA30000019514132462B4603B0FC
:10040000BDE8F04F00F06BB90098012240000023D6
:10041000D0EB020263EBE073009821464FEAE074F0
:10042000B8EB000061EB0401E9E783F000435BE710
:1004300081F0004158E72DE9FE4F81EA030404F002
:10044000004421F0004100944FF0000B23F00043E2
:1004500050EA01045ED052EA03045BD0C3F30A54AD
:10046000C1F30A552C44A4F2F3340194A0FB0254C6
:10047000C1F3130141F48011C3F3130343F4801358
:1004800001FB024400FB034E840A970A44EA8154AC
:1004900047EA8357A4FB076802958D0A05FB078589
:1004A0004FEA932C04FB0C542705029D4FEA065893
:1004B00047EA1637B5EB08056EEB070C870E920E70
:1004C00047EA811742EA8312A7FB0201B6EB0B0150
:1004D00064EB00042B0D43EA0C335E1844EB1C5014
:1004E000DA465146E7FB0201C5F313044FEA0B332A
:1004F00043EA14534FEA0432019C43EA0603A4F191
:100500000C040294009CCDE900B400F0F7F803B0AD
:10051000BDE8F08F00200146F9E72DE9F04D81EAB2
:10052000030404F0004B21F0004514464FF0000A8C
:1005300023F0004150EA050220D054EA01021DD008
:10054000C5F30A570246C5F31303C1F31300C1F301
:100550000A5640F4801543F48013A7EB0608101BDD
:10056000D64608F2FD3873EB050002D308F1010806
:1005700001E092185B41B8F1000F03DA0020014658
:10058000BDE8F08D00204FF48011064684460EE051
:10059000171B73EB050705D3121B63EB050306431B
:1005A0004CEA010C49084FEA300092185B4150EACE
:1005B0000107EDD152EA030012D082EA040083EA77
:1005C0000501084305D0101BAB4106D201220023D0
:1005D00006E000224FF0004302E06FF001025310EA
:1005E0001AEB06004CEB085110EB0A0041EB0B0133
:1005F000BDE8F04D00F073B8C1F30A52C1F3130126
:1006000040F2FF3341F480119A4202DA00200146A1
:10061000704740F233439A42A2F2334202DC524224
:1006200000F03BB800F02AB830B5041E71F10004A8
:1006300004DB4FF00044404264EB0101141E73F1EF
:10064000000405DB1C464FF00043524263EB0403F9
:10065000994208BF904230BD064C074D06E0E06865
:1006600040F0010394E8070098471034AC42F6D3F9
:10067000FFF7B6FD2C4800084C480008202A04DB90
:10068000203A00FA02F1002070479140C2F12003A5
:1006900020FA03F3194390407047202A04DB203AE4
:1006A00021FA02F00021704721FA02F3D040C2F192
:1006B00020029140084319467047202A06DBCB17D9
:1006C000203A41FA02F043EAE07306E041FA02F30D
:1006D000D040C2F12002914008431946704710B53E
:1006E000141E73F1000408DA401C41F10001921855
:1006F0005B411A4301D120F0010010BD2DE9F04DFE
:1007000092469B4611B1B1FA81F202E0B0FA80F252
:1007100020329046FFF7B2FF04460F4640EA0A0037
:1007200041EA0B0153465A46084313D0114653EA97
:10073000010019D0C8F140025046FFF7AEFF054650
:100740000E46504659464246FFF798FF084305D0EB
:10075000012004E020463946BDE8F08D0020054325
:1007600046EAE0762C4337430A986305E40AA0EB97
:1007700008000022FD0A44EA47540A3002D500204E
:100780000146E9E7010510196941DDE9084500194D
:100790006941BDE8F04DA2E7FEE77047002240F650
:1007A000B83306E00021491C89B29942FBD3521CA0
:1007B00092B28242F6D3704770B5044600F0FCF85E
:1007C0000546601C02D004484068044400F0F4F878
:1007D000401BA042FAD370BD540000202DE9FC4F0D
:1007E000DFF8A0A1002301250AF1040B03244FF038
:1007F0000F0C0BF1040EBDE005FA03F632406FD08A
:100800004F68012F05D0022F03D0112F01D0122FD6
:1008100017D1D0F808905F0004FA07F829EA080910
:100820000097D1F80C8008FA07F848EA0908C0F8E0
:1008300008804768B7430E79C6F300169E403E43D2
:100840004660C6684FEA430804FA08F7BE430197BA
:100850008F6807FA08F73743C7604E68022E01D049
:10086000122E13D1DE0800EB86060096366A5F076B
:10087000FF0E0CFA07F926EA0906D1F8109009FADA
:1008800007F949EA0609009EC6F820900668019F0C
:10089000BE430F7907F0030707FA08F737430760ED
:1008A0004E68F60065D5384E376E47F0010737665B
:1008B000366E23F0030706F001060096334E3E44E1
:1008C000B146B6689F074FEA17780CFA08F7BE439F
:1008D000B0F1904F05D02E4FB84204D1012717E058
:1008E00047E0002714E02B4FB84201D102270FE068
:1008F000294FB84201D103270AE0284FB84201D15D
:10090000042705E0264FB84201D1052700E006275D
:1009100007FA08F73743C9F80870DAF80060574655
:10092000D1F8048096435FEAC83800D516433E608C
:10093000DBF800605F46D1F8048096435FEA8838B0
:1009400000D516433E60DEF800607746D1F804809B
:1009500096435FEAC82800D516433E60094F0C371E
:100960003E68D1F8048096435FEA882800D5164394
:100970003E605B1C0A6832FA03F67FF43DAFBDE8C7
:10098000FC8F000000040140001002400000014004
:100990000004004800080048000C0048001000480F
:1009A000001400480069084000D0012070470AB1D7
:1009B000816170478162704701488068704700001C
:1009C00054000020024881684268114481607047E9
:1009D0005400002010B50024032000F073F800201C
:1009E00000F008F808B1012401E000F025F82046E5
:1009F00010BD000070B50E4E05460024706898B119
:100A00004FF47A71B1FBF0F00A490968B1FBF0F0DC
:100A100000F0FCFB40B9102D06D200222946501EE2
:100A200000F030F8356000E00124204670BD000081
:100A300054000020600000200A4882B0016E41F09E
:100A400001010166016E01F001010091816D41F02B
:100A500080518165806D00F08050009002B000F000
:100A6000A1B8000000100240002809DB00F01F02BE
:100A7000012191404009800000F1E020C0F8001100
:100A800070470000F0B40E4B1B680C46C3F3022302
:100A9000C3F10705042D00D90425191D072901D22A
:100AA000002300E0DB1E012606FA05F1491E214065
:100AB00099409E40761E16403143F0BC02F056B875
:100AC0000CED00E0064900F0070208684FF6FF034E
:100AD000184040EA0220034A1043086070470000B3
:100AE0000CED00E00000FA052B492C4B0A6832217E
:100AF0004A432B4940B1B0F5007F086829D020F463
:100B0000C06040F480602CE00868C0F341200228F7
:100B100004D051F8800F20F4807022E0D1F88000DA
:100B200020F48070C1F88000086820F4C06040F4B0
:100B300000700860B2FBF3F0401C00E0401E4A6900
:100B4000520501D50028F9D1486940050AD503208E
:100B50007047C0F34120022806D051F8800F40F4BE
:100B60008070086000207047D1F8800040F48070E9
:100B7000C1F88000086820F4C06040F4007008608C
:100B8000B2FBF3F0401C00E0401E4A695205DBD581
:100B90000028F9D1D8E700006000002040420F0093
:100BA000007000400248816841F4804181607047D4
:100BB000007000402DE9F0470E4605004FF0000799
:100BC00025D0DFF8AC81D8F8000000F00F00B0426B
:100BD0000CD2D8F8001021F00F013143C8F80010F2
:100BE000D8F8000000F00F00B04210D12968614C25
:100BF000C80741F2883A5AD06868DFF87C91032828
:100C000008D0022820682DD0400500282CDB0120C8
:100C1000BDE8F08720688001F9D5E06800F00302A4
:100C2000E068C0F30310401C032A19D0534A00BFE8
:100C3000B2FBF0F0E268C2F306225043E268C2F36E
:100C40004162521C5200B0FBF2F0484517D9A0682F
:100C500010F0F00F0CD0880711D5A86840B10EE055
:100C6000474AE5E78003D0E700F092F8484506D907
:100C7000A06820F0F00040F08000A0608027A0680D
:100C8000696820F003000843A060FFF795FE8146E5
:100C900006E000BFFFF790FEA0EB090151453AD8EE
:100CA000A068696800F00C00B0EB810FF2D12868F1
:100CB000810714D5400703D5A06840F4E060A06028
:100CC0002878000705D5A06820F4605040F4E06063
:100CD000A060A068A96820F0F000084304E0802F1D
:100CE00003D1A06820F0F000A060D8F800104046C2
:100CF00001F00F01B14216D9016821F00F01314313
:100D00000160FFF759FE074607E000BFFFF754FEFA
:100D1000C11B514501D903207AE7D8F8000000F043
:100D20000F00B042F2D12878400705D5A068E968E5
:100D300020F4E0600843A0602878000706D5A0688A
:100D4000296920F4605040EAC100A06000F020F85A
:100D5000A1680C4AC1F30311515C01F01F01C840A6
:100D60000949086009480068BDE8F047FFF742BE3E
:100D7000002002400010024000B4C4040024F4002B
:100D800000366E011C48000860000020540000205E
:100D9000184910B58868C0F381021748012A0BD0A2
:100DA0008A68164BC2F38102022A06D08A68C2F30F
:100DB0008102032A03D0002010BD184610BDCA6866
:100DC00002F00304CA68C2F30312521C032C02D0BF
:100DD000B0FBF2F001E0B3FBF2F0CA68C968C2F3FD
:100DE00006225043C1F34161491C4900B0FBF1F0B8
:100DF00010BD0000001002400024F40000366E0117
:100E00002DE9F84304007AD02078FA4DC00747D086
:100E1000A868E96800F00C0001F003010C2802D07A
:100E2000082817D001E0032914D06068B0F5803F8E
:100E300017D0B0F5A02F286817D020F48030286094
:100E4000286820F4802028606068E0B1FFF7B4FDD6
:100E5000064614E02868800322D560680028D2D0B6
:100E60001EE0286840F48030EDE740F480202860E0
:100E7000F7E700BFFFF7A0FD801B642870D8286843
:100E80008003F7D50CE0FFF797FD064605E000BFAD
:100E9000FFF792FD801B6428F0D828688003F7D400
:100EA000207880074CD5A868E96800F00C0001F0B4
:100EB00003010C2802D004280DD001E002290AD039
:100EC000E068002828682BD040F480702860FFF785
:100ED00073FD064619E02868400502D5E068002841
:100EE00091D06868217C20F0FE4040EA0160686093
:100EF000C1480068FFF77EFD002800D120E076E1C0
:100F0000FFF75AFD801B0228B8D828684005F7D59E
:100F10006868217C20F0FE4040EA016068600FE0D4
:100F200020F480702860FFF747FD064605E000BF0B
:100F3000FFF742FD801B0228A0D828684005F7D49F
:100F40002078000729D560690028D5F8940013D0CF
:100F500040F00100C5F89400FFF72EFD064606E0BC
:100F600090E000BFFFF728FD801B022886D8D5F847
:100F700094008007F6D510E020F00100C5F8940039
:100F8000FFF71AFD064604E0FFF716FD801B022856
:100F900078D8D5F894008007F6D42078400761D53A
:100FA000A86D0026C00008D4A86D40F08050A86548
:100FB000A86D012600F08050009090480168C90596
:100FC00011D40168804641F480710160FFF7F4FCA0
:100FD000074604E0FFF7F0FCC01B022852D8D8F8FF
:100FE0000000C005F6D5A068012815D00528D5F861
:100FF000900016D020F00100C5F89000D5F89000C0
:1010000020F00400C5F89000A06841F28838B8B11B
:10101000FFF7D2FC07460EE0D5F8900040F0010043
:10102000F0E740F00400C5F89000F5E7FFF7C4FCD6
:10103000C11B414526D8D5F890008007F6D50CE0B5
:10104000FFF7BAFC074604E0FFF7B6FCC11B4145B9
:1010500018D8D5F890008007F6D41EB1A86D20F0FE
:101060008050A8652078800629D5A0690028D5F889
:10107000980013D040F00100C5F89800FFF79CFCE1
:10108000064606E077E000BFFFF796FC801B0228CB
:1010900077D8D5F898008007F6D510E020F0010049
:1010A000C5F89800FFF788FC064604E0FFF784FCCB
:1010B000801B022865D8D5F898008007F6D4E0692F
:1010C000F0B3A968C1F38101032961D0022828681F
:1010D00020F0807028600BD0E86820F00300E86002
:1010E000E86847490840E860FFF766FC04464BE0C3
:1010F000FFF762FC064604E0FFF75EFC801B022857
:101100003FD828688001F7D4F4E908016FF00F0296
:1011100002EB01110843218A5204490802EB4151B4
:10112000A26841EA02210843217D4FF07E4249082E
:1011300002EB41610843217B40EAC160E96800E0BD
:1011400062E0304A11400843E860286840F080704F
:101150002860E86840F08070E860FFF72DFC0446E6
:1011600005E000BFFFF728FC001B022809D828680B
:101170008001F7D548E004E0FFF71EFC001B0228C1
:1011800002D90320BDE8F88328688001F4D43BE04D
:101190000128F7D0E868226A00F00301914226D1C5
:1011A000616A00F0F0020901103991421FD1A26A70
:1011B00000F4FE41B1EB022F19D194F82C2000F07D
:1011C0007841B1EBC26F12D1218E00F4C002490800
:1011D0004905A1F50011914209D194F8341000F0AD
:1011E000C06049084906A1F1007181420CD001207C
:1011F000C8E70000001002405400002000700040CA
:10120000FFFFEEFE0C809F010020BBE710B5401EE3
:10121000B0F1807F01D3012010BD4FF0E024606168
:101220000F21601701F0A2FC0020A06107202061BF
:10123000002010BD70477047704770477047704777
:10124000F0B590F83C20012A3AD0012580F83C50B6
:10125000022280F83D2003685A689C68194E1A4F94
:10126000B34201D0BB4204D122F4700C4A6842EA76
:101270000C02DFF858C002EA0C02D1F800C04CEAB8
:10128000020CC3F804C00268B2420DD0B2F1804F24
:101290000AD00F4B9A4207D00E4B9A4204D0BA4262
:1012A00002D00D4B9A4204D1896824F0800319437F
:1012B000916080F83D50002180F83C100846F0BD58
:1012C0000220F0BD002C0140003401408FFFFFFDE3
:1012D000000400400008004000400140704710B585
:1012E000040003D094F83D0010B107E0012010BDC8
:1012F000002084F83C00204600F022F8022084F808
:101300003D00211D206801F02DFB012084F84800DC
:1013100084F83E0084F83F0084F8400084F84100DF
:1013200084F8420084F8430084F8440084F84500BF
:1013300084F8460084F8470084F83D00002010BD82
:1013400010B586B0044614216846FEF768FF23688E
:10135000002128480222B3F1804F27D0264CA34217
:1013600022D1836D43F002038365836D03F0020392
:101370000593C36C43F00203C364C06C00F0020029
:10138000059010200090CDE90121CDE903126946B6
:101390001A48FFF723FA002211461D20FFF772FBBF
:1013A0005FF01D00FFF760FB06B010BD836D43F0DA
:1013B00001038365836D03F001030593C36C43F060
:1013C0000103C364C06C00F0010005904FF40040BD
:1013D0000090CDE901210120CDE9031069464FF0CD
:1013E0009040FFF7FBF9002211461C20FFF74AFB53
:1013F0001C20D7E700100240000400400004004811
:1014000070B5044690F83C00012814D0012584F8FA
:101410003C50022084F83D0022689068344B18400C
:1014200020F47F4090600868702827D010DC10F00E
:101430000F0F03D04AE04FF0020070BD4FEA2012B8
:10144000072A43D2DFE802F05050505048313900AB
:10145000284BC21A984247D009DCB0F5805F35D0DE
:10146000B0F5005F15D0B0F1101F2FD13CE0102A6D
:101470003AD0202A38D0502A28D135E0CB68D1E99B
:101480000121206801F0D3FA2068816841F07701DA
:1014900009E0CB68D1E90121206801F0C8FA206891
:1014A000816841F48041816010E0CA684968206821
:1014B00001F0D2FA5021206806E0CA684968206825
:1014C00001F012FB6021206801F0BCFA84F83D5065
:1014D000002084F83C0070BDCA684968206801F0AB
:1014E000BBFA40212068EFE7226801461046EBE78F
:1014F00088FFCEFF2000100030B419490468002393
:1015000018484A6BB4F1804F15D0174DAC4225D125
:10151000164C25686C6A4C626B620B6BCB6290FB5D
:10152000F4F31A4490FBF2F00A6388620F4800213A
:1015300030BC00F0D7B80D4C4C3C25686C6A4C614F
:101540006B620B6ACB6190FBF4F31A4490FBF2F0F0
:101550000A628861054800214C38E9E730BC7047D1
:101560000800002040420F0000040040B0000020AE
:101570002DE9F041054690F83C000C46012836D094
:10158000012085F83C008AB3042A42D02868082A42
:1015900051D0D4E90023E168066A26F48056066239
:1015A000C669076A26F4407646EA03234FF6FF76BB
:1015B00006EA013123F4704319434FF4204627F41F
:1015C000204306EA02321A43C16102622868C169F7
:1015D00021F44061C1612868C169A26841EA022121
:1015E000C161002085F83C00BDE8F08101E00220E7
:1015F000FAE7D4E90012E368286801F03FFA2868A6
:10160000816921F00C01816128688169A268114318
:101610000FE0D4E90012E368286801F077FA28683F
:10162000816921F44061816128688169A26841EA89
:1016300002218161D5E7D4E90027267B016A21F4E4
:1016400080710162C169036A21F00301394321F00D
:10165000F00731074FF4206647EA116123F4206355
:1016600006EA02221A43C16102622868C16921F0B8
:101670000C01C1612868C169A2681143B0E710B5C7
:10168000040003D094F83D0010B107E0012010BD24
:10169000002084F83C00204600F022F8022084F864
:1016A0003D00211D206801F05DF9012084F848000B
:1016B00084F83E0084F83F0084F8400084F841003C
:1016C00084F8420084F8430084F8440084F845001C
:1016D00084F8460084F8470084F83D00002010BDDF
:1016E0007047000010B5044679B1042912D00829CA
:1016F00015D00C2918D0102919D094F8430000BF38
:1017000094F84720012817D114E094F83E0094F88B
:101710004420F7E794F83F0094F84520F2E794F866
:10172000400094F84620EDE794F84100E8E794F88B
:101730004200E5E7012A01D0012010BD022071B16D
:10174000042915D008291CD00C2948D0102949D0CB
:1017500084F8430084F847000C291BD145E084F845
:101760003E0084F844002068C26842F0020210E0A3
:1017700084F83F0084F845002068C26842F0040203
:1017800007E084F8400084F846002068C26842F010
:101790000802C2600122206801F03CF91549206866
:1017A00088420ED0B0F1804F0BD01349884208D048
:1017B0001249884205D01249884202D01149884214
:1017C00007D18168104A1140062906D0B1F5803F43
:1017D00003D0016841F001010160002010BD84F8D0
:1017E0004100B7E784F84200B4E72068C26842F0DD
:1017F0001002CEE7002C0140000400400008004029
:1018000000340140004001400700010070B504466B
:10181000006801694FF00005C943890715D4C16804
:10182000C943890711D4E91E01610120207720688E
:1018300080698007204602D0FFF75EFE04E000F0DA
:10184000E3F8204600F0E1F8257720680169C943F4
:10185000490717D4C168C943490713D46FF004017D
:101860000161022020772068806910F4407F2046C3
:1018700002D0FFF741FE04E000F0C6F8204600F079
:10188000C4F8257720680169C943090716D4C168DF
:10189000C943090712D46FF00801016104202077C1
:1018A0002068C0698007204602D0FFF725FE04E0CB
:1018B00000F0AAF8204600F0A8F825772068016912
:1018C000C943C90617D4C168C943C90613D46FF008
:1018D00010010161082020772068C06910F4407F62
:1018E000204602D0FFF708FE04E000F08DF8204605
:1018F00000F08BF8257720680169C943C90708D132
:10190000C168C943C90704D1891E0161204600F09E
:101910007DF820680169C943090609D4C168C94333
:10192000090605D46FF0800101612046FFF783FCB2
:1019300020680169C943C90509D4C168C9430906BA
:1019400005D46FF4807101612046FFF773FC2068B5
:101950000169C943490609D4C168C943490605D488
:101960006FF040010161204600F051F820680169E4
:10197000C943890609D4C168C943890605D46FF0F3
:10198000200101612046FFF757FC20680169C94327
:10199000C90209D4C168C943C90205D46FF48011D2
:1019A00001612046FFF74AFC20680169C9438902AA
:1019B00009D4C168C943890205D46FF400110161DB
:1019C0002046FFF73AFC20680169C943490209D45F
:1019D000C168C943490205D46FF480010161204602
:1019E000FFF72DFC20680169C94309020BD4C168C7
:1019F000C943090207D46FF4000101612046BDE824
:101A00007040FFF76BBC70BD704770477047704700
:101A1000FEE700002DE9F047304C314D01262078DB
:101A20004FF09049D8B1032701282FD0022814D1B4
:101A300001212846FEF7B6FFE8B302212846FEF74B
:101A4000B1FFC0B304212846FEF7ACFF98B30121D3
:101A50004846FEF7A7FF70B32770BDE8F087012165
:101A60002846FEF79FFF78B102212846FEF79AFF2D
:101A700050B104212846FEF795FF28B101214846C0
:101A8000FEF790FF0028E8D12670E6E70121A8467E
:101A90002846FEF787FF022590B1022146464046C0
:101AA000FEF780FF70B104213046FEF77BFF58B18E
:101AB0000121484600E00DE0FEF774FF30B107E079
:101AC000667005E0657003E0677001E004206070F7
:101AD0002570C2E7A0890A30A081BEE70800002077
:101AE0000004004800B585B014216846FEF797FB56
:101AF0004FF6FF70009000200321CDE90201019014
:101B000069460248FEF76AFE05B000BD00080048BD
:101B100000B585B014216846FEF781FB4FF6FF70D3
:101B2000009001200190032003900020029069465C
:101B30000248FEF753FE05B000BD00000008004853
:101B400070B5002406462146204600F003F900F057
:101B500011FB4FF49635304600F0E0FA641CAC42BD
:101B6000F9D370BD70B586B014216846FEF757FBF7
:101B70001E48C16C41F00401C164C16C01F0040154
:101B80000591C16C41F00101C164C16C01F001011A
:101B90000591C16C41F00201C164C06C032500F0E5
:101BA000020005904FF448700124002603958DE84B
:101BB000510069460E48FEF711FE200203958DE89C
:101BC00051004FF0904469462046FEF707FEFFF7AC
:101BD0009FFFA06940F48070A0610548183001683B
:101BE00041F40871016006B070BD000000100240B1
:101BF00000040048203AD2B2034B02EB420203EB4E
:101C0000021200F019B800004C360008F0B50E467C
:101C10000746002540F23F1407E021463846FFF70B
:101C2000E9FF103C6D1CA4B2761C3278002A01D06A
:101C3000142DF2D3F0BD00002DE9F04791468A46FD
:101C40000026044600F086F8DFF84080012700BF38
:101C500000F090FA5FF0000539F8160007FA05F178
:101C60000842404601D1408800E0008800F056FA62
:101C70006D1C102DF0D3641CE4B25146204600F0D8
:101C800069F8761C182EE3D3BDE8F0870000002029
:101C900010B5FFF767FF002000F014F8084CA08093
:101CA000A088A0F50241303906D000F09DFC00204C
:101CB00000F008F8A08010BD00F00DFCF7E7000070
:101CC0000000002070B51D490A6842F400720A60E5
:101CD0000A6842F480720A60184C103C226842F094
:101CE00020022260164A1060086840F02000086058
:101CF00000BF00BF00BF206840F0200020602068C7
:101D000040F480702060FFF7EDFE4FF09041886A4C
:101D100040F48070886200BF00BF00BF0848001F09
:101D2000006885B2886940F480708861FFF7F0FE32
:101D3000206840F400702060284670BD28040048E8
:101D40001408004801B5BDF800000149488008BDED
:101D50000000002010B50C460146202000F038FAA3
:101D60002146BDE81040212000F032BA01B5BDF88F
:101D700000000149088008BD0000002070B5764CC5
:101D80002DED028BA07900282FD0012874D00228D5
:101D900073D172A11820FFF739FFA27874A17A4895
:101DA00000F0D0FE78494820FFF730FFE27877A1B5
:101DB000754800F0C7FE74496020FFF727FF2279BD
:101DC00078A1714800F0BEFE6F497820FFF71EFF32
:101DD00062797AA16C4800F0B5FE6B499020BDECA9
:101DE000028BBDE87040FFF711BFE0794FF47A75C0
:101DF0009FED788A002878A14FF0180009D0FFF7EE
:101E000005FFA269AA425CDC206A002846DA77A1B5
:101E100049E0FFF7FBFE226AAA4212DC002A01DA3F
:101E200076A104E07AA1584800F08CFE564948207B
:101E3000FFF7ECFE226BAA4220DC002A14DA78A11C
:101E400015E000EE102AF8EEC00A80EE880A10EEC7
:101E5000100AFEF7EFF941EC100B75A153EC102BB3
:101E6000494800F06FFEE1E776A126E04649602090
:101E7000FFF7CCFE77A166E049E069E000EE102AAA
:101E8000F8EEC00A80EE880A10EE100AFEF7D2F9CA
:101E900041EC100B74A153EC102B34E077A13A48BD
:101EA00000F050FE38494820FFF7B0FEA26AAA426F
:101EB0001ADC206B0028C2DB75A1334800F042FE1B
:101EC000D4E700EE102AF8EEC00A80EE880A10EE81
:101ED000100AFEF7AFF941EC100B72A153EC102B76
:101EE000294800F02FFEDDE700EE102AF8EEC00AC8
:101EF00080EE880A10EE100AFEF79CF941EC100BF8
:101F00006DA153EC102B204800F01CFEAEE76FA132
:101F10001820FFF77BFE228A71A11B4800F012FEF9
:101F200019494820FFF772FEE28972A1164800F0B5
:101F300009FE15496020FFF769FE73A11248626B24
:101F400000F000FE10497820FFF760FE41A145E750
:101F5000BDEC028B70BD0000080000202020202076
:101F60002020202052454344202020202020000013
:101F700020202020204E44413D2564202020202088
:101F80002020202000000000FC0000202020202035
:101F9000204E44423D256420202020202020202067
:101FA0000000000020202020204E48413D256420D4
:101FB00020202020202020200000000020202020A1
:101FC000204E48423D256420202020202020202033
:101FD0000000000000007A44202020202020202043
:101FE0004441544120202020202000002020202097
:101FF00020413D4E554C4C20202000002020202028
:1020000020413D4E554C4C20202020200000000057
:102010002020202020413D2564487A2020200000F7
:102020002020202020423D4E554C4C2020200000F6
:102030002020202020413D252E32664B487A20204A
:10204000200000002020202020423D2564487A20E6
:1020500020200000202020202020202020202020C0
:1020600020202020202000002020202020423D256C
:102070002E32664B487A20202000000020202020AD
:1020800020413A25647553202020202000000000C4
:102090002020202020423D25647553202020202030
:1020A000000000002020202020413D252E32666DBA
:1020B00053202020000000002020202020423D2529
:1020C0002E32666D5320202020200000202020206A
:1020D000202020205041524120202020202000009C
:1020E000202020202050443D2564487A20202020B4
:1020F00020200000202020202050483D2564487AE0
:102100002020202020200000202020202050583D8A
:102110002564487A2020202020200000134A1168DE
:1021200041F400711160114910390B6843F4807358
:102130000B600B6843F020030B600D4B18601068B8
:1021400040F02000106000BF00BF00BF086840F0F2
:1021500020000860086840F48070086000BF00BF7D
:1021600000BF086840F40070086070472804004809
:10217000140800481449086840F4007008600868B2
:1021800040F48070086010481038026842F0200265
:1021900002600E4B22221A600A6842F020020A6096
:1021A00000BF00BF00BF016841F02001016001686D
:1021B00041F48071016000BF00BF00BF016841F4BD
:1021C00000710160704700002804004814080048AE
:1021D000184B10B51A6842F400721A601A6842F47B
:1021E00080721A60134A103A146844F02004146094
:1021F000114C2060186840F02000186000BF00BF3C
:1022000000BF106840F020001060106840F480703B
:1022100010602160186840F02000186000BF00BF07
:1022200000BF106840F020001060106840F480701B
:10223000106010BD280400481408004803480168D5
:10224000034A12881143016000F030B814080048B6
:10225000060000204FF48071401E8140064802882D
:10226000114389B2018005480268D2B20260026857
:102270000A43026000F01AB8060000201408004863
:102280004FF48072401E82400648018891430180CD
:1022900005480268D2B2026002680A43026000F098
:1022A00005B80000060000201408004810B5064CD0
:1022B000012204212046FEF77AFB20460022BDE8D9
:1022C00010400421FEF773BB000C0048F0B587B046
:1022D00014216846FDF7A3FF2D48C16C41F00401AD
:1022E000C164C16C01F004010591C16C41F0200191
:1022F000C164C16C01F020010591C16C41F0010184
:10230000C164C16C01F001010591C16C41F0020191
:10231000C164C16C01F002010591C16C41F008017A
:10232000C164C06C1B4E00F008004FF47F44059060
:10233000012221463046FEF73AFB174F00220421C6
:102340003846FEF734FB0125CDE900450024029410
:10235000694630460394FEF741FACDE900546946D8
:102360004FF090400294FEF739FA0720CDE90004BF
:1023700069460A480294FEF731FA04200090CDE93C
:102380000154694638460394FEF728FA07B0F0BDB9
:102390000010024000080048000C004800040048FB
:1023A00010B58CB000240594224804940694079438
:1023B00008940A9409940094019402944FF0804187
:1023C000039401604F21C0E901144FF6FF71C0E989
:1023D000031480218161FEF782FF08B172B6FEE727
:1023E0004FF48050049004A91248FFF709F808B18F
:1023F00072B6FEE70F48FFF742F908B172B6FEE782
:10240000089408A90B480A94FEF71AFF08B172B69F
:10241000FEE70120CDE9004002940022694605480C
:102420000394FFF7A5F8002801D072B6FEE70CB0C0
:1024300010BD00006400002010B58CB0002405948D
:10244000224804940694079408940A9409940094EA
:10245000019402941C49039401604F21C0E90114C6
:102460004FF6FF71C0E9031480218161FEF737FF49
:1024700008B172B6FEE74FF48050049004A91348E7
:10248000FEF7BEFF08B172B6FEE71048FFF7F7F897
:1024900008B172B6FEE7089408A90C480A94FEF742
:1024A000CFFE08B172B6FEE70120CDE900400294EC
:1024B0000022694605480394FFF75AF8002801D026
:1024C00072B6FEE70CB010BD00040040B000002062
:1024D000FEE7FEE7704730B501210020FFF778FEE8
:1024E0004FF47A70FEF75AF900210120FFF770FED1
:1024F00041F290711020FFF76BFE4FF41C516020E9
:10250000FFF766FE01216120FFF762FE02214620EF
:10251000FFF75EFE48F210011320FFF759FE48F264
:10252000FE011220FFF754FE4FF4A0610220FFF7D6
:102530004FFE41F230010320FFF74AFE40F2033420
:1025400021463020FFF744FE21463120FFF740FEB0
:1025500021463220FFF73CFEE51E29463320FFF7D7
:1025600037FE03213420FFF733FE21463520FFF7E5
:102570002FFE14213620FFF72BFE21463720FFF7D0
:1025800027FE21463820FFF723FE21463920FFF79A
:102590001FFE29463A20FFF71BFE03213B20FFF7D1
:1025A00017FE21463C20FFF713FE4FF4A0513D20BB
:1025B000FFF70EFE4FF400719220FFF709FE21464F
:1025C0009320FFF705FE40F60D019020FFF700FE77
:1025D00041F218010320FFF7FBFDBDE8304040F257
:1025E00073110720FFF7F4BD10B543F20801E32093
:1025F000FFF7EEFD1221E720FFF7EAFD41F231215E
:10260000EF20FFF7E5FD00210120FFF7E1FD4FF48A
:10261000E0610220FFF7DCFD41F230010320FFF70B
:10262000D7FD00210420FFF7D3FD40F20721082049
:10263000FFF7CEFD00210920FFF7CAFD00210A2087
:10264000FFF7C6FD00210C20FFF7C2FD00210D2081
:10265000FFF7BEFD00210F20FFF7BAFD002110207B
:10266000FFF7B6FD07211120FFF7B2FD0021122070
:10267000FFF7AEFD00211320FFF7AAFDC820FEF7EB
:102680009BF841F290611020FFF7A2FD40F2272154
:102690001120FFF79DFD3220FEF78EF81D2112203C
:1026A000FFF796FD3220FEF787F84FF40061132004
:1026B000FFF78EFD14212920FFF78AFD0B212B2027
:1026C000FFF786FD3220FEF777F800212020FFF784
:1026D0007FFD00212120FFF77BFD07213020FFF740
:1026E00077FD40F207713120FFF772FD062132209D
:1026F000FFF76EFD40F204713520FFF769FD41F6EA
:1027000004713620FFF764FD04213720FFF760FDD8
:1027100000213820FFF75CFD40F206713920FFF7F9
:1027200057FD40F201713C20FFF752FD0F213D2083
:10273000FFF74EFD00215020FFF74AFDEF21512009
:10274000FFF746FD00215220FFF742FD40F23F1106
:102750005320FFF73DFD4FF41C516020FFF738FD7B
:1027600001216120FFF734FD00216A20FFF730FDD1
:1027700000218020FFF72CFD00218120FFF728FD9C
:1027800000218220FFF724FD00218320FFF720FD98
:1027900000218420FFF71CFD00218520FFF718FD94
:1027A00010219020FFF714FD00219220FFF710FD6B
:1027B00003219320FFF70CFD4FF488719520FFF75C
:1027C00007FD00219720FFF703FD00219820FFF768
:1027D000FFFC41F218010320FFF7FAFCBDE81040AE
:1027E00040F273110720FFF7F3BC70472DE9F04169
:1027F0002E4C4FF000082088401C80B220800A2810
:1028000003D1A4F80080FFF705F92A4B6788284D0B
:10281000294E2A482A4A2B491B68EFB3D5F800C035
:10282000634500DC2B60D6F800C0634500DB3360F5
:10283000126803689A4200DC02600B689A4200DD6D
:102840000A607F1CBAB2A2F530636280B83B22D125
:10285000A4F80280096800681B4C081A2188884285
:1028600009DD1A490878401CC0B20870032802D359
:102870000820FFF705FD30682968401A2188884242
:1028800009DD13490878401CC0B20870032802D340
:102890000820FFF7F5FC00E003E0BDE8F041FEF79B
:1028A00091B82B60336012680260C9E750000020C5
:1028B0004400002028000020400000204C000020A0
:1028C0003800002048000020180000200B000020E5
:1028D0000A00002010B594B038216846FDF79FFC2F
:1028E00014210EA8FDF79BFC4FF40070FEF7FCF8D6
:1028F000012000900004019002200324CDE9070488
:102900001421CDE90A100C900D9009946846FEF749
:1029100077FA08B172B6FEE70F20CDE90E04002069
:1029200010901190129002210EA8FEF743F9002892
:1029300001D072B6FEE714B010BD00000248016875
:1029400041F470010160704788ED00E00148FEF736
:102950005DBF0000640000200148FEF757BF000083
:10296000B00000202DE9F0430268234B234D244E94
:10297000244C4FF08049984207D0484505D0A842E2
:1029800003D0B04201D0A04203D122F070074A68C0
:102990003A431D4FDFF874C0DFF8748098420DD0C1
:1029A00048450BD0A84209D0B04207D0A04205D07C
:1029B000B84203D0604501D0404503D122F44075B0
:1029C000CA682A434D6922F080022A4302608A685D
:1029D000C2620A688262984207D0A04205D0B8421B
:1029E00003D0604501D0404501D10969016301214F
:1029F0004161BDE8F0830000002C0140000400406C
:102A00000008004000340140004001400044014003
:102A10000048014010B501F01F030121046A9940EC
:102A20008C430462016A9A401143016210BD10B5E3
:102A3000846842EA032224F47F440A4322438260EA
:102A400010BD00008268034B1A400A4342F00701A0
:102A5000816070478FFFCFFF10B5036A046A24F0CE
:102A600001040462846924F0F00444EA021423F0AF
:102A70000A020A438461026210BD000070B5046A54
:102A800024F0010404628469056A124EB0420ED03B
:102A9000B0F1804F0BD0104EB04208D00F4EB04274
:102AA00005D00F4EB04202D00E4EB04203D124F0FA
:102AB0000304144301E044F001041A0724F0F00475
:102AC00044EA126225F00A0301F00A011943826107
:102AD000016270BD002C014000040040000800406D
:102AE000003401400040014010B5036A23F0100398
:102AF00003628369046A23F4704343EA023224F0D8
:102B0000A00343EA01118261016210BD30B5046A7D
:102B100024F0100404628469056A24F4407444EAD1
:102B2000022222F470444FF6FF7202EA033222437B
:102B3000A02425F0A00304EA011119438261016277
:102B400030BDFEE70FB4084B10B504A902AA0398E4
:102B500000F0EEF8044602A9002000F080FC2046B8
:102B600010BC5DF814FB00005F3400080907090E73
:102B7000002804DB00F1E02080F80014704700F02A
:102B80000F0000F1E02080F8141D704702E008C833
:102B9000121F08C1002AFAD170477047002001E0D7
:102BA00001C1121F002AFBD1704700002DE9FF5F11
:102BB00082B00021DDE90430020DDDF840B00343AE
:102BC00018D044F61050A2F2FF3242431514119867
:102BD00001281FD0A5EB0B00401C5FEA000A4FF054
:102BE00000064E4FDFF83891B046504615D5CAF171
:102BF000000413E0119801244AA3012801D16FEACF
:102C00000B010298119AC0E90031C0E9024206B0F6
:102C1000BDE8F09FCBF10000DFE704460021404A09
:102C2000491842EB0450CDE9001012E0E00707D04C
:102C300032463B4640464946FDF7FDFB8046894605
:102C400032463B4610461946FDF7F5FB06460F4651
:102C50006410002CEAD1DDE90401DDE90023BAF1BA
:102C6000000F06DAFDF7E7FB42464B46FDF7E3FBB4
:102C700005E0FDF752FC42464B46FDF74EFC04468C
:102C80000E460022284BFDF7CFFC03D84FF0FF3053
:102C9000014607E00022254B20463146FDF724FB84
:102CA000FDF7AAFC102409E0002C0ADB0A2200230D
:102CB000FDF7E9FA039B30321A55641E50EA01020F
:102CC000F2D1641C039AC4F111031444119A012A2D
:102CD00003D0012208430DD10AE0084304D00020AC
:102CE0004FF0110B119072E7A3EB0B056D1E0DE079
:102CF0005B4504DD4FF0000205F1010504E003DA55
:102D00004FF00002A5F10105002AECD002981199BC
:102D1000C0E90231C0E9004579E700000000144035
:102D20000000F03F300000000000F0430000E03FF2
:102D30002DE9FF4F95B09B468946064600250FE2D8
:102D4000252877D100242746F84A0121059400E080
:102D5000044316F8013F203B01FA03F01042F7D17B
:102D600030782A2811D06FF02F033078A0F130028C
:102D7000092A16D8059A44F0020402EB820203EBFA
:102D800042021044761C0590EFE759F8042B059297
:102D9000002A03DA504244F40054059044F002043F
:102DA000761C30782E2816D116F8010F44F0040452
:102DB0002A280DD06FF02F023078A0F13003092BB4
:102DC00009D807EB870302EB4303C718761CF3E728
:102DD00059F8047B761C30786C280FD006DC4C2820
:102DE00017D068280DD06A2814D104E0742810D0B8
:102DF0007A280FD10DE044F400140AE044F4801462
:102E000001E044F440147278824202D104F5801447
:102E1000761C761C307866280BD013DC582877D0C7
:102E200009DC002875D04528F6D04628F4D047287C
:102E30001AD19DE118E0632835D0642879D065283F
:102E400012D195E1702873D008DC6728F1D0692889
:102E50006FD06E280DD06F2806D1B5E073282CD026
:102E6000752875D0782874D05A46179990476D1CEC
:102E700075E1C4F30250022809D003280DD0D9F817
:102E8000001004280DD00D6009F1040967E1D9F89C
:102E90000010EA17C1E90052F6E7D9F800100D80DA
:102EA000F2E70D70F0E719F8041B8DF80010002010
:102EB0008DF80100EA46012003E059F804AB4FF019
:102EC000FF3061074FF0000102D40DE008F101016D
:102ED0008846B9420FDA8045F8DB1AF80810002955
:102EE000F4D108E008F1010188468142FADB1AF8C2
:102EF00008100029F6D105985B46A0EB080721468B
:102F00003846179A00F094FA284400EB080507E0C9
:102F10004DE029E10DE01AF8010B5A461799904748
:102F2000B8F10108F7D25B4621463846179A13E1FB
:102F300042E00A220092C4F302524FF0000A022A31
:102F400008D059F804CB032A4FEAEC710AD00DE0FF
:102F500029E02AE009F1070121F00702F2E802C1A5
:102F6000914609E00FFA8CFC4FEAEC71042A03D178
:102F70004FFA8CFC4FEAEC71002907DA0A4600216F
:102F8000DCF1000C61EB02012D2202E0220504D5E8
:102F90002B228DF80420012203E0E20701D0202239
:102FA000F7E7904659E00A2102E010220DE01021D7
:102FB0004FF0000A00910BE010224FF0000A44F09D
:102FC00004040827009203E008224FF0000A009250
:102FD000C4F30252022A05D059F804CB0021032A77
:102FE00008D009E009F1070121F00702F2E802C167
:102FF000914605E01FFA8CFC042A01D10CF0FF0C6D
:103000004FF00008220728D5702806D0009B83F0D7
:10301000100353EA0A0305D00EE040228DF8042085
:10302000012208E05CEA010206D030228DF804207B
:103030008DF8050002229046009B83F0080353EAB6
:103040000A030AD15CEA010201D1620705D53022E8
:103050008DF804204FF001087F1E582804D034A0BA
:1030600003900EA802900DE036A0F9E753466046A3
:10307000009AFDF708F984460398825C0298401E86
:10308000029002705CEA0100F0D1029806A9081AC9
:1030900000F1200A600702D524F4803400E0012703
:1030A000574502DDA7EB0A0000E0002000EB0A0113
:1030B000009005984144401A0590E00306D45B4611
:1030C0002146179A059800F0B3F90544002706E059
:1030D00001A85A46C05D179990476D1C7F1C474553
:1030E000F6DBE0030CD55B462146179A059800F005
:1030F0009FF9054404E030205A46179990476D1C0B
:103100000099481E00900029F5DC08E00298029919
:103110005A460078491C0291179990476D1CBAF1E4
:103120000001AAF1010AF1DC65E1000009280100B3
:10313000303132333435363738396162636465662D
:1031400000000000303132333435363738394142EF
:10315000434445460000000000F058F90544761C41
:10316000307800287FF4ECAD19B02846BDE8F08F28
:10317000620700D4062709F1070222F0070CFCE8D9
:103180000223E14603F000485FEA080C02D00FF288
:10319000702C0DE05FEA045C02D50FF2682C07E0AA
:1031A0005FEAC47C02D00FF2602C01E0AFF2700C39
:1031B0004FF0FF3823F00043CDF850C065280CD005
:1031C00006DC452809D046281DD047283DD13DE0E2
:1031D000662818D067287ED138E00021112F01DB46
:1031E000112000E0781CCDE9000106A90EA8FFF728
:1031F000DDFCDDE90F010E9A03910021009207F139
:10320000010A04914DE04FF000400097CDE9011014
:1032100006A90EA8FFF7CAFCDDE90F0203920E9B78
:1032200011990022DDF80CA00093049211B9791CC9
:1032300000EB010AB7EB0A0004D4C0F1FF3007F13C
:10324000010A0490AAEB0700019044E0012F00DA84
:1032500001270021112F01DD112000E03846CDE9C2
:10326000000106A90EA8FFF7A1FCDDE90F010E9AE7
:103270000391002104910092BA4621070CD40399CE
:10328000514500DA8A46BAF1010F05DD009AAAF12C
:103290000101515C302908D0B84202DA10F1040F64
:1032A00006DA0121CDE9011015E0AAF10101E9E7F3
:1032B000002805DC049901440491AAEB000102E016
:1032C000411C514500DD8A460499401A401C01907A
:1032D0004FF000400290200704D40198504501DBD4
:1032E000CDF8048000208DF84F0002980DF14F07B3
:1032F000B0F1004F25D02B200E9002984FF002081D
:1033000000280CDA404202902D200E9007E00A219E
:103310000298FCF7A2FF3031029007F8011DB8F1C6
:103320000001A8F10108F2DC02980028EFD1791E13
:103330000E980870307800F0200040F0450007F843
:10334000020D12A8C01B00F107081498007800B104
:10335000012000EB0A01019801EBE071059841445E
:10336000401A401E0590E00306D45B462146179A9A
:10337000059800F05DF805441498007818B15A4695
:10338000179990476D1CE00324D55B462146179A98
:10339000059800F04DF805441CE00498002807DB70
:1033A000DDE90301884203DD0098405C179901E0E4
:1033B000179930205A469047049805F10105401CA2
:1033C00004900198401E019004D12E205A4617996E
:1033D00090476D1CBAF10001AAF1010ADDDC05E09D
:1033E00017F8010B5A46179990476D1CB8F1000168
:1033F000A8F10108F4DC5B462146179A0598ABE674
:103400002D0000002B000000200000002DE9F041FD
:10341000044600251E461746880404D405E03946B4
:103420002020B0476D1C641EF9D52846BDE8F08108
:103430002DE9F041044600251E469046C80301D5FB
:10344000302700E02027880404D505E041463846AF
:10345000B0476D1C641EF9D52846BDE8F0810A68A6
:10346000531C0B6010707047FDF7B4FAFFF732FA87
:10347000FEF72CFFFEF794FFFEF7DEFFFEF7DEFE01
:10348000FEF706FC0020FEF75BFB0020FEF75AFC6F
:103490004FF6FF70FEF76AFC00216948FEF722F93B
:1034A000674800214C30FEF71DF9DFF898A1002590
:1034B000654C42F210794FF47A764FF003080127F9
:1034C000207803287FD125706078012806D0022853
:1034D00027D0032847D0042864D073E0A0790128BE
:1034E00070D1207A022803D0012809D080B169E088
:1034F000606B64306063B04264DDC4F834A061E0A6
:10350000E089643080B2E08148455BD9E68159E0CA
:10351000208A643080B22082B04253D96420208255
:1035200050E0A07901284DD1207A022803D001284B
:1035300008D080B146E0606B64386063504541DA82
:1035400066633FE0E089643880B2E081B04239D2FE
:10355000A4F80E9036E0208A643880B22082642875
:1035600030D226822EE0A089B042A07913D801285B
:1035700001D048B126E0207A401CC0B2B0FBF8F27E
:1035800008FB120020721DE0E07910B10020E0710C
:1035900018E00120FBE7022814D1A570E570257121
:1035A00065710FE0A079401CC0B2B0FBF8F208FBD7
:1035B0001200A07118B1012803D003E003E0E57107
:1035C00000E02572A581E189206A884207DB607AE4
:1035D000012805D12079401C2071657200E06772D6
:1035E000206B884207DBA07A012805D16079401C56
:1035F0006071A57200E0A772A07900284FF0010069
:103600000AD0FEF727FEE089216A81424FF00200CE
:1036100005DDFEF735FE04E0FEF732FEF3E7FEF7C8
:1036200019FEE089216B81424FF0030002DDFEF7B5
:1036300027FE01E0FEF70EFEFEF7A0FB40E70000CC
:103640006400002018FCFFFF0800002000000000BC
:10365000000000000000000000000000000000006A
:10366000000000000000000000000000000000005A
:1036700000000000000000000000000000008001C9
:103680008001800180018001800180018001800132
:103690008001800180018001000000008001800124
:1036A000000000000000000000000000000000001A
:1036B000CC00CC00CC00CC00CC00CC000000000042
:1036C00000000000000000000000000000000000FA
:1036D00000000000000000000000000000000000EA
:1036E0000000000000000000600C600C600C300660
:1036F0003006FE1FFE1F300638071803FE1FFE1F90
:10370000180318038C018C018C010000000080005C
:10371000E003F80F9C0E8C1C8C188C009800F801AC
:10372000E007800E801C8C188C189C18B80CF00FC9
:10373000E0038000800000000000000000000000A6
:1037400000000E181B0C110C1106110611031103B9
:103750009B018E01C038C06C6044604430443044EA
:103760001844186C0C380000000000000000E00154
:10377000F0033807180618063003F001F000F800CF
:103780009C310E33061E061C061C063FFC73F021FE
:103790000000000000000000000000000000000029
:1037A0000C000C000C000C000C000C0000000000D1
:1037B0000000000000000000000000000000000009
:1037C00000000000000000000000000000000002F7
:1037D00000038001C000C0006000600030003000C5
:1037E00030003000300030003000300060006000F9
:1037F000C000C000800100030002000000002000A3
:103800006000C00080018001000300030006000684
:10381000000600060006000600060006000300037E
:1038200080018001C0006000200000000000000056
:103830000000000000000000C000C000D806F8072B
:10384000E001300338070000000000000000000025
:103850000000000000000000000000000000000068
:103860000000000000000000800180018001800154
:103870008001FC3FFC3F80018001800180018001CC
:103880000000000000000000000000000000000038
:103890000000000000000000000000000000000028
:1038A0000000000000000000000000000000800197
:1038B0008001000100018000000000000000000005
:1038C00000000000000000000000000000000000F8
:1038D00000000000E007E00700000000000000001A
:1038E00000000000000000000000000000000000D8
:1038F00000000000000000000000000000000000C8
:103900000000000000000000000000000000C000F7
:10391000C000000000000000000000000000000CDB
:10392000000C0006000600060003000300038003ED
:10393000800180018001C000C000C0006000600004
:103940000000000000000000000000000000E00394
:10395000F007380E180C0C180C180C180C180C1852
:103960000C180C180C180C18180C380EF007E00383
:103970000000000000000000000000000000000146
:103980008001C001F001980188018001800180015F
:10399000800180018001800180018001800180011F
:1039A0000000000000000000000000000000E00334
:1039B000F80F180C0C180C1800180018000C000652
:1039C00000038001C000600030001800FC1FFC1FD5
:1039D0000000000000000000000000000000E00106
:1039E000F807180E0C0C0C0C000C0006C003C007E6
:1039F000000C001800180C180C18180CF807E0033D
:103A00000000000000000000000000000000000CAA
:103A1000000E000F000F800DC00C600C600C300C0D
:103A2000180C0C0CFC3FFC3F000C000C000C000CB4
:103A30000000000000000000000000000000F80F7F
:103A4000F80F180018000C00EC03FC071C0E001CFB
:103A50000018001800180C181C0C180EF807E003CA
:103A60000000000000000000000000000000C0078F
:103A7000F00F381C181818000C00CC03EC0F3C0E8B
:103A80001C1C0C180C180C18181C380EF007E0033E
:103A90000000000000000000000000000000FC1F0B
:103AA000FC1F000C00060006000380038001C0011B
:103AB000C000E000600060007000300030003000A6
:103AC0000000000000000000000000000000E00313
:103AD000F007380E180C180C180C3806F007F00711
:103AE000180C0C180C180C180C18380CF80FE003F4
:103AF0000000000000000000000000000000E003E3
:103B0000F007380E1C0C0C180C180C181C1C381E56
:103B1000F81BE0190018000C000C1C0EF807F0014F
:103B20000000000000000000000000000000000095
:103B30000000000000000000800180010000000083
:103B40000000000000000000000000008001800173
:103B50000000000000000000000000000000000065
:103B60000000000000000000800180010000000053
:103B70000000000000000000000000008001800143
:103B800000010001800000000000000000000000B3
:103B90000000000000000000000000000010001CF9
:103BA000800FE003F8001800F800E003800F001C0D
:103BB00000100000000000000000000000000000F5
:103BC000000000000000000000000000F81F0000DE
:103BD00000000000F81F00000000000000000000CE
:103BE00000000000000000000000000000000000D5
:103BF0000000000000000000000000000800380085
:103C0000F001C007001F0018001FC007F0013800B6
:103C10000800000000000000000000000000E003B9
:103C2000F80F180C0C180C180018000C00060003F4
:103C30008001C000C000C00000000000C000C00043
:103C40000000000000000000000000000000000074
:103C5000E00718180420C229224A114409440944E3
:103C6000094409221113E20C024004201818E0074D
:103C700000000000000000000000000000008003C1
:103C80008003C006C006C006600C600C30183018F7
:103C90003018F83FF83F1C700C600C6006C006C07E
:103CA0000000000000000000000000000000FC0315
:103CB000FC0F0C0C0C180C180C180C0CFC07FC0F4F
:103CC0000C180C300C300C300C300C18FC1FFC079E
:103CD0000000000000000000000000000000C0071D
:103CE000F01F38381C300C70066006000600060015
:103CF00006000600060006600C701C30F01FE0078E
:103D00000000000000000000000000000000FE03B2
:103D1000FE0F060E0618061806300630063006306E
:103D200006300630063006180618060EFE0FFE0393
:103D30000000000000000000000000000000FC3F48
:103D4000FC3F0C000C000C000C000C00FC1FFC1FC6
:103D50000C000C000C000C000C000C00FC3FFC3FA5
:103D60000000000000000000000000000000F83F1C
:103D7000F83F18001800180018001800F81FF81F66
:103D80001800180018001800180018001800180073
:103D90000000000000000000000000000000E00F34
:103DA000F83F3C780E6006E007C00300030003FE06
:103DB00003FE03C007C006C00EC03CF0F83FE00F92
:103DC00000000000000000000000000000000C30B7
:103DD0000C300C300C300C300C300C30FC3FFC3F05
:103DE0000C300C300C300C300C300C300C300C30F3
:103DF0000000000000000000000000000000800142
:103E000080018001800180018001800180018001AA
:103E1000800180018001800180018001800180019A
:103E2000000000000000000000000000000000068C
:103E30000006000600060006000600060006000652
:103E4000000600060006180618063807F003E00111
:103E5000000000000000000000000000000006302C
:103E60000618060C060606038601C60066007600E4
:103E7000DE008E0106030606060C061806300660F4
:103E8000000000000000000000000000000018001A
:103E90001800180018001800180018001800180062
:103EA000180018001800180018001800F81FF81F54
:103EB00000000000000000000000000000000EE014
:103EC0001EF01EF01EF036D836D836D836D866CC5E
:103ED00066CC66CCC6C6C6C6C6C6C6C686C386C3BC
:103EE00000000000000000000000000000000C3096
:103EF0001C303C303C306C306C30CC30CC308C31B1
:103F00000C330C330C360C360C3C0C3C0C380C309F
:103F10000000000000000000000000000000E007BA
:103F2000F81F1C380E70066003C003C003C003C036
:103F300003C003C003C006600E701C38F81FE00702
:103F40000000000000000000000000000000FC0F66
:103F5000FC1F0C380C300C300C300C300C18FC1FD3
:103F6000FC070C000C000C000C000C000C000C00FA
:103F70000000000000000000000000000000E0075A
:103F8000F81F1C380E70066003E003C003C003C0B6
:103F900003C003C007E006630E3F1C3CF83FE0F798
:103FA00000C0000000000000000000000000FE0F44
:103FB000FE1F06380630063006300638FE1FFE07A4
:103FC00006030606060C06180618063006300660BC
:103FD0000000000000000000000000000000E003FE
:103FE000F80F1C0C0C180C180C001C00F803E00F48
:103FF000001E0038063006300E301C1CF80FE0079B
:104000000000000000000000000000000000FE7F33
:10401000FE7F80018001800180018001800180019C
:104020008001800180018001800180018001800188
:1040300000000000000000000000000000000C3044
:104040000C300C300C300C300C300C300C300C3090
:104050000C300C300C300C300C301818F81FE00706
:1040600000000000000000000000000000000360ED
:104070000630063006300C180C180C18180C180CEA
:10408000380E30063006700760036003C001C001BF
:1040900000000000000000000000000000000360BD
:1040A000C361C361C36166336633663366336633A7
:1040B00066336C1B6C1B6C1B2C1A3C1E380E380EA6
:1040C00000000000000000000000000000000FE001
:1040D0000C7018303018700C600EC007800380031D
:1040E000C003E006700C301C18180C300E6007E09E
:1040F000000000000000000000000000000003C0FD
:1041000006600C301C383818300C6006E007C0031D
:104110008001800180018001800180018001800197
:104120000000000000000000000000000000FC7F14
:10413000FC7F006000300018000C000600038001C6
:10414000C0006000300018000C000600FE7FFE7FFB
:104150000000000000000000000000000000E0037C
:10416000E0036000600060006000600060006000CC
:10417000600060006000600060006000600060003F
:10418000600060006000E003E00300000000300019
:104190003000600060006000C000C000C000C001CE
:1041A0008001800180010003000300030006000677
:1041B0000000000000000000000000000000E0031C
:1041C000E0030003000300030003000300030003F7
:1041D00000030003000300030003000300030003C7
:1041E000000300030003E003E00300000000000000
:1041F000C001C00160036003600330063006180C84
:10420000180C00000000000000000000000000008A
:10421000000000000000000000000000000000009E
:10422000000000000000000000000000000000008E
:104230000000000000000000000000000000FFFF80
:10424000FFFF0000000000000000000000000C0064
:104250000C000C000C000C000C0000000000000022
:10426000000000000000000000000000000000004E
:10427000000000000000000000000000000000003E
:104280000000000000000000F003F8071C0C0C0CFC
:10429000000FF00FF80C0C0C0C0C1C0FF80FF018A2
:1042A00000000000000000000000000000001800F6
:1042B0001800180018001800D803F80F380C181848
:1042C00018181818181818181818380CF80FD803D8
:1042D00000000000000000000000000000000000DE
:1042E0000000000000000000C003F007300E180CB2
:1042F0001800180018001800180C300EF007C00342
:104300000000000000000000000000000000001895
:104310000018001800180018C01BF01F301C1818D7
:1043200018181818181818181818301CF01FC01B67
:10433000000000000000000000000000000000007D
:104340000000000000000000C003F00F300C18183F
:10435000F81FF81F180018003818301CF00FC0079D
:104360000000000000000000000000000000800FBE
:10437000C00FC000C000C000F007F007C000C000C0
:10438000C000C000C000C000C000C000C000C0002D
:10439000000000000000000000000000000000001D
:1043A0000000000000000000E00DF80F180E0C0CDB
:1043B0000C0C0C0C0C0C0C0C0C0C180EF80FE00D6B
:1043C000000C0C0C1C06F807F0010000000018009F
:1043D0001800180018001800D807F80F381C181813
:1043E000181818181818181818181818181818184D
:1043F0000000000000000000000000000000C000FD
:10440000C000000000000000C000C000C000C000EC
:10441000C000C000C000C000C000C000C000C0009C
:104420000000000000000000000000000000C000CC
:10443000C000000000000000C000C000C000C000BC
:10444000C000C000C000C000C000C000C000C0006C
:10445000C000C000C000F8007800000000000C00A0
:104460000C000C000C000C000C0C0C060C038C0156
:10447000CC006C00FC009C018C030C030C060C0CA3
:104480000000000000000000000000000000C0006C
:10449000C000C000C000C000C000C000C000C0001C
:1044A000C000C000C000C000C000C000C000C0000C
:1044B00000000000000000000000000000000000FC
:1044C00000000000000000007C3CFF7EC7E383C1C9
:1044D00083C183C183C183C183C183C183C183C1BC
:1044E00000000000000000000000000000000000CC
:1044F00000000000000000009807F80F381C181892
:10450000181818181818181818181818181818182B
:10451000000000000000000000000000000000009B
:104520000000000000000000C003F00F300C18185D
:1045300018181818181818181818300CF00FC0038D
:10454000000000000000000000000000000000006B
:104550000000000000000000D803F80F380C181805
:1045600018181818181818181818380CF80FD80335
:1045700018001800180018001800000000000000C3
:104580000000000000000000C01BF01F301C1818C5
:1045900018181818181818181818301CF01FC01BF5
:1045A0000018001800180018001800000000000093
:1045B0000000000000000000B007F00370003000B1
:1045C000300030003000300030003000300030006B
:1045D00000000000000000000000000000000000DB
:1045E0000000000000000000E003F003380E180C8B
:1045F0003800F003C007000C180C380EF007E00379
:1046000000000000000000000000000000000000AA
:104610008000C000C000C000F007F007C000C0006C
:10462000C000C000C000C000C000C000C0078007BC
:10463000000000000000000000000000000000007A
:1046400000000000000000001818181818181818AA
:1046500018181818181818181818381CF01FE0190E
:10466000000000000000000000000000000000004A
:1046700000000000000000000C18180C180C180CAA
:10468000300630063006600360036003C001C001DD
:10469000000000000000000000000000000000001A
:1046A0000000000000000000C141C141C36163631C
:1046B000636363633636363636361C1C1C1C1C1C82
:1046C00000000000000000000000000000000000EA
:1046D00000000000000000001C38381C300C600690
:1046E00060036003600360036006300C381C1C38F4
:1046F00000000000000000000000000000000000BA
:104700000000000000000000183030183018701849
:10471000600C600CE00CC006C006800380038003C0
:1047200080018001C001F000700000000000000066
:104730000000000000000000FC1FFC1F000C000631
:1047400000038001C000600030001800FC1FFC1F47
:104750000000000000000000000000000000000356
:104760008001C000C000C000C000C000C0006000E8
:104770006000300060004000C000C000C000C00009
:10478000C000C000800100030000000000008001A4
:104790008001800180018001800180018001800111
:1047A0008001800180018001800180018001800101
:1047B0008001800180018001800100000000600014
:1047C000C000C001800180018001800180010003E0
:1047D00000030006000300018001800180018001C8
:1047E00080018001C00060000000000000000000A7
:1047F000000000000000000000000000F010F81FA2
:10480000080F000000000000000000000000000091
:104810000000000000000000000000000000000098
:104820000000000001020304060708094C480008C4
:1048300000000020640000008C2B0008B048000835
:1048400064000020AC0400009C2B00080000FFFF67
:10485000000000FF00000000000000000000000059
:1048600014008813E80300000000000000000000AE
:104870000000000000000000000000000000000038
:104880000000000000000000000000000000000028
:104890000000000000000000000000000000000018
:1048A0001000000001000000000000000024F400DF
:04000005080001D915
:00000001FF
