:020000040800F2
:10000000A01B002099020008FB5300080F4A0008BB
:10001000F9530008E11700088D690008000000008E
:100020000000000000000000000000000957000868
:100030008F1A000800000000C95500080B5700087F
:10004000B3020008B3020008B3020008B3020008BC
:10005000B3020008B3020008B3020008B3020008AC
:10006000B3020008B3020008B3020008B30200089C
:10007000B3020008E1190008B3020008B302000847
:10008000B302000800000000B3020008B302000839
:10009000B3020008B3020008B3020008B30200086C
:1000A000B3020008B3020008B3020008B30200085C
:1000B000B3020008B3020008B3020008B30200084C
:1000C000B3020008B3020008B3020008B30200083C
:1000D000B3020008696900087569000881690008B1
:1000E000B3020008B3020008B3020008B30200081C
:1000F000B3020008B3020008B302000800000000C9
:1001000000000000B302000800000000B302000875
:10011000B30200080000000085570008B302000881
:10012000B3020008B3020008B3020008B3020008DB
:10013000B30200080000000000000000B302000845
:10014000B3020008B3020008000000000000000035
:10015000000000000000000000000000000000009F
:10016000000000000000000000000000B3020008D2
:10017000B3020008000000000000000000000000C2
:1001800000000000B30200080000000000000000B2
:10019000000000000000000000000000000000005F
:1001A0000000000000000000B3020008B3020008D5
:1001B000B3020008B3020008B30200080000000008
:1001C00000000000B3020008000000000000000072
:1001D000B3020008B302000800F002F800F04CF887
:1001E0000AA090E8000C82448344AAF10107DA4592
:1001F00001D100F041F8AFF2090EBAE80F0013F098
:10020000010F18BFFB1A43F001031847F0810000EB
:1002100010820000103A24BF78C878C1FAD852077B
:1002200024BF30C830C144BF04680C607047000070
:100230000023002400250026103A28BF78C1FBD8EF
:10024000520728BF30C148BF0B607047662907F0CE
:100250006484642900F0F480002070471FB507F023
:1002600057FC00F07FFC04000020002106F07CFF1A
:10027000E0601FBD10B510BD00F074FD1146FFF722
:10028000EDFF06F00BFC00F092FD03B4FFF7F2FF68
:1002900003BC00F0D5FD000009488047094800472D
:1002A000FEE7FEE7FEE7FEE7FEE7FEE7FEE7FEE726
:1002B000FEE7FEE704480549054A064B7047000083
:1002C00075570008D9010008A0150020A01B0020C8
:1002D000A0170020A017002053EA020C00F069804C
:1002E0002DE9F04B4FF00006002B1FBFB3FA83F54A
:1002F00003FA05F424FA05F65E4012BF1643B2FA7B
:1003000082F502FA05F4C5F120051EBF22FA05FCAC
:1003100044EA0C04203556EA044C4FEA144418BF52
:10032000641C4FF000084FF00009904271EB030C81
:1003300039D3002919BFB1FA81F701FA07F6B0FAEB
:1003400080F700FA07F6C7F120071EBF20FA07FC66
:1003500046EA0C062037B6FBF4FCA7EB0507103F76
:1003600007F01F0BCBF120060CFA0BFB2CFA06F65C
:1003700044BFB3460026202FA4BF5E464FF0000BBB
:100380005BEA060C08BF4FF0010B19EB0B09ABFB46
:10039000027C48EB0608C01B06FB02CC0BFB03CC1F
:1003A00071EB0C01C1E70B46024641464846BDE8E9
:1003B000F08B13B54FF000004FF00001AFF3008059
:1003C000BDE81C40704700000FB41CB5074B06AADF
:1003D0007B4469460090059800F0ABFB002069461D
:1003E00000F0BAFB1CBC5DF814FB000085070000A0
:1003F00070B5044685690068C10601D5302600E065
:100400002026C00707D070BDD4E9012130469047AF
:10041000206A401C20626D1EF6D570BD70B5044682
:1004200085690078C00707D170BDD4E9012120207B
:100430009047206A401C20626D1EF6D570BD0000FA
:100440002DE9F0410646002410687529314616A5AD
:1004500010D0AFF30080002802DA404213A507E075
:1004600031688A0701D512A502E0490704D511A514
:10047000012401E0AFF3008000210A2206F12407E5
:1004800009E0B0FBF2FCB0FBF2F302FB1C003030E1
:1004900078541846491C0028F3D123462A46304692
:1004A000BDE8F04100F0D8B8000000002D000000C9
:1004B0002B000000200000002DE9F0474FF0000A5B
:1004C00089460446C0F820A02046E16888470028F5
:1004D00076D0252806D0D4E901219047206A401C17
:1004E0002062F1E7E168204600258847C4F81CA097
:1004F00006460027C4F818A02A2E09D0304606F078
:100500006EFA38B304EB8708303EC8F8186019E07B
:1005100059F8041B204604EB87029161E168884783
:10052000012F064618D1E069002820DA25F02005C1
:100530001DE0D8F8180000EB800006EB40003038D2
:10054000C8F818002046E1688847064606F047FAD2
:100550000028EED1012F0AD02E2E08D12046E168C6
:1005600088477F1C0646022F45F02005C4DBA069A2
:10057000002803DA404245F00105A061E80701D0F8
:1005800025F01005B6B1A6F14100192802D8203691
:1005900045F400654A463146204625604D46FFF742
:1005A00055FE58B1012806D0ED1D25F0070000F1D9
:1005B000080989E704E005F1040985E730468AE780
:1005C000206ABDE8F08710B5431C02E010F8011B5B
:1005D00071B18107FAD14FF0013202C88C1A8C43F5
:1005E00014EAC211F9D0C01A0A0603D0C01E10BD09
:1005F000C01A10BD0A0401D0801E10BD0902FCD033
:10060000401E10BD4FF0000200B5134694469646BA
:10061000203922BFA0E80C50A0E80C50B1F1200115
:10062000BFF4F7AF090728BFA0E80C5048BF0CC0C3
:100630005DF804EB890028BF40F8042B08BF704721
:1006400048BF20F8022B11F0804F18BF00F8012B93
:1006500070477047704770472DE9F0470D4699463F
:100660009246044600F124080168880604D5E06932
:1006700021F01001216000E00120A84201DD471BAC
:1006800000E00027A1697A1902EB0900081AA061AD
:100690002078C00602D42046FFF7AAFE002608E014
:1006A000D4E901211AF806009047206A401C761C04
:1006B00020624E45F4DB2078C0060AD52046FFF7BD
:1006C00097FE06E0D4E9012130209047206A401CC3
:1006D0002062381EA7F10107F4DC07E0D4E901210C
:1006E00018F805009047206A401C2062281EA5F1DA
:1006F0000105F3DC2046FFF791FE2078000602D5C5
:100700000220BDE8F0870120FBE770472DE9FF4F8D
:100710000C461E464FF0FF378BB0D2E90001DDF8E2
:1007200060800A908A46C1F30A5505B93D4600210A
:1007300008464FF00000BAF1000F00F4400005DA5F
:1007400000EB80004FF4400101EA50004FEA90595D
:10075000B9F1010F00DDB9460A9850EA4A000ED0FF
:1007600044F61050A5F2FF3545432F14B8F1000FA1
:100770001ED07542291E1EDDC9F100021CE0B8F131
:10078000010F4FF0000001D0302103E0F24305E0FB
:100790002154401CB042FBDB304600220021215492
:1007A0000B99C1F80880C1E900200FB0BDE8F08FB7
:1007B000BD1B6D1CDEE74A4600DA694206A800F060
:1007C0005BFA06AB93E8070003AB83E807005046EB
:1007D0000A9900F03CFB8DE80700A0F500501F3897
:1007E00000900398002D0ADD42F21F014A4608449A
:1007F000002303A90390684600F0A5FD09E0A0F5D9
:1008000000504A461F38002303A90390684600F0B1
:10081000AFFD8DE807000004000C03D04FF0FF305F
:10082000410800E01046B8F1000F03D0002200920A
:1008300015461EE0751E05D400F098F93032625559
:100840006D1EF9D5B3460122084302D000227F1C59
:1008500004E02078302801D100227F1E002A099769
:1008600084D01DE0112D07DA00F080F93032625596
:100870006D1C50EA0102F5D1084302D00098C8B1BE
:100880000EE00021681E05E0235C625C6354225484
:10089000401E491C8142F7DBAB46A81B401E099055
:1008A000002004F80B000B98099AC0F80880C0E9F2
:1008B000002B7AE711264FF0000857E72DE9F04F9B
:1008C00088460446D21D22F0070191B0D1E900010B
:1008D000CDE90A0106F05BF802460B98C00F01D083
:1008E0002D2007E02068810701D52B2002E0202180
:1008F00001EAC000032A099001D0072A05DB03465C
:100900004146204600F078F90BE12078800601D5B9
:10091000E06900E00620B8F1650F814606D0B8F125
:10092000660F18D0B8F1670F70D131E00020B9F12F
:10093000110F009001DB112301E009F101030AAA64
:1009400001A90CA8FFF7E2FEDDE90C70002609F111
:100950000105834647E001204B4600904FF00047D9
:100960000AAA01A90CA8FFF7D1FEDDE90DB00C9988
:100970005D46002610B909F101000D18B9EB05001C
:1009800003D4C0F1FF3609F10105A5EB09002BE006
:10099000B9F1010F01DA4FF001090020B9F1110F8F
:1009A0000090484601DD112300E003460AAA01A990
:1009B0000CA8FFF7ABFEDDE90C704D460026834620
:1009C000207800070AD4AB4500DA5D4601A8012D66
:1009D00004DD411911F8011C302907D04F4502DA16
:1009E00017F1040F04DA012082460FE06D1EEEE7D6
:1009F000002F02DCED1B3E4403E0781CA84200DD22
:100A00007D1CB81B00F1010A4FF000472078000759
:100A100003D4AA4501DB4FF0FF3A0021B7F1004FA4
:100A20000DF143088DF8431024D002202B23002F12
:100A300001DA7F422D230A21021EA0F1010000DC11
:100A40005FB197FBF1FC97FBF1F201FB1C7C1746B1
:100A50000CF1300C08F801CDEEE7A8F101000370AD
:100A60002188090501D5452100E06521A0F1010893
:100A700000F8011C09980FA9A1EB0807FF1D00B1A0
:100A80000120411901EBEA70A1693844081A401E9F
:100A9000A0612078C00602D42046FFF7A9FC09987F
:100AA00028B1D4E901219047206A401C20622078B7
:100AB000C00622D52046FFF79BFC1EE0002E04DB7B
:100AC000B34502DD01A8805D00E03020D4E90121BA
:100AD0009047206A401C2062761CAAF101005FEA60
:100AE000000A0AD100F03EF8C0680168405CD4E911
:100AF00001219047206A401C2062281EA5F10105B3
:100B0000DCDC07E0D4E9012118F8010B9047206AEA
:100B1000401C2062381EA7F10107F3DC2046FFF7D6
:100B20007DFC032011B041E601694A1C026108788E
:100B3000704700B58FB0CDE901310021059105491D
:100B40007944CDE9031011466846FFF7B5FC0FB0B4
:100B500000BD0000E5FFFFFF0A6802F8010B0A6014
:100B600070470000004870476015002030B5B0F1B4
:100B70000A024FEA900E71F100034EEA817EB0EB5B
:100B80000E0061EB91014FEA101E4EEA017E10EB60
:100B90000E0041EB11114FEA102E4EEA016E10EBE0
:100BA0000E0041EB11214FEA104E4EEA014E10EBC0
:100BB0000E0041EB1141401841F100014FEAD00015
:100BC00040EA41704FEAD10110EB80054FEA810401
:100BD00044EA907444EB01046D1944EB0404521B85
:100BE000A3414FF0000348BF0A3200D530BD401C7E
:100BF00041F1000130BD00002DE9F0411F460446DF
:100C000003260168072A01F4006004DB08B116A579
:100C100005E016A503E008B115A500E015A521F033
:100C200010002060A069C01EA0610FB1401EA0612D
:100C30002046FFF7DDFB4FB1D4E90121384690474C
:100C4000206A401C2062C01C206206E0206AFAE78D
:100C5000D4E9012115F8010B9047761EF8D2204601
:100C6000FFF7DCFBBDE8F0814E414E006E616E0087
:100C7000494E4600696E66002DE9F04781461646EA
:100C80008AB0354878440DC88DE80D003248784464
:100C9000801C03AC0DC884E80D0041F69B3008446D
:100CA000372190FBF1F290FBF1F5A5F1800501FBF6
:100CB00012041B3C02D56442012000E00020DFF852
:100CC00098A080460027FA44AAF1BE0A0EE0E00789
:100CD0000AD03246684607EB470101230AEB81013F
:100CE00000F046FB8DE8070064107F1C002CEED15D
:100CF000194F7F44AE3F19E0E80715D007EB041009
:100D00000DF1180A90E80E008AE80E00C068F04263
:100D100001D1981908903246012306A903A800F0D2
:100D200027FB03AB83E807006D10641C002DE3D1A3
:100D30004FF0010332466946B8F1000F03A802D014
:100D400000F001FB01E000F013FBC9E90001C9F864
:100D500008200AB0BDE8F0875C77000000487047C3
:100D6000401500207546FFF7F9FFAE4605006946BD
:100D7000534620F00700854618B020B5FFF79AFAD1
:100D8000BDE820404FF000064FF000074FF000088C
:100D90004FF0000B21F00701AC46ACE8C009ACE80D
:100DA000C009ACE8C009ACE8C0098D46704710B571
:100DB0000446AFF300802046BDE81040FFF765BA57
:100DC0004FF0013C50F8042B51F8043B9A4221D1DA
:100DD000A2EB0C03934313EACC1317D150F8042B66
:100DE00051F8043B9A4215D1A2EB0C03934313EA4A
:100DF000CC130BD150F8042B51F8043B9A4209D183
:100E0000A2EB0C03934313EACC13DBD04FF00000AA
:100E1000704700BFD01A01BAB1FA81F101F0180190
:100E200022FA01F0CB40C1F12001DBB2C0B2C01AFE
:100E30002CFA01F3D11A914311EAC311E6D170479C
:100E400001491820ABBEFEE72600020070475FEAAA
:100E5000400C08BF91F0000F4FEA8C234FEAC122EB
:100E600043EA51514FEA1C5018BF00F5F0404FEAD9
:100E7000300018BF41F000415FEA6C5C00F029804F
:100E8000BCF1FF3F08BF40F080407047130C06BF25
:100E900012044FF0100C4FF0000C130E04BF12029E
:100EA0000CF1080C130F04BF12010CF1040C930F8A
:100EB00004BF92000CF1020CD30F04BF52000CF1DE
:100EC000010C11464FF00002A0F11F00A0EB0C0036
:100ED000704711F0004F08BF704731F000413FF4F8
:100EE000D5AF0B0C06BF09044FF0100C4FF0000CEF
:100EF0000B0E04BF09020CF1080C0B0F04BF090113
:100F00000CF1040C8B0F04BF89000CF1020CCB0F09
:100F100004BF49000CF1010CCCF12003A0EB0C0044
:100F200022FA03F302FA0CF241EA030100F1010094
:100F3000704720F07F4C80EA030023F07F47ACEB42
:100F4000070303F57C5300F0004003F1FF032DE994
:100F500080494FEA154B09B44FEA144325EA0B4E7A
:100F600024EA03480FF2042606EB132749083E78CB
:100F70005FEA320203FB0667C7F5000707FB06F6C8
:100F80004FEA54374FEAD64606F1020607FB066CD5
:100F9000CCF1005C4FEA1C472CEA074C07FB06F437
:100FA0000CFB06F504EB15464FEA961634BF0020FD
:100FB0004FF000404FEAD13706FB07FC4FEA1C4CCC
:100FC0000CFB0BF7D21B03FB0CF761EB07010CFBCF
:100FD0000EF7B0EB074072EB17420CFB08F734BF7B
:100FE000A2EB0742B2EB074261EB17414FEA0C4418
:100FF0004FEA910706FB07FC4FEA1C4C0CFB0BF772
:10100000B0EBC74072EB573203FB0CF734BFA2EBD7
:10101000C742B2EBC74261EB57310CFB0EF7B0EBA6
:10102000C70072EB57720CFB08F734BFA2EBC70284
:10103000B2EBC70261EB5771039F4FEA816141EA4E
:10104000921104EBCC044FEAD1374FEA826206FBDF
:1010500007FC42EA90124FEA80604FEA1C4C0CFBFE
:101060000BF7D21B03FB0CF761EB07010CFB0EF730
:10107000B0EB074072EB17420CFB08F734BFA2EB52
:101080000742B2EB074261EB17414FEA8C554FEA3A
:10109000910704EB9C2406FB07FC4FEA1C4C0CFB5D
:1010A0000BF7B0EBC74072EB573203FB0CF734BFC2
:1010B000A2EBC742B2EBC74261EB57310CFB0EF714
:1010C000B0EBC70072EB57720CFB08F734BFA2EB12
:1010D000C702B2EBC70261EB577115EB4C254FEA23
:1010E000816141EA92114FEA82624FEAD13742EAC6
:1010F000901206FB07FC44F100044FEA80604FEABF
:101100001C4C0CFB0BF7D21B03FB0CF761EB07012C
:101110000CFB0EF7B0EB074072EB17420CFB08F725
:1011200034BFA2EB0742B2EB074261EB174115EB6C
:101130001C154FEA813141EA92414FEA823242EA7C
:1011400090424FEA80304FEA0C7644F1000448EABE
:1011500003434EEA0B484FF0000EB2EB080C71EB64
:10116000030724BF624639464EEB0E0E4FF0000BCC
:101170000018524149414BEB0B0BB2EB080C71EBE1
:1011800003077BF1000B24BF624639464EEB0E0E7F
:101190004FF0000B0018524149414BEB0B0BB2EBE7
:1011A000080C71EB03077BF1000B24BF6246394644
:1011B0004EEB0E0E51EA020718BF46F0010616EB81
:1011C0000E7655F1000254F1000103D5BDE8890106
:1011D000BDE80088BDE88901BDE80048B619524164
:1011E00041EB0101A3F10103704780807F7E7D7C8C
:1011F0007B7A7978777676757473727171706F6EA9
:101200006E6D6C6C6B6A6A69686867666665646453
:10121000636362616160605F5F5E5E5D5D5C5C5BDD
:101220005B5A5A595958585757565655555554544C
:10123000535352525251515050504F4F4F4E4E4DAA
:101240004D4D4C4C4C4B4B4B4A4A4A4949494848F6
:101250004847474747464646454545444444444336
:1012600043434342424242414141002B9C4630D4D9
:1012700077002BD01CB54FEA370703B44FF01000AE
:101280004FF01001BAF1000F06D0BCF1000FDCBF27
:1012900040F0080040F008014FF000000FBCBDE82E
:1012A00010400BF1010BBBF1010F08BF5FEA1707FC
:1012B00022BF12F1010211F101014FF0004143F18F
:1012C000000300F0004043EA00007047F9D35708DC
:1012D000D0E746EA064613F1400F4FEA16461FDDF7
:1012E00013F1200FDFBF16430A46002120335B4273
:1012F000BED0C3F1200746EA064602FA07F74FEAD6
:10130000164646EA0706C3F1200722FA03F201FA5D
:1013100007F721FA03F14FF0000342EA0702A7E7BB
:1013200046EA020646EA06464FEA164646EA01063D
:10133000BCBF46EA0646360C4FF000034FF00002F1
:101340004FF0000194E72DE9804C9A46934670B423
:1013500091E8380007C831EA400C48BF34EA430C32
:1013600003D5FFF7E6FDFFF780FFF0BCBDE8008C7A
:101370002DE9804C9A46934670B491E8380007C82E
:1013800010F0804F08BF13F0804F03D100F005F834
:10139000FFF76BFFF0BCBDE8008C20F07F4780EAD0
:1013A000030023F07F4C07EB0C03A3F57C5300F004
:1013B0000040A3F1FE0392F0000F00F0B38095F01F
:1013C000000F00F077802DE901494FEA11404FEA04
:1013D000144621EA004800FB06FC24EA064708FB05
:1013E00006F607FB08F800FB07F718EB06484CEB7E
:1013F000164C4FEA124B18EB07484FEA15464CEBD8
:10140000174022EA0B4E0BFB06FC25EA06470EFBB3
:1014100006F607FB0EFE0BFB07F71EEB064E4CEB2A
:10142000164C4FF000061EEB074E4CEB174B18EB1B
:101430000B0840F1000018EB0E0B58EB000840F1D0
:1014400000008F1A4FF000013CBFC943661B14BF58
:10145000B5EB040C00213CBFC943F61B4FEA17440F
:101460004EEA8E0E27EA04454FEA1C4704FB07624A
:101470002CEA074C05FB07F70CFB05F604FB0CFCFC
:1014800016EB074642EB174216EB0C4642EB1C42AA
:101490001BEB060658EB0202414146EA9E0601D5C7
:1014A000BDE80189B619524141EB0101A3F10103E5
:1014B000BDE801894FEA14454FEA114724EA054681
:1014C00021EA074C05FB07F406FB07F70CFB06F1C6
:1014D00005FB0CFC11EB074144EB17444FEA1247A4
:1014E00011EB0C4144EB1C4422EA074C05FB07F2CC
:1014F00006FB07F70CFB06F605FB0CFC16EB074694
:1015000042EB174216EB0C4642EB1C456A1854F1AD
:10151000000148BF7047B619524141EB0101A3F1E8
:101520000103704795F0000F37D04FEA11424FEAA0
:10153000144721EA024624EA074C02FB07F106FBA6
:1015400007F70CFB06F402FB0CFC14EB074441EB21
:1015500017414FEA154714EB0C4441EB1C4125EAB7
:10156000074C02FB07F506FB07F70CFB06F602FB30
:101570000CFC16EB074645EB174516EB0C4645EB06
:101580001C42121951F1000148BF7047B61952416F
:1015900041EB0101A3F1010370474FEA14454FEA03
:1015A000114724EA054621EA074C05FB07F106FB33
:1015B00007F70CFB06F24FF0000605FB0CFC12EBE4
:1015C000074241EB174112EB0C4251EB1C4148BF63
:1015D0007047921841EB0101A3F10103704700002D
:1015E0002DE9F041044600270D46006803F0AEFCEB
:1015F0000646206803F0A6FC30435DD02068C16831
:101600002E4E890105D5617F012902D1217F012953
:101610000BD0022D1DD0206803F098FCB8B12068D3
:101620008168C1F3400169B111E00125244902E05C
:101630008F4232D27F1C0268D2435206F8D4402136
:101640000160E8E78168314041F010018160012DBF
:1016500011D0206803F076FC48B120688168C1F39E
:10166000400121B98168314041F020018160022DA3
:1016700008D0032D04D0042501F0C0F9064617E078
:101680000C25F9E70825F7E701F0B8F9801B0528D4
:101690000ED92068806828420AD0E06D40F0100022
:1016A000E065206E40F0010020660120BDE8F08179
:1016B000206880682842E7D10020F7E7C0FFFF7F5D
:1016C000000040A370B50446006881688268C1F3D9
:1016D000400112F0010F28D039BB816801F00D01E3
:1016E000012914D18168124A1140891C8160216846
:1016F0000320086001F082F9054612E001F07EF94E
:10170000401B02280DD920688068C00709D0E06D11
:1017100040F01000E065206E40F0010020660120DE
:1017200070BD20688068C007E8D1002070BD00004F
:10173000C0FFFF7FF8B50446002000902068816854
:1017400011F0010F41D18168214A11422ED18168E7
:10175000D5432940491C81601E48806800F0E07034
:1017600000020DD51C481D490068B0FBF1F0401C7B
:1017700000EB4000800000E0401E00900028FBD1FC
:1017800001F03CF906461BE0816811F0010F03D11E
:1017900081682940491C816001F030F9801B0228D2
:1017A0000ED920680068C043C00709D0E06D40F042
:1017B0001000E065206E40F0010020660120F8BDB9
:1017C00020680168C943C907DED10020F8BD0000C8
:1017D0003F0000800003005048000020400D03003F
:1017E000FEE7000070B5002400F04CF8124D04E054
:1017F000641CE4B20E20401EFDD22021284601F0D8
:10180000F3F810B1642CF3D30FE0642C0DD2002454
:1018100004E0641CE4B20E21491EFDD220212846BA
:1018200001F0E2F818B1642C04D3012070BD642CDF
:10183000EFD3FAE7002070BD0004004800B587B080
:1018400014216846FEF7DEFE0C48C16C41F0010130
:10185000C164C06C694600F0010005902020009032
:101860000120019002200390054800F099FF00F04C
:101870009FF8FFF7B7FF07B000BD0000001002405F
:101880000004004800B587B014216846FEF7BAFE90
:101890000A48C16C41F00101C164C06C694600F0A6
:1018A000010005902020009000200190012002906E
:1018B000034800F075FF07B000BD000000100240B3
:1018C0000004004800B585B014216846FEF79AFE72
:1018D00020200090012001900220039069460248D8
:1018E00000F05EFF05B000BD0004004870B50024A4
:1018F000134D04E0641CE4B20E20401EFDD22021F2
:10190000284601F071F808B16E2CF3D3002404E0EE
:10191000641CE4B20E21491EFDD22021284601F0AC
:1019200063F808B96E2CF3D340F2FE41491EFDD294
:101930002021284601F058F8002800D0012070BD71
:101940000004004870B5002004464006050EFFF76D
:10195000CDFF641C2843E4B2082CF6D370BD2DE9FA
:10196000FC410D46064600F023F8FFF73BFF10B19F
:101970000120BDE8FC8100246F46FFF7E3FF3855E6
:10198000641CE4B2052CF8D39DF800109DF801000A
:101990009DF803300A189DF8020003441A449DF88C
:1019A00004309A4201D1297030700020E1E7000034
:1019B00010B5FFF787FF094C00222021204601F0D7
:1019C00018F8142000F0DAFE01222021204601F050
:1019D00010F84FF47070401EFDD210BD0004004896
:1019E000014800F0C7BD0000640300200D490268F3
:1019F0008A4201D20C4901E00B492031D2B21423B2
:101A0000083AB2FBF3F2436C02F01F0223F0030327
:101A10001944816404498031C16401219140016508
:101A20007047000008040240000802400179074A9C
:101A300002EB81024265054A4432491E826501F08B
:101A40001F0201219140C16570470000FC0802405F
:101A500030B5D0E913456560446D14B1D0E9164541
:101A6000656090F8444004F01F050124AC40056C0B
:101A70006C60046863608368102B036803D099600E
:101A80000068C26030BD9A600068C16030BD7047B8
:101A900072B6FEE72DE9F047044690F858009CB076
:101AA0000E464FF00009012815D0012084F8580097
:101AB00000251795189520684FF0A04840450ED195
:101AC000284F0097384603F045FA8246206803F015
:101AD00041FA60B10EE002201CB0BDE8F087E06D75
:101AE00040F02000E06584F858500120F4E7BAF196
:101AF000000F09D0E06D40F02000E0654FF00109D3
:101B000084F858504846E7E71748326840F61F7196
:101B1000002A826822F4604216D094F8383042EAF3
:101B2000433273681A438260D8F80820BB6802F019
:101B3000010203F001031A43E2D1B36832681A4389
:101B400083688B431A430BE08260D8F80820BB6897
:101B500002F0010203F001031A43D1D182688A43E3
:101B60008260CDE700010050000300502DE9F84FDE
:101B700000270446009790F85800DFF8E0930D46E0
:101B8000B846012811D0012684F85860206803F077
:101B9000DDF960B1E06D40F02000E0655FF0010725
:101BA00084F858803846BDE8F88F0220FBE7D5E975
:101BB00000210C23206803EA91131844036B01F001
:101BC0001F014FF01F0C0CFA01FCC2F3846223EAE0
:101BD0000C038A4013430363206803F0B7F982467D
:101BE000206803F0AFF95AEA00003CD1AA682968DE
:101BF0002068B2F1004F37D003F0B8F9206841698E
:101C000021F00041416120686969C268C2F3C102E4
:101C1000520091402A69042A31D000EB82002B68DF
:101C2000026EDFF83CC303F0F84302EA0C020B43F8
:101C30001A4342F00041016620682A69A96900EB55
:101C40008200026E22F080720A430266297F2268B7
:101C50002869012910D0002102EB8000026E22F0D9
:101C600000720A4302667DE0002203F07FF92068DB
:101C7000416941F00041C5E74FF00071ECE70021F8
:101C800003F05AF9400320684FF0000172D003F0CE
:101C900053F990FAA0F0B0FA80F1286842036ED0B0
:101CA00090FAA0F0B0FA80F0814204D100221146EF
:101CB000206803F06AF90121206803F03DF9400330
:101CC00020684FF001015DD003F036F990FAA0F0E2
:101CD000B0FA80F12868420359D090FAA0F0B0FA27
:101CE00080F0814204D100220121206803F04DF9E7
:101CF0000221206803F020F9400320684FF0020120
:101D000048D003F019F990FAA0F0B0FA80F12868F1
:101D1000420344D090FAA0F0B0FA80F0814204D19E
:101D200000220221206803F030F90321206803F02B
:101D300003F9400320684FF0030133D003F0FCF8AF
:101D400090FAA0F0B0FA80F1286842032FD090FA00
:101D5000A0F0B0FA80F0814204D100220321206873
:101D600003F013F92068816811F0010F22D0ACE074
:101D700000E004E003F0E0F8C0F384618DE7C0F315
:101D8000846091E703F0D8F8C0F38461A2E7C0F360
:101D90008460A6E703F0D0F8C0F38461B7E7C0F32E
:101DA0008460BBE703F0C8F8C0F38461CCE7C0F3FC
:101DB0008460D0E72A7B296850F8B03FC1F3120C49
:101DC00023EA0C0302F0180C664A22FA0CF20A40CD
:101DD00013430360E968494577D1286841031CD063
:101DE00090FAA0F1B1FA81F1491C01F01F01092913
:101DF0004FEA403132D8002912D000BF90FAA0F14A
:101E0000B1FA81F101F1010101F01F0106FA01F6B9
:101E100009D100BFC0F3846109E0C0F38461E3E746
:101E2000C0F38461EEE790FAA0F1B1FA81F101F11B
:101E3000010101F01F0146EA816102D1C0F3846013
:101E400003E090FAA0F0B0FA80F000F1010000F099
:101E50001F0000EB400041EA005132E000290ED0A3
:101E600090FAA0F1B1FA81F101F1010101F01F0135
:101E700006FA01F606D100BFC0F3846106E0C0F3A4
:101E80008461F1E790FAA0F1B1FA81F101F1010169
:101E900001F01F0146EA816102D1C0F3846003E0D2
:101EA00090FAA0F0B0FA80F000F1010000F01F00FD
:101EB0002D4A00EB400002EB005041EA000141F0E6
:101EC0000071AA68206803F051F828482A68024285
:101ED0003FF466AE26488168264B01F0E0719A42D5
:101EE00002D0254B9A421CD10B021AD42268B2F1BF
:101EF000A04F7FF455AE826841F4000122F0E072F9
:101F00000A4382601D481E490068B0FBF1F0401C86
:101F100000EB4000800000E0401E00900028FBD154
:101F20003EE6184D184BAA4207D1CD0105D42268D0
:101F30009A42F5D041F0807109E0144DAA42EFD1E8
:101F40004A02EDD422689A42EAD041F480018268C4
:101F500022F0E0720A43826022E6000000007F4027
:101F600000F0FF03FFFF0700000020FE00000880D4
:101F700000030050000021C31000C0904800002062
:101F8000400D0300000052C700010050000084CB48
:101F90000068006C70470000F8B54FF000050400C1
:101FA0002E46009502D0E06D10B107E00120F8BD8B
:101FB000204600F0EBF8266684F8586020688168B7
:101FC000C1F3407119B18168684A1140816020688D
:101FD0008168C1F3007189B98168654A114041F097
:101FE00080518160634864490068B0FBF1F04000B3
:101FF000801C00E0401E00900028FBD12068816812
:10200000C1F3007141B9E16D41F01001E165216E4C
:1020100041F001012166012502F098FFE16DC9063A
:1020200000D430B1E06D40F01000E0650125284695
:10203000F8BDE06D20F4807040F00200E06520689B
:10204000806810F0010F11D14FF0A04080684B491B
:1020500000F00100896801F00101084306D14848F9
:102060006168826822F47C120A438260E168E06B56
:10207000627F0843A16841EA4231084394F8241082
:1020800040EA0140012904D1218D3E4A02EB414141
:102090000843E16A29B101F47871226B014342EAF5
:1020A00001002268D168384B19400143D160206893
:1020B0000169626B21F0406111430161206802F007
:1020C00041FF70BB207F94F83810800340EA410242
:1020D0002168C86844F2020398431043C86020692D
:1020E0000028206801690AD041F48031016120682C
:1020F00050F8C01F22696FF30D01114307E021F46E
:1021000080310161206850F8C01F6FF30D0101603C
:1021100094F8400001280CD02068016921F00101E9
:102120000161606901282068016B21F00F0111D065
:1021300013E0D4E911010843D4E913121143084311
:1021400021680A6940F2FC739A43104340F0010091
:102150000861E6E7226A521E11430163E06D20F038
:10216000020040F00100E06561E70000C0FFFF5F92
:10217000C0FFFF7F48000020400D03000001005019
:10218000000300500000FEFF0740F0FF2DE9F04182
:1021900098B00446142111A8FEF734FA4421684689
:1021A000FEF730FA4FF40041206800268A03294DDB
:1021B0000327DFF8A480294CB0F1A04F10D0284BA2
:1021C000984244D10F926846009100F0C5FE08B1D4
:1021D000FFF75EFC2868401C286001281FD026E01D
:1021E0000F926846009100F0B7FE08B1FFF750FC6F
:1021F0002868401C2860012807D1E06C40F400509A
:10220000E064E06C00F400501690E06C40F00400D4
:10221000E064E06C00F004001690042010E0E06C34
:1022200040F40050E064E06C00F400501690E06C64
:1022300040F00400E064E06C00F00400169001201F
:102240001396CDE9110711A9404600F0A9FA18B07C
:10225000BDE8F0813800002000080048001002406E
:10226000000100502DE9F04104463B480F468168CB
:1022700001F01F05A16908290FD085B1052D0ED0E9
:10228000092D0CD0806800F4604060B1E06D40F032
:102290002000E0650120BDE8F081082604E0206808
:1022A000C068C007F1E7042600F0A8FB804615E0EF
:1022B000781C13D000F0A2FBA0EB0800B84200D8B5
:1022C00067B920680068304208D1E06D40F0040032
:1022D000E065002084F858000320DCE720680068EF
:1022E0003042E5D0E06D40F40070E065206802F017
:1022F00035FE80B1607F70B92068006800070AD59C
:10230000E06D20F48070E065E06DC00403D4E06D02
:1023100040F00100E065114A20684FF0A041904272
:1023200001D10B4600E00346834210D07DB1052D5C
:102330000DD0092D0BD0904200D00146C968082E5F
:1023400007D0490401D40C2101600020A3E7C16833
:10235000F5E70821F8E700000003005000010050F5
:102360002DE9F04104463848806800F01F052068D8
:1023700002F0ECFD18B102210846BDE8F08194F8A6
:10238000580001280CD0012084F858002046FFF79F
:10239000D1F901004FF0000304D084F85830EBE786
:1023A0000220EAE7E06D40F60162904340F480705D
:1023B000E065264A20684FF0A046904201D137469A
:1023C00000E00746874200D01DB9E76D27F480176B
:1023D000E765E76DFF0404D5276E27F0060727663B
:1023E00000E023661C27076084F85830206890427C
:1023F00001D1334600E00346834215D0A5B1052D37
:1024000012D0092D10D0E36D43F48013E3659042A0
:1024100000D13046C0688001AED5E06D20F4005098
:1024200040F48050E065A7E7C268920105D5E26DEF
:1024300022F4005242F48052E2658268044B1A4052
:10244000121D826098E70000000300500001005058
:10245000C0FFFF7F10B5044690F85800012808D04F
:10246000012084F8580003212046FFF7B9F810B185
:102470000BE0022010BD2046FFF724F928B9E16DDA
:1024800021F4885141F00101E165002184F85810E0
:1024900010BD10B590F8253000210122022B03D089
:1024A0000421C163012122E003681C6824F00E04AA
:1024B0001C60836C1C6824F480741C6003681C68B6
:1024C00024F001041C6090F84430046C03F01F03F6
:1024D00002FA03F36360D0E913345C60436D33B1F7
:1024E0001C6824F480741C60D0E916345C6080F8A9
:1024F0002520002280F82420084610BD70B590F8F1
:102500002520002401212346022A07D00422C26389
:1025100080F8251080F82430012429E0026815682D
:1025200025F00E0515600268156825F00105156097
:10253000826C156825F48075156090F84420056C50
:1025400002F01F0201FA02F26A60D0E91325556019
:10255000426D32B1156825F480751560D0E91625F5
:10256000556080F8251080F82430816B01B18847D0
:10257000204670BDF0B4016C0C6801680D6890F8DD
:10258000442002F01F06042202FA06F3234211D06F
:102590006B070FD50B689B0603D40B6823F004036D
:1025A0000B6090F8441001F01F018A40016C4A60F2
:1025B000016B1DE0022303FA06F727424FF0000CDF
:1025C0004FF0010218D0AF0716D50C68A40605D449
:1025D0000C6824F00A040C6080F8252090F8441060
:1025E00001F01F018B40016C4B6080F824C0C16A70
:1025F00000291AD0F0BC08470823B340234214D066
:102600002B0712D50B6823F00E030B6090F84410D3
:10261000036C01F01F0102FA01F15960C26380F8F6
:10262000252080F824C0416BE2E7F0BC7047000031
:1026300070B504000CD02B4A21681420914209D2B5
:10264000294A0A44B2FBF0F08000606427480AE09F
:10265000012070BD234A52420A44B2FBF0F08000D0
:102660006064204808382064022084F825000A6845
:1026700047F6F0708243D4E902031843D4E90435E5
:102680002B431843A3691843E3691843236A18438B
:10269000104308602046FFF7A9F9A0680025B0F5AF
:1026A000804F00D16560A16C20790860D4E91301E6
:1026B00041606068401E032808D82046FFF7B6F93D
:1026C000606D0560D4E91601416002E06565A565AD
:1026D000E565E563012084F8250084F82450002096
:1026E00070BD000008040240F8FFFDBF000002407A
:1026F00070B5044690F82400002501280CD0012074
:1027000084F8240094F825600020012E06D084F877
:1027100024000225284670BD022070BD022684F8E0
:102720002560E0632068066826F001060660204602
:10273000FFF78EF9206B00282068016802D041F075
:102740000E0106E021F0040101602068016841F0FB
:102750000A010160A06C0168C90303D5016841F456
:1027600080710160606D18B1016841F48071016091
:102770002068016841F001010160CBE770B50446B3
:1027800000F03CF90546601C02D00448406804444F
:1027900000F034F9401BA042FAD370BD3C00002089
:1027A0002DE9F04FDFF82092002301260324A9F140
:1027B000040B85B00F2709F1040AABF1040EFAE00F
:1027C00006FA03F52A407CD091F804C00CF0030C03
:1027D000BCF1010F02D0BCF1020F26D1D0F808C025
:1027E000CDF800C04FEA430C04FA0CF8CDF810C045
:1027F000DDF800C02CEA080CCDF800C0D1F80C8040
:10280000DDF810C008FA0CF8DDF800C048EA0C0842
:10281000C0F80880D0F804C02CEA050C0D79C5F387
:1028200000159D4045EA0C0545600D79ED43AD0767
:102830000ED0C5684FEA430804FA08FC25EA0C05E7
:10284000D1F808C00CFA08FC4CEA050CC0F80CC022
:102850000D7905F00305022D16D1DD0800EB850C7E
:10286000CDF808C0DCF820805D074FEAD56C07FA88
:102870000CF528EA05080D6905FA0CF5DDF808C025
:1028800045EA0805CCF8205005684FEA430CCDF81E
:1028900008C004FA0CFC25EA0C0591F804C00CF001
:1028A0000308DDF808C008FA0CF848EA0508C0F883
:1028B00000804D6815F4403F7CD0444DD5F860C091
:1028C00000E077E04CF0010CC5F860C02D6E23F0FD
:1028D000030C05F0010500953D4D65440295AD687A
:1028E0004FEA837C4FEA1C7807FA08FC25EA0C05BE
:1028F000B0F1904F06D0DFF8DCC0604505D14FF055
:10290000010C20E04FF0000C1DE0DFF8CCC060456A
:1029100002D14FF0020C16E0DFF8C0C0604502D1D2
:102920004FF0030C0FE0DFF8B8C0604502D14FF064
:10293000040C08E0DFF8ACC0604502D14FF0050C94
:1029400001E04FF0060C0CFA08FC4CEA050C029D65
:10295000C5F808C0D9F80050CC46D1F8048095439A
:102960005FEAC82800D51543CCF80050DAF80050CB
:10297000D446D1F8048095435FEA882800D51543F2
:10298000CCF80050DBF80050DC46D1F804809543C9
:102990005FEA883800D51543CCF80050DEF80050C7
:1029A000F446D1F8048095435FEAC83800D5154352
:1029B000CCF800505B1C0A6832FA03F57FF400AFD4
:1029C00005B0BDE8F08F000008040140001002408F
:1029D000000001400004004800080048000C0048C6
:1029E00000100048001400480069084000D0012091
:1029F00070470AB181617047816270470148806801
:102A0000704700003C00002090F84120202A24D18B
:102A100090F84020012A20D0012280F84020242272
:102A200080F841200268136823F0010313600268F4
:102A3000136823F480531360026813680B43136018
:102A400001680A6842F001020A60202180F8411002
:102A5000002180F84010084670470220704790F827
:102A60004120202A22D190F84020012A1ED00122A4
:102A700080F84020242280F841200268136823F067
:102A8000010313600268136823F4706343EA0121B1
:102A9000116001680A6842F001020A60202180F892
:102AA0004110002180F8401008467047022070470E
:102AB00070B5040004D094F84100002510B106E080
:102AC000012070BD84F84050204600F0FBF824201F
:102AD00084F841002068016821F00101016060680C
:102AE000216820F0706008612068816821F400414D
:102AF0008160E0680128A06830D040F4044021687B
:102B00008860E0680228206841682AD021F40061CA
:102B1000416020684168144A114341602068C168DF
:102B200021F40041C160D4E904010843A16940EAED
:102B300001202168C860D4E90701084321680860C2
:102B40002068016841F0010101606564202084F87B
:102B50004100256384F84250002070BD40F40040DD
:102B6000CDE741F40061D3E7008000022DE9FF4F7B
:102B700083B00446DDE9108790F84100DDF8489005
:102B80009A469346202871D15FEA080014D09FB17D
:102B900094F84000012869D0012084F84000FFF734
:102BA0002DFF0646012200901923D103204602F092
:102BB00011F800286ED103E04FF40070606469E002
:102BC000212084F84100402084F8420000256564FB
:102BD000C4F8248067856563CDE9009653465A465C
:102BE0002046049901F0ACFF10B184F8405051E048
:102BF000608DFF274FF080784FF0007AFF2804D9CE
:102C000027853A464346009505E0608D208500956E
:102C100094F8282053462046049901F0C3FF324619
:102C20004946204602F03EF8A0BB606A2168007861
:102C30008862606A401C6062608D401E6085208DE5
:102C4000401E80B22085618DD9B1D0B94B4600229B
:102C500080212046009601F0BDFFD8B9608DFF2885
:102C600005D927853A464346009506E026E0608D63
:102C70002085009594F8282053462046049901F0B9
:102C800091FF608D0028CAD132464946204601F0A6
:102C9000DEFF18B1012007B0BDE8F08F20682021C9
:102CA000C16120684268064B1A40426084F84110B6
:102CB00084F8425084F840500020ECE70220EAE714
:102CC00000E800FEF0B597B00446142111A8FDF706
:102CD00099FC44216846FDF795FC2049206888420C
:102CE00039D14020002500900695684600F034F95F
:102CF00008B1FEF7CDFE1A4CE06C40F00100E06434
:102D0000E06C00F001001690E06C40F00200E0641E
:102D1000E06C122600F00200169004274FF40040E9
:102D2000CDE91265CDE91457119011A9B006FFF74E
:102D300037FD8020CDE91265CDE91457119011A916
:102D40000848FFF72DFDA06D40F40010A065A06DB0
:102D500000F40010169017B0F0BD000000540040C1
:102D60000010024000040048024881684268114493
:102D7000816070473C00002010B50024032000F063
:102D800073F80F2000F008F808B1012401E000F00A
:102D900025F8204610BD000070B50E4E05460024F3
:102DA000706898B14FF47A71B1FBF0F00A49096884
:102DB000B1FBF0F000F060FD40B9102D06D200220A
:102DC0002946501E00F030F8356000E0012420460E
:102DD00070BD00003C000020480000200A4882B07E
:102DE000016E41F001010166016E01F001010091E7
:102DF000816D41F080518165806D00F080500090C0
:102E000002B000F0A1B8000000100240002809DB69
:102E100000F01F02012191404009800000F1E020F4
:102E2000C0F8001170470000F0B40E4B1B680C4650
:102E3000C3F30223C3F10705042D00D90425191D8E
:102E4000072901D2002300E0DB1E012606FA05F166
:102E5000491E214099409E40761E16403143F0BCE9
:102E600003F0ADBD0CED00E0064900F00702086874
:102E70004FF6FF03184040EA0220034A104308605F
:102E8000704700000CED00E00000FA052B492C4BC8
:102E90000A6832214A432B4940B1B0F5007F0868E7
:102EA00029D020F4C06040F480602CE00868C0F3B2
:102EB0004120022804D051F8800F20F4807022E0D5
:102EC000D1F8800020F48070C1F88000086820F4F8
:102ED000C06040F400700860B2FBF3F0401C00E0FA
:102EE000401E4A69520501D50028F9D148694005BC
:102EF0000AD503207047C0F34120022806D051F8BC
:102F0000800F40F48070086000207047D1F8800086
:102F100040F48070C1F88000086820F4C06040F47C
:102F200000700860B2FBF3F0401C00E0401E4A69EC
:102F30005205DBD50028F9D1D8E700004800002071
:102F400040420F00007000400248816841F4804117
:102F500081607047007000402DE9F8430446006826
:102F600000269D4D00035ED5A86D0027C00008D443
:102F7000A86D40F08050A865A86D012700F0805032
:102F80000090DFF85892D9F8001041F48071C9F828
:102F90000010FFF733FD804606E000BFFFF72EFD6F
:102FA000A0EB080002282BD8D9F80000C005F5D501
:102FB000D5F8900010F4407014D0216C814211D0EB
:102FC000D5F89000D5F8901020F4407041F480318D
:102FD000C5F89010D5F8901021F48031C5F8901004
:102FE000C5F89000C00711D0FFF708FD804641F2F8
:102FF000883907E0FFF702FDA0EB0801494501D938
:1030000003260BE0D5F890008007F3D5D5F89000A3
:10301000216C20F440700843C5F890001FB1A86DE2
:1030200020F08050A8652078C00707D0D5F8880028
:10303000616820F003000843C5F888002078800705
:1030400007D5D5F88800A16820F00C000843C5F822
:1030500088002078400707D5D5F88800E16820F07F
:1030600030000843C5F888002078000707D5D5F858
:103070008800216920F0C0000843C5F88800207846
:10308000800607D5D5F88800616920F440600843C0
:10309000C5F888002078400607D5D5F88800A169D2
:1030A00020F440500843C5F888002078000607D572
:1030B000D5F88800E16920F440400843C5F888004D
:1030C0002088C00507D5D5F88800216A20F4403053
:1030D0000843C5F888002088800507D5D5F8880002
:1030E000616A20F440200843C5F888002088400524
:1030F0000FD5D5F88800A16A20F440100843C5F820
:103100008800A06AB0F5801F03D1E86840F4801001
:10311000E860208800050FD5D5F88800E16A20F422
:1031200040000843C5F88800E06AB0F5800F03D17D
:10313000E86840F48010E8602088C0040FD5D5F816
:103140008800216B20F040700843C5F88800206B90
:10315000B0F1807F03D1E86840F48010E8602088F7
:103160004FF0006180040ED5D5F88800626B20F026
:1031700040601043C5F88800606B884203D1E8685E
:1031800040F48010E860208840040ED5D5F888000F
:10319000A26B20F040601043C5F88800A06B884205
:1031A00003D1E86840F48010E860208800040FD55F
:1031B000D5F88800E16B20F040500843C5F888003E
:1031C000E06BB0F1805F03D1E86840F48030E860E4
:1031D0003046BDE8F8830000001002400070004057
:1031E0002DE9F0470E4605004FF0000725D0DFF827
:1031F000AC81D8F8000000F00F00B0420CD2D8F833
:10320000001021F00F013143C8F80010D8F8000079
:1032100000F00F00B04210D12968614CC80741F29C
:10322000883A5AD06868DFF87C91032808D00228D1
:1032300020682DD0400500282CDB0120BDE8F08758
:1032400020688001F9D5E06800F00302E068C0F36F
:103250000310401C032A19D0534A00BFB2FBF0F000
:10326000E268C2F306225043E268C2F34162521C94
:103270005200B0FBF2F0484517D9A06810F0F00FEB
:103280000CD0880711D5A86840B10EE0474AE5E7A1
:103290008003D0E700F0B6F8484506D9A06820F0D2
:1032A000F00040F08000A0608027A068696820F0EE
:1032B00003000843A060FFF7A1FB814606E000BFC2
:1032C000FFF79CFBA0EB090151453AD8A06869685B
:1032D00000F00C00B0EB810FF2D12868810714D503
:1032E000400703D5A06840F4E060A060287800079C
:1032F00005D5A06820F4605040F4E060A060A068AC
:10330000A96820F0F000084304E0802F03D1A068F2
:1033100020F0F000A060D8F80010404601F00F0146
:10332000B14216D9016821F00F0131430160FFF766
:1033300065FB074607E000BFFFF760FBC11B514577
:1033400001D903207AE7D8F8000000F00F00B0425E
:10335000F2D12878400705D5A068E96820F4E0603C
:103360000843A0602878000706D5A068296920F4E2
:10337000605040EAC100A06000F044F8A1680C4A27
:10338000C1F30311515C01F01F01C84009490860F5
:1033900009480068BDE8F047FFF7FEBC0020024086
:1033A0000010024000B4C4040024F40000366E0192
:1033B000467B0008480000203C00002005480649E4
:1033C00000688968054AC1F30221515C01F01F01C0
:1033D000C84070474800002000100240567B00089B
:1033E0000548064900688968054AC1F3C221515C55
:1033F00001F01F01C8407047480000200010024043
:10340000567B0008184910B58868C0F38102174838
:10341000012A0BD08A68164BC2F38102022A06D019
:103420008A68C2F38102032A03D0002010BD184627
:1034300010BDCA6802F00304CA68C2F30312521C2A
:10344000032C02D0B0FBF2F001E0B3FBF2F0CA684B
:10345000C968C2F306225043C1F34161491C4900C7
:10346000B0FBF1F010BD0000001002400024F40099
:1034700000366E012DE9F84304007AD02078F84D2B
:10348000C00747D0A868E96800F00C0001F003010C
:103490000C2802D0082817D001E0032914D0606856
:1034A000B0F5803F17D0B0F5A02F286817D020F4D2
:1034B00080302860286820F4802028606068E0B1AF
:1034C000FFF79CFA064614E02868800322D560685E
:1034D0000028D2D01EE0286840F48030EDE740F4A8
:1034E00080202860F7E700BFFFF788FA801B642878
:1034F00070D828688003F7D50CE0FFF77FFA0646FE
:1035000005E000BFFFF77AFA801B6428F0D828682E
:103510008003F7D4207880074CD5A868E96800F0CC
:103520000C0001F003010C2802D004280DD001E0AA
:1035300002290AD0E068002828682BD040F4807067
:103540002860FFF75BFA064619E02868400502D5B7
:10355000E068002891D06868217C20F0FE4040EAB5
:1035600001606860BF480068FFF716FC002800D1C2
:1035700020E072E1FFF742FA801B0228B8D82868E1
:103580004005F7D56868217C20F0FE4040EA0160E4
:1035900068600FE020F480702860FFF72FFA06467D
:1035A00005E000BFFFF72AFA801B0228A0D8286890
:1035B0004005F7D42078000729D560690028D5F8A0
:1035C000940013D040F00100C5F89400FFF716FAFC
:1035D000064606E090E000BFFFF710FA801B0228C5
:1035E00086D8D5F894008007F6D510E020F00100C9
:1035F000C5F89400FFF702FA064604E0FFF7FEF96B
:10360000801B022878D8D5F894008007F6D420785B
:10361000400761D5A86D0026C00008D4A86D40F011
:103620008050A865A86D012600F0805000908E485B
:103630000168C90511D40168804641F480710160B8
:10364000FFF7DCF9074604E0FFF7D8F9C01B0228B2
:1036500052D8D8F80000C005F6D5A068012815D0CA
:103660000528D5F8900016D020F00100C5F890008C
:10367000D5F8900020F00400C5F89000A06841F251
:103680008838B8B1FFF7BAF907460EE0D5F89000D0
:1036900040F00100F0E740F00400C5F89000F5E7C5
:1036A000FFF7ACF9C11B414526D8D5F8900080073B
:1036B000F6D50CE0FFF7A2F9074604E0FFF79EF904
:1036C000C11B414518D8D5F890008007F6D41EB12B
:1036D000A86D20F08050A8652078800629D5A069C3
:1036E0000028D5F8980013D040F00100C5F89800E4
:1036F000FFF784F9064606E075E000BFFFF77EF9A4
:10370000801B02286FD8D5F898008007F6D510E006
:1037100020F00100C5F89800FFF770F9064604E0B4
:10372000FFF76CF9801B02285DD8D5F89800800758
:10373000F6D4E069F0B3A968C1F3810103295DD033
:103740000228286820F08070286003D0FFF756F91F
:1037500004464BE0FFF752F9064604E0FFF74EF946
:10376000801B02283FD828688001F7D4F4E90801BB
:103770006FF00F0202EB01110843218A520449083D
:1037800002EB4151A26841EA02210843217D4FF03A
:103790007E42490802EB41610843217B40EAC16057
:1037A000E968324A11400843E860286840F08070B8
:1037B000286000E05EE0E86840F08070E860FFF7B5
:1037C0001DF9044605E000BFFFF718F9001B0228A9
:1037D00009D828688001F7D54CE000BFFFF70EF943
:1037E000001B022802D90320BDE8F8832868800165
:1037F000F4D4E8681E490840E8603BE00128F3D0B3
:10380000E868226A00F00301914226D1616A00F063
:10381000F0020901103991421FD1A26A00F4FE4161
:10382000B1EB022F19D194F82C2000F07841B1EBC4
:10383000C26F12D1218E00F4C00249084905A1F5DA
:103840000011914209D194F8341000F0C060490889
:103850004906A1F1007181420CD00120C4E70000AB
:10386000001002403C000020007000400C809F01CE
:10387000FCFFEEFE0020B7E710B5401EB0F1807FE0
:1038800001D3012010BD4FF0E02460610F216017CB
:1038900003F095F80020A06107202061002010BDF2
:1038A000704770477047704770477047F0B590F8A1
:1038B0003C20012A3AD0012580F83C50022280F8B1
:1038C0003D2003685A689C68194E1A4FB34201D0D4
:1038D000BB4204D122F4700C4A6842EA0C02DFF8C1
:1038E00058C002EA0C02D1F800C04CEA020CC3F83E
:1038F00004C00268B2420DD0B2F1804F0AD00F4B23
:103900009A4207D00E4B9A4204D0BA4202D00D4BD5
:103910009A4204D1896824F080031943916080F8A9
:103920003D50002180F83C100846F0BD0220F0BD5B
:10393000002C0140003401408FFFFFFD00040040D7
:103940000008004000400140704710B5040003D05B
:1039500094F83D0010B107E0012010BD002084F86C
:103960003C00204600F022F8022084F83D00211D92
:10397000206801F00DFF012084F8480084F83E0023
:1039800084F83F0084F8400084F8410084F8420045
:1039900084F8430084F8440084F8450084F8460025
:1039A00084F8470084F83D00002010BD38B5054676
:1039B00000681D49B0F1804F14D01C4A904232D1AA
:1039C000886D40F010008865886D002200F01000BE
:1039D000009011463620FFF727FABDE83840362020
:1039E000FFF714BA886D40F001008865886D114CAE
:1039F00000F0010000900E48206038206060102028
:103A0000A06000208021C4E90301890061614900B0
:103A1000C4E9061020622046FEF70AFE08B1FEF750
:103A200037F86C62A56238BD0010024000100040FB
:103A3000300002406403002090F83D10012901D0BD
:103A400001207047022180F83D100168CA6842F0E9
:103A50000102CA600068104988420ED0B0F1804F60
:103A60000BD00E49884208D00D49884205D00D4937
:103A7000884202D00C49884207D181680B4A114024
:103A8000062906D0B1F5803F03D0016841F001015D
:103A90000160002070470000002C0140000400403D
:103AA00000080040003401400040014007000100D0
:103AB00070B5044690F83C000025012814D001267A
:103AC00084F83C60022084F83D0022689068364B00
:103AD000184020F47F409060086870282ED010DCD9
:103AE00010F00F0F03D021E04FF0020070BD4FEA3D
:103AF0002012072A1AD2DFE802F0525252524A38F4
:103B000040002A4BC21A984249D009DCB0F5805FC8
:103B10000DD0B0F5005F1CD0B0F1101F06D13EE013
:103B2000102A3CD0202A3AD0502A38D0012584F8D7
:103B30003D60002084F83C00284670BDCB68D1E988
:103B40000121206801F004FF2068816841F07701BD
:103B500009E0CB68D1E90121206801F0F9FE206875
:103B6000816841F480418160E1E7CA684968206862
:103B700002F098F85021206806E0CA684968206879
:103B800002F0A1F86021206801F0ECFECFE7CA68DE
:103B90004968206802F086F840212068F4E722682E
:103BA00001461046F0E7000088FFCEFF200010001D
:103BB000704770472DE9F04104460068C668056902
:103BC0004FF00007A90713D5B10711D5F91E016100
:103BD00001202077206880698007204602D0FFF707
:103BE000E8FF04E000F0DEF8204600F0A0F92777B7
:103BF000680716D5700714D521686FF004000861B6
:103C0000022020772068806910F4407F204602D08F
:103C1000FFF7CFFF04E000F0C5F8204600F087F979
:103C20002777280715D5300713D521686FF00800CE
:103C30000861042020772068C0698007204602D0F0
:103C4000FFF7B7FF04E000F0ADF8204600F06FF991
:103C50002777E80616D5F00614D521686FF0100016
:103C60000861082020772068C06910F4407F204652
:103C700002D0FFF79EFF04E000F094F8204600F029
:103C800056F92777E80708D0F00706D021686FF0CB
:103C900001000861204600F04BFA280601D4A80470
:103CA00008D5300606D521686FF402500861204619
:103CB000FFF7F7FDE80508D5300606D521686FF453
:103CC000807008612046FFF7EBFD680608D5700696
:103CD00006D521686FF040000861204600F0B2FA76
:103CE000A80608D5B00606D521686FF02000086147
:103CF0002046FFF7D7FDE80208D5F00206D5216877
:103D00006FF4801008612046FFF7CEFDA80208D5A9
:103D1000B00206D521686FF4001008612046FFF755
:103D2000C2FD680208D5700206D521686FF48000D4
:103D300008612046FFF7B9FD28020AD5300208D5F0
:103D400021686FF4000008612046BDE8F041FFF7EC
:103D5000FBBDBDE8F081000010B586B0044614211B
:103D60006846FCF74FFC2068B0F1804F15D10C4835
:103D7000C16C41F00101C164C06C022100F001007E
:103D800005900120CDE9000100210291CDE9031049
:103D900069464FF09040FEF703FD06B010BD0000ED
:103DA00000100240704770B5044690F83C000026B1
:103DB0000D4601280BD0012084F83C000C2A4AD083
:103DC00007DC82B1042A20D0082A06D131E0022083
:103DD00070BD102A53D0142A63D00126002084F825
:103DE0003C00304670BD206801F0C6FD2068816946
:103DF00041F0080181612068816921F0040181613D
:103E0000206881692A69114311E0206801F002FEEF
:103E10002068816941F4006181612068816921F431
:103E200080618161206881692A6941EA022181619A
:103E3000D4E7206801F036FE2068C16941F008012E
:103E4000C1612068C16921F00401C1612068C169B4
:103E50002A69114311E0206801F06CFE2068C169F5
:103E600041F40061C1612068C16921F48061C161D0
:103E70002068C1692A6941EA0221C161AEE7206870
:103E800001F0A0FE2068016D41F008010165206885
:103E9000016D21F0040101652068016D2A6911435B
:103EA00011E0206801F0C6FE2068016D41F4006158
:103EB00001652068016D21F4806101652068016D54
:103EC0002A6941EA0221016588E710B5040003D0A0
:103ED00094F83D0010B107E0012010BD002084F8E7
:103EE0003C00204600F022F8022084F83D00211D0D
:103EF000206801F04DFC012084F8480084F83E0061
:103F000084F83F0084F8400084F8410084F84200BF
:103F100084F8430084F8440084F8450084F846009F
:103F200084F8470084F83D00002010BD70477047BA
:103F3000704700002DE9F04117460D0004464FF090
:103F4000000610D0042D15D0082D1AD00C2D1FD02E
:103F5000102D24D094F84300022827D094F8430071
:103F6000012826D07CE094F83E0002281ED094F868
:103F70003E00F5E794F83F00022817D094F83F0080
:103F8000EEE794F84000022810D094F84000E7E7EC
:103F900094F84100022809D094F84100E0E794F831
:103FA0004200022802D094F84200D9E70220BDE87E
:103FB000F0819FB393B35349534ADFF850C10220B5
:103FC00055B1042D19D0082D29D00C2D38D0102D25
:103FD00048D084F8430047E084F83E00606AC1623C
:103FE000606A39460263606AC0F834C02268606A59
:103FF0003432FEF77DFB88B938E084F83F00A06AD0
:10400000C162A06A39460263A06AC0F834C022685F
:10401000A06A3832FEF76CFB00B92CE020E084F88F
:104020004000E06AC162E06A39460263E06AC0F8B3
:1040300034C02268E06A3C32FEF75AFB80B91FE0C8
:1040400084F84100206BC162206B39460263206B0B
:10405000C0F834C02268206B4032FEF749FBA0B1A3
:104060000120A4E784F84200012648E02068C168E6
:1040700041F400710DE02068C16841F4806108E0FE
:104080002068C16841F4006103E02068C16841F420
:104090008051C16001222946206801F0D7FB1C49EC
:1040A00020681C4A1C4B884209D0904207D0984295
:1040B00005D01A4DA84202D0194DA84203D1456C33
:1040C00045F400454564206888420CD0B0F1804F2B
:1040D00009D01449884206D01349884203D090423F
:1040E00001D0984207D18168104A1140062906D0B4
:1040F000B1F5803F03D0016841F001010160304615
:1041000055E7000067580008C5580008FD5800082A
:10411000002C0140003401400040014000440140B7
:104120000048014000040040000800400700010072
:10413000FEB5414C00252078012809D1608A401C39
:1041400080B2A0F5B8516082703901D165822570C6
:10415000A0795A270126012828D1A582E089401C90
:1041600080B2A0F53061E081B8391FD1E581207AB5
:1041700010B15A280BD016E0CDE9005605231E22B7
:1041800001210020029501F021FAE5700BE040F2D8
:104190005230CDE9000605231E22012102950020A0
:1041A00001F014FAE7702D202072A571A078032881
:1041B00019D1208A401C80B22082B0F57A7F05D1C7
:1041C0002582E07968B30020E0716570E07901280C
:1041D00029D01A480188ADF8001080788DF80200C7
:1041E000009801F087FAA07A012824D1A08A401C07
:1041F00080B2A0F59C41A08220391CD1A58240F25A
:104200006250CDE9000605231E22012102950020FF
:1042100001F0DCF9E07840B1962806D05A2806D0A3
:1042200006E00120D0E70648D4E7257200E02772B7
:104230009620E070A671FEBD000000206600002000
:1042400063000020704790F88410012918D00121E4
:1042500080F884102421C0F8881001680A680B686F
:1042600023F001030B6022F0005100224266036834
:1042700019602021C0F8881080F88420104670470B
:10428000022070477047704770B5044690F884006C
:1042900001281DD0012084F884002420C4F888005F
:1042A00020680568026822F00102026020688268C6
:1042B00022F060620A438260204601F017FD206808
:1042C00005602020C4F88800002084F8840070BDB8
:1042D000022070BD70B5044690F8840001281DD0FE
:1042E000012084F884002420C4F888002068056830
:1042F000026822F0010202602068826822F06042B7
:104300000A438260204601F0F1FC2068056020200D
:10431000C4F88800002084F8840070BD022070BDBD
:1043200070477047704700002DE9F041036804466C
:10433000D86919689A6840F60F0528424FF00005C1
:104340004FF002060AD187067ED501F0200702F061
:10435000805C57EA0C0777D0616F42E1B64FDFF817
:10436000DCC2174001EA0C0C57EA0C0C6CD05FEA77
:10437000C07C0CD05FEAC15C09D54FF0010CC3F8DA
:1043800020C0D4F8903043F00103C4F89030830784
:1043900009D5D30707D023681E62D4F8903043F0C4
:1043A0000403C4F8903043070AD5D30708D0266821
:1043B00004233362D4F8903043F00203C4F8903001
:1043C00003070CD501F020033B4308D026680823DF
:1043D0003362D4F8903043F00803C4F890300305FA
:1043E0000BD54B0109D526684FF400633362D4F82E
:1043F000903043F02003C4F89030D4F89030002B74
:104400003DD0800609D501F0200002F0805108431C
:1044100003D0616F09B120468847D4F89000216825
:104420008968490602D410F0280F2AD0204601F0EE
:1044300043FD2068806840061ED52068083050E89B
:10444000001F21F0400100E021E040E80012002AB6
:10445000F3D1D4F8800078B179498163D4F8800031
:10446000FEF74CF800280AD0D4F88000816B00E0F9
:104470002046BDE8F04108472046FFF753FFBDE85E
:10448000F0812046FFF74EFFC4F89050F7E7D4F8CC
:104490006CC02027BCF1010F7ED15FEAC06C7BD5D8
:1044A0005FEAC16C78D510201862206880684006E9
:1044B00051D5D4F880100A6850680004000C3ED032
:1044C000B4F85C3083423AD9A4F85E00086800680A
:1044D00080062CD4216851E8000F20F4807041E858
:1044E0000002002AF6D12068083050E8001F21F0B1
:1044F000010140E80012002AF5D12068083050E898
:10450000001F21F0400140E80012002AF5D1C4F854
:104510008C70E566216851E8000F20F0100041E83A
:104520000002002AF6D1D4F88000FDF7B2FF26671A
:10453000B4F85C00B4F85E10401A81B207E0B4F839
:104540005C1081429BD11068800698D52667204672
:10455000FFF798FE93E7B4F85C00B4F85E10401AD9
:1045600081B2B4F85E00002889D0002987D0226883
:1045700052E8000F20F4907042E80003002BF6D1BF
:104580002D4BDB432068083050E8002F1A4040E8EC
:10459000002CBCF1000F00E00EE0F3D1C4F88C70E9
:1045A000E5666567206850E8002F22F0100240E8B9
:1045B0000023002BF6D1C9E7C60209D5560207D55C
:1045C0004FF4801018622046BDE8F041FFF7A9BE05
:1045D00003060AD501F0800302F40002134304D05D
:1045E000A16F00297FF444AF49E7420611D54A067E
:1045F0000FD52046016851E8002F22F0400241E823
:104600000023002BF6D1C0F88870856700F0FEF912
:1046100035E7020206D54A0004D52046BDE8F04140
:10462000FFF77EBEC00195D5002993DA2046BDE88C
:10463000F041FFF728BE0000010000102001000437
:10464000A55E000810B5040003D0D4F8880010B1AE
:1046500007E0012010BD002084F88400204600F00F
:1046600027F82420C4F888002068016821F001019F
:104670000160A06A10B1204601F05AFB204601F00B
:10468000ADFE0128E6D02068416821F490414160E8
:104690002068816821F02A0181602068016841F06A
:1046A000010101602046BDE8104001F0A5BB0000FB
:1046B000F0B597B00446142111A8FBF7A3FF4421DD
:1046C0006846FBF79FFF48492068484C07270226A9
:1046D0000025884229D10120CDE900056846FEF772
:1046E0003BFC08B1FDF7D4F9206E40F48040206611
:1046F000206E00F480401690E06C40F00400E0640E
:10470000E06CCDE9126500F0040016903020CDE990
:104710001457119011A93648FEF742F800221146AD
:104720002520FEF781FB25202BE0324988422CD141
:10473000684600960295FEF70FFC08B1FDF7A8F950
:10474000A06D40F40030A065A06D00F4003016901C
:10475000E06C40F00100E064E06CCDE9126500F02F
:10476000010016900C20CDE91457119011A94FF0BB
:104770009040FEF715F8002211462620FEF754FB64
:104780002620FEF743FB17B0F0BD1B498842FAD143
:104790000420009003956846FEF7DEFB08B1FDF7A4
:1047A00077F9A06D40F48020A065A06D00F4802012
:1047B0001690E06C40F00200E064E06CCDE9126518
:1047C00000F0020016904FF44060CDE914571190AC
:1047D00011A90A48FDF7E4FF002211462720FEF741
:1047E00023FB2720CDE700000038014000100240E5
:1047F0000008004800440040004800400004004811
:1048000030B4D0F88C30202B02D0022030BC70475E
:10481000A9B1A2B10023C3660A4C0368A3420BD01E
:104820005B681B0208D5046854E8003F43F08063CE
:1048300044E80035002DF6D130BC01F009BF01205D
:10484000E4E70000008000402DE9FE43444D0446AB
:1048500000682968884204D1322242494248FFF761
:10486000CFFF20682968884205D13E4908223231AD
:104870003B48FFF7C5FF3D492068096888426DD174
:104880003B4CDFF8E0900125607A002609F13C09F5
:10489000012848D199F8000031280BD05A27322836
:1048A00014D040F262514FF0960833281BD03428C0
:1048B00023D038E02570CDE9006505231E220121B3
:1048C0000020029600F082FEE6702CE0257040F297
:1048D00052308DE8610005231E220121002000F0E6
:1048E00075FEE7701FE025708DE8620005231E222B
:1048F0000121002000F06AFE13E025708DE86200BF
:1049000005231E220121002000F060FEA571E07841
:1049100020B1962802D05A2802D002E0267200E088
:10492000277284F8038099F80000352806D03628CD
:1049300006D0372806D0382806D006E0667204E094
:10494000657202E0A57200E0A67203B00549BDE8F9
:10495000F04301223C310548FFF752BFBDE8FE831A
:10496000580400209C000020C4030020EC04002018
:1049700000000020D0F88830202B01D002207047A2
:1049800021B31AB30165A0F85420A0F856200021E5
:104990008167C0F890102121C0F88810426E4FF452
:1049A0008051B2F1005F826812D08A4201D1016960
:1049B00009B312498167026852E8001F41F0800183
:1049C00042E80013002BF6D1002070470120704709
:1049D0008A4201D1016961B10949816701680831E1
:1049E00051E8002F42F4000241E80023002BF5D1EA
:1049F000EAE70449F1E70449DCE700001F68000822
:104A00006D680008B5670008616700087047FEE739
:104A100001688A69D243920701D400228A62006841
:104A20008169C943C90703D0816941F001018161EE
:104A3000704700002DE9F0470446006889460026CB
:104A4000816935461746C9064FF0200841D5102127
:104A5000C1612FE0B9F1FF3F2CD0FDF7CFFFC11BA3
:104A6000494502D8B9F1000F24D12068416894F873
:104A7000422001F480418369DB431B0415D4B1F566
:104A8000804F12D0202A10D0416841F4804141600B
:104A9000FDF7B4FF074608E0FDF7B0FFC01B19287B
:104AA00003D945F02005012604E020688069C04351
:104AB0008006F1D420688069C043800602D5002EAC
:104AC000C8D003E016B92168C1F81C8045F0040580
:104AD000012621688869C20505D54FF4807245F02A
:104AE0000105CA610126410509D522684FF480619C
:104AF00045F00805D1610126800502D40AE0800551
:104B000007D521684FF4007045F00205C861012601
:104B100000E086B12046FFF77BFF54F8240B416884
:104B2000064A11404160206A2843206284F81D80B3
:104B30000020A07720773046BDE8F08700E800FE2F
:104B40002DE9F8430446164615489846DDE90897CE
:104B5000DAB2C3020090204600F024F83A464946F3
:104B6000204600F09FF8B8B9F5B2B8F1010F08D0AF
:104B70002168300A88623A464946204600F092F899
:104B800050B9206885624B4600228021204600975C
:104B900000F020F8002800D00120BDE8F8830000D4
:104BA0000020008010B5C1F3090141EA024102680A
:104BB000029C19432143506821F000414FF4806367
:104BC00003EA5453024C234398430843506010BDFA
:104BD000FF63FF032DE9F0411D4617460E460446CC
:104BE000DDF8188027E0424629462046FFF722FFDD
:104BF00010B10120BDE8F081681C1CD0FDF7FEFE5D
:104C0000A0EB0800A84200D8ADB92068806936EA58
:104C100000000ED00020B8420DD154F8440F40F0EF
:104C2000200044F80409202060700020A07020704B
:104C3000DFE70120EFE72068806936EA000004D052
:104C40000020B842CFD00020D4E70120F9E770B5AA
:104C500016460D4604461EE0324629462046FFF71A
:104C6000E9FE08B1012070BDFDF7C8FE801BA84217
:104C700000D885B920688069C04380060BD554F8F8
:104C8000440F40F0200044F8040920206070002008
:104C9000A0702070E6E720688069C0438006DBD4FE
:104CA000002070BD70B516460D46044620E0324621
:104CB00029462046FFF7BEFE08B1012070BD681CE2
:104CC00016D0FDF79BFE801BA84200D885B920684E
:104CD0008069C04380070BD554F8440F40F0200092
:104CE00044F80409202060700020A0702070E4E7E0
:104CF00020688069C0438007D9D4002070BD0000BF
:104D000030B5784C2DED108B81B09FED778B9FEDFA
:104D1000789B9FED79AB9FED7ABB9FED7BCB9FEDB1
:104D20007CDB9FED7DEB7E4D9FED7EFB9FED7F0B52
:104D300053EC102B95ED080B51EC100B02F0C8FD55
:104D40000DD295ED080B53EC182B51EC100B02F023
:104D500085FC04D8608AADF80000207DB7E095EDB1
:104D6000080B53EC182B51EC100B02F0B1FD0ED2D6
:104D700095ED080B53EC192B51EC100B02F06EFC67
:104D800005D8B4F81500ADF80000E07D9FE095ED82
:104D9000080B53EC192B51EC100B02F099FD0DD2BE
:104DA00095ED080B53EC1A2B51EC100B02F056FC4E
:104DB00004D8208BADF80000A07E88E095ED080BAC
:104DC00053EC1A2B51EC100B02F082FD0BD295ED37
:104DD000080B53EC1B2B51EC100B02F03FFC02D8DC
:104DE00034F8270F2BE095ED080B53EC1B2B51ECFF
:104DF000100B02F06DFD0ED295ED080B53EC1C2B41
:104E000051EC100B02F02AFC05D8A08CADF8000084
:104E100094F826005BE095ED080B53EC1C2B51EC4D
:104E2000100B02F055FD0ED295ED080B53EC1D2B27
:104E300051EC100B02F012FC05D834F8210FADF83C
:104E40000000A07843E095ED080B53EC1D2B51ECCE
:104E5000100B02F03DFD0ED295ED080B53EC1E2B0E
:104E600051EC100B02F0FAFB05D8B4F81B00ADF8BA
:104E70000000607F2BE095ED080B53EC1E2B51ECEE
:104E8000100B02F025FD0ED295ED080B53EC1F2BF5
:104E900051EC100B02F0E2FB05D8E08BADF80000FE
:104EA00094F8200013E095ED080B53EC1F2B51EC08
:104EB000100B02F00DFD05D2608DADF8000094F8E6
:104EC0002C0004E01B480188ADF8001080788DF8B4
:104ED0000200009801B0BDEC108BBDE8304000F03E
:104EE00009BC000069000020CDCCCCCCCCCCFC3F70
:104EF00000000000000000409A999999999901409A
:104F00003333333333330340CDCCCCCCCCCC04401F
:104F1000666666666666064000000000000008409F
:104F2000000000209A999999999909409A9999991C
:104F30009999F93F6600002000EB8100006E00F0B7
:104F4000F84070478068C0F3C00070478068C0F3C5
:104F5000800070478068C0F380007047C06810F41C
:104F6000406F01D00020704701207047042303EAFE
:104F7000D15310B518444369C1F3045107248C4040
:104F8000A3438A401343436110BD00EB8100016ECF
:104F900021F00041114301667047000030B58BB02D
:104FA000002408940994202168460A94FBF72AFB00
:104FB0001C484FF0A041042501604FF40031C0E9C6
:104FC0000114C4600461C0E90545047744770121F8
:104FD000016280F82440C462046380F83840C463EE
:104FE00080F84040FCF7D8FF08B1FCF751FD08A954
:104FF0000C480894FCF74EFD08B1FCF749FD0A483F
:1050000000900620019002907F200594CDE90305D1
:1050100069460448FCF7AAFD002801D0FCF738FDDA
:105020000BB030BDA00100200001802130B589B057
:1050300020216846FBF7E6FA194818490024016068
:105040004902C0E90114C46004250461C0E90545B2
:10505000047744770121016280F82440C46204632C
:1050600080F83840C46380F84040FCF795FF08B1F1
:10507000FCF70EFD0B4800900620CDE901047F20CF
:105080000594CDE9030569460548FCF76FFD002846
:1050900001D0FCF7FDFC09B030BD0000000100505C
:1050A0000C020020400020190D4808B5816C41F029
:1050B00004018164816C01F004010091816C41F074
:1050C00001018164806C002200F001000090114613
:1050D0000D20FDF7A9FEBDE808400D20FDF796BEA6
:1050E0000010024070B586B014216846FBF78AFABA
:1050F0002348C16C41F00401C164C16C01F004019A
:105100000591C16C41F02001C164C16C01F0200126
:105110000591C16C41F00101C164C16C01F0010154
:105120000591C16C41F00201C164C06C154E00F0E4
:1051300002004FF400540590002221463046FDF74E
:1051400058FC0120CDE90040002402946946304615
:105150000394FDF725FB4FF4DE5002258DE8310066
:1051600069463046FDF71CFB4FF4E0608DE83100E6
:1051700069464FF09040FDF713FB06B070BD00008C
:105180000010024000080048134810B511490160A2
:105190001249416000210122C0E90212016141610E
:1051A0008161C1610162FDF783FC08B1FCF770FC0D
:1051B00000210948FDF728FC08B1FCF769FC002133
:1051C0000548FDF74CFC002803D0BDE81040FCF773
:1051D0005FBC10BD0054004078020020E49CD11058
:1051E00010B58EB000240794089409940A940B9487
:1051F0000C941C2168460D94FBF704FA1D484FF0EF
:105200008041C0E900146321C0E9024180210461AA
:105210008161FEF79AFB08B1FCF73AFC4FF480502D
:10522000079007A91348FEF743FC08B1FCF730FCD0
:105230001048FEF74AFE08B1FCF72AFC0B940BA9B4
:105240000C480D94FEF732FB08B1FCF721FC6020FE
:10525000CDE9000402940022694606480494FEF752
:10526000A2FD08B1FCF714FC0248FEF775FD0EB074
:1052700010BD0000CC0200203EB500240F48009471
:1052800001940D49029401604F21C0E9011440F2DC
:10529000E731C16080218161FEF757FB08B1FCF75F
:1052A000F7FB0094694605480294FEF7FFFA0028D0
:1052B00001D0FCF7EDFB3EBD0010004018030020BC
:1052C000184810B5164901604FF4E13141600021E2
:1052D00081600C22C160C0E904128161C161016278
:1052E00041628162FFF7AEF908B1FCF7D1FB002102
:1052F0000C48FEF7EFFF08B1FCF7CAFB0021094894
:10530000FEF7C2FF08B1FCF7C3FB0648FEF79BFFA0
:10531000002803D0BDE81040FCF7BABB10BD000068
:1053200000380140C4030020184810B51649016038
:105330004FF416514160002181600C22C160C0E928
:1053400004128161C161016241628162FFF77AF9F1
:1053500008B1FCF79DFB00210C48FEF7BBFF08B12C
:10536000FCF796FB00210948FEF78EFF08B1FCF719
:105370008FFB0648FEF767FF002803D0BDE810400A
:10538000FCF786BB10BD000000440040580400201C
:10539000184810B5164901604FF4E1314160002111
:1053A00081600C22C160C0E904128161C1610162A7
:1053B00041628162FFF746F908B1FCF769FB002101
:1053C0000C48FEF787FF08B1FCF762FB0021094893
:1053D000FEF75AFF08B1FCF75BFB0648FEF733FF08
:1053E000002803D0BDE81040FCF752BB10BD000000
:1053F00000480040EC040020FEE7FEE770B5002402
:1054000004F1B000C0B200F0BBF8002000F0B8F822
:10541000102000F0B5F80025002000F0C3F86D1C46
:10542000EDB2802DF8D3641CE4B2082CE8D370BD33
:1054300010B58D2000F0A4F8142000F0A1F8BDE80C
:105440001040AF2000F09CB870B5C820FDF796F969
:10545000044D0024285D00F093F8641CE4B2172C7E
:10546000F8D370BD4C00002010B50446B031C8B26E
:1054700000F086F8102040EA141000F081F804F0E3
:105480000F00BDE8104000F07BB800002DE9F047A8
:10549000203A0024089E0F468146D5B27F2803D9C2
:1054A00000208F1C8146FFB2102B394612D0FFF727
:1054B000DBFF1B4905EB450001EB4005285D0EB104
:1054C000C043C0B200F06EF8641CE4B2062CF5D301
:1054D000BDE8F087FFF7C8FFDFF8488004EB05114F
:1054E00018F801000EB1C043C0B200F05BF8641CB4
:1054F000E4B2082CF2D37F1CF9B24846FFF7B4FFA0
:105500000024474604EB05103844007A0EB1C0432E
:10551000C0B200F047F8641CE4B2082CF2D3D7E71D
:105520005E7B0008867D00082DE9F8431E4617467D
:10553000894604460025DDF8208014E033464946BC
:105540002046CDF80080FFF7A1FF0C2E10D00834C4
:10555000E4B27A2C01D90C2E0CD0782C01D9102E63
:1055600008D06D1CEDB27A5D002AE7D1BDE8F88362
:10557000A41DEDE709F10100002400F0FF09F0E7A8
:1055800001B584B001214FF4807204A88DE80700B2
:105590000B46002278210248FDF7E8FA05B000BD6D
:1055A0007802002001B584B001214FF4807204A874
:1055B0008DE807000B46402278210248FDF7D6FA15
:1055C00005B000BD7802002070470000F0B40E4C1A
:1055D000DDE90457069E2070FD206070A170100A5E
:1055E000E07022716371280EA071280CE071280A06
:1055F00020726572A7726B20E67220732146F0BCA0
:105600000D220248FFF7B6B96E010020C403002046
:1056100030B400210D4B0A4601EB4104002003EB9E
:10562000441400BF04EB8005401CC0B2C5F8402BF9
:105630001828F7D3491CC9B20A29EDD330BC4FF45E
:105640007073024A00210248FEF774BC80050020F6
:10565000CC02002070B516460D46044605E03146E2
:10566000204600F005F8641CE4B2AC42F7D970BDE6
:1056700030B51E283BD81E4C002300EB4000C1F380
:105680000725012204EB4014C3F1070002FA00F0E1
:10569000054201D0422000E0212044F823005B1C99
:1056A000DBB2082BF0D308205FFA81F3C0F10F05BD
:1056B00002FA05F52B4201D0422500E0212544F8ED
:1056C0002050401CC0B21028F0D31020C1F3074175
:1056D000C0F1170302FA03F3194201D0422300E09C
:1056E000212344F82030401CC0B21828F0D330BD2C
:1056F0008005002010B502461E210020FFF7AAFFFA
:10570000BDE81040FFF784BF7047FDF72DBB10B513
:1057100094B038216846FAF775FF14210EA8FAF7FD
:1057200071FF4FF40070FDF7B1FB01200090000401
:10573000019002200324CDE907041421CDE90A10C9
:105740000C900D9009946846FDF794FE08B172B66E
:10575000FEE70F20CDE90E0400201090119012906A
:1057600002210EA8FDF73CFD002801D072B6FEE72D
:1057700014B010BD0248016841F470010160704727
:1057800088ED00E00148FEF715BA0000180300207C
:105790002DE9F0430268264B264D274E274C4FF04B
:1057A0008049984207D0484505D0A84203D0B0426E
:1057B00001D0A04203D122F070074A683A43204F3B
:1057C000DFF880C0DFF8808098420DD048450BD0CC
:1057D000A84209D0B04207D0A04205D0B84203D0B9
:1057E000604501D0404503D122F44075CA682A4380
:1057F0004D6922F080022A4302608A68C2620A6808
:105800008262984207D0A04205D0B84203D06045DA
:1058100001D0404501D1096901630121416101695C
:10582000C90703D0016921F001010161BDE8F083DE
:10583000002C0140000400400008004000340140FA
:1058400000400140004401400048014010B501F013
:105850001F030121046A99408C430462016A9A4043
:105860001143016210BD10B5846A0121626A82424F
:1058700005D12177C069F8B984F83E101CE0A26A0E
:10588000824206D102222277C069A8B984F83F106B
:1058900012E0E26A824206D104222277C06958B936
:1058A00084F8401008E0226B824205D1082222775A
:1058B000C06908B984F841102046FEF738FB002083
:1058C000207710BD10B5846A616A814201D1012040
:1058D0000DE0A16A814201D1022008E0E16A814223
:1058E00001D1042003E0216B814201D108202077FF
:1058F0002046FEF71DFB0020207710BD10B5846AFE
:105900000121626A824203D1217784F83E1019E0B6
:10591000A26A824204D10220207784F83F1011E06D
:10592000E26A824204D10420207784F8401009E022
:10593000226B824204D10820207784F8411001E0D4
:1059400084F83D102046FEF733F90020207710BD83
:1059500010B5846842EA032224F47F440A432243B8
:10596000826010BD8268034B1A400A4342F007016F
:10597000816070478FFFCFFF2DE9F043056A026A0F
:1059800022F001020262436882691C4C25F0020584
:1059900022400C6822F0030214438A68194E2A43FD
:1059A000174D194FDFF864C0DFF86490A84207D0A4
:1059B000B04205D0B84203D0604501D0484506D179
:1059C00022F00808CA6842EA080222F00402A8424B
:1059D00007D0B04205D0B84203D0604501D0484559
:1059E00005D14D6923F440731D438B692B434360FC
:1059F0008461496841630262BDE8F0838FFFFEFF66
:105A0000002C0140003401400040014000440140AE
:105A100000480140F0B5056A026A22F010020262F5
:105A200042688369194C1B4E23400C6823F4407371
:105A300043EA042425F020038D6843EA0513144D3E
:105A4000A84201D0B04206D1CF6823F0800343EAD8
:105A5000071323F04003A8420AD0B04208D00E4DED
:105A6000A84205D00D4DA84202D00D4DA84207D145
:105A70004D6922F4406242EA85028D6942EA85025C
:105A800042608461496881630362F0BDFF8FFFFE5D
:105A9000002C01400034014000400140004401401E
:105AA00000480140F0B5056A026A22F48072026281
:105AB0004368C269194C1B4E22400C6822F0030255
:105AC000144325F400728D6842EA0522144DA84261
:105AD00001D0B04206D1CF6822F4006242EA072228
