:020000040800F2
:1000000078050020ED0100080B1E0008B11900085A
:10001000091E0008F9020008992C000800000000E1
:100020000000000000000000000000002321000884
:10003000B7030008000000000D1E0008252100087D
:10004000070200080702000807020008070200086C
:10005000070200080702000807020008070200085C
:10006000070200080702000807020008FD02000856
:100070000903000807020008070200080702000839
:10008000070200080000000007020008070200083D
:10009000070200080702000807020008070200081C
:1000A000070200080702000807020008070200080C
:1000B00007020008070200080702000807020008FC
:1000C00007020008070200080702000807020008EC
:1000D000070200086D2C000807020008070200084C
:1000E00007020008070200080702000807020008CC
:1000F00007020008070200080702000800000000CD
:1001000000000000070200080000000007020008CD
:1001100007020008000000000702000807020008AC
:10012000070200080702000807020008070200088B
:10013000070200080000000000000000070200089D
:10014000070200080702000800000000000000008D
:10015000000000000000000000000000000000009F
:10016000000000000000000000000000070200087E
:10017000070200080000000000000000000000006E
:10018000000000000702000800000000000000005E
:10019000000000000000000000000000000000005F
:1001A000000000000000000007020008070200082D
:1001B000070200080702000807020008000000000C
:1001C000000000000702000800000000000000001E
:1001D0000702000807020008DFF80CD000F07AF8E8
:1001E00000480047D92C00087805002006488047C1
:1001F00006480047FEE7FEE7FEE7FEE7FEE7FEE70C
:10020000FEE7FEE7FEE7FEE795210008D9010008BA
:100210002DE9F05F0546002092469B46884606463B
:10022000814640241BE0284641464746224600F0CE
:1002300041F853465A46C01A914110D31146184608
:10024000224600F028F82D1A67EB01084F46224697
:100250000120002100F01FF817EB00094E41201E7D
:10026000A4F10104DFDC484631462A464346BDE896
:10027000F09FD2B201E000F8012B491EFBD270477B
:100280000022F6E710B513460A4604461946FFF762
:10029000F0FF204610BD202A04DB203A00FA02F1CC
:1002A000002070479140C2F1200320FA03F3194364
:1002B00090407047202A04DB203A21FA02F0002106
:1002C000704721FA02F3D040C2F120029140084366
:1002D00019467047064C074D06E0E06840F0010300
:1002E00094E8070098471034AC42F6D3FFF778FF44
:1002F000F83E0008183F0008FEE70000014800F043
:10030000DDB80000B8000020014800F0D7B80000B8
:10031000180100200D4902688A4201D20C4901E00F
:100320000B492031D2B21423083AB2FBF3F2436CEA
:1003300002F01F0223F00303194481640449803151
:10034000C16401219140016570470000080402402A
:10035000000802400179074A02EB81024265054A22
:100360004432491E826501F01F0201219140C1659E
:1003700070470000FC08024030B5D0E913456560C5
:10038000446D14B1D0E91645656090F8444004F01E
:100390001F050124AC40056C6C60046863608368D1
:1003A000102B036803D099600068C26030BD9A606A
:1003B0000068C16030BD7047002240F6B83306E0E7
:1003C0000021491C89B29942FBD3521C92B282424D
:1003D000F6D37047704710B590F825300021012200
:1003E000022B03D00421C163012122E003681C68B1
:1003F00024F00E041C60836C1C6824F480741C6060
:1004000003681C6824F001041C6090F84430046CFC
:1004100003F01F0302FA03F36360D0E913345C6056
:10042000436D33B11C6824F480741C60D0E9163429
:100430005C6080F82520002280F82420084610BD4A
:1004400070B590F82520002401212346022A07D008
:100450000422C26380F8251080F82430012429E0AA
:100460000268156825F00E0515600268156825F00C
:1004700001051560826C156825F48075156090F88B
:100480004420056C02F01F0201FA02F26A60D0E912
:1004900013255560426D32B1156825F480751560DD
:1004A000D0E91625556080F8251080F82430816B3E
:1004B00001B18847204670BDC06B7047F0B4016C35
:1004C0000C6801680D6890F8442002F01F060422B1
:1004D00002FA06F3234211D06B070FD50B689B0677
:1004E00003D40B6823F004030B6090F8441001F070
:1004F0001F018A40016C4A60016B1DE0022303FA70
:1005000006F727424FF0000C4FF0010218D0AF075A
:1005100016D50C68A40605D40C6824F00A040C60F7
:1005200080F8252090F8441001F01F018B40016CE9
:100530004B6080F824C0C16A00291AD0F0BC08477B
:100540000823B340234214D02B0712D50B6823F0A5
:100550000E030B6090F84410036C01F01F0102FAC7
:1005600001F15960C26380F8252080F824C0416BF6
:10057000E2E7F0BC7047000070B504000CD02B4AD5
:1005800021681420914209D2294A0A44B2FBF0F0B2
:100590008000606427480AE0012070BD234A52426F
:1005A0000A44B2FBF0F08000606420480838206400
:1005B000022084F825000A6847F6F0708243D4E9E7
:1005C00002031843D4E904352B431843A3691843A5
:1005D000E3691843236A1843104308602046FFF775
:1005E00099FEA0680025B0F5804F00D16560A16C30
:1005F00020790860D4E9130141606068401E032837
:1006000008D82046FFF7A6FE606D0560D4E9160104
:10061000416002E06565A565E565E563012084F854
:10062000250084F82450002070BD0000080402401A
:10063000F8FFFDBF0000024070B5044690F82400AA
:10064000002501280CD0012084F8240094F82560AE
:100650000020012E06D084F824000225284670BD13
:10066000022070BD022684F82560E06320680668D9
:1006700026F0010606602046FFF77EFE206B00286C
:100680002068016802D041F00E0106E021F004016B
:1006900001602068016841F00A010160A06C0168F6
:1006A000C90303D5016841F480710160606D18B120
:1006B000016841F4807101602068016841F0010126
:1006C0000160CBE770B5044600F0F2F80546601C07
:1006D00002D004484068044400F0EAF8401BA042FD
:1006E000FAD370BD080000202DE9FC4FDFF8A0A16F
:1006F000002301250AF1040B03244FF00F0C0BF12A
:10070000040EBDE005FA03F632406FD04F68012FAA
:1007100005D0022F03D0112F01D0122F17D1D0F8FE
:1007200008905F0004FA07F829EA08090097D1F851
:100730000C8008FA07F848EA0908C0F808804768FA
:10074000B7430E79C6F300169E403E434660C66826
:100750004FEA430804FA08F7BE4301978F6807FA87
:1007600008F73743C7604E68022E01D0122E13D10E
:10077000DE0800EB86060096366A5F07FF0E0CFA6D
:1007800007F926EA0906D1F8109009FA07F949EAAB
:100790000609009EC6F820900668019FBE430F79A7
:1007A00007F0030707FA08F7374307604E68F600BB
:1007B00065D5384E376E47F001073766366E23F041
:1007C000030706F001060096334E3E44B146B66874
:1007D0009F074FEA17780CFA08F7BE43B0F1904F25
:1007E00005D02E4FB84204D1012717E047E000277B
:1007F00014E02B4FB84201D102270FE0294FB84235
:1008000001D103270AE0284FB84201D1042705E0AF
:10081000264FB84201D1052700E0062707FA08F75E
:100820003743C9F80870DAF800605746D1F80480F9
:1008300096435FEAC83800D516433E60DBF8006097
:100840005F46D1F8048096435FEA883800D51643A6
:100850003E60DEF800607746D1F8048096435FEA98
:10086000C82800D516433E60094F0C373E68D1F8C2
:10087000048096435FEA882800D516433E605B1CDF
:100880000A6832FA03F67FF43DAFBDE8FC8F000042
:100890000004014000100240000001400004004834
:1008A00000080048000C00480010004800140048F0
:1008B00001488068704700000800002002488168F5
:1008C00042681144816070470800002010B5002480
:1008D000032000F077F8002000F008F808B10124A8
:1008E00001E000F025F8204610BD000070B50E4E66
:1008F00005460024706898B14FF47A71B1FBF0F0AE
:100900000A490968B1FBF0F000F060FD40B9102D14
:1009100006D200222946501E00F034F8356000E06F
:100920000124204670BD00000800002014000020B3
:100930000B4808B5016E41F001010166016E01F03E
:1009400001010091816D41F080518165806D00F061
:10095000805000900348816841F48041816008BD67
:100960000010024000700040002809DB00F01F0268
:10097000012191404009800000F1E020C0F8001101
:1009800070470000F0B40E4B1B680C46C3F3022303
:10099000C3F10705042D00D90425191D072901D22B
:1009A000002300E0DB1E012606FA05F1491E214066
:1009B00099409E40761E16403143F0BC02F06DB95E
:1009C0000CED00E0064900F0070208684FF6FF034F
:1009D000184040EA0220034A1043086070470000B4
:1009E0000CED00E00000FA052B492C4B0A6832217F
:1009F0004A432B4940B1B0F5007F086829D020F464
:100A0000C06040F480602CE00868C0F341200228F8
:100A100004D051F8800F20F4807022E0D1F88000DB
:100A200020F48070C1F88000086820F4C06040F4B1
:100A300000700860B2FBF3F0401C00E0401E4A6901
:100A4000520501D50028F9D1486940050AD503208F
:100A50007047C0F34120022806D051F8800F40F4BF
:100A60008070086000207047D1F8800040F48070EA
:100A7000C1F88000086820F4C06040F4007008608D
:100A8000B2FBF3F0401C00E0401E4A695205DBD582
:100A90000028F9D1D8E700001400002040420F00E0
:100AA000007000402DE9F8430446006800269D4D83
:100AB00000035ED5A86D0027C00008D4A86D40F0E3
:100AC0008050A865A86D012700F080500090DFF8E5
:100AD0005892D9F8001041F48071C9F80010FFF75E
:100AE000E7FE804606E000BFFFF7E2FEA0EB08004D
:100AF00002282BD8D9F80000C005F5D5D5F890000C
:100B000010F4407014D0216C814211D0D5F89000BF
:100B1000D5F8901020F4407041F48031C5F8901061
:100B2000D5F8901021F48031C5F89010C5F89000E8
:100B3000C00711D0FFF7BCFE804641F2883907E0BC
:100B4000FFF7B6FEA0EB0801494501D903260BE0EB
:100B5000D5F890008007F3D5D5F89000216C20F4EB
:100B600040700843C5F890001FB1A86D20F0805078
:100B7000A8652078C00707D0D5F88800616820F004
:100B800003000843C5F888002078800707D5D5F80A
:100B90008800A16820F00C000843C5F88800207880
:100BA000400707D5D5F88800E16820F030000843F9
:100BB000C5F888002078000707D5D5F88800216996
:100BC00020F0C0000843C5F888002078800607D5CB
:100BD000D5F88800616920F440600843C5F88800B2
:100BE0002078400607D5D5F88800A16920F4405048
:100BF0000843C5F888002078000607D5D5F8880096
:100C0000E16920F440400843C5F888002088C00509
:100C100007D5D5F88800216A20F440300843C5F88C
:100C200088002088800507D5D5F88800616A20F4FF
:100C300040200843C5F88800208840050FD5D5F826
:100C40008800A16A20F440100843C5F88800A06A13
:100C5000B0F5801F03D1E86840F48010E860208878
:100C600000050FD5D5F88800E16A20F4400008435C
:100C7000C5F88800E06AB0F5800F03D1E86840F459
:100C80008010E8602088C0040FD5D5F88800216B5B
:100C900020F040700843C5F88800206BB0F1807FD9
:100CA00003D1E86840F48010E86020884FF00061CC
:100CB00080040ED5D5F88800626B20F040601043A8
:100CC000C5F88800606B884203D1E86840F4801062
:100CD000E860208840040ED5D5F88800A26B20F08B
:100CE00040601043C5F88800A06B884203D1E868D3
:100CF00040F48010E860208800040FD5D5F8880003
:100D0000E16B20F040500843C5F88800E06BB0F17B
:100D1000805F03D1E86840F48030E8603046BDE889
:100D2000F883000000100240007000402DE9F047F9
:100D30000E4605004FF0000725D0DFF8AC81D8F84B
:100D4000000000F00F00B0420CD2D8F8001021F0E3
:100D50000F013143C8F80010D8F8000000F00F0070
:100D6000B04210D12968614CC80741F2883A5AD084
:100D70006868DFF87C91032808D0022820682DD00D
:100D8000400500282CDB0120BDE8F08720688001A9
:100D9000F9D5E06800F00302E068C0F30310401CDE
:100DA000032A19D0534A00BFB2FBF0F0E268C2F345
:100DB00006225043E268C2F34162521C5200B0FB6B
:100DC000F2F0484517D9A06810F0F00F0CD0880752
:100DD00011D5A86840B10EE0474AE5E78003D0E7A7
:100DE00000F0B6F8484506D9A06820F0F00040F0C1
:100DF0008000A0608027A068696820F00300084395
:100E0000A060FFF755FD814606E000BFFFF750FDEB
:100E1000A0EB090151453AD8A068696800F00C00C0
:100E2000B0EB810FF2D12868810714D5400703D5B4
:100E3000A06840F4E060A0602878000705D5A068AD
:100E400020F4605040F4E060A060A068A96820F041
:100E5000F000084304E0802F03D1A06820F0F000E8
:100E6000A060D8F80010404601F00F01B14216D939
:100E7000016821F00F0131430160FFF719FD0746BA
:100E800007E000BFFFF714FDC11B514501D9032046
:100E90007AE7D8F8000000F00F00B042F2D12878CD
:100EA000400705D5A068E96820F4E0600843A06029
:100EB0002878000706D5A068296920F4605040EA28
:100EC000C100A06000F044F8A1680C4AC1F303110E
:100ED000515C01F01F01C8400949086009480068D9
:100EE000BDE8F047FFF702BD0020024000100240BD
:100EF00000B4C4040024F40000366E01E03E000893
:100F00001400002008000020054806490068896890
:100F1000054AC1F30221515C01F01F01C84070472E
:100F20001400002000100240F03E00080548064969
:100F300000688968054AC1F3C221515C01F01F01B4
:100F4000C84070471400002000100240F03E000826
:100F5000184910B58868C0F381021748012A0BD0E0
:100F60008A68164BC2F38102022A06D08A68C2F34D
:100F70008102032A03D0002010BD184610BDCA68A4
:100F800002F00304CA68C2F30312521C032C02D0FD
:100F9000B0FBF2F001E0B3FBF2F0CA68C968C2F33B
:100FA00006225043C1F34161491C4900B0FBF1F0F6
:100FB00010BD0000001002400024F40000366E0155
:100FC0002DE9F84304007AD02078FA4DC00747D0C5
:100FD000A868E96800F00C0001F003010C2802D0B9
:100FE000082817D001E0032914D06068B0F5803FCD
:100FF00017D0B0F5A02F286817D020F480302860D3
:10100000286820F4802028606068E0B1FFF750FC79
:10101000064614E02868800322D560680028D2D0F4
:101020001EE0286840F48030EDE740F4802028601E
:10103000F7E700BFFFF73CFC801B642870D82868E6
:101040008003F7D50CE0FFF733FC064605E000BF50
:10105000FFF72EFC801B6428F0D828688003F7D4A3
:10106000207880074CD5A868E96800F00C0001F0F2
:1010700003010C2802D004280DD001E002290AD077
:10108000E068002828682BD040F480702860FFF7C3
:101090000FFC064619E02868400502D5E0680028E4
:1010A00091D06868217C20F0FE4040EA01606860D1
:1010B000C1480068FFF71AFC002800D120E076E163
:1010C000FFF7F6FB801B0228B8D828684005F7D543
:1010D0006868217C20F0FE4040EA016068600FE013
:1010E00020F480702860FFF7E3FB064605E000BFB0
:1010F000FFF7DEFB801B0228A0D828684005F7D444
:101100002078000729D560690028D5F8940013D00D
:1011100040F00100C5F89400FFF7CAFB064606E060
:1011200090E000BFFFF7C4FB801B022886D8D5F8EB
:1011300094008007F6D510E020F00100C5F8940077
:10114000FFF7B6FB064604E0FFF7B2FB801B022860
:1011500078D8D5F894008007F6D42078400761D578
:10116000A86D0026C00008D4A86D40F08050A86586
:10117000A86D012600F08050009090480168C905D4
:1011800011D40168804641F480710160FFF790FB43
:10119000074604E0FFF78CFBC01B022852D8D8F8A2
:1011A0000000C005F6D5A068012815D00528D5F89F
:1011B000900016D020F00100C5F89000D5F89000FE
:1011C00020F00400C5F89000A06841F28838B8B15A
:1011D000FFF76EFB07460EE0D5F8900040F00100E7
:1011E000F0E740F00400C5F89000F5E7FFF760FB7A
:1011F000C11B414526D8D5F890008007F6D50CE0F4
:10120000FFF756FB074604E0FFF752FBC11B4145C1
:1012100018D8D5F890008007F6D41EB1A86D20F03C
:101220008050A8652078800629D5A0690028D5F8C7
:10123000980013D040F00100C5F89800FFF738FB84
:10124000064606E077E000BFFFF732FB801B02286E
:1012500077D8D5F898008007F6D510E020F0010087
:10126000C5F89800FFF724FB064604E0FFF720FBD3
:10127000801B022865D8D5F898008007F6D4E0696D
:10128000F0B3A968C1F38101032961D0022828685D
:1012900020F0807028600BD0E86820F00300E86040
:1012A000E86847490840E860FFF702FB04464BE066
:1012B000FFF7FEFA064604E0FFF7FAFA801B022861
:1012C0003FD828688001F7D4F4E908016FF00F02D5
:1012D00002EB01110843218A5204490802EB4151F3
:1012E000A26841EA02210843217D4FF07E4249086D
:1012F00002EB41610843217B40EAC160E96800E0FC
:1013000062E0304A11400843E860286840F080708D
:101310002860E86840F08070E860FFF7C9FA04468A
:1013200005E000BFFFF7C4FA001B022809D82868AF
:101330008001F7D548E004E0FFF7BAFA001B022865
:1013400002D90320BDE8F88328688001F4D43BE08B
:101350000128F7D0E868226A00F00301914226D103
:10136000616A00F0F0020901103991421FD1A26AAE
:1013700000F4FE41B1EB022F19D194F82C2000F0BB
:101380007841B1EBC26F12D1218E00F4C00249083E
:101390004905A1F50011914209D194F8341000F0EB
:1013A000C06049084906A1F1007181420CD00120BA
:1013B000C8E7000000100240080000200070004054
:1013C000FFFFEEFE0C809F010020BBE710B5401E22
:1013D000B0F1807F01D3012010BD4FF0E0246061A7
:1013E0000F21601701F059FC0020A0610720206147
:1013F000002010BD90F87C10012918D0012180F840
:101400007C102421C0F8801050F8601B0A680B681B
:1014100023F001030B6022F000510022426050F8DB
:10142000603C19602021016202771046704702205B
:101430007047704770B5044690F87C0001281DD0B5
:10144000012084F87C002420C4F88000206805680E
:10145000026822F0010202602068826822F0606265
:101460000A438260204600F0A3FE20680560202029
:10147000C4F88000002084F87C0070BD022070BD9C
:1014800070B5044690F87C0001281DD0012084F836
:101490007C002420C4F8800020680568026822F0DF
:1014A000010202602068826822F060420A43826082
:1014B000204600F07DFE206805602020C4F88000F2
:1014C000002084F87C0070BD022070BD704770471A
:1014D00070B5D0F880100446D0F884500068826857
:1014E0004FF01006120612D5212910D1816821F083
:1014F00080018160606F38B1FEF76DFF20B1606FD1
:10150000FEF7DAFF20281BD0204600F09BFF206862
:101510008168490612D5222D10D1816821F0400141
:101520008160A06F38B1FEF756FF20B1A06FFEF7C3
:10153000C3FF202804D0204600F072FF002070BDB9
:10154000C4F88860032070BD704700002DE9F041A9
:1015500003680446D8691A68996810F00F0F4FF0B5
:10156000000569D05E4E02F490770E4037437DD07F
:10157000C70709D0D70507D501271F62D4F88830DF
:1015800043F00103C4F8883083070AD5CB0708D09D
:10159000276802233B62D4F8883043F00403C4F880
:1015A000883043070AD5CB0708D0276804233B625D
:1015B000D4F8883043F00203C4F8883003070CD510
:1015C00002F02003334308D0266808233362D4F89E
:1015D000883043F00803C4F88830D4F88830002BF2
:1015E0003CD0800609D502F0200001F0805108436C
:1015F00003D0E16E09B120468847D4F888002168FD
:101600008968490601D400072AD5204600F008FF62
:101610002068816849061ED5816821F040018160FB
:10162000A06FC0B12F498163A06FFEF709FF0028AA
:1016300014D0A06F816B0AE0860617D502F0200651
:1016400001F080573E4311D0E16E24E02046BDE812
:10165000F04108470AE02046FFF776FFBDE8F08139
:101660002046FFF771FFC4F88850F7E7C60209D596
:101670004E0207D54FF4801018622046BDE8F041B5
:10168000FFF725BF060609D502F0800601F4000128
:101690000E4303D0216F0029D8D1DFE741060DD5D5
:1016A00051060BD51968204621F040011960202110
:1016B000C4F88010256700F079F9CFE7010206D55C
:1016C000510004D52046BDE8F041FFF7FFBEC00140
:1016D000C4D5002AC2DA2046BDE8F041FFF7A9BE12
:1016E000010000103B2300080C4810B5006840685A
:1016F0000B4CC0F10A00C2B222700A490A4800F03D
:1017000009F90849A82000F0D7F900202070BDE8A9
:1017100010400A220349044800F0A8B8B80000208D
:1017200000000020180000202C00002010B504004C
:1017300003D0D4F8800010B107E0012010BD0020D4
:1017400084F87C00204600F027F82420C4F88000AC
:101750002068016821F001010160204600F080FE50
:101760000128EBD0A06A10B1204600F053FD20689C
:10177000416821F4904141602068816821F02A018C
:1017800081602068016841F0010101602046BDE8E8
:10179000104000F0A3BD0000F0B587B0064614214C
:1017A0006846FEF76DFD2D493068884254D12C48BB
:1017B000016E41F480410166016E01F480410591A2
:1017C000C16C41F00101C164C06C002400F0010053
:1017D00005904FF4C06000900220CDE9010407207D
:1017E000CDE9034069464FF09040FEF77DFF1E4D66
:1017F0001C48802728601820C5E90104C5E9034773
:101800006C61AC61EC6128462C62FEF7B5FE08B154
:10181000FEF7E0FDB567AE62134D12486035143037
:1018200028601920686005F10801102081E8910006
:101830006C61AC61EC6128462C62FEF79DFE08B13C
:10184000FEF7C8FD7567002211462520AE62FFF73E
:1018500099F82520FFF788F807B0F0BD003801405F
:101860000010024008000240B800002070B5044695
:10187000D0F88400202842D161B35AB394F87C0098
:1018800001283CD0012084F87C00A165A4F85C20EC
:101890000025C4F888502220C4F88400A06FD8B175
:1018A0001849C162A16F184813460863A16F174811
:1018B0004863A06F8563A66D216832462431A06F0E
:1018C000FEF7BAFE40B11020C4F8880004F87C5F2F
:1018D00020206060012070BD84F87C502068016881
:1018E00041F4807101602068816841F001018160EC
:1018F0002068816841F040018160002070BD0220B5
:1019000070BD00009F230008DD2300084F2300085E
:101910007047704770B50446D0F8800020283DD14C
:1019200071B36AB394F87C00012837D0012084F8A1
:101930007C002165A4F85420A4F856200025C4F8A2
:1019400088502120C4F88000606FD8B11449C1626A
:10195000616F144813460863616F13484863606FF2
:1019600085632668216D06F12802606FFEF764FE2C
:1019700040B11020C4F8880004F87C5F202060602B
:10198000012070BD21684020086284F87C502068E6
:10199000816841F080018160002070BD022070BD2F
:1019A000E7230008172400084F23000870477047FA
:1019B000FEE7000000B585B014216846FEF760FC24
:1019C0004FF6FF70009000200321CDE90201019045
:1019D00069460248FEF788FE05B000BD00080048D1
:1019E00000B585B014216846FEF74AFC4FF6FF703B
:1019F000009001200190032003900020029069468E
:101A00000248FEF771FE05B000BD00000008004866
:101A100030B587B014216846FEF732FC1E48C16C11
:101A200041F00401C164C16C01F004010591C16C75
:101A300041F00101C164C16C01F001010591C16C6B
:101A400041F00201C164C06C012500F00200059064
:101A50004FF44870CDE900050024039469460294D0
:101A60000E48FEF741FE280203940090CDE9015490
:101A70004FF0904469462046FEF736FEFFF7B0FF70
:101A8000A06940F48070A06104481830016841F4F6
:101A90000871016007B030BD00100240000400482A
:101AA000203AD2B2034B02EB420203EB021200F0E7
:101AB00019B80000102D0008F0B50E4607460025A5
:101AC00040F23F1407E021463846FFF7E9FF103C9B
:101AD0006D1CA4B2761C3278002A01D0142DF2D3EA
:101AE000F0BD00002DE9F04791468A4600260446E5
:101AF00000F07EF8DFF84080012700BF00F0B0F86A
:101B00005FF0000539F8160007FA05F10842404673
:101B100001D1408800E0008800F076F86D1C102D9F
:101B2000F0D3641CE4B25146204600F061F8761C04
:101B3000182EE3D3BDE8F0870200002010B5FFF7B0
:101B400067FF002000F014F8084CA080A088A0F5E2
:101B50000241303906D000F0E3F9002000F008F827
:101B6000A08010BD00F053F9F7E70000020000204C
:101B700070B51D490A6842F400720A600A6842F4AE
:101B800080720A60184C103C226842F020022260E9
:101B9000164A1060086840F02000086000BF00BFCF
:101BA00000BF206840F020002060206840F4807072
:101BB0002060FFF7FFFE4FF09041886A40F480708C
:101BC000886200BF00BF00BF0848001F006885B2E0
:101BD000886940F480708861FFF702FF206840F454
:101BE00000702060284670BD280400481408004892
:101BF00010B50C460146202000F060F82146BDE8F3
:101C00001040212000F05AB8134A116841F40071C5
:101C10001160114910390B6843F480730B600B6835
:101C200043F020030B600D4B1860106840F020005B
:101C3000106000BF00BF00BF086840F020000860CF
:101C4000086840F48070086000BF00BF00BF0868EB
:101C500040F40070086070472804004814080048E9
:101C60001449086840F400700860086840F4807007
:101C7000086010481038026842F0200202600E4BE3
:101C800022221A600A6842F020020A6000BF00BFE8
:101C900000BF016841F020010160016841F48071DA
:101CA000016000BF00BF00BF016841F40071016026
:101CB000704700002804004814080048184B10B56D
:101CC0001A6842F400721A601A6842F480721A604C
:101CD000134A103A146844F020041460114C206038
:101CE000186840F02000186000BF00BF00BF1068F7
:101CF00040F020001060106840F480701060216097
:101D0000186840F02000186000BF00BF00BF1068D6
:101D100040F020001060106840F48070106010BD2A
:101D20002804004814080048114808B5816C41F0A7
:101D300004018164816C01F004010091816C41F027
:101D400001018164806C002200F0010000901146C6
:101D50000B20FEF717FE0B20FEF706FE00221146B1
:101D60000C20FEF70FFEBDE808400C20FEF7FCBD7E
:101D700000100240094808B5C16C41F02001C1645F
:101D8000C16C01F020010091C16C41F00101C164FE
:101D9000C06C00F00100009008BD0000001002407F
:101DA000184810B5164901604FF4E1314160002137
:101DB00081600C22C160C0E904128161C1610162CD
:101DC00041628162FFF7B2FC08B1FEF703FB00211C
:101DD0000C48FFF755FB08B1FEF7FCFA0021094853
:101DE000FFF728FB08B1FEF7F5FA0648FFF702FBFC
:101DF000002803D0BDE81040FEF7ECBA10BD00008B
:101E0000003801402C000020FEE77047704730B5D5
:101E100001210020FFF752FF4FF47A70FEF7CCFA51
:101E200000210120FFF74AFF41F290711020FFF7D7
:101E300045FF4FF41C516020FFF740FF0121612056
:101E4000FFF73CFF02214620FFF738FF48F2100160
:101E50001320FFF733FF48F2FE011220FFF72EFF99
:101E60004FF4A0610220FFF729FF41F23001032067
:101E7000FFF724FF40F2033421463020FFF71EFF16
:101E800021463120FFF71AFF21463220FFF716FFC7
:101E9000E51E29463320FFF711FF03213420FFF709
:101EA0000DFF21463520FFF709FF14213620FFF7EB
:101EB00005FF21463720FFF701FF21463820FFF7B5
:101EC000FDFE21463920FFF7F9FE29463A20FFF7AB
:101ED000F5FE03213B20FFF7F1FE21463C20FFF7F2
:101EE000EDFE4FF4A0513D20FFF7E8FE4FF40071E6
:101EF0009220FFF7E3FE21469320FFF7DFFE40F636
:101F00000D019020FFF7DAFE41F218010320FFF7E0
:101F1000D5FEBDE8304040F273110720FFF7CEBE7A
:101F200010B543F20801E320FFF7C8FE1221E720B5
:101F3000FFF7C4FE41F23121EF20FFF7BFFE002181
:101F40000120FFF7BBFE4FF4E0610220FFF7B6FE71
:101F500041F230010320FFF7B1FE00210420FFF71A
:101F6000ADFE40F207210820FFF7A8FE002109205E
:101F7000FFF7A4FE00210A20FFF7A0FE00210C209D
:101F8000FFF79CFE00210D20FFF798FE00210F2097
:101F9000FFF794FE00211020FFF790FE072111208B
:101FA000FFF78CFE00211220FFF788FE002113208E
:101FB000FFF784FEC820FEF785FB41F290611020F8
:101FC000FFF77CFE40F227211120FFF777FE322039
:101FD000FEF778FB1D211220FFF770FE3220FEF77E
:101FE00071FB4FF400611320FFF768FE14212920D4
:101FF000FFF764FE0B212B20FFF760FE3220FEF777
:1020000061FB00212020FFF759FE00212120FFF76E
:1020100055FE07213020FFF751FE40F207713120B5
:10202000FFF74CFE06213220FFF748FE40F2047114
:102030003520FFF743FE41F604713620FFF73EFEE0
:1020400004213720FFF73AFE00213820FFF736FE43
:1020500040F206713920FFF731FE40F201713C2059
:10206000FFF72CFE0F213D20FFF728FE0021502016
:10207000FFF724FEEF215120FFF720FE0021522020
:10208000FFF71CFE40F23F115320FFF717FE4FF4FD
:102090001C516020FFF712FE01216120FFF70EFEA8
:1020A00000216A20FFF70AFE00218020FFF706FECC
:1020B00000218120FFF702FE00218220FFF7FEFDB4
:1020C00000218320FFF7FAFD00218420FFF7F6FDB1
:1020D00000218520FFF7F2FD10219020FFF7EEFD93
:1020E00000219220FFF7EAFD03219320FFF7E6FD90
:1020F0004FF488719520FFF7E1FD00219720FFF74D
:10210000DDFD00219820FFF7D9FD41F218010320E1
:10211000FFF7D4FDBDE8104040F273110720FFF730
:10212000CDBD7047FEF7CABB30B5A5B038216846B3
:10213000FEF7A6F814211FA8FEF7A2F844210EA866
:10214000FEF79EF84FF40070FEF74EFC01252804C0
:10215000CDE9005002200324CDE907041421CDE984
:102160000A100C900D9009946846FEF729FF0F2085
:10217000CDE91F0400242194229403211FA8239455
:10218000FEF7D4FDCDE90E540EA8FEF78BFC25B06A
:1021900030BD00000548016841F470010160034949
:1021A0004FF00060803908607047000088ED00E063
:1021B0003FB514A1D1E90021CDE9002113A2D2E954
:1021C0000012CDE90212416EB9B1026891689268BD
:1021D000C1F34261520F1DF80240E50002ACA25C5F
:1021E000B5FBF2F2A0F86A201DF80120615CD20074
:1021F000B2FBF1F1A0F868103FBD0121A0F86A1010
:10220000F8E70000010101030701000008040204CF
:102210000801010190F82810C90706D001684A6832
:10222000C36A22F400321A434A6090F828108907E2
:1022300006D501684A68036B22F480321A434A606B
:1022400090F82810490706D501684A68436B22F4C4
:1022500080221A434A6090F82810090706D50168C1
:102260004A68836B22F400421A434A6090F82810AF
:10227000C90606D501688A68C36B22F480521A43E6
:102280008A6090F82810890606D501688A68036C70
:1022900022F400521A438A6090F82810490611D59A
:1022A00001684A68436C22F480121A434A60416C08
:1022B000B1F5801F06D101684A68836C22F4C00220
:1022C0001A434A6090F82810090606D501684A6842
:1022D000C06C22F4002202434A607047F8B5002621
:1022E0000446C0F88860FEF7E3FA054620680068F7
:1022F0006FF07E47000708D52B4600224FF40011EF
:102300002046009700F07FFC60B920680068400715
:102310000AD52B4600224FF480012046009700F09A
:1023200072FC08B10320F8BD2020C4F88000C4F876
:10233000840084F87C600020F8BD10B5806A00211C
:10234000A0F85E10A0F85610FFF7FEF810BD70B5AB
:10235000846AD4F88000D4F88450216889684FF0EA
:102360000006090606D5212804D1A4F856602046A7
:1023700000F068F820688068400606D5222D04D158
:10238000A4F85E60204600F04BF8D4F8880040F0D6
:102390001000C4F888002046FFF7D6F870BD10B5CD
:1023A0000146806A09680968890614D40021A0F8EA
:1023B0005E1001680A6822F480720A6001688A6807
:1023C00022F001028A6001688A6822F040028A6075
:1023D0002021C0F88410FFF79BFA10BD10B5806A69
:1023E000FFF797FA10BD10B50146806A09680968C1
:1023F00089060DD40021A0F8561001688A6822F0E1
:1024000080028A600068016841F04001016010BDEF
:10241000FFF7CCFA10BD10B5806AFFF7C8FA10BDFF
:1024200001680A6822F490720A6001688A68044BA5
:102430001A408A602021C0F884100021C1667047CC
:10244000FEFFFFEF01680A6822F0C0020A6001681F
:102450008A6822F400028A602021C0F88010704748
:102460002DE9F05F0446016880682369E569184337
:10247000636900272B431843636EFA4A03430868D5
:10248000F94D28401843086020684168E36821F44A
:102490004051194341602168A069914201D0236AEB
:1024A00018438B68F14D2B4003438B602068C16A51
:1024B000636A21F00F011943C162ED4B2068ED49B9
:1024C00098420DD1D1F8881011F0030106D00129EE
:1024D0005AD0022956D003293FD157E001253DE0CB
:1024E000E54B98420BD1D1F8881011F00C0147D080
:1024F000042949D0082945D00C292ED146E0DF4BCC
:1025000098420BD1D1F8881011F0300138D0102941
:102510003AD0202936D030291FD137E0D84B984205
:102520000BD1D1F8881011F0C00129D040292BD04F
:10253000802927D0C02910D128E090420DD1D1F8B0
:10254000881011F440611BD0B1F5806F1CD0B1F53B
:10255000006F17D0B1F5406F18D01025DFF824A315
:102560004FF480764FF000094FF4004B90426ED14B
:1025700075B1022D29D0042D59D0082D68D176E0EF
:102580000025EBE70225E9E70425E7E70825E5E76D
:10259000FEF7BAFC4DE0012851D0022851D00328A3
:1025A00051D0042851D0052853D0062853D00728ED
:1025B00053D0082853D0092853D00A2853D00B28C9
:1025C00053D03AE0B1FBF0F06CE0606AA8B10128AA
:1025D00017D0022817D0032817D0042817D00528B1
:1025E00017D0062817D0072817D0082817D0092891
:1025F00017D00A2817D00B2817D00120BAFBF0F00B
:1026000050E00220FAE70420F8E70620F6E7082069
:10261000F4E70A20F2E70C20F0E71020EEE7202094
:10262000ECE74020EAE78020E8E73046E6E7FEF7FF
:102630008FFC0146606A0028ADD10120C2E702206C
:10264000C0E70420BEE70620BCE70820BAE761E146
:102650004AE00A20B6E70C20B4E71020B2E72020B9
:10266000B0E74020AEE78020ACE73046AAE7606ADA
:10267000A8B1012822D0022822D0032822D0042881
:1026800022D0052822D0062822D0072822D00828C8
:1026900022D0092822D00A2822D00B2822D00120BB
:1026A000BBFBF0F0002820D06168884601EB4101B7
:1026B000814219D8B0EB083F16D817E00220EFE7A7
:1026C0000420EDE70620EBE70820E9E70A20E7E72A
:1026D0000C20E5E71020E3E72020E1E74020DFE7DA
:1026E0008020DDE73046DBE7012739E27DB3022DAC
:1026F00061D0042D7DD0082DF6D1606AA8B10128E3
:1027000078D0022877D0032876D0042875D0052801
:1027100074D0062873D0072872D0082871D00928F1
:1027200070D00A286FD00B2800D0012632464D46C3
:10273000002358460021FDF76BFD090241EA1061B4
:1027400002024FEA580010186941424670E0FFE764
:10275000FEF7DAFB0146606AA8B1012817D002280B
:1027600017D0032817D0042817D0052817D006281B
:1027700017D0072817D0082817D0092817D00A28FB
:1027800017D00B2800D0012632464D468CE0022699
:10279000FAE70426F8E70626F6E70826F4E70A260D
:1027A000F2E70C26F0E71026EEE72026ECE74026BD
:1027B000EAE78026E8E7606AA8B1012824D0022869
:1027C00024D0032824D0042824D0052824D0062887
:1027D00024D0072824D0082824D0092824D00A2867
:1027E00024D00B2800D0012632464D460023504607
:1027F000A0E726E07AE07BE07CE07DE07EE07FE021
:1028000080E081E082E083E00226EDE70426EBE74A
:102810000626E9E70826E7E70A26E5E70C26E3E7C8
:102820001026E1E72026DFE74026DDE78026DBE70C
:102830000023FDF7EDFC144AA0F54071914271D9D7
:1028400052E7FEF785FB0146606A50B3012839D094
:10285000022839D0032839D0042839D0052839D0A6
:10286000062813E000800040F369FFCFFFF4FF115A
:102870000038014000100240004400400048004081
:10288000004C00400024F400FFFC0F0024D0072877
:1028900024D0082824D0092824D00A2824D00B28A2
:1028A00000D001264D463246002308461946FDF762
:1028B000AFFC0902626841EA10610302500818186F
:1028C0006941B5E70226EDE70426EBE70626E9E7CE
:1028D0000826E7E70A26E5E70C26E3E71026E1E706
:1028E0002026DFE74026DDE78026DBE702261DE71E
:1028F00004261BE7062619E7082617E70A2615E728
:102900000C2613E7102611E720260FE740260DE7D7
:1029100080260BE7E0694FF6EF78584570D1092D16
:102920008ED200E01AE1DFE805F006093C058005DB
:1029300005058300D8E6FEF7E7FA01E0FEF7F6FAB0
:102940000146606AA8B1012815D0022815D00328D5
:1029500015D0042815D0052815D0062815D007282D
:1029600015D0082815D0092815D00A2815D00B280D
:1029700014D0012612E0022610E004260EE00626FE
:102980000CE008260AE00A2608E00C2606E01026DD
:1029900004E0202602E0402600E08026B1FBF6F0AD
:1029A0001AE0606AA8B101282BD002282BD0032896
:1029B0002BD004282BD005282BD006282BD0072875
:1029C0002BD008282BD009282BD00A282BD00B2855
:1029D00000D00126BAFBF6F04100606801EB50011F
:1029E000B1FBF0F080B2A0F110014145A2D84FF642
:1029F000F0710140C0F3420001432068C160AFE0C4
:102A000046E00226E6E70426E4E70626E2E7082693
:102A1000E0E70A26DEE70C26DCE71026DAE72026C8
:102A2000D8E74026D6E78026D4E7FEF791FA87E775
:102A3000606AA8B1012817D0022817D0032817D040
:102A4000042817D0052817D0062817D0072817D034
:102A5000082817D0092817D00A2817D00B2800D02B
:102A60000126BBFBF6F0B7E70226FAE70426F8E7F3
:102A70000626F6E70826F4E70A26F2E70C26F0E732
:102A80001026EEE72026ECE74026EAE78026E8E776
:102A9000092DBFF4D5AEDFE805F006093C05830536
:102AA0000505860020E6FEF72FFA01E0FEF73EFA64
:102AB0000146606AA8B1012815D0022815D0032864
:102AC00015D0042815D0052815D0062815D00728BC
:102AD00015D0082815D0092815D00A2815D00B289C
:102AE00014D0012612E0022610E004260EE006268D
:102AF0000CE008260AE00A2608E00C2606E010266C
:102B000004E0202602E0402600E08026B1FBF6F13A
:102B10001AE0606AA8B101282ED002282ED003281E
:102B20002ED004282ED005282ED006282ED00728F7
:102B30002ED008282ED009282ED00A282ED00B28D7
:102B400000D00126BAFBF6F1606801EB5001B1FB41
:102B5000F0F080B2A0F110014145A3D82168C8600F
:102B60000120A4F86A0024F8680F3846C4F80490DD
:102B7000C4F80890BDE8F09F0226E3E70426E1E7E9
:102B80000626DFE70826DDE70A26DBE70C26D9E77D
:102B90001026D7E72026D5E74026D3E78026D1E7C1
:102BA000FEF7D6F984E7606AA8B1012817D0022899
:102BB00017D0032817D0042817D0052817D00628C7
:102BC00017D0072817D0082817D0092817D00A28A7
:102BD00017D00B2800D00126BBFBF6F1B4E7022684
:102BE000FAE70426F8E70626F6E70826F4E70A26B9
:102BF000F2E70C26F0E71026EEE72026ECE7402669
:102C0000EAE78026E8E72DE9F041984617460E46A8
:102C10000446069D08E0681C06D0FDF749FEA0EBBF
:102C20000800A8420BD855B12068C06936EA0000F8
:102C300019D00020B842EED00020BDE8F081206815
:102C4000016821F4D07101602068816821F00101E0
:102C500081602020C4F88000C4F88400002084F83B
:102C60007C000320E9E70120E4E70000094810B5F3
:102C70000068C169C943C90607D41021016205482B
:102C8000FEF726FC0348FEF72FFDBDE81040014883
:102C9000FEF75CBC2C000020FEE70907090E0028A7
:102CA00004DB00F1E02080F80014704700F00F0012
:102CB00000F1E02080F8141D704702E008C8121FE0
:102CC00008C1002AFAD170477047002001E001C115
:102CD000121F002AFBD17047FDF7F8FDFEF72EFF0B
:102CE000FFF722FAFFF746F8FFF71EF8FFF758F84C
:102CF0000A2205490548FEF7B9FD04480068016845
:102D000041F010010160FEE7180000202C000020B7
:102D100000000000000000000000000000000000B3
:102D200000000000000000000000000000000000A3
:102D30000000000000000000000000000000000093
:102D400000008001800180018001800180018001FC
:102D5000800180018001800180018001000000006D
:102D60008001800100000000000000000000000061
:102D700000000000CC00CC00CC00CC00CC00CC008B
:102D80000000000000000000000000000000000043
:102D90000000000000000000000000000000000033
:102DA000000000000000000000000000600C600C4B
:102DB000600C30063006FE1FFE1F30063807180371
:102DC000FE1FFE1F180318038C018C018C010000EC
:102DD00000008000E003F80F9C0E8C1C8C188C0007
:102DE0009800F801E007800E801C8C188C189C1845
:102DF000B80CF00FE003800080000000000000002D
:102E00000000000000000E181B0C110C110611062A
:102E1000110311039B018E01C038C06C60446044F3
:102E2000304430441844186C0C3800000000000096
:102E30000000E001F0033807180618063003F0011F
:102E4000F000F8009C310E33061E061C061C063FDF
:102E5000FC73F021000000000000000000000000F2
:102E6000000000000C000C000C000C000C000C001A
:102E70000000000000000000000000000000000052
:102E80000000000000000000000000000000000042
:102E90000000000200038001C000C000600060006C
:102EA00030003000300030003000300030003000A2
:102EB00060006000C000C00080010003000200004C
:102EC000000020006000C0008001800100030003BA
:102ED00000060006000600060006000600060006C2
:102EE0000003000380018001C0006000200000009A
:102EF000000000000000000000000000C000C00052
:102F0000D806F807E0013003380700000000000091
:102F100000000000000000000000000000000000B1
:102F2000000000000000000000000000800180019F
:102F3000800180018001FC3FFC3F80018001800115
:102F4000800180010000000000000000000000007F
:102F50000000000000000000000000000000000071
:102F60000000000000000000000000000000000061
:102F700000008001800100010001800000000000CD
:102F80000000000000000000000000000000000041
:102F90000000000000000000E007E0070000000063
:102FA0000000000000000000000000000000000021
:102FB0000000000000000000000000000000000011
:102FC0000000000000000000000000000000000001
:102FD0000000C000C0000000000000000000000071
:102FE0000000000C000C00060006000600030003B1
:102FF00000038003800180018001C000C000C00088
:103000006000600000000000000000000000000000
:103010000000E003F007380E180C0C180C180C1800
:103020000C180C180C180C180C180C18180C380E5E
:10303000F007E003000000000000000000000000B6
:10304000000000018001C001F001980188018001A9
:103050008001800180018001800180018001800168
:10306000800180010000000000000000000000005E
:103070000000E003F80F180C0C180C1800180018CA
:10308000000C000600038001C00060003000180042
:10309000FC1FFC1F000000000000000000000000FA
:1030A0000000E001F807180E0C0C0C0C000C0006D8
:1030B000C003C007000C001800180C180C18180CDE
:1030C000F807E0030000000000000000000000001E
:1030D0000000000C000E000F000F800DC00C600CF3
:1030E000600C300C180C0C0CFC3FFC3F000C000C6E
:1030F000000C000C000000000000000000000000B8
:103100000000F80FF80F180018000C00EC03FC0783
:103110001C0E001C0018001800180C181C0C180EAF
:10312000F807E003000000000000000000000000BD
:103130000000C007F00F381C181818000C00CC0352
:10314000EC0F3C0E1C1C0C180C180C18181C380E1C
:10315000F007E00300000000000000000000000095
:103160000000FC1FFC1F000C00060006000380038B
:103170008001C001C000E00060006000700030000D
:1031800030003000000000000000000000000000DF
:103190000000E003F007380E180C180C180C380665
:1031A000F007F007180C0C180C180C180C18380C39
:1031B000F80FE00300000000000000000000000025
:1031C0000000E003F007380E1C0C0C180C180C184B
:1031D0001C1C381EF81BE0190018000C000C1C0EFB
:1031E000F807F001000000000000000000000000EF
:1031F00000000000000000000000000080018001CD
:1032000000000000000000000000000000000000BE
:1032100080018001000000000000000000000000AC
:10322000000000000000000000000000800180019C
:10323000000000000000000000000000000000008E
:1032400080018001000100018000000000000000FA
:10325000000000000000000000000000000000006E
:103260000010001C800FE003F8001800F800E003D5
:10327000800F001C00100000000000000000000093
:10328000000000000000000000000000000000003E
:10329000F81F000000000000F81F00000000000000
:1032A000000000000000000000000000000000001E
:1032B000000000000000000000000000000000000E
:1032C00008003800F001C007001F0018001FC007E9
:1032D000F0013800080000000000000000000000BD
:1032E0000000E003F80F180C0C180C180018000C64
:1032F000000600038001C000C000C0000000000004
:10330000C000C0000000000000000000000000003D
:1033100000000000E00718180420C229224A1144C6
:1033200009440944094409221113E20C0240042013
:103330001818E00700000000000000000000000076
:10334000000080038003C006C006C006600C600C4D
:10335000301830183018F83FF83F1C700C600C60C3
:1033600006C006C0000000000000000000000000D1
:103370000000FC03FC0F0C0C0C180C180C180C0CA7
:10338000FC07FC0F0C180C300C300C300C300C18F7
:10339000FC1FFC070000000000000000000000000F
:1033A0000000C007F01F38381C300C7006600600A3
:1033B0000600060006000600060006600C701C30C1
:1033C000F01FE00700000000000000000000000007
:1033D0000000FE03FE0F060E061806180630063023
:1033E0000630063006300630063006180618060E7F
:1033F000FE0FFE03000000000000000000000000BF
:103400000000FC3FFC3F0C000C000C000C000C000A
:10341000FC1FFC1F0C000C000C000C000C000C002E
:10342000FC3FFC3F00000000000000000000000026
:103430000000F83FF83F18001800180018001800A6
:10344000F81FF81F180018001800180018001800BE
:10345000180018000000000000000000000000003C
:103460000000E00FF83F3C780E6006E007C0030064
:10347000030003FE03FE03C007C006C00EC03CF0FD
:10348000F83FE00F00000000000000000000000016
:1034900000000C300C300C300C300C300C300C3088
:1034A000FC3FFC3F0C300C300C300C300C300C303E
:1034B0000C300C3000000000000000000000000094
:1034C0000000800180018001800180018001800175
:1034D00080018001800180018001800180018001E4
:1034E00080018001000000000000000000000000DA
:1034F00000000006000600060006000600060006A2
:103500000006000600060006000618061806380722
:10351000F003E001000000000000000000000000D7
:10352000000006300618060C060606038601C600D3
:1035300066007600DE008E0106030606060C0618FD
:1035400006300660000000000000000000000000DF
:1035500000001800180018001800180018001800C3
:10356000180018001800180018001800180018009B
:10357000F81FF81F0000000000000000000000001D
:1035800000000EE01EF01EF01EF036D836D836D8F9
:1035900036D866CC66CC66CCC6C6C6C6C6C6C6C657
:1035A00086C386C300000000000000000000000089
:1035B00000000C301C303C303C306C306C30CC3077
:1035C000CC308C310C330C330C360C360C3C0C3CB0
:1035D0000C380C300000000000000000000000006B
:1035E0000000E007F81F1C380E70066003C003C01F
:1035F00003C003C003C003C003C006600E701C38C4
:10360000F81FE007000000000000000000000000BC
:103610000000FC0FFC1F0C380C300C300C300C3050
:103620000C18FC1FFC070C000C000C000C000C001C
:103630000C000C0000000000000000000000000072
:103640000000E007F81F1C380E70066003E003C09E
:1036500003C003C003C003C007E006630E3F1C3C69
:10366000F83FE0F700C0000000000000000000008C
:103670000000FE0FFE1F0638063006300630063802
:10368000FE1FFE0706030606060C0618061806307F
:10369000063006600000000000000000000000008E
:1036A0000000E003F80F1C0C0C180C180C001C0098
:1036B000F803E00F001E0038063006300E301C1CE8
:1036C000F80FE0070000000000000000000000000C
:1036D0000000FE7FFE7F800180018001800180016B
:1036E00080018001800180018001800180018001D2
:1036F00080018001000000000000000000000000C8
:1037000000000C300C300C300C300C300C300C3015
:103710000C300C300C300C300C300C300C301818D5
:10372000F81FE0070000000000000000000000009B
:10373000000003600630063006300C180C180C1818
:10374000180C180C380E3006300670076003600342
:10375000C001C001000000000000000000000000E7
:1037600000000360C361C361C361663366336633BF
:103770006633663366336C1B6C1B6C1B2C1A3C1E49
:10378000380E380E000000000000000000000000AD
:1037900000000FE00C7018303018700C600EC0077D
:1037A00080038003C003E006700C301C18180C3036
:1037B0000E6007E0000000000000000000000000B4
:1037C000000003C006600C301C383818300C60064E
:1037D000E007C00380018001800180018001800139
:1037E00080018001000000000000000000000000D7
:1037F0000000FC7FFC7F006000300018000C000619
:1038000000038001C0006000300018000C000600BA
:10381000FE7FFE7F000000000000000000000000AE
:103820000000E003E00360006000600060006000F2
:103830006000600060006000600060006000600088
:1038400060006000600060006000E003E0030000D2
:10385000000030003000600060006000C000C00068
:10386000C000C0018001800180010003000300034B
:10387000000600060000000000000000000000003C
:103880000000E003E0030003000300030003000363
:103890000003000300030003000300030003000310
:1038A00000030003000300030003E003E003000043
:1038B00000000000C001C001600360036003300627
:1038C0003006180C180C000000000000000000007A
:1038D00000000000000000000000000000000000E8
:1038E00000000000000000000000000000000000D8
:1038F00000000000000000000000000000000000C8
:103900000000FFFFFFFF00000000000000000000BB
:1039100000000C000C000C000C000C000C0000005F
:103920000000000000000000000000000000000097
:103930000000000000000000000000000000000087
:10394000000000000000000000000000F003F80785
:103950001C0C0C0C000FF00FF80C0C0C0C0C1C0FBA
:10396000F80FF01800000000000000000000000048
:10397000000018001800180018001800D803F80FED
:10398000380C181818181818181818181818380C8F
:10399000F80FD80300000000000000000000000045
:1039A000000000000000000000000000C003F0075D
:1039B000300E180C1800180018001800180C300EE3
:1039C000F007C0030000000000000000000000003D
:1039D000000000180018001800180018C01BF01F85
:1039E000301C181818181818181818181818301C1F
:1039F000F01FC01B000000000000000000000000DD
:103A0000000000000000000000000000C003F00FF4
:103A1000300C1818F81FF81F180018003818301C40
:103A2000F00FC007000000000000000000000000D0
:103A30000000800FC00FC000C000C000F007F007FA
:103A4000C000C000C000C000C000C000C000C00076
:103A5000C000C000000000000000000000000000E6
:103A6000000000000000000000000000E00DF80F62
:103A7000180E0C0C0C0C0C0C0C0C0C0C0C0C180E6A
:103A8000F80FE00D000C0C0C1C06F807F00100000C
:103A9000000018001800180018001800D807F80FC8
:103AA000381C181818181818181818181818181872
:103AB00018181818000000000000000000000000A6
:103AC0000000C000C000000000000000C000C000F6
:103AD000C000C000C000C000C000C000C000C000E6
:103AE000C000C00000000000000000000000000056
:103AF0000000C000C000000000000000C000C000C6
:103B0000C000C000C000C000C000C000C000C000B5
:103B1000C000C000C000C000C000F8007800000075
:103B200000000C000C000C000C000C000C0C0C062F
:103B30000C038C01CC006C00FC009C018C030C037A
:103B40000C060C0C0000000000000000000000004B
:103B50000000C000C000C000C000C000C000C00025
:103B6000C000C000C000C000C000C000C000C00055
:103B7000C000C000000000000000000000000000C5
:103B80000000000000000000000000007C3CFF7E00
:103B9000C7E383C183C183C183C183C183C183C19F
:103BA00083C183C10000000000000000000000008D
:103BB0000000000000000000000000009807F80F5F
:103BC000381C181818181818181818181818181851
:103BD0001818181800000000000000000000000085
:103BE000000000000000000000000000C003F00F13
:103BF000300C181818181818181818181818300C2D
:103C0000F00FC003000000000000000000000000F2
:103C1000000000000000000000000000D803F80FC2
:103C2000380C181818181818181818181818380CEC
:103C3000F80FD8031800180018001800180000002A
:103C4000000000000000000000000000C01BF01F8A
:103C5000301C181818181818181818181818301CAC
:103C6000F01FC01B001800180018001800180000F2
:103C7000000000000000000000000000B007F0039A
:103C80007000300030003000300030003000300074
:103C900030003000000000000000000000000000C4
:103CA000000000000000000000000000E003F0033E
:103CB000380E180C3800F003C007000C180C380E32
:103CC000F007E0030000000000000000000000001A
:103CD000000000008000C000C000C000F007F00736
:103CE000C000C000C000C000C000C000C000C000D4
:103CF000C007800700000000000000000000000076
:103D00000000000000000000000000001818181853
:103D10001818181818181818181818181818381CFF
:103D2000F01FE0190000000000000000000000008B
:103D30000000000000000000000000000C18180C3B
:103D4000180C180C30063006300660036003600360
:103D5000C001C001000000000000000000000000E1
:103D6000000000000000000000000000C141C1414F
:103D7000C3616363636363633636363636361C1C51
:103D80001C1C1C1C000000000000000000000000C3
:103D90000000000000000000000000001C38381C7B
:103DA000300C600660036003600360036006300C43
:103DB000381C1C380000000000000000000000005B
:103DC0000000000000000000000000001830301863
:103DD00030187018600C600CE00CC006C006800340
:103DE0008003800380018001C001F00070000000AA
:103DF000000000000000000000000000FC1FFC1F8D
:103E0000000C000600038001C000600030001800B4
:103E1000FC1FFC1F0000000000000000000000006C
:103E2000000000038001C000C000C000C000C0004E
:103E3000C00060006000300060004000C000C000B2
:103E4000C000C000C000C0008001000300000000EE
:103E500000008001800180018001800180018001DB
:103E6000800180018001800180018001800180014A
:103E700080018001800180018001800180010000BB
:103E800000006000C000C00180018001800180014D
:103E9000800100030003000600030001800180018F
:103EA0008001800180018001C000600000000000EE
:103EB0000000000000000000000000000000000002
:103EC000F010F81F080F00000000000000000000C4
:103ED00000000000000000000000000000000000E2
:103EE00000000000000000000102030406070809AA
:103EF0000000000001020304183F00080000002039
:103F000018000000BA2C0008303F000818000020FC
:103F100060050000CA2C000800000000FFFF000040
:103F20001000000001000000000000000024F40068
:04000005080001D915
:00000001FF
